:020000021000EC
:10200000C80A0020A53201009316030093160300AE
:10201000432D030093160300931603009316030049
:102020009316030093160300931603009316030000
:102030009316030004DF0300E52D0300931603004D
:1020400093160300931603009316030093160300E0
:1020500093160300931603009316030093160300D0
:1020600093160300931603009316030093160300C0
:10207000D9970100931603009316030093160300EB
:1020800093160300931603009316030093160300A0
:1020900093160300553D01009316030093160300A9
:1020A000931603009539010075390100931603005A
:1020B00093160300ADAA0200931603000DB50200AB
:1020C000EFAA0300EBAA0300EDAC020005AB03008E
:1020D000F3AA0300DDB40200F7AA03004DB5020025
:1020E0005D8C0200218E0200BDB502009316030034
:1020F0009316030093160300931603009316030030
:10210000931603009316030093160300931603001F
:10211000931603009316030093160300931603000F
:1021200093160300931603009316030093160300FF
:102130009316030093160300592B0100E3150300C7
:1021400082B030BF074BD3F8F030DB0704D5002353
:102150000193019B052B01DD02B07047019B013308
:10216000F6E700BF00ED00E0F0B5114A114C124E49
:1021700000F00105E3695F0713D40DB9334213D1B1
:1021800003EA00078F4207D10B4A1A40002A0CBF0E
:1021900000206FF00100F0BD013AEBD16FF00200BA
:1021A000F9E74FF0FF30F6E76FF00100F3E700BF0B
:1021B0008096980000000350020001000B4B70B5A0
:1021C000D96911F480310DD101244FF48072084E89
:1021D000084DF46020462C641A61FFF7C5FF346493
:1021E000EC6070BD6FF00100FBE700BF0000035022
:1021F00000100350002003504FF4003238B50F4B4D
:102200000F4C9A6641F671330122E569E3630D4B89
:102210000021DA60022360612120236105F480350A
:10222000FFF7A2FF10B92120FFF79EFF0122064B06
:10223000DA600DB10023E36338BD00BF00900050A9
:1022400000000350001003500020035070B5134CE1
:102250006061E3695B071ED40E4656F8043B8D1897
:10226000A361AE420BD10423002121202361FFF79B
:102270007BFF58B9BDE870402120FFF775BF0821EA
:102280000846FFF771FF10B10423236170BD56F8B3
:10229000043BA361E5E74FF0FF30F7E70000035090
:1022A0002DE9F84315464FF40032184B89469A66DB
:1022B00041F6713203F51C33DF69DA630122064609
:1022C00003F58053DFF84C8007F48037DA6055B9A6
:1022D000284601220E4BDA601FB10022A3F50053FD
:1022E000DA63BDE8F88306F5005404EA0804A41B89
:1022F000AC4228BF2C46494622463046FFF7A6FF8F
:102300000028E6D12644A1442D1BE0E700900050B0
:102310000020035000E0FFFF00000000000000006C
:10232000013800D0FCE77047002370B5404C0546EB
:102330008AB0E36318B1008823600EF04BF83D4883
:1023400027F071FE3C4E3D4B304633603C4B736092
:1023500024F07EFE0021304612F094FC32A3D3E933
:102360000023A062C4E9062324F07DFED4E90623FD
:1023700019431043C4E90601CDE900014FF0FF33D2
:102380004FF0FF32A06A27F0F5FE02224FF0FF3136
:10239000A06A27F0F4FE01200DF09CFD4FF40073BD
:1023A00000222849A06A27F04BFFB0F5007F39D101
:1023B00000239422079309933C23CDE9033205932C
:1023C000962306935023A06A03A9089312F06EFD8A
:1023D00035B3287C0EF0EAFA0546F0B9A06A28F079
:1023E00024F80EF091FA0DF057FD20B14FF48070F3
:1023F00000210AF0A9FC0DF05FFD20B14FF4006050
:1024000000210AF0A1FC24F0FEFE012027F0DFFDF0
:102410000D4A0E49A06A24F019FE28460AB070BD84
:10242000FF20D7E70725F8E70DD50155200000006C
:10243000380B0020690345EC201E00200DFD010033
:10244000301E0020201C0020F56F030035700300B3
:102450000348044B834202D0034B03B11847704733
:102460004C2C00204C2C002000000000064B07499B
:10247000C91A891048BF0131491003D0044B0BB170
:1024800001481847704700BF4C2C00204C2C0020FE
:102490000000000010B5064C237843B9FFF7D8FFC1
:1024A000044B13B10448AFF300800123237010BD27
:1024B000A8260020000000009C26040008B5054B5B
:1024C0001BB105490548AFF30080BDE80840FFF7A0
:1024D000CDBF00BF00000000B00D00209C2604000E
:1024E000A3F5803A704700BF174B002B08BF134B72
:1024F0009D46FFF7F5FF00218B460F461348144A0F
:10250000121A28F0A0FB0E4B002B00D098470D4B61
:10251000002B00D098470020002104000D000D483A
:10252000002802D00C48AFF3008019F015FC200001
:1025300029001EF0D8FF19F055FA00BF000008006E
:102540000000000000000000C80A0020C80A0020A7
:10255000E027002000000000000000000368894A16
:1025600023F47F4323F00703934273B505D0864AD3
:10257000934200F0AF8002B070BD844E304611F03F
:10258000A1FF054618B3824C8249206820F0EDF87F
:102590008149206820F0E9F81FF02CF81FF02BF893
:1025A0007E4B7F4A00937F494C23206820F0DDF862
:1025B0007D492B467D4A206820F0D7F8284600F058
:1025C0001FFC7B49206820F0D0F800BEFDE7022107
:1025D000307811F0B1FF044618B36D4D6D4928688D
:1025E00020F0C3F86C49286820F0BFF81FF002F80B
:1025F0001FF001F8694B6A4A00936A495123286821
:1026000020F0B3F868492346684A286820F0ADF8FE
:10261000204600F0F5FB6649286820F0A6F800BEC9
:10262000FDE7A022009003461146307811F062FFCA
:10263000054618B3564C5749206820F096F856497D
:10264000206820F092F81EF0D5FF1EF0D4FF534B07
:10265000534A009353495A23206820F086F8524980
:102660002B46524A206820F080F8284600F0C8FB2C
:102670004F49206820F079F800BEFDE7022130784C
:1026800011F06EFF054600283FF475AF404C4149FC
:10269000206820F06AF84049206820F066F81EF0B3
:1026A000A9FF1EF0A8FF3D4B3D4A00933D495E2324
:1026B000206820F05AF83C492B463C4A206820F01C
:1026C00054F8284600F09CFB3949206820F04DF86A
:1026D00000BEFDE72D4C0221207811F02DFF0546AC
:1026E00018B32B4C2B49206820F03FF82A4920686A
:1026F00020F03BF81EF07EFF1EF07DFF274B284A9E
:10270000009328496C23206820F02FF826492B4697
:10271000264A206820F029F8284600F071FB244959
:10272000206820F022F800BEFDE70221207811F099
:1027300017FF054600283FF41EAF154C15492068C9
:1027400020F013F81449206820F00FF81EF052FF13
:102750001EF051FF114B124A009312497123206859
:1027600020F003F810492B46104A20681FF0FDFFA7
:10277000284600F045FB0E4920681FF0F6FF00BE1A
:10278000FDE700BFA0000100A0000601262C0020EC
:10279000A00E002010DB030012DB030055DB03005A
:1027A00017DB030020DB03002FDB03002CDB03001F
:1027B00044DB03000022014B1A8070475C26002096
:1027C00010B52BF058F8054A148814B1631E012483
:1027D00013802BF04BF8204610BD00BF5C26002074
:1027E00030B503687E4A23F47F4323F00703934206
:1027F00089B040F0F380082200211220794B0FF0BD
:1028000021F8044618B3784D784928681FF0ADFFC9
:10281000774928681FF0A9FF1EF0ECFE1EF0EBFEC2
:10282000744B754A009375495C2328681FF09DFF1F
:1028300073492346734A28681FF097FF204600F02B
:10284000DFFA714928681FF090FF00BEFDE70146DE
:10285000032214206D4B0EF0F5FF044618B3624DB1
:10286000624928681FF081FF614928681FF07DFFD9
:102870001EF0C0FE1EF0BFFE5E4B5F4A00935F4934
:102880006A2328681FF071FF5D4923465D4A286866
:102890001FF06BFF204600F0B3FA5B4928681FF079
:1028A00064FF00BEFDE7014605221620584B0EF0DE
:1028B000C9FF054618B34C4C4C4920681FF055FF22
:1028C0004B4920681FF051FF1EF094FE1EF093FE4E
:1028D000484B494A00934949782320681FF045FF37
:1028E00047492B46474A20681FF03FFF284600F023
:1028F00087FA454920681FF038FF00BEFDE70DF15B
:102900000F0104A811F052FE044618B3364D3749A2
:1029100028681FF02AFF364928681FF026FF1EF09E
:1029200069FE1EF068FE334B334A0093334983231C
:1029300028681FF01AFF32492346324A28681FF0E0
:1029400014FF204600F05CFA2F4928681FF00DFFA5
:1029500000BEFDE7BDF8143001465BBAADF8183093
:102960009DF8133008228DF81A30FF238DF81B30A4
:10297000FE238DF81C309DF8123018208DF81D3084
:10298000BDF810305BBAADF81E3006AB0EF05AFF42
:10299000054618B3144C154920681FF0E6FE14498B
:1029A00020681FF0E2FE1EF025FE1EF024FE114BF3
:1029B000114A00931149932320681FF0D6FE104955
:1029C0002B46104A20681FF0D0FE284600F018FA67
:1029D0000D4920681FF0C9FE00BEFDE709B030BDFB
:1029E000A000010064DB0300A00E002010DB030048
:1029F00012DB03009FDB03006DDB030020DB030021
:102A00002FDB03002CDB030044DB030095DB03001A
:102A100099DB030008B504F0B7F801280ED1124B7A
:102A200004205A6E4FF480231049520358BF104AB5
:102A30004B6601F51041086258BF536605F096FDDC
:102A400000F066FB1FF040FE05F06CFD1FF02DFE50
:102A500006F026F900F050FB00F0B4FC02F05EFC3A
:102A6000BDE8084006F0BABC00800050009000505D
:102A700000A00050064B1B681A7A022A04D812B133
:102A80001B68044A13607047032AF9D0704700BFDF
:102A9000CC290020C80D002030B51A4D8FB007ACEE
:102AA0000FCD0FC495E8070084E807000E2200212F
:102AB0000DEB020028F0C7F84FF48012124B01A969
:102AC000CDE901233E238DF80C303F238DF80D30E6
:102AD0000E4B07AA04932023059301230C488DF87D
:102AE00019300C4B05F012FE04469DF81A304FF4D5
:102AF000E130002B0CBF032100211EF0BBFD20465E
:102B00000FB030BD00DE03003400035AA9260020B8
:102B10003C0E0020CC0D002029B9074B1868036833
:102B20004BB106F07BB8022905D8034B186803683F
:102B30000BB120F05CB87047E029002008B50449CB
:102B4000044806F023FCBDE80840FFF7A5BF00BF1E
:102B5000E4290020600E002001481FF027BE00BFBE
:102B60003C0E0020014B1A6A186810473C0E0020EA
:102B700001481EF0AFBD00BF1CDE0300184B37B587
:102B800083422BD1174B1B7843B3C8B211F0FCFC26
:102B9000054618B3144C154920681FF0E6FD14498A
:102BA00020681FF0E2FD1EF025FD1EF024FD114BF4
:102BB000114A00931149852320681FF0D6FD104962
:102BC0002B46104A20681FF0D0FD284600F018F967
:102BD0000D4920681FF0C9FD00BEFDE703B030BD00
:102BE000680E0020C9260020A00E002010DB030084
:102BF00012DB0300A5DE030034DE030020DB03004C
:102C00002FDB03002CDB030044DB030030B5002581
:102C100003685A4A23F47F4323F0070385B09342A5
:102C200004460295ADF80C5000F0818002F5802238
:102C300093420ED0A2F18272934240F09C80504B9E
:102C40001B78002B00F0978005B0BDE8304020F0E5
:102C5000BCB8B0F805301B2B40F08D80FF2304A9D1
:102C60001A4611E903001EF0BEFC012814BF41F210
:102C7000FC15434B05F0FC0208BF18701B2120799E
:102C80000EF0F6FD054618B33E4C3F4920681FF094
:102C90006CFD3E4920681FF068FD1EF0ABFC1EF085
:102CA000AAFC3B4B3B4A00933B49592320681FF049
:102CB0005CFD3A492B463A4A20681FF056FD2846EB
:102CC00000F09EF8374920681FF04FFD00BEFDE779
:102CD000354900902379354A0968354800F0ECF809
:102CE0000546002847D0274C274920681FF03DFDA6
:102CF000264920681FF039FD1EF07CFC1EF07BFC8D
:102D0000234B244A00932449622320681FF02DFDA1
:102D100022492B46224A20681FF027FD284600F052
:102D20006FF8204920681FF020FD00BEFDE7B0F8D5
:102D30000530B7EE047A07EE903AF8EE677AB0F80D
:102D4000073067EE877A013307EE103AB8EEC77A9C
:102D500067EE877AB1EE047A67EE877AFAFE677AD1
:102D6000FCEEE77A17EE903AB3F57A7F38BF4FF46E
:102D70007A730D4A136005B030BD00BFA000060293
:102D8000C9260020A00E002010DB030012DB030088
:102D9000B4DE030034DE030020DB03002FDB03007E
:102DA0002CDB030044DB0300EC2900207D2B010019
:102DB000680E0020012208B5074B1A700022074B4D
:102DC0001A700422064B1A701F22064B1A7005F067
:102DD0002FFC054B186008BD292C0020CA260020B6
:102DE000282C0020272C0020A00E0020024B034995
:102DF00018681FF0BABC00BFA00E0020D4DE03008C
:102E000070B50C4C0C49064620681FF0AEFC05F06E
:102E10000FFC0546206805F0FFFB3046FFF7E6FF94
:102E2000284605F0F9FB20680449BDE870401FF012
:102E30009CBC00BFA00E0020D6DE0300D8DE03003D
:102E400038B505462AF020FD00230B4A14685CB112
:102E5000AC4206D1A96A6BB199622AF010FD01203B
:102E600007E02346A46AF2E7002DF3D02AF007FD1D
:102E7000204638BD1160F0E7A40E002010B50446CE
:102E8000B0B12AF069FA2046FFF7DAFF10B194F8E2
:102E90002C300BB9002010BD064C2368002BF9D054
:102EA0002AF0F2FC2368013B23602AF0E8FCF1E7FA
:102EB0002220F0E7A80E00202DE9F04385B005465A
:102EC000914698460E469DF8307009B9002F5CD1A6
:102ED0002846FFF7D3FF0446002836D185F82C009A
:102EE000686306F033FC864233D92AF0C9FA2146DA
:102EF000844640F2E7304FF47A720023E6FB0C017F
:102F000018F0E0FB4FF0FF32002318F0DBFB2B46FC
:102F1000E88611462846CDE900441D4A2AF088FD7E
:102F2000044690B9C5E9089885F82D702E632AF0FB
:102F3000ABFC184A136833B31A469B6A002BFBD1CB
:102F400095620023AB622AF09AFC204605B0BDE8EA
:102F5000F08347B12B4631462846CDE900440C4A60
:102F60002AF0E0FADCE7304603A92AF08FFA04469B
:102F70000028EAD12B462846CDE90077044A039978
:102F80002AF032FDCCE71560DBE72124DDE700BF46
:102F9000992F0100A40E002091F82C3013B50C4697
:102FA00083B98B8ECA8E93420ED243B9CDE90033DA
:102FB00020460B46124A4FF0FF312AF0F9FCA38E4F
:102FC0000133A38602B010BD52B191F82D3093B1F8
:102FD00001230093D1E908232046096BFFF76CFF1A
:102FE000012384F82C30074B1A6801321EBF1A687F
:102FF00001321A60E6E708462AF0AEF9F0E700BFB2
:10300000992F0100A80E00202DE9F041154E3368DC
:1030100033B34FF00008144F2AF036FC05463C68E5
:1030200024B92846BDE8F0412AF029BC94F82C3098
:10303000A3B1336884F82C8013B13368013B33604B
:1030400094F82D3013B92046FFF7FAFE28462AF0EF
:1030500016FCD4E9083120469847DDE7A46ADFE78B
:10306000BDE8F081A80E0020A40E0020034B1B68D1
:10307000002B14BF04200120704700BFA80E0020C1
:10308000024B1868B0FA80F040097047A80E002083
:103090007FB54FF480630022ADF80430ADF80830FE
:1030A000ADF80C30134B08281B88ADF81420ADF890
:1030B000103019D007DC01280CD0022811D00E20C6
:1030C00007B05DF804FB202811D04028F7D1042177
:1030D00005A802E004210DEB010000F0BBFA00207E
:1030E000EEE7042102A8F8E7042103A8F5E704218C
:1030F00004A8F2E7DBDE030008B504481FF0DCFAA1
:103100001EF027FABDE8084000F01CB890E003006C
:1031100001481FF0D1BA00BF90E0030007B50820B6
:103120001EF03CFB02238DF80030054B68460193EE
:103130001EF064FA082003B05DF804EB1EF039BB02
:10314000006A18102DE9F043494E4FF00209354648
:103150008DB005AC0FCD0FC495E807000125B38BEA
:10316000DFF82081ADF80430F38B368C84E807005B
:103170004048414FADF80830ADF80090ADF80C6014
:103180001FF09AFA40461FF097FA3C4B384605A9C3
:1031900007938DF8225003F031FD2A46042168463A
:1031A00000F058FA2946002201A800F053FA2A46F6
:1031B000042102A800F04EFA2A46042103A800F0D8
:1031C00049FA4FF002132E4C4FF44870C4F83036D1
:1031D000A3F58033C4F82C361C23C4F83496C4F805
:1031E0001C3606F013FB04A8ADF8106000F092FA4C
:1031F000142006F00BFB04A8ADF8106000F05EFA96
:10320000232006F003FB04A8ADF8106000F082FA5A
:10321000B92138461FF07DF804A8ADF8106000F021
:103220004DFA00226846114600F014FA002201A867
:10323000114600F00FFA2A46002102A800F00AFA0F
:103240002A46002103A800F005FA384603F0AEFC38
:1032500000234046C4F81C36C4F83036C4F82C3677
:10326000C4F834361FF02BFA0DB0BDE8F08300BF70
:10327000E0DE030090E0030000C0055000127A0079
:1032800000C0035088E003000348044A0449121AAE
:1032900092101EF0FFB900BF402101002023010061
:1032A000E027002008B500F02FF8FFF7EDFF124BE4
:1032B00012498B4212D30020114B12498B4218D372
:1032C000FFF712F9186850F82240586840F8224079
:1032D000013298688242F5D30C33EAE70022F8E71E
:1032E0001C6844F8220001325C68A242F8D308331B
:1032F000E4E70022F8E700BFA4260400B02604009B
:10330000B0260400B02604004FF40041134B144AC9
:1033100070B59A60D3F88820124D42F47002C3F859
:103320008820114A05F5005491664FF0FF3222665D
:103330004FF6DF7262660222C3F8D020BFF34F8FD0
:10334000BFF36F8F4FF44036032005F057F9032089
:10335000E66005F037F92E6170BD00BF00ED00E0BA
:10336000002001000080004400900050014B1860D4
:10337000704700BFF4290020054B1860054B1B6FF8
:1033800003F00703032B01D129F024BB704700BFD2
:10339000FC2900200080005000239B6AB3F5903F79
:1033A00003D21968064A914203D000230370836058
:1033B0007047012202709A689B694260F7E700BF7C
:1033C00007B0CD5E00239B6A10B5B3F5903F11D2D4
:1033D00019680A4A91420DD1094C227812F0FD0F6A
:1033E00001D0002010BDDB6998470028FAD10123E5
:1033F0002370F6E74FF48170F4E700BF07B0CD5EAD
:10340000CB260020024B034A1A601FF05FB900BFB1
:103410000000002002020FF0BFF34F8F0549064B5A
:10342000CA6802F4E0621343CB60BFF34F8F00BF62
:10343000FDE700BF00ED00E00400FA0530B50568C7
:1034400087B0AB8804461848ADF80C301FF034F94B
:103450000022012103A800F0FDF80DF10B0103A8E3
:1034600000F084F99DF80B3083F001032B70AB79E9
:10347000022B15D14FF0FF330022CDE9043304A90C
:103480000A4B009403A800F021FA049B0094013336
:103490000CBF04220122054B05A903A800F094F9F2
:1034A000002007B030BD00BF90E00300E11603002C
:1034B000002307B5294801931FF0FEF84FF440732D
:1034C000012204216846ADF8003000F0C3F8012263
:1034D000234B0520C3F8442401A92AF0E9F9002868
:1034E00039D1204BD3F8F02042F00102C3F8F0208C
:1034F000D3F8FC2042F08072C3F8FC201A4AA3F5EE
:103500005D431A60019B194A03F5D52303F2FC437E
:10351000B3FBF2F3164A013B13610223C2F8F03009
:103520004FF48073C2F804334FF06043114AC3F87C
:10353000B02F114AC3F8802ED3F8002E42F48072C7
:10354000C3F8002EFF2283F82020D3F8002E22F4A7
:103550008072C3F8002E03B05DF804FB90E0030016
:1035600000D0035000ED00E0FF030040F8590D00CB
:10357000000004E055CEACC5090001004FF06043E7
:10358000D3F8802E30B5D20715D501240B4D8440D9
:10359000D5F8FC2042F08072C5F8FC20D3F8002E4C
:1035A0002243C3F8002E53F82020002AF0D003F85D
:1035B0002010002030BD1120FCE700BF00ED00E02E
:1035C0002DE9F04104460C254FF00108124E0CB3D2
:1035D00014F001000BD0002024F0010405FB006270
:1035E0005768002FF3D09168C0B2B847EFE7224682
:1035F000013020284FEA520201D0D307F8D508FA4B
:1036000000F20F2824EA0204E8D9103805FB006212
:10361000B432E5E7BDE8F081AC0E002008B50C48F7
:103620001FF04AF8192004F0DBFF28B1192004F03C
:10363000E5FF192004F0C6FF1A2004F0D1FF28B1DD
:103640001A2004F0DBFF1A2004F0BCFF002008BDA4
:1036500090E003002DE9F0410E461746054610B3F1
:103660000F2922D80378DBB1013BDBB2022B1CD837
:10367000104AD35C6A78D340DB0716D50E4BD3F8DB
:103680001043A4B92AF000F980463A46284631464C
:1036900003F026FB40462AF0F2F82046BDE8F08110
:1036A00040F2FF13E6E72224F7E72124F5E702249E
:1036B000F3E700BF54DF030000C0035010B5044619
:1036C00008B30378E3B1013BDBB2022B1DD8104AEB
:1036D000D35C6278D340DB0717D52AF0D5F80122F6
:1036E000617823788A4030214B4341F2100103F185
:1036F000A04303F570335A502AF0C1F8002010BDE2
:1037000040F2FF13E5E72220F9E72120F7E700BFA9
:1037100054DF030010B5044608B30378E3B1013B5E
:10372000DBB2022B1DD8104AD35C6278D340DB0792
:1037300017D52AF0A9F80122617823788A40302130
:103740004B4342F2100103F1A04303F570335A508A
:103750002AF095F8002010BD40F2FF13E5E7222083
:10376000F9E72120F7E700BF54DF030038B50D4625
:10377000044610B309B30378E3B1013BDBB2022B7B
:103780001DD8104AD35C6278D340DB0717D52AF0E6
:103790007BF830222378534303F1A04303F57033C1
:1037A0005B696278D34003F001032B702AF067F85D
:1037B000002038BD40F2FF13E5E72220F9E7212081
:1037C000F7E700BF54DF03002DE9F0410D46164630
:1037D00098460446002851D000294FD00378002B8A
:1037E00042D05A1ED2B2022A03D9FF2B07D0212081
:1037F00042E0234B9B5C4278D340DA07F7D5022E98
:1038000001D9042EF3D12AF03FF823780746FF2B85
:1038100005D032462046296803F0A8FA28602B68B4
:10382000013309D12378FF2B06D1164B6078D3F8EA
:1038300024141EF095FD286029684B1C18D00C2319
:10384000114A03FB0122069BC2F80480936023788F
:10385000FF2B04D001230D4A8B40C2F82434384694
:103860002AF00DF8002007E040F2FF134278C3E78A
:1038700038462AF004F82D20BDE8F0812220FBE72D
:1038800054DF030000C00350AC0E002000D00350F2
:103890000F2810B5044613D829F0F6FF0123094A72
:1038A000A340C2F82034C2F824340C22064B02FB99
:1038B00004330024C3E9014429F0E1FF204610BD90
:1038C0002120FCE700E00350AC0E00202DE9F04180
:1038D0000D4690461F460446002842D0002940D09D
:1038E0000378002B33D0591EC9B2022903D9FF2B0C
:1038F00007D0212033E01C4B42785B5CD340DA07D1
:10390000F7D529F0C1FF23780646FF2B05D04246A4
:103910002046296803F0B0FA28602A68531C1AD0A0
:103920000C23124903FB0211069BC1F8B870C1F8C1
:10393000BC302378FF2B05D00123103293400C4A72
:10394000C2F82434304629F09AFF002007E040F204
:10395000FF134278D2E7304629F091FF2D20BDE8D1
:10396000F0812220FBE700BF54DF0300AC0E0020F3
:1039700000D0035008B503F099F9054B00F055301D
:1039800020F05020C3F82004BDE80840FFF718BE1F
:1039900000E0035008B503F089F9054B00F0AA30A8
:1039A00020F0A020C3F82004BDE80840FFF708BEBF
:1039B00000E003502DE9F04F9A46564B85B01B7836
:1039C00006460F461546DDF83C909DF844B0DDF8FC
:1039D0005080002B00F09780072A00F296800E9B03
:1039E000002B00F09280B9F1000F00F08E80129B46
:1039F000B3F5006F00F38980012803D1109B002BE1
:103A000000F08380444B03EB05131B7B002B7ED01F
:103A1000424C10220021684627F015F904EB4514AA
:103A20001022A7BB3946204627F00DF943F21003B8
:103A30006380BBF1000F03D1E37843F00303E3702D
:103A4000364A0E9B02EB451CCCE90193129B69019F
:103A5000581E9DF84C30C0F30A0003F003039B0688
:103A600043EA001E53582E48012E00EA03004EEA96
:103A70000003CDF800A0535017D0B8F1000F2ED19D
:103A80009CF8023068F304138CF8023027E0002120
:103A9000204627F0D8F84FF444736380BBF1000F41
:103AA000CED1E37843F03003C9E713230CF1100EB5
:103AB000CCF80C309CE80F008EE80F006FF003018B
:103AC000DCF81C20109B61F39F02012FCCF81C2016
:103AD000CCF8143003D1CCF81890CCF8043000277F
:103AE0000D4A290102EB051342F80180159A284678
:103AF0005A60694622469F605E7302F015FF3846A1
:103B000005B0BDE8F08F0748FAE70748F8E707482F
:103B1000F6E700BFCC26002014110020141000206E
:103B20000F80FFF3028000F0018000F0078000F0BA
:103B300038B5124B05461B78DBB1E0B129F0A4FE85
:103B40000F4A00231146147B54B92B6001251A013A
:103B500001EB03131D738C5029F091FE204638BDF4
:103B60000133082B02F11002EDD129F088FE05483F
:103B7000F5E70548F3E70548F1E700BFCC2600204C
:103B800014110020048000F0028000F0018000F099
:103B900038B529F079FE002305460B4A147B6CB931
:103BA0000133082B02F11002F8D102F069FE074B35
:103BB00028461C7029F063FE204603E0284629F0C1
:103BC0005EFE034838BD00BF14110020CC26002043
:103BD000058000F00D4B10B51B78044693B1072803
:103BE00012D829F051FE0A4B03EB04131A7B2AB1B9
:103BF00000241C7329F043FE204610BD29F03FFE2F
:103C00000448FAE70448F8E70448F6E7CC26002021
:103C100014110020068000F0028000F0018000F006
:103C2000154B13B51868002301908DF8043029F066
:103C30002BFE124B1C7824B129F021FE104802B053
:103C400010BD01221A7029F01AFE0E4B01A81C7338
:103C50001C7783F82C4083F83C4083F84C4083F871
:103C60005C4083F86C4083F87C4008238DF8073073
:103C700002F02AFE2046E2E757DF0300CC260020B0
:103C8000038000F014110020F8B50D4D2D7885B19A
:103C9000072810DC0B4D060105EB0014277B67B1EC
:103CA000AB510025069BA560636002F03DFE2846EF
:103CB000F8BD0548FCE70548FAE70548F8E700BF06
:103CC000CC26002014110020028000F0018000F0BA
:103CD000078000F00A4A08B512785AB107280BD8B5
:103CE000084A02EB00131B7B43B1002102F0DEFD0A
:103CF000002008BD0448FCE70448FAE70448F8E758
:103D0000CC26002014110020028000F0018000F079
:103D1000078000F00A4A08B512785AB107280BD874
:103D2000084A02EB00131B7B43B1012102F0BEFDE8
:103D3000002008BD0448FCE70448FAE70448F8E717
:103D4000CC26002014110020028000F0018000F039
:103D5000078000F0184B2DE9F0411F6D5B6D1F408F
:103D600000D5FEE701260025144CDFF858803742C5
:103D700018D02368C8F85060A3B1A1682846013163
:103D80006268A1609847637B012B0BD150B90C4B43
:103D900003EB45131A7B60F341021A731A7F60F339
:103DA00041021A770135082D4FEA460604F1100446
:103DB000DDD1BDE8F08100BF0000045014110020E7
:103DC00014100020002004502DE9F04F1446064640
:103DD0000D469B46C36B87B001225B6902A96068F0
:103DE0009847F36B01225B6903A92846984702A80C
:103DF0001EF0FAF8074648B10023A37563754FF02B
:103E0000FF33A360002007B0BDE8F08F03A81EF0C9
:103E1000F8F80123A375237E04EBC303DD611F843F
:103E20006368AB420ED1206003A81EF00CF94FF07E
:103E3000FF332075A360237D043B022B26D800238B
:103E4000A375DFE723681A1A53425341A37503A8E9
:103E50001EF0F9F8237D834218BFA77503A81EF052
:103E6000D4F8074602A81EF0D0F8874218BF0023F6
:103E700003A818BFA3751EF0D0F8074602A81EF0CD
:103E8000CCF887421CBF0023A375D4E703A81EF01B
:103E9000BCF880B1F36B022228465B6904A99847FD
:103EA00004A81EF0C1F80346207D032839D8DFE8B6
:103EB00000F03838040903A8F3E7CC22237E04EB92
:103EC000C3031A8401F0A2FA109B187003A8277E7E
:103ED0001EF08FF804EBC70787F82200237E03A8A3
:103EE00004EBC303B3F8209093F822701EF08DF812
:103EF000804603A81EF091F88246B8F1000F15D055
:103F0000F36B022228465B6904A9984704A81EF0B7
:103F100050F86075637D6BB90023A3754FF00008FE
:103F200038E0227E04EBC2021384CBE703A81EF024
:103F30002BF8EEE794F81680B8F1000FEED0B9F147
:103F4000000F09D1DFB10123627EE375002A44D15D
:103F50009F4218D1677614E0736C05EB0A02594250
:103F600085EA020008421CBF0021A175591E0A40C3
:103F70009B1A9945D0D8A37D002BE3D1CEE7E37DF2
:103F800043B94FF000084B465246294630461DF0D3
:103F900069FDA060A27D12B123694B4423611449DD
:103FA000237E097899421ED901332376BBF1000F95
:103FB0001BD0D2B1E37DC3B1B8F1000F15D1032FEF
:103FC00013D0A1684B1C10D0109B224600933046A2
:103FD0000123FFF7F9FEA07507E0012FDAD0032FC8
:103FE00008BFA376CDE70023A375A07D0BE700BF34
:103FF0007CDF03002DE9F04F0E46984600238BB07E
:1040000004464FF0FF31104617468DF8133001F08B
:10401000E7F9B6F5801F3BD3B21C53D1E56A6B1CA0
:1040200057D12046616A1DF063FC0546B31C18BFDA
:104030000123DFF810910193636A626C0293236895
:1040400005A902FB053AE36B05225B6950469847D8
:1040500005A81EF064F81EF087F850461EF08FF891
:104060004FF0000B824601464B1C05D0636C81EA81
:104070000A025B42134232D0294620461DF038FC2A
:10408000029BAB424DD0BBF1000F4DD10546D3E7AB
:10409000314605AA04F108001DF0F4FE0146481C53
:1040A00010D0384601F09CF90122394620460DF126
:1040B00013031DF029FD28B19DF8133088F8003056
:1040C000002003E0237C002BA8D12D200BB0BDE8FD
:1040D000F08F2368ED1A636CB5FBF3F5A6E748464D
:1040E00001F07EF90DF1130349462046019A1DF0B7
:1040F0000BFD034690B1B21C03D0D9F80020B242A8
:104100000CD19DF8132003930D4B88F800204946ED
:104110001A68384626F0A2FD039B9B46D9F8081082
:10412000A2E7BBF1000FD0D0B6F5801FC8D2314650
:1041300098F800307A6804F1080001F07FF8BFE7D2
:1041400078DF0300081800202DE9F34104461746E4
:1041500098460E46194D816AE36A8B422AD04B1C61
:1041600018E0284601F03CF90122294620460DF1CD
:1041700007031DF0C9FC30B14346294620469DF88F
:104180000720B847B0B1A9684A1C05D0012E0AD053
:10419000E36A9942E5D10DE0696820461DF035FCDF
:1041A000012E0146D8D16B6881EA0302636C5B4241
:1041B0001A42D1D002B0BDE8F08100BFDC17002068
:1041C0002DE9F041036B9046826B07689A4288BFE5
:1041D0008363426C436A90B002FB0377C36B0E4665
:1041E000052201A95B6904463846984701A81DF0DD
:1041F00096FF01280146307057D0656CE26B23684A
:10420000606AD2F814C005FB0030052206A9E04719
:1042100006A81DF084FF01284FF0000523D0D4E943
:104220000A3201219342CDE90B458DF834800E9579
:104230008DF83C102AD1194620461DF0E6FB236B71
:10424000626C14339B1AE06223630C9B53B99DF894
:104250003C303BB1626A616C2368E06B01FB023168
:104260001DF015FF0C9DE36B05225B6901A9384623
:10427000984701A81DF053FF30702846236BA26BAE
:104280009A4288BFA36310B0BDE8F081237C33B9A4
:104290001C490BAA04F1080001F01EF8D5E72046DE
:1042A000194A0BABFFF750FFCFE7237C23BB224615
:1042B000164904F1080001F00FF8616A20461DF06C
:1042C00038FB616A421C20461DF001FB054620B9FF
:1042D000236B626C1344143B23632046A16A1DF0D8
:1042E00094FB2368A062C01A636CB0FBF3F06062B9
:1042F00020461DF0CDFBB6E700232046044AFFF719
:1043000023FFDAE7D54A0100514A0100911B03005F
:104310002D1B030073B50D46D11E4A421C461B7E61
:104320004A419A4226D129682368994222D3636878
:1043300099421FD8114E0DF107033246FFF75AFE7E
:10434000C0B972686B689A4214D19DF80730DA1EC2
:1043500053425341227E93420CD16369013363611E
:10436000D4E90323934205D22968A26842F82310B6
:1043700001332361012002B070BD00BF341800205A
:104380002DE9F04F9A468BB09DF85030DFF850B1D0
:104390000293DBF81030804653450D461646C0F0B8
:1043A0009980D146DBF804300193B9F1000F00F099
:1043B0008D80D8F83C3001225B6907A901989847A5
:1043C00007A81DF01EFEDBF80030984240F0858003
:1043D00007A81DF022FE0428074614D107A81DF0E7
:1043E00023FE019B029A04463B44002A3FD18642A9
:1043F00012D91446361A404601991DF006FBA9EB66
:1044000004090190D1E7D8F83C3002225B69019899
:1044100008A9984708A8E2E7841B544528BF5446DA
:10442000032C03EB0607AAEB040A4FEA94021CD9FB
:10443000D8F83C30294638465B69984724F0030396
:1044400004F003061F441D44002ED4D0D8F83C309D
:1044500001225B6908A9384698473246284608A9D0
:10446000354426F0FBFB0026C5E72646ECE7074669
:1044700000F00302039203442A1804920593049B5C
:10448000DD1B059BD81B039B9F420FD1002FB2D091
:10449000D8F83C30012208A95B6998473A4628467B
:1044A00008A926F0A6FB78B93D44A4E7D8F83C302B
:1044B000012208A95B6998470422284608A926F02A
:1044C00098FB08B9043FDAE74FF0360948460BB0CD
:1044D000BDE8F08F4FF06309F8E74FF06F09F5E79B
:1044E000601800202DE9F0410F4616469846044614
:1044F00088B060B390F83450FDB101211DF0BDF9D2
:1045000000210E9BCDE90511CDE902379DF83C3025
:10451000CDF804808DF81C30237C04968BB90D49AE
:1045200001AA04F1080000F0D7FEDDE90553E06BB5
:10453000002E08BF1D461DF039FB284608B0BDE817
:10454000F0812046044A01ABFFF7FEFDEDE705468A
:10455000F3E700BF5B1B0300154301002DE9F04F9B
:1045600099B00F4609920A69416C0E931439D31D14
:10457000B3FBF1F3013302EBC302036B0446934236
:10458000C0F00D820023DFF820940D93E36A4846C3
:104590001946079300F024FFD7E9033604930E9BD6
:1045A000022B4ED1CC2E40F08A81099B002B42D0A9
:1045B000394620461DF058FB656C079A6B1E134068
:1045C0001490ED1AE36B01225B6916A9786898478D
:1045D00016A81DF01AFD00280CBF04230823782E0E
:1045E00006933DD9012300254FF0080A05933B6847
:1045F00005990E98C9F80030C9F810601DF027FD24
:104600004FEA9A0310930023DDF81CB089F81400D8
:104610000B930F9308930C93616C4A1E0BEA0202F2
:104620008B1A002E38D05544AB4240D8236B5B1A0E
:1046300013442363ABE0049B1B6814930823069385
:10464000D0E7656C079A6B1E1340782EA5EB030527
:1046500016D8FB7D7BB9099B002BB3D104230693AD
:10466000331DAB4210D9A6B1082DBBD804250023B9
:10467000AA460593BBE7099B002BA3D10823EEE7CD
:10468000099B002B9ED1D9E7002505954FF0040A20
:10469000ADE704250596F9E75345C7D3B0460BEBC4
:1046A0000A030393089B002B18BF032313E0A3EB1B
:1046B0000A039E42B0460BEB0A0228BF98469E4270
:1046C0000392EFD90123D9F8102089F817309642C8
:1046D00071D1C9F804B0089399F81730002B6CD049
:1046E00099F818200899D31C09EBC3030132C3F8C9
:1046F00004B0A3F80880997289F81820B8F1000F67
:1047000014D00E9B022B5BD10B9B7BB90F9B4344B8
:10471000032B0BD9E36B01229B69039814A99847DB
:104720000546002840F03D8101230B93089B16A805
:104730000193059B009399F814204346396800F0D3
:1047400005FEE36B58469B69109A16A99847051E0B
:104750000D9B18BF5B4652460D9359464346204673
:104760001DF080F9236B08F10302A3EB0A0322F08A
:1047700003029B1AC9F808002363002D40F0118141
:104780000F9BDDF80CB04344A6EB08060F93594687
:1047900020461DF03AF900258346002E7FF43CAFF9
:1047A000814A3968936804F10800E36252680E9BFD
:1047B00000F044FDDEE002238DE7C9F804B09DE778
:1047C000099B002B30D1049BB8F1030F43440A939B
:1047D00027D9DDE90301E36B4FEA98029B6998470B
:1047E0000546002865D118F003025FD0049B28F02D
:1047F00003052B440493039B1D444FF0FF3304999E
:1048000015A8159326F02AFAE36B28469B69012226
:1048100015A9984705460A9B0493002D86D0039B53
:1048200099E74246039DE8E7039B0A9307F12003BB
:104830001193FB7D78689BB100233D7E0C9AD9B221
:104840008D4211D9119903F1010C31F833109142C5
:1048500026D9069907EBC303D8690A44104403E03C
:104860000C9B069A13441844E36B01225B6915A95B
:104870009847159B012213930C9B0A9804330C93C1
:10488000E36B13A99B699847039B0A9A43449B1ABD
:10489000042B054607D978B9134604330A93C8E7B1
:1048A0006346521ACBE70A9B0393B6E70A9B04932D
:1048B0003CE70A9B0493B2E70A9B0393AFE7702699
:1048C00004F1080303932368079A606CA2EB030AC0
:1048D000BAFBF0FA00FB0A301DF051FCE16A804699
:1048E00020461DF092F8A26A82424AD0626CD9F842
:1048F0000830511E0B40216B2568891A0B44236335
:104900000D9BE0625D1BB5FBF2F5AA4536D1079B16
:10491000B3EB080A12D0E36B4FEA9A0241469B6957
:1049200098478346E36A079A5344E362236B0398EC
:104930009B1A434423631DF076FADA462368616CC0
:10494000E06B01FB05311DF08FFB20461CF0A0FF42
:1049500020461DF09DF82063BAF1000F11D03A698E
:10496000616CD31D1439B3FBF1F3013302EBC302C5
:104970009042A8D2304619B0BDE8F08F4FF0000A3F
:10498000DCE73A69616CD31D1439B3FBF1F30133F1
:1049900002EBC302236B9342BFF4F8ADEAE71C2697
:1049A000E8E72E468CE700BF081800202DE9F34702
:1049B0001E4643690446B342884617469DF8289030
:1049C0003DD300258DF8075020461CF02DFFD4F86C
:1049D00030A082450AD2236AB5EB430F06D20022EB
:1049E00020460DF10701FFF7EBFB30B39DF80730D0
:1049F000012B05D1002220460DF10701FFF7E0FB56
:104A0000B9F1030F06D0314620461CF0F8FE256BA5
:104A1000854218D30D4D4FF0FF31284600F0E0FCE1
:104A20004B46002229462046C5E90376C5F800809A
:104A300002B0BDE8F047FFF791BD0135C4E7622041
:104A400002B0BDE8F0871C20FAE700BF3418002050
:104A5000032A2DE9F34106460D4617461C4606D1AA
:104A6000237A012B23D0012002B0BDE8F081DFF8CA
:104A70006080096842460DF10703FFF7BBFA6060EA
:104A80000028EDD19DF80720237A032AE8D0D8F832
:104A900004106A689142E3D1012B2969D4F80CC053
:104AA00007D172690CEB0103934202D92074207C78
:104AB000DAE708316144E1603B460122294630468D
:104AC000FFF74CFD60600028CAD00020CCE700BF93
:104AD000341800202DE9F341089C032A1746266864
:104AE00006D1237A012B24D0012002B0BDE8F08149
:104AF000DFF89080304642460DF10703FFF77AFA5F
:104B000060600028EDD12568D8F80400A96AD5F8BE
:104B100044C04840CCF100031840227AE1D1012A78
:104B200009D1E268D8F8103013447269934202D96F
:104B30002074207CD9E72868EB6A1B1A081AB3FB9B
:104B4000FCF3B0FBFCF083420BD1706CF36A421EA5
:104B50001340326B121A1344284633631CF055FF7E
:104B6000E862D8F81020E36808321344E3600122B9
:104B70003B4604492068FFF7F1FC60600028B0D094
:104B80000020B2E7341800202DE9F04F4FF0FF333A
:104B90004FF6FF720025044600F10806C0E909231C
:104BA0008BB0C3620562056330460F461DF03BF9CA
:104BB00020461CF06DFE20BB204639461CF0E8FE66
:104BC00020461CF065FE20BB5E200BB0BDE8F08FD8
:104BD000E26B2368606CD2F814C000FB053005223C
:104BE00005A9E04705A81DF09AFA012828D1294611
:104BF00020461CF09EFE421C294620461CF067FE03
:104C00000135E3699D42E3D320461CF041FE0028B4
:104C1000D2D000254FF0FF394FF6FF73CA46A846A1
:104C2000C4E90853E369984514D3A5EB0905012DA0
:104C300036D84FF6FF72636A934246D16720C4E7C5
:104C40001DF097FA0028DBD0294620461CF071FEA3
:104C50000246D1E72368E26B606C576900FB0830BD
:104C6000052205A9B84705A81DF059FA834605A8ED
:104C70001DF02CFA074658461DF076FA68B15745E4
:104C800038BFC4F82480B94528BFB946BD4238BFF3
:104C90003D46BA46236A0133236208F10108C1E7A1
:104CA0004FF6FF7300256362E3699D42C1D2676CD2
:104CB0002068E36B052207FB05005B6905A998479F
:104CC00005A81DF003FA0135EEE7E26B676C20687A
:104CD000694607FB030055690522A84768461DF091
:104CE000F5F9626A2368606C504D00FB02301DF0DC
:104CF00046FA4FF0FF33A062E3622A466FF00101EB
:104D0000204605ABFFF776F900284FD1AD6829465C
:104D10002046E5621CF098FD206320B92046E16A38
:104D20001CF073FEE062294620461CF06EFE05462C
:104D3000A36A9D423CD16569626CE91C143AB1FBDF
:104D4000F2F14FF0000805EBC1050335B5FBF2F5B4
:104D5000C1460235E36999453CD3A8455AD220465D
:104D6000616A1CF0C5FD0027064604F1400AB845FB
:104D700012D8626C2368694602FB0639E36B052290
:104D80005B694846984768461DF0A0F953460246BD
:104D90004946E06B1DF0F5F9314620461CF0A8FDB0
:104DA0000137AF420646E2D364200EE7A56AAEE7BC
:104DB000294620461CF048FD236B2946034407463C
:104DC000236320461CF021FE0546002FB0D1C4E924
:104DD0000B07ADE7636C2768052203FB0977E36BDC
:104DE00005A95B693846984705A81DF098F91DF09C
:104DF000BBF960B138461DF0C2F9014620461CF0EF
:104E000023FD636C143B984208BF08F1010809F1C7
:104E100001099FE730461DF006F800232046194699
:104E2000034AFFF791F90020CFE600BF34180020B5
:104E3000F71A03000023624A2DE9F04117680E4675
:104E40000446136018B921252846BDE8F08190F882
:104E500034500DB309680268914240F0A98071682E
:104E60004268914240F0A480B1688268914240F06B
:104E70009F80F168C268914240F09A80316942692E
:104E8000914240F09580B169C26B914240F09080B0
:104E900072691D468261D7E750222946D0F83880D2
:104EA00025F0D1FED6E90212336804F10800236030
:104EB0007368C4F838806360336963617369A361A0
:104EC0001CF0C3FFB36904F14000E3639B6898479B
:104ED00094F8432020B1E561002AB4D05B25B3E704
:104EE000656C002DF7D06668B6FBF5F3E361002A28
:104EF000A9D0B542F2D82268B2FBF5F105FB112228
:104F0000002A57D105FB1363002B53D120461CF018
:104F10008BFCA369043303449E424DD340F63472A4
:104F20006369CC3B934249D8B5F5007FD6D30321C2
:104F300020461CF0A2FCD4E90001E36B1B689847F3
:104F40000546E36B0220DB6898471DB1002384F817
:104F500034301DE039462046FFF716FE642805462A
:104F600004D139462046FFF70FFE0546636C143B1B
:104F7000002DEBD1226A204602FB03F61CF054FC04
:104F8000A369043303449E4206D284F834505A2560
:104F9000E06B1CF00BFE57E70123D4E90001094A3E
:104FA00084F834301368013313601CF0E8FFEFE736
:104FB0005D2549E7592547E75A2545E75F2543E73A
:104FC00098110020941100202DE9FF410F469046D2
:104FD0001E46054698B390F8343093B3B1F5801F60
:104FE00031D21A4C02211CF048FC22463946284690
:104FF0000DF10F03FEF7FEFF024678B10123424692
:105000000093394633462846FFF7D0FC0446E86B48
:105010001CF0CCFD204604B0BDE8F0819DF80F30B7
:10502000012BEBD12169B142E8D1009341463346CF
:105030002846FFF7A5F904460028DFD1E7E7212439
:10504000E8E71124E6E72924E4E700BF6018002020
:105050002DE9FF410C4616461F46054680B390F8E1
:1050600034307BB3B1F5801F2ED2DFF86080012190
:105070001CF003FC2146424628460DF10F03FEF7C3
:10508000B9FF044670B99DF80F30012B11D1D8F843
:105090001030BB4212D10246009031462846FFF73D
:1050A0006FF90446E86B1CF081FD204604B0BDE8B2
:1050B000F081022B14BF2D246024F3E76324F1E771
:1050C0002124F2E71124F0E72924EEE760180020FC
:1050D0002DE9F04385B00C4617461E460546DDF81F
:1050E000308098B390F8343093B3B1F5801F31D24B
:1050F000DFF8649001211CF0C0FB21464A46284697
:105100000DF10F03FEF776FF044688B99DF80F30C6
:10511000012B14D1D9F8102006EB08039A4213D3BF
:1051200000904346324639462846FFF729F904469F
:10513000E86B1CF03BFD204605B0BDE8F083022B78
:1051400014BF2D246024F3E76324F1E72124F2E760
:105150001124F0E72924EEE7601800202DE9F3413F
:105160001F4600230C46164605463B6050B390F898
:1051700034304BB3B1F5801F28D2DFF854800121C1
:105180001CF07BFB2146424628460DF10703FEF743
:1051900031FF0446A0B99DF80730032B10D0022B35
:1051A0000AD10123336004233B60E86B1CF0FEFC52
:1051B000204602B0BDE8F081D8F810303060F3E747
:1051C0002D24F2E72124F3E71124F1E72924EFE766
:1051D0006018002030B50C46054685B028B390F81D
:1051E000343023B3B1F5801F23D202211CF045FBDC
:1051F0000DF10F03214628460F4AFEF7FBFE03463A
:1052000088B99DF80F20032A0DD003222146009271
:1052100002462846FFF7CAFB0446E86B1CF0C6FCB2
:10522000204605B030BD2D24F7E72124F8E71124EE
:10523000F6E72924F4E700BF601800202DE9F043C9
:10524000466886B3056898464FF0000CA946AE46FE
:1052500055F83C400CF1010CC4F31307013401D0A4
:10526000B94217D066450EF1080EF1D12F46002441
:1052700003E0A64207F1080712D055F83430013494
:105280000133F6D1C1F3130141EA0851C7E9001215
:10529000BDE8F08341EA0851CEE90012BDE8F08391
:1052A000B8F1030F03D101230372BDE8F08300239B
:1052B00003E09E4209F10809F5D055F83340013367
:1052C000C4F30754032CF4D1C1F3130343EA085386
:1052D000C9E90032BDE8F0832DE9F0410646406897
:1052E00082B0C0B10F4690460024336853F8345062
:1052F00003EBC403C5F30752C5F31301013504F1F1
:10530000010406D05B683046CDF80080B84710B184
:1053100070688442E9D302B0BDE8F081024B19689D
:10532000024B1868FFF786BD002A0020202A0020C3
:1053300008B528F0A0FA014B186008BD8C180020B1
:10534000014B186828F092BA8C18002073B50446F7
:105350002248012A00EAC1119DF8185023F07C4030
:1053600007D9961E012E28D9073303F07F0319436E
:1053700008E09DF81C300A43DB0603F0C0531343DA
:1053800043F060410023C4E900108DF80730B5B147
:10539000202221460DF107001CF00DFF1A220DF10D
:1053A0000700211D1CF007FF082063689DF80720F7
:1053B00043EA8263636002B070BD1143E2E71B22DF
:1053C0000DF1070021461CF0F6FE23689DF807202A
:1053D000042043EAC2632360EDE700BF80FFFF07BC
:1053E00038B5094B0D461A680021044625F02BFC00
:1053F00000234FF0FF322383C4E900252361A2601C
:10540000E382A37638BD00BF78DF03000138C0B265
:1054100005289ABF014B185C012070477DDF03000F
:105420002DE9F0410746154600240E46596888B01C
:10543000490A012922464FEA510104F10104F8D832
:10544000DC78997824031B88C90201F4006104F414
:1054500080540C43C3F30A035203234492B24FF027
:1054600000089C18274B6FEA0444039325F0784307
:10547000ED4302A90DF107001B2202938DF807806E
:105480001CF099FE9DF80720029B02A943EAC26323
:105490000DF107001B2225F07845049302958DF845
:1054A00007801CF088FE9DF80720029B6FEA1444D9
:1054B00043EAC26305934FF0FF330794069307A9AD
:1054C000BB69012206F110009847BB6905A9044693
:1054D000012206F108009847BB69404518BF044601
:1054E00004A90122301D98470122404518BF0446F7
:1054F000BB69304603A99847404508BF204608B01D
:10550000BDE8F08101009AB2044BD3F88420D206A2
:10551000FBD4D3F88400C0F38110704700400050E2
:1055200038B5184B0546D3F824010C4600F00700A7
:10553000062823D8DFE800F0040A121A1E0E16000F
:10554000012305B1286004B1236038BD27F01CFA9F
:105550000523F6E727F018FA0623F2E727F054FAB6
:105560000323EEE727F050FA0423EAE727F048FA8E
:105570000223E6E727F04EFA0723E2E70023184666
:10558000DFE700BF0080005038B5104B0546D3F868
:1055900000310C4603F00303022B0BD0032B0DD07C
:1055A000012B0FD127F030FA032305B1286004B195
:1055B000236038BD27F032FA0823F6E727F02AFAED
:1055C0000723F2E701230020EFE700BF008000502F
:1055D00038B5104B0546D3F820310C4603F00303D1
:1055E000022B0BD0032B0DD0012B0FD127F0CCF9C0
:1055F000052305B1286004B1236038BD27F004FA03
:105600000323F6E727F0FCF90223F2E70123002049
:10561000EFE700BF0080005038B5104B0546D3F8C7
:1056200040310C4603F00303022B0BD0032B0DD0AB
:10563000012B0FD128F014F9092305B1286004B11A
:10564000236038BD27F0EAF90823F6E728F00BF9C4
:105650000B23F2E701230020EFE700BF008000509A
:1056600038B5104B0546D3F860310C4603F0030300
:10567000022B0BD0032B0DD0012B0FD128F0F0F80B
:10568000092305B1286004B1236038BD27F0C6F9AD
:105690000823F6E728F0E7F80B23F2E701230020C0
:1056A000EFE700BF008000502E4B98424AD022D82E
:1056B0002D4B984240D014D82C4B984239D00AD860
:1056C0002B4B984232D02B4B98422FD02A4B9842EA
:1056D0002CD000207047294B9842FAD1284B186FE4
:1056E0007047284B98422AD0274B9842F1D1244B3F
:1056F000D3F880007047254B98422BD009D8244B13
:10570000984223D0234B9842E3D11D4BD3F88C0011
:105710007047214B984221D003F5740303F51053D1
:105720009842D6D1164BD3F898007047144B986D19
:105730007047134B586E7047114B586F7047104BA2
:10574000986F70470E4BD3F8840070470C4BD3F81A
:10575000880070470A4BD3F890007047084BD3F885
:10576000940070470048E8010024F400C0CF6A00AC
:1057700080841E0000093D0040420F00405DC600CD
:105780000080E00FC0EA210180BA8C01007E560340
:1057900080D54302006CDC020090D00373B50D4647
:1057A00000210E4B0191D3F88041064604F003041A
:1057B000012C09D0022C0CD00C460EB1019B336099
:1057C00005B12C6002B070BD01A8FFF701FF0F24E6
:1057D000F3E727F015F90190EFE700BF00800050D4
:1057E00038B5104B0546D3F840320C4603F003039E
:1057F000022B0BD0032B0DD0012B0FD128F030F84A
:10580000092305B1286004B1236038BD27F006F9EB
:105810000823F6E728F027F80B23F2E700231846C1
:10582000EFE700BF0080005038B5144B0546D3F8B1
:1058300000020C4600F0070004281BD8DFE800F047
:1058400003090D111500012305B1286004B123607F
:1058500038BD28F005F80923F6E727F0DFF808231C
:10586000F2E728F000F80B23EEE727F0B3F80E2359
:10587000800AE9E700231846E6E700BF00800050F1
:1058800010B40D4C0B46D4F8204204F00304012C54
:105890000AD0022C0CD008B1002101600BB100220B
:1058A0001A605DF8044B70475DF8044BFFF790BE3B
:1058B0005DF8044BFFF7B0BE00800050B0F5207FCC
:1058C0001FD009D8B0F5007F15D003D868B1B0F566
:1058D000C07F0AD000200CE0B0F5607FFAD10B4BFE
:1058E000D3F88000C0F3011003E0084B186FC0F339
:1058F000033001307047054BD3F89000C0F30460CB
:10590000F7E7024B186FC0F38020F2E700800050E9
:105910004FF400320E4B014610B500209A66FFF797
:10592000CDFF484341F671320A490B4B884294BF80
:1059300000200120DC69DA639A6822F4401242EA0E
:1059400000529A60E20344BF0022DA6310BD00BF38
:1059500000900050005A620200000350420910B546
:105960000FD0012A0FD00A4B0A4C022A18BF234637
:1059700000F01F0049B103F58053012282401A60F4
:1059800010BD1346F4E7044BF2E703F50053F4E7C8
:105990006880005060820050648000501FB5002174
:1059A000B0F5807F0446019100F0068100F29D80F1
:1059B000612800F295801F2805D8002840F09280C9
:1059C00027F008F8DCE0A0F12004412C00F28A80E6
:1059D00001A353F824F000BFC1590100855B010009
:1059E000C1590100855B0100A55B0100A55B0100B9
:1059F000A55B0100A55B0100855B0100855B0100E3
:105A00005F5B0100195B0100DB5B0100E55B0100EE
:105A1000195B0100855B0100855B0100855B01006E
:105A2000E55A0100E55A0100E55A0100E55A010076
:105A3000E55A0100E55A0100AF5B01003B5B010044
:105A4000855B0100855B0100855B0100F95B01005E
:105A5000EF5B0100855B0100E55A0100E55A01009A
:105A6000E55A0100E55A0100E55A0100E55A010036
:105A7000E55A0100E55A0100E55A0100E55A010026
:105A8000E55A0100E55A0100E55A0100C15901003B
:105A9000E55A0100C1590100C1590100C159010075
:105AA000A55B0100E55A0100E55A0100E55A010035
:105AB000E55A0100E55A0100E55A0100E55A0100E6
:105AC000E55A0100E55A0100E55A0100E55A0100D6
:105AD000E55A0100E55A0100C1590100C159010010
:105AE00080284BD0019804B010BDB0F5A06F5ED0F7
:105AF00028D8B0F5607F50D019D8B0F5007F4CD0D1
:105B000004D8B0F5C07F3FF45BAFEBE7B0F5207F82
:105B100038D0B0F5407FE5D126F05CFF02464FF467
:105B20002070FFF7CBFEB2FBF0F2520833E0B0F585
:105B3000806F37D0B0F5906FD4D1002101A8FFF766
:105B4000EFFCCFE7B0F5E06F51D00DD8B0F5C06FE6
:105B500043D0B0F5D06F45D0B0F5B06FC2D10021C1
:105B600001A8FFF71BFEBDE7B0F5F06F44D0B0F51C
:105B7000086FB7D101A8FFF707FDB3E726F00AFFCA
:105B80000190AFE726F026FF02464FF42070FFF7A2
:105B900095FEB2FBF0F20192A4E726F0FBFE02466E
:105BA0002046F4E7002101A8FFF712FD9AE7002143
:105BB00001A8FFF765FE95E74FF0E02302911B690E
:105BC0005B0705D526F006FF0290029B019389E74B
:105BD00003A902A8FFF720FDF7E7002101A8FFF7BE
:105BE0001BFD7FE7002101A8FFF71EFE7AE70021D9
:105BF00001A8FFF7F5FD75E7002101A8FFF730FDCB
:105C000070E700BF08B58020FFF7C8FE034B98423D
:105C10009EBF4FF48032024B1A6708BD005A6202E1
:105C200000A000501FB503460020B3F5807F01900F
:105C30006FD027D8382B00F082800BD8243B092B5B
:105C40000FD8092B0DD8DFE803F05F5F5F5F0C0C06
:105C50005A0C3675522B57D007D83D2B3AD03E2BD5
:105C600072D0019805B05DF804FB802BF9D1394B57
:105C70001B6F03F00703013B032BF2D8DFE803F0AF
:105C80003D36393BB3F5D06F54D019D8B3F5A06F7A
:105C900055D00AD8B3F5806F36D0B3F5906FE0D108
:105CA000002001A9FFF73CFCDBE7B3F5B06F26D07D
:105CB000B3F5C06FD5D1002001A9FFF7ADFCD0E747
:105CC000B3F5006FECD00AD8B3F5E06F3CD0B3F574
:105CD000F06FC6D1002001A9FFF7C2FCC1E7B3F500
:105CE000086FBED101A9FFF74FFCBAE70523019366
:105CF000B7E70323FBE70723F9E70223F7E70020D1
:105D000001A9FFF74BFDACE7002001A9FFF760FCFC
:105D1000A7E74FF0E02302901B695B0705D526F04B
:105D200059FE0C230393039BE1E703A902A8FFF7A5
:105D300073FCF8E7002001A9FFF776FD91E700204A
:105D400001A9FFF79DFD8CE7002001A9FFF748FDA1
:105D500087E700BF008000504FF48032074B0849AE
:105D6000586E03F580535A660B6A23F001030B62E9
:105D7000C3035CBF034B5A66704700BF00800050EE
:105D800000C0075000A0005008B5FFF74BFF0828DF
:105D900011D00938012802D94FF6FF7008BD4FF421
:105DA0000012064B5A6603F5D8335B6ADB07F3D55E
:105DB0004FF4FA70F2E7024B1888EFE700900050BA
:105DC000142C002008B5FFF72DFF03280ABF024B53
:105DD0004FF6FF70188808BD122C0020F8B5044655
:105DE0008020FFF71FFF032800F087804FF4002278
:105DF000424B02215A6645F60E03414AC2F88030F2
:105E0000404B9962012103F580539962936DD90348
:105E1000FCD4D4E900131B0543EA0163E17B94F849
:105E200020500B43217BE77E43EA0143617B6D01F8
:105E300043EA0133A17B43EA811313619169D4E9F9
:105E400004031B0643EA806301F000410B43A17E7B
:105E500094F823000B43217E43EA0143617E43EA29
:105E600001239361136AE66923F00D0394F822106D
:105E700043EA8703002E2DD11362966A94F82130ED
:105E800045EA031326F033052B4343F001039362E5
:105E90001D4D1B4B9A6D35EA0202FBD10222194DB2
:105EA000AA621A659A6D5200FCD41A69A56822F498
:105EB000700242EA05521A614FF00042114B9A619A
:105EC00019B9022203F580539A6278B901220F4B67
:105ED0009A620BE0334343F008031362936A23F0A2
:105EE000330303432B4343EA4103936294F8243082
:105EF0001BB1034B064AC3F88020F8BD0090005048
:105F000000C0005000D000500300014000E00050ED
:105F1000F1A7FFFF014B93F900007047CE26002048
:105F2000F0B5D0E901434FF480061A4A417805786C
:105F300056664FF4D156022702F5B8325662164E15
:105F40004F2977604FF0010728BF4F2106F5805693
:105F500077601669F603FCD441EA052151611B0103
:105F6000417B43EA04230B43017B43EA41039360F3
:105F7000C37B817B1B0143EA4113417C0B43017CC2
:105F800043EA41035360837C13B16FF4D1535362EE
:105F9000F0BD00BF0090005000100250014B18806F
:105FA000704700BF142C0020014B1880704700BFC1
:105FB000122C00204FF4001208B5184B5A66022329
:105FC000174A5360936813F48033FBD1012822D120
:105FD00026F01AFD134B984215D003F5122303F552
:105FE000F863984213D0104B00EB8002400AB3FBD9
:105FF000F0F3520A0A49CA620B6301234B62002282
:10600000074B5A6008BD45F67A13084AF2E745F691
:106010001A03074AEEE75362F1E700BF0090005011
:106020000040025000F0490264666666D8B8050078
:10603000BBCF0500B0F5207F10B50C4642D008D884
:10604000B0F5007F33D003D888B1B0F5C07F0ED053
:1060500010BDB0F5607FFBD11F4A4C1ED2F88030D6
:1060600023F0300343EA0413C2F88030F0E71CF059
:10607000C0F81CF0CCF84FF48031184B164A196761
:10608000136F013C23F4704343EA0433136726F093
:10609000A1FC0446FFF738FAC0F1020120461CF0CB
:1060A000B0F800F035F8BDE81040FFF7ABBD0A4A84
:1060B0004C1ED2F8903023F0F85343EA0463C2F840
:1060C0009030C5E7044A4C1E136F23F4806343EA03
:1060D00084231367BCE700BF00800050009000508D
:1060E00008B50121022000F085F94FF42070FFF778
:1060F000E5FB054B18701CF07CF81CF088F84FF499
:106100008032024B1A6708BDCD2600200090005057
:1061100008B54FF4C070FFF741FCBDE808400449E2
:10612000884294BF012102214FF42070FFF782BF03
:1061300080F0FA0238B5044626F04CFC0546FFF71D
:10614000E3F9C0F1020128461CF05BF801210020B0
:1061500000F090F92CB1FFF7DBFFBDE83840FFF706
:1061600051BD034B4FF420701978FFF763FFF4E73C
:10617000CD2600204FF4C02270B50546FFF794FAF3
:10618000314B04465A6603F598335A68012A04D104
:106190002E494A609A699207FCD18020FFF742FDA0
:1061A000052807D11CF025F81CF031F84FF4803297
:1061B000254B1A67264B24F040749D4230D0254B66
:1061C0009D4230D026F0E0FB8542064603D90121EE
:1061D000284600F04FF9204BDA6812F0060FFBD189
:1061E00099689C609A68624012F4F81F1ED1284694
:1061F000FDF7BCF88020FFF715FD05280DD126F02E
:10620000E9FB0446FFF780F9C0F1020120461BF0CC
:10621000F8FFFFF77DFFFFF7F5FCAE420CD270BD33
:1062200044F00074CEE744F08074CBE7802099609E
:10623000FFF7F8FC052805D0BDE8704001210020DB
:1062400000F018B93546DAE70090005000E0015040
:1062500040420F0080841E000000015010B5224B08
:1062600070B94FF40031214A1860516602F5983236
:106270005268012A03D11E4AD2F800211A6010BDCB
:106280001B68002BFBD01B4A5268012AF7D0184A22
:106290008020C2F80031FFF7C5FC05281FD14FF45C
:1062A000C070FFF70BFB0128044604D102214FF414
:1062B000C070FFF7BFFE07220F4B1A610122A3F542
:1062C00080535A600B4A1369DB07FCD5012CD6D1E9
:1062D0002146BDE810404FF4C070FFF7ABBE01226D
:1062E000064B5A60CBE700BF90180020009000508A
:1062F0000080005000C0015000E0015000D001506B
:10630000044A4178536F23F4407343EA01235367EF
:10631000704700BF0040005010B5044610B1002087
:10632000FFF79CFF124A136943F00403136126F040
:1063300011FF1BF071FF0F4B5B6E5B0142BF0E4BF9
:106340000E4AC3F8202427F096FA27F0D9FB27F04D
:106350008DFA1BF062FF03F081F91CB9BDE8104013
:1063600026F038BB0120BDE81040FFF777BF00BF23
:1063700000ED00E00080005000E003500000FF0F3F
:1063800010B5044610B10020FFF768FF104A1369EA
:1063900043F0040313610F4B5B6E5B0142BF0E4B76
:1063A0000E4AC3F8202426F0D5FE27F064FA27F021
:1063B000A7FB27F05BFA03F051F91CB9BDE81040C8
:1063C00026F008BB0120BDE81040FFF747BF00BF23
:1063D00000ED00E00080005000E003500000FF0FDF
:1063E000034A0179D36E23F030030B43D366704721
:1063F00000400050F8B504461C4BD3F88420D10669
:10640000FBD4D3F88430C3F381139C422CD026F004
:10641000C1FA012C064602D121461BF0F2FE27F0FC
:106420002AFA4FF00072124B07465A6620461BF0BC
:10643000FBFE4FF480630D4D621E93402B676B6E25
:106440009A0103D4D5F884309B060AD5384627F044
:106450000DFA022C08D13046BDE8F84000211BF0AF
:10646000D0BED5F88430EAE7F8BD00BF0040005048
:106470000060005010B50C4608B926F08BFA074BA7
:1064800021461B783BB1064B984204D80120BDE859
:106490001040FFF7AFBF0220F9E700BFCF26002072
:1064A000005A62020278034B012100201A70FFF7A4
:1064B000E1BF00BFCF2600204FF0004238B5264B89
:1064C00026495A6601224A604AF6CD3103F50B236C
:1064D0005D6C1964154030BB9968C9070BD4002462
:1064E00001221F4B5A6015B11E4B1F4A1A6423F03C
:1064F0005FFE204638BD1A498A601C4AD96ACC071B
:1065000005D4904201D10724EAE70130F6E7904232
:10651000E5D1F8E70132DC6A14F0080406D08A42BB
:10652000F8D10724DFE700221049F4E78A42F8D0C7
:1065300020220B4B0B495A620122A3F580539A602B
:1065400023460A4A486A800603D49342E9D00133BD
:10655000F8E79342C7D1E4E700900050005009509B
:1065600000600950004009503254FFFF40420F00C4
:106570004FF0004238B5174B174C5A66012203F50D
:106580000C235A604AF6CD33656C236443789340FC
:106590001343124AD363C3788178A2689B0043EA0D
:1065A000011322F074021343A3600279837943EA52
:1065B000022323614279C37943EA022363610078AD
:1065C000FFF77AFFEB0744BF054B236423F0F0FD90
:1065D000012038BD0090005000400950004000509C
:1065E0003254FFFF10B504461BF023FE002341F296
:1065F00002020849E360A360226104F50052E361EE
:106600006361A36123626362E362A3645164A36272
:1066100010BD00BF7F370C0138B50446154639B9A7
:106620001848844214BF08463820FFF7B7F90146DE
:106630006368A36803F0E003402B1AD003D8D3B1FA
:10664000202B1AD038BD602B19D0802BFAD1012312
:106650006B434901B1FBF3F10B4A2039204602EAB2
:10666000C10201211BF0E1FDA262BDE838401BF030
:10667000DCBD0623ECE71023EAE70823E8E7042360
:10668000E6E700BF0000035AF8FF7F00F8B5436853
:1066900004460D4616461BB140F2FF711BF0C5FDC6
:1066A0002046FFF79FFFE9896B7B22690B43298A0C
:1066B00022F44C520B4322F0030213432361A268DD
:1066C0002B7B297E22F0804222F0E2020B4313430F
:1066D0006A69AF681343A3601FB9A36843F000431E
:1066E000A360EB69002B57D0987A1A7A4004A1680E
:1066F00040EA82503E4A0A4010439A8802F4C0425F
:1067000010435A7840EA82005A7B40EAC2009A7BE2
:1067100040EA02109A7840EA8220A060E168D3E95A
:10672000042021F4D81121F4C06102430A4399796D
:1067300042EA8122D97942EA4122E2601A78012AAA
:1067400005D1E26842F00402E2602A4A06E0032A28
:106750003DD1E26842F00402E260274A0121C2F81A
:10676000C0105A7A04F580510A621AB1E26842F404
:106770000062E260DA7A4AB1E268204942F40042FB
:10678000E2601A7B02F00F02C1F88020E269DB7B35
:1067900022F003021343E36136B196F8203004F58A
:1067A0008051C3B101238B61052120461BF05EFDA2
:1067B0001FB13A466968FFF72FFF204629781BF082
:1067C00072FD236CDB4313F4405FFAD1F8BD023A4B
:1067D000012AC2D9B9E7626996F8223096F82100F9
:1067E00022F009020343134343F001034B61DBE74B
:1067F000E39BBDFF00E4035000D40350009003501E
:10680000F8B504460D461F4616464AB101238B4093
:106810003021184A01FB0022F7B141F21001535018
:1068200004EB4403072D4FF00F014FEA031316D872
:10683000A80006FA00F281400F4818441BF042FD00
:106840004EB9012330210B4AAB4001FB042277B142
:1068500041F210015350F8BD42F21001DFE7A5F1FB
:106860000800800006FA00F281400448E5E742F2A1
:106870001001EFE700C0035004C003500CC00350E8
:1068800010B5152001F08CFE0024FF22064B214696
:106890005C6520209A625C60FFF760F82146BDE8E5
:1068A00010402120FFF75AB800000450044A054B5D
:1068B000002908BF1346012282401A60704700BFBA
:1068C000401004504020045010B5012104462020FF
:1068D000FFF744F801212120FFF740F80122114B76
:1068E00015205A60227812069A606178A27842EAEE
:1068F00001429A61FF229A6200229A631A644FF061
:1069000000425A654FF0FF3203F500531A6501F05B
:1069100075FE1520E1781BF0DBFEBDE81040152068
:1069200001F050BE00000450F8B50125C3B2DFF8F5
:106930008CC0D1F800E09D408F7ACB7A0C46097B61
:10694000CCF850500CF5005C4CF820E04FF0300EC5
:10695000184E1B050EFB006094F80DC043EA074378
:1069600043EA415322F00302C0F860C0C3650267E6
:1069700026F08AFF104B5D65237A13B1336C2B43ED
:106980003364637A13B1B36B2B43B3632279A37976
:1069900043EA0243094A93616179E37943EA014397
:1069A00005498B61034B55639D64BDE8F84026F0B3
:1069B00066BF00BF000004500010045000200450C7
:1069C00010B50124C0B2844026F05EFF044B5A6D1E
:1069D00022EA04025A659C62BDE8104026F04FBFCF
:1069E0000000045010B50124C0B2844026F04CFFD2
:1069F000074BDA6A224208D15B6B9C430CBF01242F
:106A0000002426F03CFF204610BD0024F9E700BF1B
:106A10000000045070B5054626F036FF3022084BC2
:106A20005E6B02FB05335C6E26F029FF0123EDB29D
:106A3000AB4033420ABFC4F30A100020013070BDDE
:106A4000000004504FF40032054B9A6641F6713253
:106A500003F51C33DA63012203F50053DA60704753
:106A60000090005041F671320121064BDA6303F5C4
:106A70000052D1600022DA634FF40032A3F51833DC
:106A80009A66704700000350CB784A7810B55B01D6
:106A90000C7843EA82030A79234343EA02130C2267
:106AA000424302F1B0421363012C02BF8A78024BC9
:106AB00043F8202010BD00BFE880035008B54FF018
:106AC000B0435A686AB958B15B680BB11BF009FC56
:106AD00001210D4B59601BF004FC4FF0B043D9600D
:106AE00008BD5B680BB11BF0FCFB0028F0D11BF06C
:106AF000F8FB4FF0B0430222DA601BF0F2FB0122F8
:106B0000024B5A60ECE700BF00100058002000580C
:106B10004FF0B0414B6810B50BB11BF0E2FB012206
:106B20000B4BC4785A608378934043EA84034478DB
:106B30002343047943EA0413447943EAC4038B6092
:106B4000044B5A600378C3F10203CB6010BD00BF51
:106B500000200058001000584FF48032064B5A664F
:106B600003F5E6235B69C3F38512827003F03F02ED
:106B70001B0B42700370704700900050014B986CE3
:106B8000D96C70470080E00F024B1868C0F30740D3
:106B9000704700BF0080E00F0120034B9B680A3361
:106BA00003F01F03984070470080E00F012200F5BA
:106BB00080535A6040F6AA6341F205024361002304
:106BC0000B498360C365C26000F500520361C36175
:106BD000C364916407498365884203D10365002338
:106BE000436502E004498842F8D0012353607047AE
:106BF000FFFF010000C005500000065038B50D46EB
:106C0000FFF7D4FF012200F580535A602B8A826877
:106C100043F001031343AA7B044643EA82238360C3
:106C200083682A7D43EA42738360AB7C5BB11D4A73
:106C3000EB7C90422DD1A2F51032C2F88C31E36D7D
:106C400043F08003E3652B7B2046D5E9011243F432
:106C50008053E3601BF04DFB6B7B0BB11023636132
:106C60006B7D1BB1A36843F48033A360AB7D1BB184
:106C7000A36843F40043A360EB7D2A7E1B07120543
:106C800003F0E04302F4E0021343A3652B78636151
:106C900038BD054A904204BFA2F52032C2F89C31AB
:106CA000CDE700BF00C0055000000650034BD3F8ED
:106CB0002424D3F820041040704700BF00C00350C4
:106CC000064BDA6E02F03002202A06D0DA6E22F08D
:106CD000300208B142F01002DA66704700400050FE
:106CE0002DE9F8431E4B0546D3F810334B1E0E2BEF
:106CF0000E46174690F8009044781DD909B34FF01E
:106D000000082846D7B126F0C5FD09EB4903072C3A
:106D10004FF00F014FEA031315D8A400114808FAE9
:106D200004F2A14018441BF0FEFABEB928468FB108
:106D3000BDE8F84326F0AEBD8846E2E71BF002FB53
:106D4000E3E78846E1E7083CA400074808FA04F2B4
:106D5000A140E7E7BDE8F8431BF0F4BABDE8F883CB
:106D600000C0035004C003500CC003502DE9F04193
:106D70002B4B1746D3F810234A1C06460C46407886
:106D800004D1D3F824141BF0EBFA0446002C2FDBBB
:106D9000072C4FF0030532782DDC4FEA840805FA02
:106DA00008F529461F4802FA08F21BF0BCFA2946EA
:106DB00072781D4802F0030202FA08F21BF0B3FADF
:106DC000012317F0050F194A18BF194903FA04F3F4
:106DD0000CBFC2F81034C1F8103417F0060F18BFFA
:106DE000134AC2F814340123104AA340C2F82034D5
:106DF0002046BDE8F081A4F108084FEA880805FAAA
:106E000008F529460B4802FA08F21BF08CFA727852
:106E1000294602F00302084802FA08F2CEE700BF52
:106E200000C0035000C4035008C4035000E00350E6
:106E300000D0035004C403500CC4035038B50546B9
:106E40000C4C0140D4F8303423EA0003C4F8303449
:106E5000D4F830341943C4F83014D4F82C34034334
:106E6000C4F82C34012004F50054FFF729FFC4F8BE
:106E7000205438BD00C00350124B70B5D3F8103306
:106E800006461BF087FA0446481C154603D1621CCF
:106E900005D1204670BD631CFBD08C420ED130461C
:106EA000032185F00102FFF71BFF012004F110030D
:106EB00005FA03F19840FFF7C1FFEAE74FF0FF340E
:106EC000E7E700BF00C003504FF48032084B5A661A
:106ED00003F5E6235B691A0B027003F03F02427070
:106EE0004FF6FF72C3F3851342808380704700BF63
:106EF00000900050014B03205B6870470080E00F5A
:106F0000014B986CD96C70470080E00F70B5044657
:106F100023F079F9064630B90FCC044D0FC594E83B
:106F2000030085E80300304670BD00BF94180020C0
:106F300047F6FF739A42F0B56FD002296FD8394BEC
:106F40005B5C012B6BD8384DDF0005EBC30415F8F3
:106F50003330A178012B13D10025E078401AA842E4
:106F600002D80844C0B2F0BD431B6668A0EB5303CF
:106F700036F913609642D4BF1D4603F1FF30EEE7A9
:106F800060680028EFD0B0F90040944204DBB0F90B
:106F900002409442B8BF144683883D44FF2B19BF7A
:106FA000C8224FF0280CB0F90620B0F908C0A2EBB7
:106FB00004030CBF0126002693FBFCF333446E78D8
:106FC0001BB29E4201DD002B01DA731E1BB24FF48F
:106FD0007A7C01339BB2071D5D1E2DB24FEAC50EB0
:106FE00000EBC505EA88AD689E4214FB025222EA16
:106FF000E27202F15C02B2FBFCF204DD37F83350BE
:1070000001339542E8D200EB0E039888904228BFE6
:107010001046884238BF0846A4E7FF20A3E70020B7
:10702000A1E700BF83DF0300941800200229F0B518
:1070300055D82C4B585C012851D82B4C04EBC0017F
:1070400014F830004B6801280FD1C8788C78904232
:1070500094BFC4EB0001C4EB0201001BCAB2824220
:10706000C8BF002233F91200F0BD002B37D088785A
:10707000904202D3B3F90200F6E7CC78B3F90000EE
:107080009442F1D94C789988013CA1F1FF067142F4
:1070900003F10405E4B2714103F10C07CEB2B4422E
:1070A00016D805EBC1014FF47A756A43B1F9024075
:1070B0004968521A04EBD47102EB610292FBF4F2BC
:1070C0009042D1DBB3F902009042CDDC10B2CBE7A5
:1070D00037F831C04E1C9445E3D33146DEE7034810
:1070E000C2E700BF83DF0300941800200080FFFF89
:1070F00008B50448FFF70AFFBDE80840012023F067
:1071000086B800BF88DF030000487047162C0020B7
:107110007FB50222084B0949CDE901234FF00073E6
:10712000CDE90313052301A94FF0FF30059323F0A8
:10713000B7F807B05DF804FB006A1800000204000D
:1071400006289ABF014B185C002070470CE0030032
:1071500030B5154B87B00293144B0390049346F659
:1071600011030D46059300F077F91428044616D153
:1071700068461BF0D6F94FF0A843032202A95A63D0
:1071800019601D619A63DA6B9207FCD1142C02D14D
:1071900068461BF0D4F900F093F9044601E000289A
:1071A000E9D0204607B030BDAC1800200400002014
:1071B0002DE9F04FB1B005468C469E46E8466F4E2D
:1071C000DDF8EC90409C06F1100A47463068716883
:1071D000083603C75645B846F7D13E9B03EB020875
:1071E000C8F1000A0AF00F0AB9F1000F00F09D8003
:1071F000C9F1000707F00F070121DDF8FCB044F0EA
:107200000050C4F11006CDF810B005910690300280
:1072100000F4F85040F021000790B9F1000F40F061
:107220008680CDF820D047F00050002D00F08480FB
:10723000099121210A9041EA07210B9142F0005067
:10724000CDF830C03D9B08A94FEA0A2C0D910E9055
:107250004CF041000F901093002A75D13E9B119184
:1072600043F0005312933C9B1390149310AB15936F
:10727000434B444A169340F611031793424B0021A7
:10728000002D08BF1346189314AB19933F4B1022DF
:107290001A9311231B931CAB184623F0D4FC012234
:1072A0001D92002246F0804603461E96239205B9A1
:1072B000EB46102CCDF880B024AE4BD101232246F2
:1072C000002130462193229423F0BDFC20AB002105
:1072D00025938F4218BF334647F0804226923A9A50
:1072E0002CA828922993B2FA82F35B0949EA8373A6
:1072F00010222B912A9323F0A6FCB9F1000F00D0A5
:1073000028AED04448F080432CA918A82D962E937F
:10731000FFF71EFF30B92DB90346A34225D100283F
:1073200018BF2C2031B0BDE8F08F102764E7CDF8EE
:1073300020E049F0005078E7002C3FF479AF04A931
:10734000099101210A9076E73E9B0CAA11924120F7
:10735000129388E71022002130462193229423F0D3
:1073600072FC002CB2D10123B1E703F1C0026A44E0
:1073700012F8C02C01331043CFE700BF13E0030025
:107380001000002028E003002CE00300040000208F
:10739000F0B5C0299FB0DDE9244557D0B1F5807F15
:1073A00004D0802948D029201FB0F0BD01265CB14F
:1073B00040F2344702941024039604942124019748
:1073C0000594069502AC0AE040F21447029410249A
:1073D00003960494212405940124019706950794AB
:1073E00001251024089409950A9221220B950C94EA
:1073F0000D92174A0AAD0E92164A0F95109242F658
:1074000011021192129313951494159201AA1692D7
:10741000D3B112AB1793042318931123199316AB0E
:107420001A901B9340F61103C9081C911AA806A9CB
:107430001D93FFF78DFEB7E7012614B94FF482675D
:10744000C4E74FF48667B5E70EABE3E70F20ABE781
:1074500024E003001000001038B5164B5A6E42F0BD
:1074600004025A66D3F8802242F00102C3F8802257
:10747000114B5B68C3F3080343B14FF0A842D36BD1
:1074800013F0430FFBD11424204638BD4FF0A8431E
:10749000DC6B14F04304FBD1084D2B681BB90421AD
:1074A00028461CF0D5FC2B68013343F000432B60C9
:1074B000EAE700BF0080005000ED00E0AC180020BB
:1074C000014B00205B68704700ED00E04FF4005274
:1074D000034B00209A660322C3F86022704700BF66
:1074E000009000504FF40052034B00209A66032294
:1074F000C3F86022704700BF00A00050012300F0D5
:107500001F02A0F506200949A0F5506040099340EC
:1075100051F820201A4341F82020054951F8202035
:1075200022EA030241F82020704700BFC41800205F
:10753000B01800200121A0F506230E4AA3F55063E0
:107540005B0900F01F00814052F82300014342F81C
:1075500023100949D1E90030034488680344C8680E
:10756000096903445B1802BFC2E90033C2E9023370
:1075700013617047B0180020C41800202DE9F04FA7
:10758000A9B003921D4604460822339ECDE90401AA
:10759000414021FA02F34B40980702F1080218BF5C
:1075A0009B00202A1C44F4D18123B4FBF3F303EBAA
:1075B000C313E41A734B04F506241B7804F55064D6
:1075C000002B3ED1FDF7AAFE074620B16FF09100D7
:1075D00029B0BDE8F08F0146402208A823F033FB14
:1075E0004022394618A823F02EFBDFF8B081DFF8DF
:1075F000B091C3460BF10F0ACDF800A0102208A9E4
:107600005B46D9F800001AF0FCFB0022014608F1A5
:10761000100808AF914246D1CDF800A05B46102279
:10762000D9F8000018A91AF0F5FB4FF0000A8346BC
:1076300018AFD34541D1544B9845DAD10122514B73
:107640001A704FF0810A4FF00008DFF858B1A4F526
:107650000627A7F550635B095BF8232004F01F01A0
:10766000CA40D2073DD4494A52F82330CB40DB0709
:107670002AD5B8F1000F08BFA0468123A7F6FF471F
:10768000B7FBF3F303EBC313FF1A07F50624BAF1B4
:10769000010A04F55064DAD1039BBBB1B8F1000FC5
:1076A00014D0444619E057F8040BCDE90612FFF751
:1076B00025FF079A06990132ACE757F8040BFFF74C
:1076C00039FF0AF1010AB4E7039B13B96FF08B008D
:1076D0007EE7B8F1000F18BF4446349B00201C60C1
:1076E00076E7329B13B10023329A13600EB1002368
:1076F00033601023DFF8A89000932A460023214628
:10770000D9F80000FDF7E4FC60BB32992A68204BF1
:10771000C9B99A4206D02146D9F80000FDF75AFDB2
:107720000028D3D1D5E90223DDE90410834208BF44
:107730008A42A2D1039B002BCFD06B68012BCCD106
:107740006FF0840044E7102032999A420860E2D139
:10775000002EE7D033462146D9F8000018AAFDF7DD
:10776000FDFC40B10B4B9842D5D06328D3D00A4BD7
:107770009842D7D02AE7329A336812689B1A33604E
:10778000D0E700BFD026002000710800B01800200C
:10779000105D175EFFDF00F0FEDF00F0006D0800F7
:1077A000202A0020C41800202DE9F04F87B082461F
:1077B000894698461646DDF840B02AB1002B4FD0D6
:1077C00040F26C739A424ED8BBF1010F4ED80024A0
:1077D00006F110073946012005941BF09CFA054676
:1077E000002846D021463A4623F02DFA05ABCDE9D4
:1077F000014300942B46012250464946FFF7BEFE46
:10780000044680B110F18C0F08BF6FF08D043A462A
:107810000021284623F017FA28461BF05EFA20467E
:1078200007B0BDE8F08F144BC5E902A92B60C5F87D
:1078300004B02EB13246414605F1100023F00EFA95
:10784000059E0E483B462A4631460068FDF7BCFBC4
:1078500018B93046FFF752FED9E76FF09104D6E72A
:107860006FF08604DBE76FF09104D8E76FF08504D2
:10787000D5E76FF08C04D2E7105D175E202A002058
:107880002DE9F0438DB08146DDE914780E461546AA
:107890001C469BB1B8F1000F05D16FF0860630464B
:1078A0000DB0BDE8F083002FF7D0B7F1005FF4D33F
:1078B000C3F1005303F500439F42EED8102200218C
:1078C00008A823F0C0F9002207AB029305AB01938F
:1078D00006AB31460093484608ABCDE90522FFF7D9
:1078E0004DFE06460028DAD1059BA4B1AB4215D85F
:1078F00053EA0504D1D1069B0B48C8F80040009418
:107900003A46079900682B44FDF7E2FB002818BFB0
:107910006FF09106C3E7AB42EDD2BEE75B1B9C4222
:1079200028BF1C46E7E700BF202A002030B58DB0F5
:107930000C4605461022002108A823F084F90022F5
:1079400007AB029305AB019306AB21460093284693
:1079500008ABCDE90522FFF711FE0446D8B9099B13
:10796000012B1BD0079D104B29461868FDF732FCF0
:10797000B8B90122A5F506230C49A3F550635B09AC
:1079800005F01F00824051F823004240284641F88C
:107990002320FFF7CFFD20460DB030BD6FF08404EB
:1079A000F9E76FF09104F6E7202A0020C4180020C0
:1079B0002DE9F04F89B007460E4601F0D7FFC0070A
:1079C00009D4042401201BF0D1FD80B3013CF9D17E
:1079D0006FF0920028E0102200210DEB020023F04E
:1079E00032F904A802F024F8049B002BE9D0059B8F
:1079F000002BE6D0069B002BE3D0079B002BE0D0AA
:107A00000025DFF8808008F10409B54219D34FF44E
:107A10008A7401F0A5FF00F00E03062B2DD1C305DB
:107A200001D501F0CFFF002009B0BDE8F08F01F0D3
:107A300097FF10F00E03FAD0022BF8D04105DFD5E6
:107A4000C4E701F087FFA6EB050A8400544528BF70
:107A5000544699E8030000238DE80300CDE905436F
:107A600007EB050BCDF810B0029404AAD8F800304B
:107A700007CA1BF074FC2544C7E724FA03F3DA07AE
:107A8000A6D5C6E738E003002DE9F0438BB01746D2
:107A9000DDE91545DDE913269C46DDE91738894601
:107AA00021B96FF086000BB0BDE8F083002FF8D04D
:107AB0000EB9002CF5D1129909B9002AF1D10DB9EE
:107AC000002BEED1B8F1000FEBD0244A944541D100
:107AD0000288B2F5105F3DD14288B7EBD20FE0D3F8
