:020000040800F2
:10000000C00A0020F10E000837F3010837F3010899
:100010006511020837F3010837F3010837F30108C7
:1000200037F3010837F3010837F3010837F3010804
:1000300037F3010837F301080312020837F3010808
:1000400037F3010837F3010837F3010837F30108E4
:1000500037F3010837F3010837F3010837F30108D4
:1000600037F3010837F3010837F3010837F30108C4
:1000700037F3010837F3010837F3010837F30108B4
:1000800037F3010837F3010837F3010837F30108A4
:1000900037F3010837F3010837F3010837F3010894
:1000A00037F3010837F3010837F3010837F3010884
:1000B00037F3010837F3010837F3010837F3010874
:1000C00037F3010837F3010837F3010837F3010864
:1000D00037F3010837F3010837F301082D1400083E
:1000E0000D14000837F3010837F3010837F301084E
:1000F00037F30108D985010875900108CD880208F9
:10010000C98802081D880108E3880208D18802080E
:1001100045900108D5880208B59001082191010891
:1001200037F3010837F3010837F3010837F3010803
:100130002F10020837F3010837F3010837F30108DD
:1001400037F3010837F3010837F3010837F30108E3
:1001500037F3010837F3010837F3010837F30108D3
:1001600037F3010837F3010837F3010837F30108C3
:1001700037F3010837F3010837F3010837F30108B3
:1001800037F3010837F3010837F30108A7BE020867
:10019000856B010837F30108B7880208BD8802089B
:1001A00037F3010837F3010837F3010837F3010883
:0401B00037F3010818
:1001B400F0B5114A114C124E00F00105E3695F07D6
:1001C40013D40DB9334213D103EA00078F4207D188
:1001D4000B4A1A40002A0CBF00206FF00100F0BD4A
:1001E400013AEBD16FF00200F9E74FF0FF30F6E788
:1001F4006FF00100F3E700BF809698000000035001
:10020400020001000B4B70B5D96911F480310DD196
:1002140001244FF48072084E084DF46020462C648B
:100224001A61FFF7C5FF3464EC6070BD6FF0010024
:10023400FBE700BF000003500010035000200350F0
:100244004FF4803238B50E4B0E4C9A66E56941F690
:10025400713315400122E3630B4B0021DA60022362
:10026400606121202361FFF7A3FF10B92120FFF76C
:100274009FFF0122054BDA600DB10023E36338BD13
:100284000090005000000350001003500020035061
:1002940070B5134C6061E3695B071ED40E4656F8D3
:1002A400043B8D18A361AE420BD10423002121200D
:1002B4002361FFF77DFF58B9BDE870402120FFF7A7
:1002C40077BF08210846FFF773FF10B104232361A9
:1002D40070BD56F8043BA361E5E74FF0FF30F7E744
:1002E400000003502DE9F84315464FF48032184BB3
:1002F40089469A6603F51C33DF690646174041F6C2
:100304007132DA63012203F58053DFF84C80DA603E
:1003140055B9284601220F4BDA601FB10022A3F51C
:100324000053DA63BDE8F88306F5005404EA0804D0
:10033400A41BAC4228BF2C46494622463046FFF750
:10034400A7FF0028E6D12644A1442D1BE0E700BF07
:10035400009000500020035000E0FFFF0000000068
:100364000000000000000000000000000000000089
:10037800002370B5404C05468AB0E36318B1008885
:1003880023600DF081F93D4827F081FD3C4E3D4B3F
:10039800304633603C4B736024F0A6FD00213046A4
:1003A80012F024F832A3D3E90023A062C4E906239B
:1003B80024F0A5FDD4E9062319431043C4E9060136
:1003C800CDE900014FF0FF334FF0FF32A06A27F06C
:1003D80005FE02224FF0FF31A06A27F004FE01203B
:1003E8000CF0D2FE4FF4007300222849A06A27F0CF
:1003F8005BFEB0F5007F39D100239422079309935F
:100408003C23CDE903320593962306935023A06A33
:1004180003A9089312F004F935B3287C0DF020FCE9
:100428000546F0B9A06A27F034FF0DF0C7FB0CF0C1
:100438008DFE20B14FF48070002109F0DFFD0CF033
:1004480095FE20B14FF40060002109F0D7FD24F09B
:1004580026FE012027F0EFFC0D4A0E49A06A24F081
:1004680041FD28460AB070BDFF20D7E70725F8E709
:100478000DD5015520000000300B0020690345EC24
:10048800F41B0020C9CF0008041C0020F419002028
:10049800954E0208D54E02080348044B834202D009
:1004A800034B03B118477047402A0020402A002018
:1004B80000000000064B0749C91A891048BF0131DE
:1004C800491003D0044B0BB101481847704700BFCF
:1004D800402A0020402A00200000000010B5064CE9
:1004E800237843B9FFF7D8FF044B13B10448AFF39F
:1004F80000800123237010BDCE24002000000000DE
:10050800B81A030808B5054B1BB105490548AFF3F0
:100518000080BDE80840FFF7CDBF00BF0000000025
:10052800B00D0020B81A0308A3F5803A704700BF41
:10053800174B002B08BF134B9D46FFF7F5FF002113
:100548008B460F461348144A121A28F0FCFB0E4B30
:10055800002B00D098470D4B002B00D09847002067
:10056800002104000D000D48002802D00C48AFF30C
:10057800008019F057F9200029001EF02EFD18F010
:10058800D3FF00BF000008000000000000000000CA
:10059800C00A0020C00A0020E0250020000000005A
:1005A8000000000010B5044C204600F019FD20465C
:1005B800BDE810401EF036BFF0C20208F0B5B1B079
:1005C80000F002F919481EF0FEFE031E18BF0123B1
:1005D800174F184E3B70337823BB18B303AC234630
:1005E800154A02F1100C254610685168083203C5F7
:1005F80062452C46F7D11068104C11492860142226
:10060800098820780EF03CFBA0220E4908A828F0A3
:10061800A5FB17230C4900930988A023207808AA72
:100628001EF0A4FC3B78337031B0F0BDF0C2020874
:10063800CF240020D024002028BF02088E290020C3
:100648008C2900203CBF020880240020F0B50368F4
:100658004E4A23F47F4323F0070393428DB05CD0C6
:100668000BD84B4A93424ED002F18072934244D049
:10067800484A934221D00DB0F0BD474A93425BD01F
:1006880002F1E37202F58032934279D002F17E42A0
:100698009342F0D1C379012BEDD18279437943EAB2
:1006A80002233E4A138008223D4B19883D4B187897
:1006B8000DB0BDE8F04011F033BB3B4C3B4819F09E
:1006C8000DF83B4819F00AF8204611F047FA0121C5
:1006D800207811F07DFA0221207811F08DFA00239C
:1006E800A02200931146207811F050FA02212078B8
:1006F8000DB0BDE8F04011F093BA2B4C02212078E0
:1007080011F07AFAF2E7027B3220264B29491A8047
:100718000DB0BDE8F0400EF043BAB0F80710204B1A
:10072800002219800823CDE9003289B217233F221D
:10073800007911F0B9FA9EE7C379012B9BD1037AAE
:10074800FF2B98D1164F174E08223988307803AC02
:1007580011F0E6FA2246184B03F1200C25461868DA
:100768005968083303C563452C46F7D11868172321
:10077800286000933988242330781EF0F7FB7AE745
:1007880000790DB0BDE8F04011F05EBAA000430159
:10079800A0000600A0000100A00043038C2900204F
:1007A800802400208E2900201A2A0020DCBF02089D
:1007B800E6BF02089029002001C002080022014B70
:1007C8001A8070478224002010B52BF0FDF9054AE5
:1007D800148814B1631E012413802BF0F0F920460D
:1007E80010BD00BF822400207FB50368264A23F489
:1007F8007F4323F00703934243D1002108221220AC
:10080800224B0EF0E7F9014608B100BEFDE70322CE
:1008180014201F4B0EF0DEF9014608B100BEFDE7BB
:10082800052216201B4B0EF0D5F908B100BEFDE7D6
:100838000DF1070102A811F019FA014608B100BE2E
:10084800FDE7BDF80C3008225BBAADF810309DF812
:100858000B3018208DF81230FF238DF81330FE234B
:100868008DF814309DF80A308DF81530BDF8083031
:100878005BBAADF8163004AB0EF0ACF908B100BEA7
:10088800FDE707B05DF804FBA000010025C00208E1
:100898002EC0020832C00208064B1B681A7A022AC8
:1008A80004D812B11B68044A13607047032AF9D0B0
:1008B800704700BFAC270020C80D002001481EF07B
:1008C80060BD00BFF0C2020807B51EF009FC8DF834
:1008D8000700074801221F2100780DF107030EF0D9
:1008E800B9F908B100BEFDE703B05DF804FB00BF2D
:1008F800D12400201FB50368334A23F47F4323F033
:100908000703934204460DD002F10072934237D098
:10091800A2F1017293420BD12C4800F0CDF938B105
:1009280000BEFDE7B0F805301F2B03D0232B14D0F1
:1009380004B010BD1EF0D4FB00220DF10F0300938C
:1009480001928DF80F000123B4F8051020790EF0FC
:1009580057F90028ECD000BEFDE71EF0C5FB0022C9
:100968000DF10F03009301928DF80F000123B4F8E5
:10097800051020790EF044F90028D9D000BEFDE713
:10098800B0F805301F2BD3D1C379012BD0D1104A31
:100998000179117002897AB1009342F21071002333
:1009A8000C4A0A4800F0A6F908B100BEFDE704B0F9
:1009B800BDE81040FFF788BF044800F07DF9002823
:1009C800B6D000BEFDE700BFA0000A01CC0D002094
:1009D800D1240020EDF001080422002100B5114BBC
:1009E80089B01A7101A81022196028F0ACF92923DE
:1009F8008DF804300C4B4FF4806202930B4B0C497A
:100A0800039302238DF810300A4B01A8CDE9052382
:100A18000823079300F086F808B11EF068FB09B0B8
:100A28005DF804FB080E0020410A0008FFF00108E9
:100A3800040E002005000400F0B51D4E85B0306896
:100A480001AA02A91EF04CFC044668BBFA20029FCA
:100A58009DF80C502AF05AFE87420ED22046154CBB
:100A680004EBC50528712179042917D130681EF0D7
:100A780008FC05B0F0BD0120F1E74FF47A70029C44
:100A88002AF044FE8442F6D341F28830029C2AF0D0
:100A98003DFE844234BF02200320E0E700201EF020
:100AA80025FB04232371E1E71EF021FBE1E700BFEA
:100AB800040E0020080E0020164A73B51678DEB121
:100AC80002B070BD2BF0A8F92B688DF80460C41A29
:100AD800282000942AF01AFE844202D82B79052B8C
:100AE800EED10D4B0822694618681EF0CCFB002891
:100AF800E6D01EF0FCFAE3E7084A12689042DFD11C
:100B08001EF044FC0128064DDCD12BF085F9286045
:100B1800D6E700BF1B2A0020040E0020B0270020C3
:100B2800080E0020F8B50F460546002843D00029D6
:100B380041D003784268980702D01AB9212428E0E6
:100B4800002AFBD1190702D5AA8A002AF6D09A06EC
:100B580005D5EB8A002BF1D0AB69002BEED02C2009
:100B680020F0B6FA064640B32C22002128F0EBF814
:100B78002B46321D05F11C0153F8040B8B4242F839
:100B8800040BF9D12B785B0705D53E606B686BB910
:100B980000242046F8BD012130461EF038FB0446EB
:100BA8000028F2D0304620F0A5FAF2E73146044892
:100BB8001EF0D2FBECE72224EBE71924E9E700BF9B
:100BC800100E002008B504481EF0BFFB1EF013FAF3
:100BD800BDE808401EF011BA100E00200B4B10B5EE
:100BE8001C680CB901200AE02AF0EEFF94F82020D6
:100BF80003462AB1A26A1AB12AF0E1FF002010BD0B
:100C080018462AF0DCFF2468EBE700BF100E00202E
:100C18000B4B10B51C680CB901200AE02AF0D4FF70
:100C280094F8202003462AB1A26A1AB12AF0C7FF15
:100C3800042010BD18462AF0C2FF2468EBE700BF65
:100C4800100E00200C4B10B51C6804B910BD2AF01A
:100C5800BBFF94F8203002464BB1A36A3BB1013B7D
:100C6800A3622AF0ACFFA36898472468EDE7104612
:100C78002AF0A5FFF9E700BF100E002038B5054699
:100C88002AF0ABFF00230B4A14685CB1AC4206D1D2
:100C9800A96A6BB199622AF09BFF012007E02346FD
:100CA800A46AF2E7002DF3D02AF092FF204638BD5F
:100CB8001160F0E7140E002010B50446B0B12AF018
:100CC80089FC2046FFF7DAFF10B194F82C300BB9F5
:100CD800002010BD064C2368002BF9D02AF07DFFB8
:100CE8002368013B23602AF073FFF1E72220F0E735
:100CF800180E00202DE9F04385B005469146984628
:100D08000E469DF8307009B9002F5CD12846FFF7D0
:100D1800D3FF0446002836D185F82C00686306F016
:100D2800B7F9864233D92AF0EBFC2146844640F2D3
:100D3800E7304FF47A720023E6FB0C0118F064FAEE
:100D48004FF0FF32002318F05FFA2B46E886114671
:100D58002846CDE900441D4A2BF039F8044690B9DD
:100D6800C5E9089885F82D702E632AF036FF184AD1
:100D7800136833B31A469B6A002BFBD19562002394
:100D8800AB622AF025FF204605B0BDE8F08347B1E5
:100D98002B4631462846CDE900440C4A2AF014FD7A
:100DA800DCE7304603A92AF0C3FC04460028EAD150
:100DB8002B462846CDE90077044A03992AF0E3FF39
:100DC800CCE71560DBE72124DDE700BFDD0D000877
:100DD800140E002091F82C3013B50C4683B98B8E75
:100DE800CA8E93420ED243B9CDE9003320460B4652
:100DF800124A4FF0FF312AF0AAFFA38E0133A386CF
:100E080002B010BD52B191F82D3093B10123009377
:100E1800D1E908232046096BFFF76CFF012384F80A
:100E28002C30074B1A6801321EBF1A6801321A604B
:100E3800E6E708462AF0CEFBF0E700BFDD0D000824
:100E4800180E00202DE9F041154E336833B34FF0EA
:100E58000008144F2AF0C1FE05463C6824B928460C
:100E6800BDE8F0412AF0B4BE94F82C30A3B1336841
:100E780084F82C8013B13368013B336094F82D302B
:100E880013B92046FFF7FAFE28462AF0A1FED4E956
:100E9800083120469847DDE7A46ADFE7BDE8F0811E
:100EA800180E0020140E0020034B1B68002B14BFE3
:100EB80004200120704700BF180E0020024B18685C
:100EC800B0FA80F040097047180E00200348044A21
:100ED8000449121A92101EF02BBA00BFB401000880
:100EE80074030008E025002008B500F02FF8FFF78C
:100EF800EDFF124B12498B4212D30020114B1249BD
:100F08008B4218D3FFF714FB186850F82240586832
:100F180040F82240013298688242F5D30C33EAE760
:100F28000022F8E71C6844F8220001325C68A242FB
:100F3800F8D30833E4E70022F8E700BFC01A030833
:100F4800CC1A0308CC1A0308CC1A03084FF48041C2
:100F5800144B154A70B59A60D3F88820134D42F4A3
:100F68007002C3F88820124A05F5005491664FF0C4
:100F7800FF3222666FF4003262660D22A2660222F8
:100F8800C3F8D020BFF34F8FBFF36F8F4FF44036B5
:100F9800002005F0F7FA0020E66005F0D7FA2E6188
:100FA80070BD00BF00ED00E00000000800800044B4
:100FB80000900050014B1860704700BFB827002010
:100FC800054B1860054B1B6F03F00703032B01D17A
:100FD80029F0D6BD704700BFC02700200080005010
:100FE80030B5056887B0AB8804461848ADF80C30B2
:100FF80020F010F80022012103A800F075F80DF187
:101008000B0103A800F0F8F89DF80B3083F00103FA
:101018002B70AB79022B15D14FF0FF330022CDE9AD
:10102800043304A90A4B009403A800F097F9049B21
:10103800009401330CBF04220122054B05A903A823
:1010480000F008F9002007B030BD00BFCCD5020879
:101058009FF301082DE9F04104460C254FF00108E3
:10106800124E0CB314F001000BD0002024F0010440
:1010780005FB00625768002FF3D09168C0B2B847EB
:10108800EFE72246013020284FEA520201D0D30769
:10109800F8D508FA00F20F2824EA0204E8D9103833
:1010A80005FB0062B432E5E7BDE8F0811C0E0020C4
:1010B80008B50C481FF0AEFF272005F055FA28B1F7
:1010C800272005F05FFA272005F040FA282005F0D0
:1010D8004BFA28B1282005F055FA282005F036FAF1
:1010E800002008BDCCD502082DE9F0410E46174670
:1010F800054618B30F2923D80378E3B1013BDBB2C7
:10110800022B1DD8104A32F813306A78D340DB0717
:1011180016D50E4BD3F81043A4B92AF05EFD8046CD
:101128003A462846314603F013F840462AF050FD67
:101138002046BDE8F08143F6FF73E6E72224F7E78F
:101148002124F5E70224F3E708C3020800C003508E
:1011580010B50446E8B10378C3B1013BDBB2022BFA
:1011680019D80E4A32F813306278D340DB0712D50B
:101178002AF033FD0122637821789A4030235943BD
:10118800074B5A502AF024FD002010BD43F6FF7388
:10119800EAE72220F9E72120F7E700BF08C30208A1
:1011A80040D0035010B50446E8B10378C3B1013B01
:1011B800DBB2022B19D80E4A32F813306278D340CA
:1011C800DB0712D52AF009FD0122637821789A40BD
:1011D80030235943074B5A502AF0FAFC002010BD1F
:1011E80043F6FF73EAE72220F9E72120F7E700BF7B
:1011F80008C3020840E0035038B50D46044618B34A
:1012080011B30378EBB1013BDBB2022B1ED8104AB5
:1012180032F813306278D340DB0717D52AF0DDFCAB
:1012280030222378534303F1A04303F570335B6CFA
:101238006278D34003F001032B702AF0C9FC002028
:1012480038BD43F6FF73E5E72220F9E72120F7E7E9
:1012580008C302082DE9F0410D4616469846044693
:10126800002852D0002950D00378002B3AD143F6F9
:10127800FF734278D340DA073AD5022E01D9042EFB
:1012880036D12AF0AAFC23780746FF2B05D0324630
:101298002046296802F0A2FF28602B68013309D193
:1012A8002378FF2B06D11A4B6078D3F824141EF04C
:1012B80021FE286029684B1C21D00C23154A03FB0A
:1012C8000122069BC2F8048093602378FF2B04D088
:1012D8000123114A8B40C2F8243438462AF078FC9E
:1012E800002010E05A1ED2B2022A03D9FF2BC4D024
:1012F800212008E0094B33F812304278BAE7384623
:101308002AF066FC2D20BDE8F0812220FBE700BF13
:1013180000C003501C0E002000D0035008C3020870
:101328000F2810B5044613D82AF057FC0123094AA0
:10133800A340C2F82034C2F824340C22064B02FB26
:1013480004330024C3E901442AF042FC204610BDBE
:101358002120FCE700E003501C0E00202DE9F0419D
:101368000D4690461F460446002842D0002940D02A
:1013780003785BBB43F6FF734278D340DA072BD57B
:101388002AF02BFC23780646FF2B05D04246204640
:10139800296802F0A9FF28602A68531C23D00C236F
:1013A800154903FB0211069BC1F8B870C1F8BC309F
:1013B8002378FF2B05D00123103293400F4AC2F83F
:1013C800243430462AF004FC002010E0591EC9B22B
:1013D800022903D9FF2BD3D0212008E0084B4278FB
:1013E80033F81130C9E730462AF0F2FB2D20BDE86A
:1013F800F0812220FBE700BF1C0E002000D0035024
:1014080008C3020808B502F089FE054B00F0553004
:1014180020F0A040C3F82004BDE80840FFF71ABE3A
:1014280000E0035008B502F079FE054B00F0AA3041
:1014380020F02040C3F82004BDE80840FFF70ABEAA
:1014480000E003502DE9F04F144606460D469B4632
:10145800C36B87B001225B6902A960689847F36B88
:1014680001225B6903A92846984702A81EF0E6FBFB
:10147800074648B10023A37563754FF0FF33A36097
:10148800002007B0BDE8F08F03A81EF0E4FB01239D
:10149800A375237E04EBC303DD611F846368AB423D
:1014A8000ED1206003A81EF0F8FB4FF0FF33207523
:1014B800A360237D043B022B26D80023A375DFE716
:1014C80023681A1A53425341A37503A81EF0E5FB7B
:1014D800237D834218BFA77503A81EF0C0FB0746EB
:1014E80002A81EF0BCFB874218BF002303A818BF40
:1014F800A3751EF0BCFB074602A81EF0B8FB874286
:101508001CBF0023A375D4E703A81EF0A8FB80B175
:10151800F36B022228465B6904A9984704A81EF0C9
:10152800ADFB0346207D032839D8DFE800F03838C2
:10153800040903A8F3E7CC22237E04EBC3031A842F
:1015480001F0A2FA109B187003A8277E1EF07BFBFF
:1015580004EBC70787F82200237E03A804EBC30324
:10156800B3F8209093F822701EF079FB804603A808
:101578001EF07DFB8246B8F1000F15D0F36B0222F6
:1015880028465B6904A9984704A81EF03CFB6075CF
:10159800637D6BB90023A3754FF0000838E0227E05
:1015A80004EBC2021384CBE703A81EF017FBEEE797
:1015B80094F81680B8F1000FEED0B9F1000F09D1F8
:1015C800DFB10123627EE375002A44D19F4218D11E
:1015D800677614E0736C05EB0A02594285EA02004B
:1015E80008421CBF0021A175591E0A409B1A994543
:1015F800D0D8A37D002BE3D1CEE7E37D43B94FF0EC
:1016080000084B465246294630461EF055F8A06061
:10161800A27D12B123694B4423611449237E0978C2
:1016280099421ED901332376BBF1000F1BD0D2B1EA
:10163800E37DC3B1B8F1000F15D1032F13D0A16812
:101648004B1C10D0109B2246009330460123FFF715
:10165800F9FEA07507E0012FDAD0032F08BFA376A3
:10166800CDE70023A375A07D0BE700BF30C30208B8
:101678002DE9F04F0E46984600238BB004464FF0F4
:10168800FF31104617468DF8133001F0E7F9B6F52B
:10169800801F3BD3B21C53D1E56A6B1C57D120463F
:1016A800616A1DF04FFF0546B31C18BF0123DFF820
:1016B80010910193636A626C0293236805A902FB87
:1016C800053AE36B05225B695046984705A81EF06A
:1016D80050FB1EF073FB50461EF07BFB4FF0000BD7
:1016E800824601464B1C05D0636C81EA0A025B42C4
:1016F800134232D0294620461DF024FF029BAB42FC
:101708004DD0BBF1000F4DD10546D3E7314605AAB0
:1017180004F108001EF0E0F90146481C10D03846D4
:1017280001F09CF90122394620460DF113031EF001
:1017380015F828B19DF8133088F80030002003E030
:10174800237C002BA8D12D200BB0BDE8F08F236897
:10175800ED1A636CB5FBF3F5A6E7484601F07EF990
:101768000DF1130349462046019A1DF0F7FF034681
:1017780090B1B21C03D0D9F80020B2420CD19DF828
:10178800132003930D4B88F8002049461A68384601
:1017980027F0E4FA039B9B46D9F80810A2E7BBF1AF
:1017A800000FD0D0B6F5801FC8D2314698F8003067
:1017B8007A6804F1080001F07FF8BFE72CC302083B
:1017C800F81500202DE9F3410446174698460E46C1
:1017D800194D816AE36A8B422AD04B1C18E02846CF
:1017E80001F03CF90122294620460DF107031DF0BE
:1017F800B5FF30B14346294620469DF80720B84733
:10180800B0B1A9684A1C05D0012E0AD0E36A9942F2
:10181800E5D10DE0696820461DF021FF012E014643
:10182800D8D16B6881EA0302636C5B421A42D1D05B
:1018380002B0BDE8F08100BFCC1500202DE9F041D1
:10184800036B9046826B07689A4288BF8363426C39
:10185800436A90B002FB0377C36B0E46052201A9C9
:101868005B6904463846984701A81EF082FA0128A9
:101878000146307057D0656CE26B2368606AD2F815
:1018880014C005FB0030052206A9E04706A81EF093
:1018980070FA01284FF0000523D0D4E90A3201215B
:1018A8009342CDE90B458DF834800E958DF83C10A8
:1018B8002AD1194620461DF0D2FE236B626C1433E0
:1018C8009B1AE06223630C9B53B99DF83C303BB1F3
:1018D800626A616C2368E06B01FB02311EF001FA59
:1018E8000C9DE36B05225B6901A93846984701A85E
:1018F8001EF03FFA30702846236BA26B9A4288BFCD
:10190800A36310B0BDE8F081237C33B91C490BAA4E
:1019180004F1080001F01EF8D5E72046194A0BAB80
:10192800FFF750FFCFE7237C23BB2246164904F17B
:10193800080001F00FF8616A20461DF024FE616A74
:10194800421C20461DF0EDFD054620B9236B626C54
:101958001344143B23632046A16A1DF080FE2368CC
:10196800A062C01A636CB0FBF3F0606220461DF001
:10197800B9FEB6E700232046044AFFF723FFDAE75B
:1019880059210008D5200008EDF7010889F701085A
:1019980073B50D46D11E4A421C461B7E4A419A42E7
:1019A80026D129682368994222D3636899421FD8AF
:1019B800114E0DF107033246FFF75AFEC0B972689F
:1019C8006B689A4214D19DF80730DA1E534253418E
:1019D800227E93420CD1636901336361D4E9032306
:1019E800934205D22968A26842F823100133236183
:1019F800012002B070BD00BF241600202DE9F04F71
:101A08009A468BB09DF85030DFF850B10293DBF85E
:101A18001030804653450D461646C0F09980D14691
:101A2800DBF804300193B9F1000F00F08D80D8F88D
:101A38003C3001225B6907A90198984707A81EF066
:101A48000AF9DBF80030984240F0858007A81EF0BC
:101A58000EF90428074614D107A81EF00FF9019BB8
:101A6800029A04463B44002A3FD1864212D91446C2
:101A7800361A404601991DF0F2FDA9EB04090190C0
:101A8800D1E7D8F83C3002225B69019808A9984749
:101A980008A8E2E7841B544528BF5446032C03EBEF
:101AA8000607AAEB040A4FEA94021CD9D8F83C307E
:101AB800294638465B69984724F0030304F0030677
:101AC8001F441D44002ED4D0D8F83C3001225B6955
:101AD80008A9384698473246284608A9354427F0C9
:101AE8003DF90026C5E72646ECE7074600F0030265
:101AF800039203442A1804920593049BDD1B059B5B
:101B0800D81B039B9F420FD1002FB2D0D8F83C308E
:101B1800012208A95B6998473A46284608A927F090
:101B2800E8F878B93D44A4E7D8F83C30012208A980
:101B38005B6998470422284608A927F0DAF808B90B
:101B4800043FDAE74FF0360948460BB0BDE8F08F9E
:101B58004FF06309F8E74FF06F09F5E750160020DA
:101B68002DE9F0410F4616469846044688B060B302
:101B780090F83450FDB101211DF0A9FC00210E9B05
:101B8800CDE90511CDE902379DF83C30CDF8048048
:101B98008DF81C30237C04968BB90D4901AA04F1F9
:101BA800080000F0D7FEDDE90553E06B002E08BF02
:101BB8001D461DF025FE284608B0BDE8F0812046E8
:101BC800044A01ABFFF7FEFDEDE70546F3E700BF6A
:101BD800B7F70108991900082DE9F04F99B00F4699
:101BE80009920A69416C0E931439D31DB3FBF1F3C2
:101BF800013302EBC302036B04469342C0F00D822B
:101C08000023DFF820940D93E36A484619460793AA
:101C180000F024FFD7E9033604930E9B022B4ED124
:101C2800CC2E40F08A81099B002B42D039462046B1
:101C38001DF044FE656C079A6B1E13401490ED1A54
:101C4800E36B01225B6916A97868984716A81EF00D
:101C580006F800280CBF04230823782E06933DD9E4
:101C6800012300254FF0080A05933B6805990E9853
:101C7800C9F80030C9F810601EF013F84FEA9A034B
:101C880010930023DDF81CB089F814000B930F9310
:101C980008930C93616C4A1E0BEA02028B1A002E01
:101CA80038D05544AB4240D8236B5B1A13442363A6
:101CB800ABE0049B1B68149308230693D0E7656C7C
:101CC800079A6B1E1340782EA5EB030516D8FB7DEB
:101CD8007BB9099B002BB3D104230693331DAB4278
:101CE80010D9A6B1082DBBD804250023AA46059310
:101CF800BBE7099B002BA3D10823EEE7099B002B28
:101D08009ED1D9E7002505954FF0040AADE70425D3
:101D18000596F9E75345C7D3B0460BEB0A0303937F
:101D2800089B002B18BF032313E0A3EB0A039E4272
:101D3800B0460BEB0A0228BF98469E420392EFD9A1
:101D48000123D9F8102089F81730964271D1C9F8C3
:101D580004B0089399F81730002B6CD099F8182024
:101D68000899D31C09EBC3030132C3F804B0A3F8E4
:101D78000880997289F81820B8F1000F14D00E9BCA
:101D8800022B5BD10B9B7BB90F9B4344032B0BD9D5
:101D9800E36B01229B69039814A99847054600281C
:101DA80040F03D8101230B93089B16A80193059BE6
:101DB800009399F814204346396800F005FEE36B58
:101DC80058469B69109A16A99847051E0D9B18BF7F
:101DD8005B4652460D935946434620461DF06CFC1F
:101DE800236B08F10302A3EB0A0322F003029B1AF8
:101DF800C9F808002363002D40F011810F9BDDF81E
:101E08000CB04344A6EB08060F93594620461DF034
:101E180026FC00258346002E7FF43CAF814A3968B2
:101E2800936804F10800E36252680E9B00F044FDD9
:101E3800DEE002238DE7C9F804B09DE7099B002B7B
:101E480030D1049BB8F1030F43440A9327D9DDE945
:101E58000301E36B4FEA98029B69984705460028FF
:101E680065D118F003025FD0049B28F003052B44CA
:101E78000493039B1D444FF0FF33049915A8159351
:101E880026F06CFFE36B28469B69012215A9984749
:101E980005460A9B0493002D86D0039B99E742468A
:101EA800039DE8E7039B0A9307F120031193FB7D49
:101EB80078689BB100233D7E0C9AD9B28D4211D926
:101EC800119903F1010C31F83310914226D9069982
:101ED80007EBC303D8690A44104403E00C9B069A35
:101EE80013441844E36B01225B6915A99847159BB5
:101EF800012213930C9B0A9804330C93E36B13A9E8
:101F08009B699847039B0A9A43449B1A042B0546EE
:101F180007D978B9134604330A93C8E76346521AB7
:101F2800CBE70A9B0393B6E70A9B04933CE70A9B1B
:101F38000493B2E70A9B0393AFE7702604F1080302
:101F480003932368079A606CA2EB030ABAFBF0FAC2
:101F580000FB0A301DF03DFFE16A804620461DF077
:101F68007EFBA26A82424AD0626CD9F80830511EC0
:101F78000B40216B2568891A0B4423630D9BE06293
:101F88005D1BB5FBF2F5AA4536D1079BB3EB080AF2
:101F980012D0E36B4FEA9A0241469B699847834601
:101FA800E36A079A5344E362236B03989B1A4344FA
:101FB80023631DF062FDDA462368616CE06B01FB68
:101FC80005311DF07BFE20461DF08CFA20461DF0E1
:101FD80089FB2063BAF1000F11D03A69616CD31DF7
:101FE8001439B3FBF1F3013302EBC3029042A8D2D8
:101FF800304619B0BDE8F08F4FF0000ADCE73A69C7
:10200800616CD31D1439B3FBF1F3013302EBC30246
:10201800236B9342BFF4F8ADEAE71C26E8E72E46A7
:102028008CE700BFF81500202DE9F3471E464369E9
:102038000446B342884617469DF828903DD30025AC
:102048008DF8075020461DF019FAD4F830A08245C3
:102058000AD2236AB5EB430F06D2002220460DF1BF
:102068000701FFF7EBFB30B39DF80730012B05D1D3
:10207800002220460DF10701FFF7E0FBB9F1030F3D
:1020880006D0314620461DF0E4F9256B854218D369
:102098000D4D4FF0FF31284600F0E0FC4B46002282
:1020A80029462046C5E90376C5F8008002B0BDE898
:1020B800F047FFF791BD0135C4E7622002B0BDE8E3
:1020C800F0871C20FAE700BF24160020032A2DE918
:1020D800F34106460D4617461C4606D1237A012BC6
:1020E80023D0012002B0BDE8F081DFF860800968E4
:1020F80042460DF10703FFF7BBFA60600028EDD1F7
:102108009DF80720237A032AE8D0D8F804106A68D3
:102118009142E3D1012B2969D4F80CC007D1726927
:102128000CEB0103934202D92074207CDAE70831D2
:102138006144E1603B46012229463046FFF74CFDE9
:1021480060600028CAD00020CCE700BF2416002019
:102158002DE9F341089C032A1746266806D1237AFD
:10216800012B24D0012002B0BDE8F081DFF8908077
:10217800304642460DF10703FFF77AFA60600028FF
:10218800EDD12568D8F80400A96AD5F844C04840BC
:10219800CCF100031840227AE1D1012A09D1E26882
:1021A800D8F8103013447269934202D92074207C05
:1021B800D9E72868EB6A1B1A081AB3FBFCF3B0FBD3
:1021C800FCF083420BD1706CF36A421E1340326BF1
:1021D800121A1344284633631DF041FAE862D8F80E
:1021E8001020E36808321344E36001223B460449A7
:1021F8002068FFF7F1FC60600028B0D00020B2E74B
:10220800241600202DE9F04F4FF0FF334FF6FF72F0
:102218000025044600F10806C0E909238BB0C36213
:102228000562056330460F461DF027FC20461DF069
:1022380059F920BB204639461DF0D4F920461DF037
:1022480051F920BB5E200BB0BDE8F08FE26B23682C
:10225800606CD2F814C000FB0530052205A9E047E0
:1022680005A81DF086FD012828D1294620461DF025
:102278008AF9421C294620461DF053F90135E369C5
:102288009D42E3D320461DF02DF90028D2D0002529
:102298004FF0FF394FF6FF73CA46A846C4E9085302
:1022A800E369984514D3A5EB0905012D36D84FF6F7
:1022B800FF72636A934246D16720C4E71DF083FD2D
:1022C8000028DBD0294620461DF05DF90246D1E7FB
:1022D8002368E26B606C576900FB0830052205A98A
:1022E800B84705A81DF045FD834605A81DF018FD53
:1022F800074658461DF062FD68B1574538BFC4F817
:102308002480B94528BFB946BD4238BF3D46BA46C4
:10231800236A0133236208F10108C1E74FF6FF730E
:1023280000256362E3699D42C1D2676C2068E36B54
:10233800052207FB05005B6905A9984705A81DF05C
:10234800EFFC0135EEE7E26B676C2068694607FB36
:10235800030055690522A84768461DF0E1FC626A3A
:102368002368606C504D00FB02301DF032FD4FF0C9
:10237800FF33A062E3622A466FF00101204605ABF5
:10238800FFF776F900284FD1AD6829462046E56267
:102398001DF084F8206320B92046E16A1DF05FF93A
:1023A800E062294620461DF05AF90546A36A9D4277
:1023B8003CD16569626CE91C143AB1FBF2F14FF04B
:1023C800000805EBC1050335B5FBF2F5C14602353A
:1023D800E36999453CD3A8455AD22046616A1DF065
:1023E800B1F80027064604F1400AB84512D8626CD5
:1023F8002368694602FB0639E36B05225B69484698
:10240800984768461DF08CFC534602464946E06BE7
:102418001DF0E1FC314620461DF094F80137AF422B
:102428000646E2D364200EE7A56AAEE729462046B1
:102438001DF034F8236B29460344074623632046DE
:102448001DF00DF90546002FB0D1C4E90B07ADE723
:10245800636C2768052203FB0977E36B05A95B69B1
:102468003846984705A81DF084FC1DF0A7FC60B10C
:1024780038461DF0AEFC014620461DF00FF8636C8F
:10248800143B984208BF08F1010809F101099FE7C8
:1024980030461DF0F2FA002320461946034AFFF79A
:1024A80091F90020CFE600BF2416002053F7010859
:1024B8000023624A2DE9F04117680E46044613606E
:1024C80018B921252846BDE8F08190F834500DB39D
:1024D80009680268914240F0A98071684268914297
:1024E80040F0A480B1688268914240F09F80F16812
:1024F800C268914240F09A8031694269914240F045
:102508009580B169C26B914240F0908072691D4616
:102518008261D7E750222946D0F8388026F013FC8C
:10252800D6E90212336804F1080023607368C4F81E
:1025380038806360336963617369A3611DF0AFFA22
:10254800B36904F14000E3639B68984794F843201B
:1025580020B1E561002AB4D05B25B3E7656C002D96
:10256800F7D06668B6FBF5F3E361002AA9D0B54257
:10257800F2D82268B2FBF5F105FB1122002A57D1E7
:1025880005FB1363002B53D120461CF077FFA3698A
:10259800043303449E424DD340F634726369CC3B06
:1025A800934249D8B5F5007FD6D3032120461CF0C5
:1025B8008EFFD4E90001E36B1B6898470546E36B7F
:1025C8000220DB6898471DB1002384F834301DE0F1
:1025D80039462046FFF716FE6428054604D13946D9
:1025E8002046FFF70FFE0546636C143B002DEBD128
:1025F800226A204602FB03F61CF040FFA36904335D
:1026080003449E4206D284F834505A25E06B1DF0EC
:10261800F7F857E70123D4E90001094A84F8343070
:102628001368013313601DF0D4FAEFE75D2549E71D
:10263800592547E75A2545E75F2543E7880F0020D6
:10264800840F00202DE9FF410F4690461E4605469F
:1026580098B390F8343093B3B1F5801F31D21A4C47
:1026680002211CF034FF2246394628460DF10F039B
:10267800FEF7FEFF024678B1012342460093394631
:1026880033462846FFF7D0FC0446E86B1DF0B8F83F
:10269800204604B0BDE8F0819DF80F30012BEBD146
:1026A8002169B142E8D10093414633462846FFF7F5
:1026B800A5F904460028DFD1E7E72124E8E711243B
:1026C800E6E72924E4E700BF501600202DE9FF4182
:1026D8000C4616461F46054680B390F834307BB347
:1026E800B1F5801F2ED2DFF8608001211CF0EFFECB
:1026F8002146424628460DF10F03FEF7B9FF04466E
:1027080070B99DF80F30012B11D1D8F81030BB42A9
:1027180012D10246009031462846FFF76FF9044669
:10272800E86B1DF06DF8204604B0BDE8F081022B7F
:1027380014BF2D246024F3E76324F1E72124F2E792
:102748001124F0E72924EEE7501600202DE9F04384
:1027580085B00C4617461E460546DDF8308098B30E
:1027680090F8343093B3B1F5801F31D2DFF864901C
:1027780001211CF0ACFE21464A4628460DF10F0304
:10278800FEF776FF044688B99DF80F30012B14D167
:10279800D9F8102006EB08039A4213D30090434659
:1027A800324639462846FFF729F90446E86B1DF0FA
:1027B80027F8204605B0BDE8F083022B14BF2D246E
:1027C8006024F3E76324F1E72124F2E71124F0E71A
:1027D8002924EEE7501600202DE9F3411F46002377
:1027E8000C46164605463B6050B390F834304BB360
:1027F800B1F5801F28D2DFF8548001211CF067FE54
:102808002146424628460DF10703FEF731FF0446EC
:10281800A0B99DF80730032B10D0022B0AD1012351
:10282800336004233B60E86B1CF0EAFF204602B0EB
:10283800BDE8F081D8F810303060F3E72D24F2E7D6
:102848002124F3E71124F1E72924EFE750160020AB
:1028580030B50C46054685B028B390F8343023B31C
:10286800B1F5801F23D202211CF031FE0DF10F03B8
:10287800214628460F4AFEF7FBFE034688B99DF815
:102888000F20032A0DD00322214600920246284633
:10289800FFF7CAFB0446E86B1CF0B2FF204605B000
:1028A80030BD2D24F7E72124F8E71124F6E7292481
:1028B800F4E700BF501600202DE9F043466886B3C0
:1028C800056898464FF0000CA946AE4655F83C40BE
:1028D8000CF1010CC4F31307013401D0B94217D02D
:1028E80066450EF1080EF1D12F46002403E0A642FA
:1028F80007F1080712D055F8343001340133F6D106
:10290800C1F3130141EA0851C7E90012BDE8F08399
:1029180041EA0851CEE90012BDE8F083B8F1030F8F
:1029280003D101230372BDE8F083002303E09E4234
:1029380009F10809F5D055F833400133C4F30754B9
:10294800032CF4D1C1F3130343EA0853C9E9003255
:10295800BDE8F0832DE9F0410646406882B0C0B179
:102968000F4690460024336853F8345003EBC403F1
:10297800C5F30752C5F31301013504F1010406D06C
:102988005B683046CDF80080B84710B17068844263
:10299800E9D302B0BDE8F081024B1968024B186810
:1029A800FFF786BDC4270020E427002008B529F0DA
:1029B8000BF9014B186008BD7C160020014B186804
:1029C80029F0FDB87C16002073B504462248012A78
:1029D80000EAC1119DF8185023F07C4007D9961ED3
:1029E800012E28D9073303F07F03194308E09DF827
:1029F8001C300A43DB0603F0C053134343F0604125
:102A08000023C4E900108DF80730B5B12022214613
:102A18000DF107001DF0F9F91A220DF10700211D2B
:102A28001DF0F3F9082063689DF8072043EA8263E4
:102A3800636002B070BD1143E2E71B220DF107008D
:102A480021461DF0E2F923689DF80720042043EA97
:102A5800C2632360EDE700BF80FFFF0738B5094B6D
:102A68000D461A680021044626F06DF900234FF040
:102A7800FF322383C4E900252361A260E382A376A1
:102A880038BD00BF2CC302080138C0B205289ABF60
:102A9800014B185C0120704731C302082DE9F04151
:102AA8000746154600240E46596888B0490A012988
:102AB80022464FEA510104F10104F8D8DC789978EC
:102AC80024031B88C90201F4006104F480540C43F8
:102AD800C3F30A035203234492B24FF000089C1830
:102AE800274B6FEA0444039325F07843ED4302A98A
:102AF8000DF107001B2202938DF807801DF085F960
:102B08009DF80720029B02A943EAC2630DF1070062
:102B18001B2225F07845049302958DF807801DF057
:102B280074F99DF80720029B6FEA144443EAC263D4
:102B380005934FF0FF330794069307A9BB69012259
:102B480006F110009847BB6905A90446012206F161
:102B580008009847BB69404518BF044604A90122EC
:102B6800301D98470122404518BF0446BB693046CE
:102B780003A99847404508BF204608B0BDE8F08142
:102B880001009AB2044BD3F88420D206FBD4D3F8C0
:102B98008400C0F3811070470040005038B5174BCF
:102BA8000546D3F828310C4603F00703013B052BF3
:102BB80020D8DFE803F003131B0F0B1727F0BAFF29
:102BC800052305B1286004B1236038BD27F0B2FFA2
:102BD8000623F6E727F0F8FF0723F2E727F0EAFFD6
:102BE8000323EEE727F0E6FF0423EAE727F0DEFFFA
:102BF8000223E6E700231846E3E700BF0080005001
:102C0800002337B50193164B0546D3F820320C46FE
:102C180003F00703042B21D8DFE803F0030B111698
:102C28001B0001230DB1019A2A6004B1236003B08F
:102C380030BD002101A8FFF7B1FF1223F2E727F00A
:102C4800C3FF07230190EDE728F0B3FF0A230190A3
:102C5800E8E728F001F809230190E3E70023E1E71A
:102C68000080005038B5104B0546D3F850320C465A
:102C780003F00303022B12D0032B08D0012B0AD038
:102C88000023184605B1286004B1236038BD28F038
:102C980093FF0C23F6E728F08CFF0A23F2E727F0CE
:102CA800DBFF0923EEE700BF0080005038B5104B6A
:102CB8000546D3F880300C4603F00303022B0BD0F3
:102CC800032B0DD0012B0FD127F03AFF0E2305B1AE
:102CD800286004B1236038BD27F076FF0723F6E7A4
:102CE80027F028FF0623F2E700231846EFE700BF86
:102CF8000080005038B5104B0546D3F800310C461B
:102D080003F00303022B0BD0032B0DD0012B0FD1A3
:102D180027F050FF032305B1286004B1236038BDB4
:102D280027F09AFF0923F6E727F04AFF0823F2E77E
:102D380001230020EFE700BF0080005038B5184B92
:102D48000546D3F820010C4600F00700062823D8D2
:102D5800DFE800F0040A0E16121A1E00012305B15E
:102D6800286004B1236038BD27F0E4FE0523F6E7A8
:102D780027F020FF0323F2E727F026FF0723EEE7DB
:102D880027F014FF0223EAE727F0D4FE0623E6E73C
:102D980027F010FF0423E2E700231846DFE700BF0F
:102DA8000080005038B5104B0546D3F840310C462A
:102DB80003F00303022B0BD0032B0DD0012B0FD1F3
:102DC80028F0F7FE0A2305B1286004B1236038BD56
:102DD80027F042FF0923F6E728F0EEFE0C23F2E77E
:102DE80001230020EFE700BF00800050002337B523
:102DF8000193164B0546D3F860320C4603F00703DF
:102E0800013B032B1FD8DFE803F0020E1914002141
:102E180001A8FFF793FF10230DB1019A2A6004B1AE
:102E2800236003B030BD002101A8FFF7BBFF1123C9
:102E3800F2E727F0C9FE07230190EDE727F0B6FE79
:102E480002230190E8E70023E6E700BF0080005076
:102E5800002337B50193164B0546D3F894320C4638
:102E680003F00703013B032B1FD8DFE803F0020E32
:102E78001914002101A8FFF761FF10230DB1019A71
:102E88002A6004B1236003B030BD002101A8FFF718
:102E980089FF1123F2E727F097FE07230190EDE75A
:102EA80027F084FE02230190E8E70023E6E700BF4D
:102EB8000080005038B5104B0546D3F860310C46F9
:102EC80003F00303022B0BD0032B0DD0012B0FD1E2
:102ED80028F06FFE0A2305B1286004B1236038BDCD
:102EE80027F0BAFE0923F6E728F066FE0C23F2E77E
:102EF80001230020EFE700BF008000502E4B9842CE
:102F08004AD022D82D4B984240D014D82C4B984206
:102F180039D00AD82B4B984232D02B4B98422FD01D
:102F28002A4B98422CD000207047294B9842FAD15E
:102F3800284B186F7047284B98422AD0274B984245
:102F4800F1D1244BD3F880007047254B98422BD001
:102F580009D8244B984223D0234B9842E3D11D4BE8
:102F6800D3F88C007047214B984221D003F57403A5
:102F780003F510539842D6D1164BD3F898007047F2
:102F8800144B986D7047134B586E7047114B586F20
:102F98007047104B986F70470E4BD3F884007047FA
:102FA8000C4BD3F8880070470A4BD3F89000704751
:102FB800084BD3F8940070470048E8010024F40057
:102FC800C0CF6A0080841E0000093D0040420F0007
:102FD800405DC6000080E00FC0EA210180BA8C0184
:102FE800007E560380D54302006CDC020090D003BB
:102FF80073B50D460021114B0191D3F88041064667
:1030080004F00304022C13D0032C0CD0012C13D190
:1030180001A8FFF793FE10240EB1019B336005B1A0
:103028002C6002B070BD27F0CFFD07240190F3E7B4
:1030380027F0BCFD0190EFE70C46EDE7008000505B
:1030480038B5104B0546D3F840320C4603F003035D
:10305800022B0BD0032B0DD0012B0FD128F0A9FD8B
:103068000A2305B1286004B1236038BD27F0F4FDB8
:103078000923F6E728F0A0FD0C23F2E7012300203E
:10308800EFE700BF0080005038B5144B0546D3F871
:1030980000020C4600F0070004281BD8DFE800F007
:1030A80003090D111500012305B1286004B123603F
:1030B80038BD28F07EFD0A23F6E727F0CDFD092369
:1030C800F2E728F079FD0C23EEE727F059FD0F23EE
:1030D800800AE9E700231846E6E700BF00800050B1
:1030E80038B5144B0546D3F808020C4600F0070023
:1030F80004281BD8DFE800F003090D11150001238F
:1031080005B1286004B1236038BD28F052FD0A23B8
:10311800F6E727F0A1FD0923F2E728F04DFD0C237F
:10312800EEE727F02DFD0F23800AE9E70023184674
:10313800E6E700BF00800050B0F5207F1FD009D817
:10314800B0F5007F15D003D868B1B0F5C07F0AD0BC
:1031580000200CE0B0F5607FFAD10B4BD3F880006B
:10316800C0F3011003E0084B186FC0F303300130BF
:103178007047054BD3F89000C0F30460F7E7024BA3
:10318800186FC0F38020F2E70080005002464FF429
:103198008030104B10B598660020FFF7CDFF5043E4
:1031A80041F671320C4BDC69DA635A6804F48034F6
:1031B80022F4401259B90949884294BF00200120DD
:1031C800000502435A600CB10022DA6310BD0449BD
:1031D800F2E700BF0090005000000350005A62025E
:1031E800002D31014209531E022B96BF074B0023C5
:1031F80003EB820300F01F0029B103F5805301227D
:1032080082401A60704703F50053F8E76080005069
:103218001FB50021B0F5807F0446CDE9001100F00C
:10322800CF803BD8002800F0A480A0F12004602CB7
:1032380044D8602C42D8DFE804F09CA49CA4B4B421
:10324800B4B4B4A4BE4AD46A4AA4A4A44141414136
:1032580041414141A4A4A47CDEA4414141414141F2
:10326800414141414141E3B49C9C9CD94A4A88E888
:103278005FB94141414141939C41B4B4B4B4B4B93C
:10328800B9A441A4A4414141414141414141414185
:10329800414141414141414141419800B0F5E06F10
:1032A80000F0A98038D8B0F5607F75D01AD8B0F58D
:1032B800007F61D005D8B0F5C07F5AD0009804B01F
:1032C80010BDB0F5207F5CD0B0F5407FF6D127F077
:1032D80057FC02464FF42070FFF72EFFB2FBF0F2C6
:1032E800520857E0B0F5B06F65D00AD8B0F5806FD6
:1032F80057D0B0F5A06FE1D100216846FFF780FCF8
:10330800DCE7B0F5C06F6CD0B0F5D06FD6D1002136
:103318006846FFF7B9FED1E7B0F5186F70D00DD841
:10332800B0F5086F7FD0B0F5106F5FD0B0F5F06FD3
:10333800C4D100216846FFF7BDFDBFE7B0F5286F8F
:1033480063D007D8B0F5206FB8D100216846FFF7E1
:103358004DFDB3E7B0F5406F28D0B0F5486FADD15B
:1033680000216846FFF774FDA8E727F0E9FB009005
:10337800A4E727F005FCFAE727F0E2FB024620461F
:1033880004E027F0FDFB02464FF42070FFF7D4FE5F
:10339800B2FBF0F2009291E701A8FFF787FC019ACF
:1033A800EDE700216846FFF7C9FC87E7002168467A
:1033B800FFF7F4FB82E700216846FFF719FE7DE777
:1033C8004FF0E02302911B695B0705D527F0D8FB76
:1033D8000290029B009371E703A902A8FFF7E2FCA1
:1033E800F7E700216846FFF7DDFC67E7002168463C
:1033F800FFF776FE62E700216846FFF721FE5DE7EA
:1034080000216846FFF72EFC58E70021084B03917E
:10341800D3F8703203F00303012B02D103A8FFF79E
:10342800C1FC039BD6E76846FFF764FC46E700BF8C
:103438000080005008B58020FFF7EAFE034B984251
:103448009EBF4FF48032024B1A6708BD005A6202D1
:1034580000A000501FB503460020B3F5807F0190FF
:1034680000F0F48000F28E80662B7DD83C2B06D8C5
:10347800243B092B5ED9019805B05DF804FB3D3B60
:10348800292BF8D801A252F823F000BF773600089C
:10349800A53600087F3400087F3400087F34000810
:1034A8007F3400087F3400087F3400087F34000828
:1034B8007F3400087F3400087F3400087F34000818
:1034C8007F3400087F340008AF3600084B36000808
:1034D8007F3400087F3400087F340008F335000883
:1034E8007F3400087F3400080D360008B93600081C
:1034F800B53500089B3600087F3400087F34000883
:103508007F3400087F3400087F340008253600081F
:103518007F3400087F3400084B3600084B3600081B
:103528004B3600084B3600084B3600089B3600081F
:103538009B360008092B9ED801A252F823F000BF41
:103548004B3600084B3600084B3600084B3600084F
:103558004B3600087F340008413600087F340008E5
:10356800D335000881360008802B84D1594B1B6F56
:1035780003F00703013B032B3FF67DAFDFE803F0C1
:103588005A535658B3F5F06F71D023D8B3F5B06FCE
:1035980052D010D8B3F5607F77D0FFF46CAFB3F595
:1035A800806F4ED0B3F5A06F7FF465AF002001A9FE
:1035B800FFF726FB5FE7B3F5D06F5DD0B3F5E06F9B
:1035C8006CD0B3F5C06F7FF456AF002001A9FFF7A8
:1035D800E9FB50E7B3F5186F65D00BD8B3F5086F62
:1035E8004FD0B3F5106F7FF446AF002001A9FFF765
:1035F80077FD40E7B3F5286F5AD008D8B3F5206FA8
:103608007FF439AF002001A9FFF7F0FB33E7B3F5EA
:10361800406F3ED0B3F5486F7FF42DAF002001A96D
:10362800FFF716FC27E70523019324E70323FBE7AD
:103638000823F9E70223F7E7002001A9FFF7D8FCE0
:1036480019E7002001A9FFF779FB14E74FF0E02301
:1036580002901B695B0705D527F092FA0D230393A7
:10366800039BE1E703A902A8FFF79CFBF8E700200A
:1036780001A9FFF71FFCFEE6002001A9FFF704FDE2
:10368800F9E601A9FFF736FBF5E601A9FFF70EFBFE
:10369800F1E6002001A9FFF781FAECE6002001A974
:1036A800FFF7CEFCE7E6002001A9FFF7DBFAE2E628
:1036B800084BD3F8703203F00303012B04D0022B1C
:1036C8000CBF15230023AFE7002103A8FFF76AFB0F
:1036D8001123A9E7008000504FF48032074B0849B6
:1036E800586E03F580535A664B6A23F001034B6208
:1036F800C3035CBF034B5A66704700BF008000508D
:103708000000085000A0005008B5FFF7A3FE0928E4
:1037180011D00A38012802D94FF6FF7008BD4FF4BE
:103728008002064B5A6603F5D8335B6ADB07F3D58C
:103738004FF4FA70F2E7024B1888EFE70090005058
:10374800082A002008B5FFF785FE03280ABF024BA8
:103758004FF6FF70188808BD062A002038B50446C1
:103768008020FFF777FE032800F083804FF4801253
:10377800524B4FF0A0615A6645F60E02504BC3F803
:103788008020504A91624FF4803102F58052916254
:103798009A6DD203FCD4996D11F08041FBD1D4E924
:1037A8000002120542EA0062E07B0243207B42EA03
:1037B8000042607B42EA0032A07B42EA80121A6132
:1037C8009869D4E90452120642EA856200F0004082
:1037D8000243A07EE57E0243207E42EA0042607EEC
:1037E80042EA00229A611A6AE06922F00F0242EA6C
:1037F8008502354D00283DD11A6294F82420996A33
:1038080094F82000D200294042EA40120A4394F872
:10381800211042EA011242F480329A622B49284A66
:10382800936D31EA0303FBD14FF080712548816223
:103838001369A56823F4700343EA055313614FF035
:103848000043836194F822300BB9214B996294F8B4
:1038580023303BB94FF480321D4B9A62184A936D5E
:103868005B00FCD494F825301BB1154B194AC3F8FA
:10387800802038BD024342F0080202281A6208D1AB
:1038880019614FF40852996113484FF47F411CF0B5
:10389800DAFA0B4994F822308A6A94F820001B0659
:1038A8002A4043EA4013134394F8242043EAC2030E
:1038B80094F8232043EA02438B62D3E70090005038
:1038C8000040005A0050005AC7FFFEFE03000100E6
:1038D8000060005AF1A7FFFF3440005A014B93F9EA
:1038E800000070471C2A0020014B1880704700BF59
:1038F800062A00204FF4800208B5184B5A660223A6
:10390800174A5360936813F48033FBD1012822D1FE
:1039180027F050F9134B984215D003F5122303F5FD
:10392800F863984213D0104B00EB8002400AB3FBB7
:10393800F0F3520A0A49CA620B6301234B62002260
:10394800074B5A6008BD45F67A13084AF2E745F670
:103958001A03074AEEE75362F1E700BF00900050F0
:103968000040025000F0490264666666D8B8050057
:10397800BBCF0500B0F5207F10B50C465DD008D848
:10398800B0F5007F4ED003D8C0B1B0F5C07F15D0D8
:1039980010BDB0F5607FFBD12C4B4C1ED3F8FC203A
:1039A8002B4912F0807F4FEA041427D1D1F88030D8
:1039B80023F030032343C1F88030E9E71CF052FAC2
:1039C8001CF05EFA4FF48031224B214A1967136FBD
:1039D800013C23F4704343EA0433136727F0D0F81B
:1039E8000446FFF7CFF8C0F1020120461CF042FA66
:1039F80000F04AF8BDE81040FFF71CBDD3F8FC20E2
:103A080022F08072C3F8FC20D1F8802022F0300226
:103A18002243C1F88020D3F8FC2042F08072C3F81A
:103A2800FC20B5E70A4A4C1ED2F8903023F0F85330
:103A380043EA0463C2F89030AAE7054A4C1E136FA4
:103A480023F4806343EA84231367A1E700ED00E0D1
:103A5800008000500090005008B50121022000F0BD
:103A680095F94FF42070FFF767FB054B18701CF0B1
:103A7800F9F91CF005FA4FF48032024B1A6708BDB9
:103A8800D22400200090005008B54FF4C070FFF712
:103A9800BFFBBDE808400449884294BF01210221C8
:103AA8004FF42070FFF766BF80F0FA0238B504467D
:103AB80027F066F80546FFF765F8C0F102012846C9
:103AC8001CF0D8F90121002000F0A0F92CB1FFF773
:103AD800DBFFBDE83840FFF7ADBC034B4FF4207067
:103AE8001978FFF747FFF4E7D22400204FF4C022EB
:103AF80070B50546FFF702FA314B04465A6603F5DE
:103B080098335A68012A04D12E494A605A689207A4
:103B1800FCD48020FFF79EFC052807D11CF0A2F9F1
:103B28001CF0AEF94FF48032254B1A67264B24F06F
:103B380040749D4230D0254B9D4230D026F0FAFF8C
:103B48008542064603D90121284600F05FF9204B3B
:103B5800DA6812F0060FFBD199689C609A68624097
:103B680012F4F81F1ED12846FDF724FA8020FFF72B
:103B780071FC05280DD127F003F80446FFF702F879
:103B8800C0F1020120461CF075F9FFF77DFFFFF731
:103B980051FCAE420CD270BD44F00074CEE744F044
:103BA8008074CBE780209960FFF754FC052805D086
:103BB800BDE870400121002000F028B93546DAE759
:103BC8000090005000E0015040420F0080841E0029
:103BD80000000150304B314A984251D020D8A3F50B
:103BE800B703A3F55863984246D00DD82C4B98429A
:103BF80031D02C4B984239D02B4B4FF400219842AE
:103C08001DD00023516622E0284B4FF40021984232
:103C1800F7D1274BD3F8BC30516623F0407316E038
:103C2800244B984230D0244B984231D0234B4FF448
:103C380000219842E5D11E4BD3F8C830ECE71C4B65
:103C4800D3F8A030516623F0407343F000734FF06F
:103C5800B442936070474FF40021154BD3F8A0305D
:103C6800516623F0407343F08073F0E7104BD3F8AC
:103C7800A0304FF40021CFE70D4BD3F8B830F8E768
:103C88000B4BD3F8C030F4E7094BD3F8CC30F0E74E
:103C9800074BD3F8D030ECE7C0EA21010090005080
:103CA80080841E0000093D0040420F000024F400FB
:103CB8000080E00F0048E801005A620280BA8C01D7
:103CC800024A536B0342FCD1704700BF0080095081
:103CD800044A4178536F23F4407343EA012353673E
:103CE800704700BF004000500E4A10B513690446E3
:103CF80043F00403136127F04DFB1CF0C6F80A4B90
:103D08005B6E5B0142BF094B094AC3F8202430BFF0
:103D18001CF0BCF803F050F91CB9BDE8104026F0BF
:103D28002FBF10BD00ED00E00080005000E0035000
:103D38000000FF0F0C4A10B51369044643F0040352
:103D480013610A4B5B6E5B0142BF094B094AC3F81A
:103D5800202427F01FFB30BF03F02EF91CB9BDE863
:103D6800104026F00DBF10BD00ED00E000800050AF
:103D780000E003500000FF0F034A0179D36E23F0DF
:103D880030030B43D366704700400050F8B5044633
:103D98001C4BD3F88420D106FBD4D3F88430C3F36A
:103DA80081139C422CD026F0CBFE012C064602D172
:103DB80021461CF05FF827F007FF4FF00072124B06
:103DC80007465A6620461CF064F84FF480630D4D90
:103DD800621E93402B676B6E9A0103D4D5F884302A
:103DE8009B060AD5384627F0EAFE022C08D1304651
:103DF800BDE8F84000211CF03DB8D5F88430EAE76A
:103E0800F8BD00BF004000500060005010B50C46DF
:103E180008B926F095FE074B21461B783BB1064BA7
:103E2800984204D80120BDE81040FFF7AFBF022038
:103E3800F9E700BFD3240020005A62020278034B3E
:103E4800012100201A70FFF7E1BF00BFD324002032
:103E58004FF0004238B5244B244C5A664AF6CD330D
:103E6800656C014605F00105236428BB0120FFF7B6
:103E780027FF6368DB0715D51D4B586008461D4BA7
:103E8800226BD2070CD4984208D1072415B1174BDE
:103E9800194A1A6424F0C0F8204638BD0130EFE70B
:103EA8009842F2D00024F1E70132236B13F00803A3
:103EB80005D08A42F8D1E8E700220E49F5E78A42A0
:103EC800E3D020210A4A91620121A2F58052516073
:103ED8000649084A886A800603D49342D5D001333C
:103EE800F8E79342DDE700BF0090005000800950DA
:103EF80000A0095040420F003254FFFF4FF000422B
:103F080038B5164B01465A664AF6CD33144C154A55
:103F1800656C236443780B205B0043F00103D36393
:103F2800FFF7CEFE63688A7823F4F87343EA021336
:103F38006360CA784B7943EA0223A3600A798B79D4
:103F480043EA022323610878FFF782FFEB0744BFA7
:103F5800054B236424F060F8012038BD0090005020
:103F680000800950004000503254FFFF4FF00042DB
:103F7800124B70B55D6E03F580535A664AF6CD3321
:103F880004460F4980204E6C0B64FFF799FE0B6ABC
:103F980023F00F030F2C94BF234343F00F030B624E
:103FA800F30744BF074B0B64002DA2BF4FF000423C
:103FB800054B5A6624F030F870BD00BF00800050F1
:103FC800008009503254FFFF00A000504FF000421B
:103FD800104B70B55D6E03F580535A664AF6CD33C3
:103FE80004460D4980204E6C0B64FFF769FE0B6A8E
:103FF80023F4F85343EA04230B62F30744BF074B47
:104008000B64002DA2BF4FF00042054B5A6624F006
:1040180003F870BD00800050008009503254FFFF43
:1040280000A000504FF48032054B9A6641F6713279
:1040380003F51C33DA63012203F50053DA60704795
:104048000090005041F671320121064BDA6303F506
:104058000052D1600022DA634FF48032A3F518339E
:104068009A66704700000350013836289ABF024B01
:10407800185C0020704700BF37C3020838B5C2F388
:104088000625044602F0070241B942EA052242F435
:1040980040220634074B43F8242038BD11462846F1
:1040A8001BF0F8FE02462846FFF7DEFF163442EA08
:1040B8000022EFE7008003504FF48032084B5A6625
:1040C80003F5EE239B69C3F3461203F00F010A437D
:1040D8004280C3F30342C3F3033342700370704753
:1040E80000900050014B986CD96C70470080E00F2D
:1040F8000120034B9B680A3303F01F039840704765
:104108000080E00F0122437801789A403023594318
:10411800014B5A50704700BF40E00350034BD3F89F
:104128002424D3F820041040704700BF00C0035077
:10413800064BDA6E02F03002202A06D0DA6E22F040
:10414800300208B142F01002DA66704700400050B1
:104158002DE9F8431F4B0546D3F810334B1E0E2BA1
:104168000E461746047890F8018026D951B34FF0CF
:10417800000928461FB326F07FFD0F21B8F1070F6D
:1041880004EB440488BFA8F108084FEA0414124855
:1041980095BF4FEA88084FEA880804340C3409FAB6
:1041A80008F201FA08F120441BF095FE86B928466A
:1041B80057B1BDE8F84326F05FBD8946D9E7FFF758
:1041C800A1FFDAE78946D8E7BDE8F843FFF79ABFC9
:1041D800BDE8F88300C0035030C003502DE9F0411A
:1041E8002B4B1746D3F810234A1C06460C4640783A
:1041F80004D1D3F824141BF07DFE0446002C2FDBD9
:10420800072C4FF0030532782DDC4FEA840805FAB5
:1042180008F529461F4802FA08F21BF05CFE2946F9
:1042280072781D4802F0030202FA08F21BF053FEEE
:10423800012317F0050F194A18BF194903FA04F3A7
:104248000CBFC2F81034C1F8103417F0060F18BFAD
:10425800134AC2F814340123104AA340C2F8203488
:104268002046BDE8F081A4F108084FEA880805FA5D
:1042780008F529460B4802FA08F21BF02CFE727862
:10428800294602F00302084802FA08F2CEE700BF06
:1042980000C0035000C4035008C4035000E003509A
:1042A80000D0035004C403500CC4035038B505466D
:1042B8000C4C0140D4F8303423EA0003C4F83034FD
:1042C800D4F830341943C4F83014D4F82C340343E8
:1042D800C4F82C34012004F50054FFF729FFC4F872
:1042E800205438BD00C00350124B70B5D3F81033BA
:1042F80006461BF019FE0446481C154603D1621CED
:1043080005D1204670BD631CFBD08C420ED13046CF
:10431800032185F00102FFF71BFF012004F11003C0
:1043280005FA03F19840FFF7C1FFEAE74FF0FF34C1
:10433800E7E700BF00C00350054B9A689107FCD41B
:104348005A689207F9D4DA69002AF6D1704700BF93
:1043580000C00A5008B526F09BFC0222014B1A61E6
:1043680008BD00BF00C00A5008B5FFF7E5FF0122ED
:10437800024B03F580514A601A6108BD00C00A501B
:1043880008B5044B5968012903D1FFF7E3FF024B35
:10439800596008BD00C00A5000E00A5010B5064C2C
:1043A800FFF7CAFF6368012B03D1FFF7E9FFFFF7A7
:1043B800C3FF0378E36010BD00C00A50B8B94A686B
:1043C8000B7812B1127843EAC2034A7843EA4203EF
:1043D8008A6812B1127843EA82138A7843EA820320
:1043E800CA6812B1127843EA4223014A93647047BB
:1043F80000C00A504FF480320A4B5A6603F5EE2388
:104408009B69C3F303320270C3F303424270C3F3E0
:10441800461203F00F03134343804FF6FF73838064
:10442800704700BF0090005040F6B732064B5B68FB
:104438009BB293429FBF4FF47A72B3FBF2F3034AE5
:10444800D05C88BF002070470080E00F6EC3020870
:10445800014B986CD96C70470080E00F70B504462A
:1044680023F005FE064630B90FCC044D0FC594E87D
:10447800030085E80300304670BD00BF80160020A9
:1044880047F6FF739A42F0B56FD002296FD8394BBF
:104498005B5C012B6BD8384DDF0005EBC30415F8C6
:1044A8003330A178012B13D10025E078401AA842B7
:1044B80002D80844C0B2F0BD431B6668A0EB5303A2
:1044C80036F913609642D4BF1D4603F1FF30EEE77C
:1044D80060680028EFD0B0F90040944204DBB0F9DE
:1044E80002409442B8BF144683883D44FF2B19BF4D
:1044F800C8224FF0280CB0F90620B0F908C0A2EB8A
:1045080004030CBF0126002693FBFCF333446E78AA
:104518001BB29E4201DD002B01DA731E1BB24FF461
:104528007A7C01339BB2071D5D1E2DB24FEAC50E82
:1045380000EBC505EA88AD689E4214FB025222EAE8
:10454800E27202F15C02B2FBFCF204DD37F8335090
:1045580001339542E8D200EB0E039888904228BFB9
:104568001046884238BF0846A4E7FF20A3E700208A
:10457800A1E700BF71C30208801600200229F0B528
:1045880055D82C4B585C012851D82B4C04EBC00152
:1045980014F830004B6801280FD1C8788C78904205
:1045A80094BFC4EB0001C4EB0201001BCAB28242F3
:1045B800C8BF002233F91200F0BD002B37D088782D
:1045C800904202D3B3F90200F6E7CC78B3F90000C1
:1045D8009442F1D94C789988013CA1F1FF067142C7
:1045E80003F10405E4B2714103F10C07CEB2B44201
:1045F80016D805EBC1014FF47A756A43B1F9024048
:104608004968521A04EBD47102EB610292FBF4F28E
:104618009042D1DBB3F902009042CDDC10B2CBE777
:1046280037F831C04E1C9445E3D33146DEE70348E2
:10463800C2E700BF71C30208801600200080FFFF98
:1046480008B50448FFF70AFFBDE80840012023F039
:1046580012BD00BF74C30208004870470A2A002030
:104668007FB50222084B0949CDE901234FF0407379
:10467800CDE90313052301A94FF0FF30059323F07B
:1046880043FD07B05DF804FB006A1800000304004E
:104698002DE9F0418CB08846DDE912761D460446C6
:1046A800002847D0002945D0002F43D0002E41D004
:1046B80013F00F033ED120482049A360002A08BF09
:1046C8000146E361C4E90013404609A91BF065FDF2
:1046D80068BB2046099927F086FA2946204627F024
:1046E80082FA6946404600F0DFFA00BB6946204678
:1046F8001BF080FF404603A91BF04EFEB8B92046C8
:1047080003A91BF077FF06970127204645F00055BF
:1047180006A9079708951BF06DFF204609A9099679
:104728000A970B951BF070FF204626F0FBFA0CB099
:10473800BDE8F0812120FAE700010004000101042E
:104748002DE9F0418CB0884616461D460446129F56
:1047580000284BD0002949D0002A47D0002F45D047
:104768000B68103B102B41D8214A22FA03F3D907D2
:104778003CD500231F4A8360C0E90023C36109A90F
:1047880040461BF00AFD70BB2046099927F02BFA1A
:104798002946204627F027FA6946404600F084FA61
:1047A80008BB694620461BF025FF404603A91BF0BD
:1047B800F3FDC0B9204603A91BF01CFF069601268D
:1047C800204606A945F00055079608951BF012FFEC
:1047D800094B204609A909970A960B931BF014FF69
:1047E800204626F09FFA0CB0BDE8F0812120FAE7B8
:1047F800010101000000040410000020F0B50C467F
:1048080017461E46054695B0002874D0002972D078
:10481800002A70D0002B6ED0036B0F2B5BD80023BF
:10482800364A3846C4E90023A360E36111A91BF0A6
:10483800B4FC00285BD12046119927F0D4F9296BE4
:1048480020460F2984BF01F00F01103127F0CBF962
:10485800384602A900F028FA002848D1204602A9C3
:104868001BF0C8FE384605A91BF096FD00283ED16E
:10487800204605A91BF0BEFE0122214B089509928E
:104888000A932B6B05F1100003F00F0141F0005162
:104898000B900F2B0C920D910E900F9243F000523B
:1048A800109226D90A9B08A923F0005320460A93A0
:1048B8001BF0A0FE0BA920461BF09CFE01231196BD
:1048C80012930F4B204611A913931BF09DFE20460F
:1048D80026F028FA0BE000F1200301900093012252
:1048E800102339462046FFF7D3FE002897D015B08D
:1048F800F0BD0EA9DFE72120F9E700BF000004049E
:10490800100000202DE9F04F9BB00C4690461F4642
:104918000546DDF89090002800F0B280002900F0EC
:10492800AF80002A00F0AC80002B00F0A980026B59
:1049380002EB09031B09B3EB121F02F00F0600F08C
:10494800978000234F4A8B60C1E90023CB61404622
:1049580017A91BF022FC0346002840F0858006EBCF
:10496800090B204617992BF00F0A27F03CF95146FE
:10497800204627F038F9404602A900F095F9034689
:10498800002871D1204602A91BF034FE404605A933
:104998001BF002FD0346002866D14FF00108019084
:1049A80005A920461BF026FE374A204608A9089587
:1049B800CDF824800A921BF01DFE46F00051AAEBA8
:1049C800060605F1100346F000560B93CDF830802B
:1049D8000D910E97CDF83C8010960D99204621F048
:1049E80000510D910BA900931BF004FE20460EA95F
:1049F8001BF000FE019B244A1193AAF1100343F017
:104A08000053CDF84880139305F120031493CDF893
:104A180054801692139B204643F080431393139BB4
:104A280011A923F0005313931BF0EEFD204614A99F
:104A38001BF0EAFD144A17A920461795CDF86080A7
:104A480019921BF0E1FD204626F06CF9AAEB0B0148
:104A580049440190ABEB0A020098394424F07EF9EE
:104A6800019B2A6B4A442A6318461BB0BDE8F08FA5
:104A780010304A463946304424F070F90023F0E7F4
:104A88002123F1E703020004100000202DE9FF476D
:104A98004FF000080E4617460446CDF8008000285F
:104AA80059D022B90025284604B0BDE8F08700296E
:104AB80051D032F0030902F0030A1FD04FF0E0632F
:104AC800C0E9003801230191C0F808800293C0F8BA
:104AD8001C8049F0005301A903931BF095FD49463A
:104AE800204627F080F8204626F01CF9054628B114
:104AF8004A464146304624F026F9D4E7BAF1000F79
:104B0800D0D04FF000084FF0E063C4E9003801232B
:104B1800CDF804D00293114B204601A9C4F80880AF
:104B2800C4F81C8003931BF06FFD0421204627F076
:104B38005AF8204626F0F6F8054608B13A46D8E76E
:104B4800009A4E44EB00013522FA03F3AA4506F811
:104B5800013BF7D1A6E72125A5E700BF0400002007
:104B6800F0B50F4616461D46044693B010B92120ED
:104B780013B0F0BD0029FAD0002AF8D0002BF6D0E7
:104B8800002331461A4638461BF0ACFA0028EFD10C
:104B9800304602A91BF042FA0028E9D1EB68022B43
:104BA8000AD039683F48029A81426B6902D01830AE
:104BB800814270D19A42DAD82B68002BD7D14FF0B6
:104BC80060623846C4E90023A360E36101A91BF0D1
:104BD800E4FA0028CCD10199204621F4F061019132
:104BE80027F001F8694628461BF0D7FA0028BFD1FC
:104BF8002046009926F0F7FF384609A900F054F836
:104C08000028B5D1204609A91BF0F4FC38460CA9A8
:104C18001BF0C2FB0028ABD120460CA91BF0EAFC14
:104C2800EB684BB1284606A900F03EF800289FD152
:104C3800204606A91BF0DEFC304603A91BF0ACFB9E
:104C4800002895D1B368DA040CD59B0427D5062132
:104C5800F36932691B6801FB03225B0043F00053D0
:104C680003920593204603A91BF0C4FC28460FA90C
:104C78001BF092FB00287FF47BAF20460FA91BF0A6
:104C8800C3FC0325204626F04DF801287FF470AFB9
:104C9800013DF7D16CE7B3EB420F8DD267E72920CE
:104CA80066E700BF200000B090B189B101234B60D6
:104CB800C368013B012B08D88269064B1AB10A6008
:104CC80000208B607047044AF9E74FF00053F7E77C
:104CD800212070470800002048D5020870B50E460C
:104CE800154604468AB000285BD0002959D0002A0E
:104CF80057D0012329461A4630461BF0F3F90028FD
:104D08004DD1B36813F4C04F4BD0AB6803F4C04324
:104D1800B3F5005F45D1254BA060C4E90030E061E0
:104D280007A930461BF039FA002838D120460799E0
:104D380026F059FF304601A9FFF7B6FF78BB204699
:104D48001BF058FC304604A91BF026FB38BB204654
:104D580004A91BF04FFCEB681BBBAB6803F4C04312
:104D6800B3F5005F1DD1694628461BF082F9B0B93A
:104D7800009B6A699A4216D32A6943F00053079246
:104D88000122204607A90892032509931BF03CFC41
:104D9800204625F0C7FF012801D1013DF8D10AB00E
:104DA80070BD2120FBE71D20F9E700BF00000102CC
:104DB80006289ABF014B185C0020704750D502089E
:104DC80030B5154B87B00293144B0390049346F605
:104DD80011030D46059300F077F91428044616D1FF
:104DE80068461BF0ADFC4FF0A843032202A95A63A2
:104DF80019601D619A63DA6B9207FCD1142C02D1F9
:104E080068461BF0ABFC00F093F9044601E000286B
:104E1800E9D0204607B030BD9816002004000020D5
:104E28002DE9F04FB1B005468C469E46E8466F4ED8
:104E3800DDF8EC90409C06F1100A4746306871682E
:104E4800083603C75645B846F7D13E9B03EB020820
:104E5800C8F1000A0AF00F0AB9F1000F00F09D80AE
:104E6800C9F1000707F00F070121DDF8FCB044F095
:104E78000050C4F11006CDF810B00591069030022C
:104E880000F4F85040F021000790B9F1000F40F00D
:104E98008680CDF820D047F00050002D00F08480A7
:104EA800099121210A9041EA07210B9142F0005013
:104EB800CDF830C03D9B08A94FEA0A2C0D910E9001
:104EC8004CF041000F901093002A75D13E9B119130
:104ED80043F0005312933C9B1390149310AB15931B
:104EE800434B444A169340F611031793424B002153
:104EF800002D08BF1346189314AB19933F4B10228B
:104F08001A9311231B931CAB184623F01CFF012294
:104F18001D92002246F0804603461E96239205B94C
:104F2800EB46102CCDF880B024AE4BD1012322469D
:104F3800002130462193229423F005FF20AB002165
:104F480025938F4218BF334647F0804226923A9AFB
:104F58002CA828922993B2FA82F35B0949EA837351
:104F680010222B912A9323F0EEFEB9F1000F00D006
:104F780028AED04448F080432CA918A82D962E932B
:104F8800FFF71EFF30B92DB90346A34225D10028EB
:104F980018BF2C2031B0BDE8F08F102764E7CDF89A
:104FA80020E049F0005078E7002C3FF479AF04A9DD
:104FB800099101210A9076E73E9B0CAA11924120A3
:104FC800129388E71022002130462193229423F07F
:104FD800BAFE002CB2D10123B1E703F1C0026A4442
:104FE80012F8C02C01331043CFE700BF57D5020891
:104FF800100000206CD5020870D5020804000020BB
:10500800F0B5C0299FB0DDE9244557D0B1F5807FC0
:1050180004D0802948D029201FB0F0BD01265CB1FA
:1050280040F23447029410240396049421240197F3
:105038000594069502AC0AE040F214470294102445
:105048000396049421240594012401970695079456
:1050580001251024089409950A9221220B950C9495
:105068000D92174A0AAD0E92164A0F95109242F603
:1050780011021192129313951494159201AA169283
:10508800D3B112AB1793042318931123199316ABBA
:105098001A901B9340F61103C9081C911AA806A977
:1050A8001D93FFF78DFEB7E7012614B94FF4826709
:1050B800C4E74FF48667B5E70EABE3E70F20ABE72D
:1050C80068D502081000001038B5164B5A6E42F029
:1050D80004025A66D3F8802242F00102C3F8802203
:1050E800114B5B68C3F3080343B14FF0A842D36B7D
:1050F80013F0430FFBD11424204638BD4FF0A843CA
:10510800DC6B14F04304FBD1084D2B681BB9042158
:1051180028461CF068FD2B68013343F000432B60E0
:10512800EAE700BF0080005000ED00E0981600207C
:10513800014B00205B68704700ED00E0012300F0A0
:105148001F02A0F506200949A0F5506040099340C8
:1051580051F820201A4341F82020054951F8202011
:1051680022EA030241F82020704700BFB016002051
:105178009C1600200121A0F506230E4AA3F55063D2
:105188005B0900F01F00814052F82300014342F8F8
:1051980023100949D1E90030034488680344C868EA
:1051A800096903445B1802BFC2E90033C2E902334C
:1051B800136170479C160020B01600202DE9F04FAF
:1051C800A9B003921D4604460822339ECDE9040186
:1051D800414021FA02F34B40980702F1080218BF38
:1051E8009B00202A1C44F4D18123B4FBF3F303EB86
:1051F800C313E41A734B04F506241B7804F55064B2
:10520800002B3ED1FDF7C8FB074620B16FF0910097
:1052180029B0BDE8F08F0146402208A823F093FD8D
:105228004022394618A823F08EFDDFF8B081DFF858
:10523800B091C3460BF10F0ACDF800A0102208A9BF
:105248005B46D9F800001AF006FC0022014608F176
:10525800100808AF914246D1CDF800A05B46102255
:10526800D9F8000018A91AF0FFFB4FF0000A83468E
:1052780018AFD34541D1544B9845DAD10122514B4F
:105288001A704FF0810A4FF00008DFF858B1A4F502
:105298000627A7F550635B095BF8232004F01F017C
:1052A800CA40D2073DD4494A52F82330CB40DB07E5
:1052B8002AD5B8F1000F08BFA0468123A7F6FF47FB
:1052C800B7FBF3F303EBC313FF1A07F50624BAF190
:1052D800010A04F55064DAD1039BBBB1B8F1000FA1
:1052E80014D0444619E057F8040BCDE90612FFF72D
:1052F80025FF079A06990132ACE757F8040BFFF728
:1053080039FF0AF1010AB4E7039B13B96FF08B0068
:105318007EE7B8F1000F18BF4446349B00201C609C
:1053280076E7329B13B10023329A13600EB1002343
:1053380033601023DFF8A89000932A460023214603
:10534800D9F80000FDF702FA60BB32992A68204BB1
:10535800C9B99A4206D02146D9F80000FDF778FA73
:105368000028D3D1D5E90223DDE90410834208BF20
:105378008A42A2D1039B002BCFD06B68012BCCD1E2
:105388006FF0840044E7102032999A420860E2D115
:10539800002EE7D033462146D9F8000018AAFDF7B9
:1053A8001BFA40B10B4B9842D5D06328D3D00A4B97
:1053B8009842D7D02AE7329A336812689B1A33602A
:1053C800D0E700BFD4240020007108009C160020FC
:1053D800105D175EFFDF00F0FEDF00F0006D0800D3
:1053E800E4270020B01600202DE9F04F87B0824650
:1053F800894698461646DDF840B02AB1002B4FD0B2
:1054080040F26C739A424ED8BBF1010F4ED800247B
:1054180006F110073946012005941BF089FE054660
:10542800002846D021463A4623F08DFC05ABCDE94D
:10543800014300942B46012250464946FFF7BEFE21
:10544800044680B110F18C0F08BF6FF08D043A4606
:105458000021284623F077FC28461BF04BFE204607
:1054680007B0BDE8F08F144BC5E902A92B60C5F859
:1054780004B02EB13246414605F1100023F06EFC0F
:10548800059E0E483B462A4631460068FDF7DAF885
:1054980018B93046FFF752FED9E76FF09104D6E706
:1054A8006FF08604DBE76FF09104D8E76FF08504AE
:1054B800D5E76FF08C04D2E7105D175EE427002073
:1054C8002DE9F0438DB08146DDE914780E46154686
:1054D8001C469BB1B8F1000F05D16FF08606304627
:1054E8000DB0BDE8F083002FF7D0B7F1005FF4D31B
:1054F800C3F1005303F500239F42EED81022002188
:1055080008A823F020FC002207AB029305AB019307
:1055180006AB31460093484608ABCDE90522FFF7B4
:105528004DFE06460028DAD1059BA4B1AB4215D83A
:1055380053EA0504D1D1069B0B48C8F800400094F3
:105548003A46079900682B44FDF700F9002818BF70
:105558006FF09106C3E7AB42EDD2BEE75B1B9C42FE
:1055680028BF1C46E7E700BFE427002030B58DB010
:105578000C4605461022002108A823F0E4FB00226F
:1055880007AB029305AB019306AB2146009328466F
:1055980008ABCDE90522FFF711FE0446D8B9099BEF
:1055A800012B1BD0079D104B29461868FDF750F9B1
:1055B800B8B90122A5F506230C49A3F550635B0988
:1055C80005F01F00824051F823004240284641F868
:1055D8002320FFF7CFFD20460DB030BD6FF08404C7
:1055E800F9E76FF09104F6E7E4270020B0160020F1
:1055F8002DE9F04F95B00446DDE92075DDE9226814
:105608009346DDE91E028A46DDF8909029B96FF0CD
:105618008604204615B0BDE8F08FBBF1000FF6D028
:105628000FB9002DF3D108B9002AF0D116B9B8F195
:10563800000FECD1B9F1000FE9D02C4A934251D1B7
:105648002388B3F5105F4DD1242200210BA823F045
:105658007AFB2022002103A823F075FB0BA81AF07F
:10566800CEFC10B16FF09204D3E720465A4651465B
:1056780003AB00F00DFA04460028CAD103981BF0CA
:10568800C5F804460028C4D115B9C9F80050C0E7C8
:10569800B74224D27B199E4221D24545B7D8394614
:1056A8002A46304623F035FB374615F00F0AAED1AF
:1056B800CDE900762B46524603A90BA8FEF7E8FF72
:1056C80007460028E1D042465146304623F03BFBCE
:1056D800012FC9F800A0C5D16FF08B0499E74545A3
:1056E800E3D994E76FF0850493E700BF00444004D2
:1056F8002DE9F047C2B00C4607460021154668461A
:1057080020229A464A9EDDF83091DDF8388123F050
:105718001AFB202200210DEB020023F014FB2022AB
:10572800002110A823F00FFB2422002118A823F041
:105738000AFB0021802222A8219123F004FB3CB11E
:1057480035B12EB1B9F1000F02D0B8F1000F05D173
:105758006FF08604204642B0BDE8F0872188628851
:1057680001F4E043B3F5804FF2D02C4B2C483B407A
:1057780043F01063834202D06FF08504EAE7D31D3B
:10578800BAEBD30F4FEAD307E2D34D9B9F423FD8E2
:1057980047F212139942EFD1B2F5807FECD1214B39
:1057A8004B98089384230230013620F003001593A8
:1057B8007B000C960D90119320466B465246294665
:1057C80021AE149600F064F904460028C2D10A9B61
:1057D800109043F4005318A80A931AF010FCD0B99B
:1057E800694610AB08AA18A8FFF7BAF9054610B120
:1057F8004828ADD1C0E73A463146484623F0AEFACC
:105808002B4673550135842DFBD1C8F80070A1E7EC
:105818006FF089049EE76FF092049BE70000FFF6A3
:1058280000000209200000802DE9F0410D461446D1
:105838001E46C4B010B96FF086000DE00029FAD0FA
:10584800002AF8D0002BF6D0038803F44F42B2F5B3
:10585800824F04D06FF0850044B0BDE8F081DAB221
:10586800122AF7D123F0FF03B3F5E24F27D143887B
:105878003360FBB9E3003360B3F5807FEAD10023DE
:10588800184642492E19214411F8014D16F8012DE8
:105898001043121B0CBF4FF0FF340024B54203EA3B
:1058A800040343EA0203EFD10028C4D0002BC2DA74
:1058B8000020D1E7DA1DB4EBD20FDDD0BBE7B3F59A
:1058C800824F5FD10B78042BB5D12422002119A86F
:1058D80023F039FA19A81AF092FB00284FD10027B3
:1058E8008422394623A8229723F02DFA01234FF06A
:1058F800880820223946013C01A88DF888300135F6
:1059080023F021FA20223946069409A8E4000595D7
:10591800640823F018FA22AD2022394611A80D9503
:10592800CDF8388023F00FFAE02CCDE91558346013
:1059380003D0B4F5807F7FF47EAF154B0734019315
:1059480009934FF4005303934FF48043E4080B93F7
:1059580001AA11AB640009A919A81294FFF700F96C
:1059680033680733DB085A0033B10021531E013B6B
:10597800297005F10105FAD2002899D05BE76FF08C
:10598800920069E76FF0960066E700BF74D50208D9
:1059980020000080F8B5134642880C460732072AD3
:1059A8004FEAD20101D0A1426DD1D0E90167058843
:1059B80020221846002123F0C6F9360A034626B1EC
:1059C800012E11D06FF08B00F8BD002C5BD041F296
:1059D8000102954205D0B5F5885F02D0B5F5905F14
:1059E8001BD15C600020EFE7C660002C4BD041F271
:1059F800010295420BD15C60B90707F001021FD480
:105A0800002AEFD19A6842F080729A60EAE7B5F509
:105A1800885FF0D0B5F5905FEDD0B5F5105F0AD18D
:105A2800182C03D0202C01D0102C2CD1C3E9004411
:105A3800002ED7D0E0E705F44F42B2F5824F02D0EE
:105A48006FF08500C0E7EAB2122AF9D1202CF7D10D
:105A58000E4A25F0FF05B5F5E24F1A600CD0B5F5F2
:105A6800824F10D14FF4005217F4705F09D017F429
:105A7800864F04D09A60E3E74FF48042F4E742F49B
:105A880080629A60D4E76FF086009DE7200000806E
:105A98002DE9F041174600221C4643688CB01B0ACA
:105AA80080460D46009204D0012B56D06FF08B0033
:105AB8008EE0008820F0FF03B3F5824F15D1B8F8C7
:105AC80002200732D20800921AF0ACFE002800F03B
