:020000040800F2
:10000000C00A00203D0C0008A7340208A7340208EB
:1000100055840208A7340208A7340208A73402084E
:10002000A7340208A7340208A7340208A73402083C
:10003000A7340208A73402083D850208A734020845
:10004000A7340208A7340208A7340208A73402081C
:10005000A7340208A7340208A7340208A73402080C
:10006000A7340208A7340208A7340208A7340208FC
:10007000A7340208A7340208A7340208A7340208EC
:10008000A7340208A7340208A7340208A7340208DC
:10009000A7340208A7340208A7340208A7340208CC
:1000A000A7340208A7340208A7340208A7340208BC
:1000B000A7340208A7340208A7340208A7340208AC
:1000C000A7340208A7340208A7340208A73402089C
:1000D000A7340208A7340208A73402087B390208B3
:1000E00053390208A7340208A7340208A7340208CB
:1000F000A7340208F1CA01088DD501088711030849
:100100008311030835CD01089D1103088B110308E5
:100110005DD501088F110308CDD5010839D6010836
:10012000A7340208A7340208A7340208A73402083B
:10013000F9800208A7340208A7340208A73402088D
:10014000A7340208A7340208A7340208A73402081B
:10015000A7340208A7340208A7340208A73402080B
:10016000A7340208A7340208A7340208A7340208FB
:10017000A7340208A7340208A7340208A7340208EB
:10018000A7340208A7340208A7340208FD54030864
:100190009DB00108A7340208711103087711030804
:1001A000A7340208A7340208A7340208A7340208BB
:0401B000A734020866
:1001B40000B583B0184BDB6903F48033002B02D005
:1001C4006FF0010324E0144B03F580531A46012316
:1001D400D360114B03F500531A46012313640E4BED
:1001E4004FF480721A610021012000F0D3F8034615
:1001F4008DF80730084B03F580531A460123136426
:10020400054B03F500531A460123D3609DF90730CB
:10021400184603B05DF804FB0000035000B585B038
:100224000190234B03F580531A464FF480339366B1
:10023400204BDB6903F48033002B14BF012300231C
:100244008DF80E301B4B41F67132DA63194B03F50E
:1002540080531A460123D360164A019B5361154B00
:1002640002221A610021212000F094F803468DF83F
:100274000F309DF90F30002B06D10021212000F012
:1002840089F803468DF80F300A4B03F500531A46DC
:100294000123D3609DF80E30002B02D0054B0022C1
:1002A400DA639DF90F30184605B05DF804FB00BF12
:1002B400008000500000035000B58BB00390029101
:1002C400019200238DF81F30304B03F580531A46FA
:1002D4004FF4803393662E4BDB6903F48033002B99
:1002E40014BF012300238DF81E30294B41F67132CF
:1002F400DA63274B03F580531A460123D360039B2B
:100304000993029B089329E0019B0693099B03F53B
:10031400005323F4FF5323F01F03099A9B1A0593F8
:10032400059A069B934228BF13460493049A08999E
:10033400099800F06FF803468DF81F309DF91F30BF
:10034400002B0FD1099A049B13440993089A049B28
:1003540013440893019A049BD31A0193019B002B25
:10036400D2D100E000BF0A4B03F500531A46012323
:10037400D3609DF81E30002B02D0054B0022DA63B7
:100384009DF91F3018460BB05DF804FB0080005047
:100394000000035084B0019000911B4B03932AE0AA
:1003A4001A4BDB690293029B03F00403002B02D077
:1003B4004FF0FF3324E0019B03F00103002B07D12E
:1003C400029A134B1340002B02D06FF0010317E085
:1003D400029A019B1340009A9A4209D1029A0C4B4B
:1003E4001340002B02D06FF0010309E0002307E063
:1003F400039B013B0393039B002BD1D16FF00203BA
:10040400184604B0704700BF80969800000003505F
:100414000200010000B587B0039002910192274ABF
:10042400039B5361254BDB6903F00403002B02D0CB
:100434004FF0FF333DE0029B1A1D02921F4A1B68D6
:100444009361019B043B019319E008210820FFF705
:10045400A1FF03468DF817309DF91730002B05D006
:10046400164B04221A619DF9173022E0029B1A1DD3
:100474000292124A1B689361019B043B0193019B06
:10048400002BE2D10D4B04221A6100212120FFF739
:1004940081FF03468DF817309DF91730002B06D1E4
:1004A40000212120FFF776FF03468DF817309DF9D0
:1004B4001730184607B05DF804FB00BF0000035076
:1004C4000000000000000000000000000000000028
:1004D800002370B5404C05468AB0E36318B1008824
:1004E800236011F00DFC3D4830F02EF93C4E3D4B99
:1004F800304633603C4B73602DF0B5F9002130462F
:1005080016F000FA32A3D3E90023A062C4E9062357
:100518002DF0B4F9D4E9062319431043C4E90601C0
:10052800CDE900014FF0FF334FF0FF32A06A30F001
:10053800B2F902224FF0FF31A06A30F0B1F9012080
:1005480011F05EF94FF4007300222849A06A30F0D8
:1005580008FAB0F5007F39D1002394220793099354
:100568003C23CDE903320593962306935023A06AD2
:1005780003A9089316F0E0FA35B3287C11F0ACFE15
:100588000546F0B9A06A30F0E1FA11F053FE11F017
:1005980019F920B14FF4807000210EF06BF811F0BA
:1005A80021F920B14FF4006000210EF063F82DF01E
:1005B80035FA012030F09CF80D4A0E49A06A2DF05A
:1005C80050F928460AB070BDFF20D7E70725F8E79D
:1005D8000DD5015520000000300B0020690345ECC3
:1005E800A41B002041160108B41B0020A4190020F8
:1005F80013D8020853D802080348044B834202D098
:10060800034B03B118477047402B0020402B0020B4
:1006180000000000064B0749C91A891048BF01317C
:10062800491003D0044B0BB101481847704700BF6D
:10063800402B0020402B00200000000010B5064C85
:10064800237843B9FFF7D8FF044B13B10448AFF33D
:1006580000800123237010BD7E24002000000000CC
:1006680064B0030808B5054B1BB105490548AFF34D
:100678000080BDE80840FFF7CDBF00BF00000000C4
:10068800B00D002064B00308A3F5803A704700BF9E
:10069800174B002B08BF134B9D46FFF7F5FF0021B2
:1006A8008B460F461348144A121A30F0A7FE0E4B19
:1006B800002B00D098470D4B002B00D09847002006
:1006C800002104000D000D48002802D00C48AFF3AB
:1006D80000801DF00FFB2000290022F02DFE1DF0E8
:1006E800AFF900BF00000800000000000000000093
:1006F800C00A0020C00A0020802500200000000059
:10070800000000002DE9F0438BB000AFBA601A4634
:100718000346FB730B46BB811346FB806B461E46A4
:100728000023FB84FB8801333C4A1288934203DA96
:10073800FB8802339BB201E0384B1B887B84798CA1
:100748000B46013BFB618BB20022984691464FF065
:1007580000024FF000034FEAC90343EA58734FEA17
:10076800C8028BB200221C4615464FF000024FF01B
:100778000003EB0043EA5473E2000B460733DB083F
:10078800DB00ADEB030D6B460033BB61FB88DAB2CF
:10079800BB691A70FB881B0A9BB2DAB2BB695A7034
:1007A800BB6902337A8CB968184630F032FE7A8C0D
:1007B800B989F87BBB6915F029FD78617A8CFB8CC7
:1007C80013449BB2023BFB84FA887B8CD31A9BB2FE
:1007D8000233BB8418E0114B1B88BA8C934228BFA4
:1007E80013467B827C8AFB8CBA681344B989F87BF0
:1007F800224615F00BFD7861FA8C7B8A1344FB8442
:10080800BA8C7B8AD31ABB84BB8C002BE3D1B54648
:1008180000BF2C37BD46BDE8F08300BF022B002087
:1008280008B5044800F0C2FA024822F031FF00BFC0
:1008380008BD00BFFC58030800B5A9B000F046F990
:10084800164822F0BCFE0346002B14BF01230023E8
:10085800DAB2134B1A70134B1B7883F00103DBB227
:10086800002B13D00E4B1B78002B0FD00E4A6B4673
:100878001146A022184630F0CCFD0C4B1B88D8B28C
:100888000B4B19886A46A023FFF73CFF044B1A78E4
:10089800044B1A7000BF29B05DF804FBFC5803082C
:1008A800802400207F240020A8550308062B002060
:1008B8003024002030B58FB00390039B1B6823F4CD
:1008C8007F4323F007036A4A934200F0BE80684AD8
:1008D800934200F2C080674A934200F0BE80654AA6
:1008E800934200F2B880644A93427FD0624A9342AE
:1008F80000F2B180614A934200F09C805F4A9342C3
:1009080000F2A9805E4A934200F0A9805C4A9342B3
:1009180000F2A1805B4A93424FD05A4A934200F2B8
:100928009A80594A934235D0574A934200F29380AD
:10093800564A934203D0564A934238D08BE05548E2
:100948001DF034F954481DF031F9544815F092FB64
:10095800524B1B780121184615F0C6FB4F4B1B78EC
:100968000221184615F0D4FB4C4B1878002300934D
:100978000023A022A02115F095FB494B1B8848496C
:10098800184612F0EFFB454B1B780221184615F06C
:10099800D3FB69E0414B1B780221184615F0B8FBE0
:1009A8003E4B1B780221184615F0C6FB5CE0039B02
:1009B8001B7B1A463B4B1A8056E0039BB3F8073063
:1009C8009AB2394B1A80039B1879039BB3F8073006
:1009D80099B2364B1A88324B1C88354B1B88002538
:1009E80001950093234615F0EBFB3DE0039BDB7973
:1009F800012B36D1039B1B7AFF2B32D1294B1B8845
:100A0800DBB2294A11880122184615F015FC294B3A
:100A180005AC1D460FCD0FC40FCD0FC42B68236046
:100A2800204B1B88D8B2204B198805AA2423FFF72E
:100A380069FE16E0039BDB79012B14D1039BB3F805
:100A480005309AB21C4B1A800DE0039B1B7918469F
:100A580015F086FB08E000BF06E000BF04E000BF19
:100A680002E000BF00E000BF00BF0FB030BD00BF14
:100A7800A0000A05A0004304A0004303A0000A0345
:100A8800A0000402A0004301A0000601A00001008C
:100A9800A00006004856030854560308182B0020E7
:100AA800022B0020062B002030240020002B0020E1
:100AB800042B002070560308082B0020024B00224C
:100AC8001A8000BF704700BF3224002000B583B0F1
:100AD80000238DF8073034F0FFF900900A4B1B888B
:100AE800002B08D0084B1B88013B9AB2064B1A8092
:100AF80001238DF80730009834F0E1F99DF80730AC
:100B0800184603B05DF804FB3224002000B589B014
:100B18000190019B1B6823F47F4323F00703324AAB
:100B280093425AD1314B08220021122012F034FB93
:100B38000790079B002B01D000BEFDE72C4B03223A
:100B48000021142012F028FB0790079B002B01D0EE
:100B580000BEFDE7274B05220021162012F01CFBE2
:100B68000790079B002B01D000BEFDE70DF1130293
:100B780005AB1146184615F005FB0790079B002B9F
:100B880001D000BEFDE79DF819308DF808309DF8BA
:100B980018308DF809309DF817308DF80A30FF238A
:100BA8008DF80B30FE238DF80C309DF816308DF83B
:100BB8000D309DF815308DF80E309DF814308DF8F5
:100BC8000F3002AB08220021182012F0E5FA079036
:100BD800079B002B03D000BEFDE700BF00E000BF6D
:100BE80000BF09B05DF804FBA0000100945603089B
:100BF800A0560308A456030808B5024822F09BFC37
:100C080000BF08BDFC58030800B583B0064A074B6F
:100C1800D31A9B100193019A0549044822F029FC34
:100C280000BF03B05DF804FBD4040008B401000859
:100C38008025002000B585B000F04AF8FFF7E4FFF2
:100C48001F4B039319E0002302930EE0039B1A68DD
:100C5800029B9B001A44039B5968029B9B000B4410
:100C680012681A60029B01330293039B9B68029AE5
:100C78009A42EBD3039B0C330393039B114A934291
:100C8800E1D3114B019314E00023009309E0019B89
:100C98001A68009B9B00134400221A60009B0133D2
:100CA8000093019B5B68009A9A42F0D3019B08333A
:100CB8000193019B054A9342E6D3FFF7E9FC00BF85
:100CC8006CB0030878B0030878B0030878B003085C
:100CD80008B5214B214A9A601F4BD3F888301E4A29
:100CE80043F47003C2F888301D4B03F580531A464D
:100CF8004FF4804393661B4B03F500531A464FF09D
:100D0800FF331366174B03F500531A466FF400338D
:100D18005366144B03F500531A460D239366124B82
:100D280002221A60BFF34F8F00BFBFF36F8F00BF5F
:100D3800002008F003FF0B4B03F500531A464FF44D
:100D48004033D360002027F0D8F9064B4FF44032E7
:100D58001A6100BF08BD00BF00ED00E000000008F8
:100D68000080005000800044D0ED00E082B0019087
:100D7800024A019B136000BF02B07047442900205B
:100D880000B583B00190074A019B1360064B1B6FA7
:100D980003F00703032B01D132F090FA00BF03B030
:100DA8005DF804FB3C2900200080005000B58DB0A0
:100DB8000390039B0B930B9B1B680A930A9B1B795D
:100DC8008DF814300A9B5B798DF81530254827F08B
:100DD8004AF905AB00220121184622F0A4FC0DF1C6
:100DE800130205AB1146184622F06BFD9DF813302F
:100DF80083F00103DBB21A460A9B1A700A9B9B799F
:100E0800022B29D14FF0FF3307934FF0FF3306939E
:100E180007A905A80B9B0093134B002200F030F99B
:100E28000990079BB3F1FF3F09D106A905A80B9BC1
:100E380000930D4B042200F03BF809900CE00123CD
:100E48008DF823309DF8232006A905A80B9B009355
:100E5800054B00F02DF80990002318460DB05DF8F9
:100E680004FB00BFA46B03086D35020808B50F48E2
:100E780027F0F9F8272008F043FE0346002B05D099
:100E8800272008F05BFE272027F037F9282008F0F4
:100E980037FE0346002B05D0282008F04FFE2820F7
:100EA80027F02BF90023184608BD00BFA46B0308E0
:100EB80000B587B003900291009313468DF8073070
:100EC800039B002B02D0029B002B01D1222393E02D
:100ED800039B1B78002B16D0039B1B78012B0FD08C
:100EE800039B1B78022B08D0039B1B78032B02D192
:100EF80040F2FF7309E0002307E043F6FF7304E0C4
:100F080040F2FF3301E043F6FF73039A5278D3406F
:100F180003F00103002B05D1039B1B78FF2B01D0A5
:100F2800212369E09DF80730002B0DD09DF807308C
:100F3800012B09D09DF80730022B05D09DF807300A
:100F4800042B01D0212357E033F0E0FF0590039BE9
:100F58001B78FF2B0AD0029B1B689DF807201946B7
:100F6800039804F0B3FD0246029B1A60029B1B68BB
:100F7800B3F1FF3F0FD1039B1B78FF2B0BD104F07C
:100F88007FFC0490039B5B780499184624F075FF56
:100F98000246029B1A60029B1B68B3F1FF3F22D0F6
:100FA800029B1A68164913465B0013449B000B44C6
:100FB8000433009A1A60029B1A68114913465B00B1
:100FC80013449B000B440833089A1A60039B1B7850
:100FD800FF2B0DD0029B1B68012202FA03F318466F
:100FE80004F024FC04E0059833F082FF2D2303E08D
:100FF800059833F07DFF0023184607B05DF804FB21
:10100800C80D002000B585B00190019BB3F1FF3FEA
:1010180005D0019B0F2B02DC019B002B01DA212359
:1010280028E033F073FF03900122019B02FA03F3D7
:10103800184604F017FC0122019B02FA03F3184634
:1010480004F002FC0D49019A13465B0013449B000F
:101058000B44043300221A600849019A13465B00C6
:1010680013449B000B44083300221A60039833F0A2
:101078003FFF0023184605B05DF804FBC80D0020AB
:1010880000B587B003900291009313468DF807309E
:10109800039B002B02D0029B002B01D122236DE081
:1010A800039B1B78002B16D0039B1B78012B0FD0BA
:1010B800039B1B78022B08D0039B1B78032B02D1C0
:1010C80040F2FF7309E0002307E043F6FF7304E0F2
:1010D80040F2FF3301E043F6FF73039A5278D3409E
:1010E80003F00103002B05D1039B1B78FF2B01D0D4
:1010F800212343E033F00AFF0590039B1B78FF2B65
:101108000AD0029B1B689DF807201946039824F013
:1011180063FF0246029B1A60029B1B68B3F1FF3F04
:1011280023D0029B1A68174913465B0013449B009F
:101138000B44B833009A1A60029B1A681149134687
:101148005B0013449B000B44BC33089A1A60039B52
:101158001B78FF2B0ED0029B1B681033012202FA6A
:1011680003F3184604F062FB04E0059833F0C0FE70
:101178002D2303E0059833F0BBFE0023184607B083
:101188005DF804FBC80D002000B587B0019034E07D
:10119800019822F0B1FA05900122059B02FA03F3A7
:1011A800DB43019A13400193059B0F2B08D8059A3E
:1011B80013465B0013449B00144A134404930EE047
:1011C800059BA3F1100213465B0013449B00B03348
:1011D8000E4A134404330493059B103B0593049B68
:1011E8005B68002B09D0049B5B680393059BDAB20C
:1011F800049B9968039B10469847019B002BC7D115
:1012080000BF00BF07B05DF804FB00BFC80D002099
:1012180000B593B00790069111461A460B468DF813
:10122800173013468DF8163000230893069B1B6968
:101238001946079822F04DFC034683F00103DBB200
:10124800002B01D01C23B6E0079BDB6A1093109992
:101258005B4801F01FFC08AB02939DF81630019320
:101268009DF817300093109B554A0699079822F06D
:101278004EFE0F900F9B002B04D1514B9A68079B91
:10128800DA627CE01099079822F07AFC0E900E99A9
:10129800079822F067FC0346184624F0C3FC0D901B
:1012A800079BDB6A1946079822F03BFD0C90079BC9
:1012B8009B6A0C9A9A4261D0079B0C9ADA62404B5F
:1012C8009B681946079822F011FD0246079B1B6B85
:1012D8009A1A079B1A63109A0D9BD31A0B93089BB3
:1012E8001946079822F04CFC0A900A9A0E9B9A42DB
:1012F80021D10B9B002B1ED0079BDB6B9B69079AA8
:10130800D06A0B9A92080D9998471190079BDB6A4F
:101318000B99184622F01DFC0246079BDA62079BD0
:101328001A6B0B9BD21A079B1A63079B0833184644
:1013380001F094FA01E0002311930A99079822F02A
:1013480011FC0990079BDB6B0999184624F071FB87
:10135800079823F067F9079822F0FFFC0246079BDD
:101368001A63119B002B0AD0069B1B691946079824
:1013780022F0AFFB0346002B84D100E000BF0F9B97
:10138800002B09D0069B1B691946079822F0A1FB80
:101398000346002B7FF458AF0F9B002B0AD1079B05
:1013A80003F10800069B1968054B5A689DF816302A
:1013B80001F0D6FA0F9B184613B05DF804FB00BF86
:1013C800D415002000B587B00390029101920093D4
:1013D800039B5B69009A9A4201D9622332E0039821
:1013E80023F0EFFB9DF82030032B06D000990398DB
:1013F80022F082FB0346002B01D0012300E00023EA
:101408008DF817309DF8173083F00103DBB2002BFD
:1014180001D01C2316E04FF0FF310C4801F03AFBD5
:101428000A4A029B1360094A009B1361074A019B01
:10143800D3609DF82030002204490398FFF7E8FEA6
:101448000490049B184607B05DF804FBA81500201B
:1014580010B594B00590049103928DF80B300023D9
:101468008DF84F30059BDB6B5B69039A50680CA9BC
:1014780001229847059BDB6B5B690BA90122049845
:1014880098470CAB184624F088F90346002B0BD07C
:10149800039B00229A75039B00225A75039B4FF009
:1014A800FF329A600023DFE10BAB184624F09EF967
:1014B8001190039B01229A75039B1B7E039A0333A9
:1014C800DB001344049A5A60039B1B7E039A033380
:1014D800DB00134400221A81039B5B68049A9A423A
:1014E8000FD1039B119A1A600BAB184624F0C3F96D
:1014F80003461A46039B1A75039B4FF0FF329A6006
:1015080033E0039B1B68119A9A4202D0039B002286
:101518009A750BAB184624F0AEF903461A46039B9E
:101528001B7D9A4202D0039B00229A750BAB18468A
:1015380024F066F903461C460CAB184624F060F903
:1015480003469C4202D0039B00229A750BAB1846B7
:1015580024F061F904460CAB184624F05CF9034604
:101568009C4202D0039B00229A75039B1B7D042B8F
:1015780007D0039B1B7D052B03D0039B1B7D062BEC
:1015880004D1039B00229A7500236DE10BAB18462A
:1015980024F036F90346002B0CD0059BDB6B5B6906
:1015A80009A902220498984709AB184624F042F981
:1015B800129004E00BAB184624F03CF91290039B00
:1015C8001B7D032B29D801A252F823F00D16000821
:1015D800F7150008E515000839160008039B1B7E5F
:1015E800039A0333DB001344CC221A8121E0039BC6
:1015F8001B7E129A91B2039A0333DB0013440A4606
:101608001A8116E0039B1B7E129A91B2039A033348
:10161800DB0013440A461A810BE0039B1B7E129AD7
:1016280091B2039A0333DB0013440A461A8100E09F
:1016380000BF039B1B7D184601F05AFA03461A4661
:10164800169B1A70039B1B7E1C460BAB184624F096
:10165800B1F803461946039AE31CDB0013440A4613
:101668009A72039B1B7E039A0333DB0013441B8986
:101678001293039B1B7E039A0333DB0013449B7A6C
:101688008DF843300BAB184624F0BAF803468DF8B2
:1016980042300BAB184624F0BEF80F909DF842304C
:1016A800002B0FD0059BDB6B5B6907A9022204980E
:1016B800984707AB184624F043F803461A46039B9D
:1016C8005A7507E00BAB184624F015F803461A467E
:1016D800039B5A75039B5B7D83F00103DBB2002BF0
:1016E80002D0039B00229A75039B9B7D002B21D07F
:1016F800129B002B1ED00F99049822F02AFA0E9004
:10170800049A0E99059822F04BFA034683F00103D8
:10171800DBB2002B02D0039B00229A750E99059824
:1017280022F0E4FA0D90129A0D9B9A4202D9039B7B
:1017380000229A75039B9B7D002B30D09DF8433087
:10174800002B07D1039BDB7D002B28D001238DF8CC
:101758004F3024E0039B0122DA75039B5B7E83F004
:101768000103DBB2002B0BD09DF84330012B03D1D2
:10177800039B01225A7612E001238DF84F300EE0C8
:101788009DF84330012B03D101238DF84F3006E03B
:101798009DF84330032B02D1039B01229A76039BC9
:1017A8009B7D002B1BD09DF84F3083F00103DBB2EB
:1017B800002B0BD19DF84F30002B10D09DF84330F3
:1017C800012B0CD09DF84330002B08D0129B0F9AA8
:1017D8000499059822F06EFB0246039B9A60039BCE
:1017E8009B7D002B05D0039B1A69129B1A44039B0F
:1017F8001A61039B1A7E1E4B1B789A4206D2039BE2
:101808001B7E0133DAB2039B1A7602E0039B0022A7
:101818009A759DF80B30002B24D0039B9B7D002BE1
:1018280020D0039BDB7D002B1CD09DF84F3083F02C
:101838000103DBB2002B15D09DF84330032B11D0E8
:10184800039B9B68B3F1FF3F0CD0039B9968169BE1
:1018580000930123039A0598FFF7FAFD03461A46F9
:10186800039B9A75039B9B7D184614B010BD00BF5F
:101878003059030800B593B0039002910192009388
:101888004FF0FF33109300238DF83F3000238DF87D
:101898003E3000238DF817304FF0FF31019801F0EA
:1018A800F9F8029822F0DEFA0346002B08D0039BD1
:1018B80008330DF116020299184601F019F8109034
:1018C800109BB3F1FF3F18D01099019801F0E2F88E
:1018D8000DF1170301220199039822F017FE034620
:1018E8008DF83D309DF83D30002B06D001238DF852
:1018F8003F309DF81720009B1A70029822F0A6FA34
:101908000346002B0CD19DF83F3083F00103DBB276
:10191800002B00F0BB80039B1B7C002B00F0B680E3
:10192800039BDB6AB3F1FF3F07D1039B5B6A194650
:10193800039822F0A4F9119006E0039BDB6A19468C
:10194800039822F01DF91190029822F07FFA0346BD
:10195800002B14BF01230023DBB283F00103DBB2A9
:101968008DF83C309DF83C3003F001038DF83C3095
:10197800039B5B6A119A9A4202D101238DF83E308B
:101988001199039822F0EEF80E90039BDB6B5B69CC
:1019980006A905220E98984706AB184624F0D5F8F4
:1019A80003468DF837309DF83730184624F010F983
:1019B8000E9824F037F90C900C9B109333E0109993
:1019C800394801F067F80DF117039DF83C203649B6
:1019D800039822F09BFD03468DF83D309DF83D307D
:1019E800002B1DD09DF83C3083F00103DBB2002BA7
:1019F80008D19DF83C30002B12D02B4B1B68029A63
:101A08009A420DD101238DF83F309DF81720009B95
:101A18001A70264B1B681A46234901982FF0F9FCC7
:101A2800214B9B681093109BB3F1FF3F07D00C9A92
:101A38001099039822F0B4F80346002BBFD11199EE
:101A4800039822F01CF911909DF83E3083F00103B1
:101A5800DBB2002B06D09DF83F3083F00103DBB2E8
:101A6800002B85D19DF83F30002B0FD0029822F033
:101A7800F9F90346002B09D0039B03F10800019BE9
:101A88005A68009B1B78029900F06AFF9DF83F3066
:101A9800002B01D0002300E02D230B930B9B18464D
:101AA80013B05DF804FB00BFD415002034590308B7
:101AB80000B587B00190019B4FF0FF32DA620DF15B
:101AC8000B032A4A6FF001010198FFF7D3FE049037
:101AD800049B002B04D1254B9A68019BDA6203E032
:101AE800019B9A6A019BDA62019BDB6A0593019B61
:101AF800DB6A1946019822F07FF90246019B1A63B6
:101B0800019B1B6B002B08D1019BDB6A19460198CE
:101B180022F007F90246019BDA620599019822F042
:101B280000F9059018E00599019822F065F90390ED
:101B3800019B1A6B039B1A44019B1A630599019830
:101B480022F0EFF80590039B002B05D1019B0022A2
:101B58001A63019B059ADA62019B9B6A059A9A426D
:101B6800E1D100BF00BF07B05DF804FBA815002055
:101B780010B586B00390019200930B468DF80B3098
:101B8800039B9B6A059346E00599294800F082FF6C
:101B98000DF1110301222649039822F0B7FC0346F0
:101BA8008DF813309DF81330002B10D09DF81120BC
:101BB800019C009B1E490398A04703468DF81230EC
:101BC8009DF8123083F00103DBB2002B2DD1184BA6
:101BD8009B68B3F1FF3F03D0154B9B68059306E064
:101BE800134B5B681946039822F09BF805909DF803
:101BF8000B30012B0FD10E4B5B681A4605990398E1
:101C080021F0CEFF034683F00103DBB2002B02D0A4
:101C18004FF0FF330593039BDB6A059A9A4205D080
:101C2800059BB3F1FF3FAFD100E000BF06B010BD88
:101C38000016002010B588B0039002910093134657
:101C48008DF807300A9B0793079B1B6806939DF83E
:101C58000730032B79D0079B18680DF11303404A0E
:101C68000299FFF707FE0246079B5A60079B5B68CD
:101C7800002B6AD1079B1868394B5968079B1B686A
:101C88009B6A1A4621F08CFF0346002B5DD0079B08
:101C98001B7A012B0CD1324B1A69079BDB681A445B
:101CA800069B5B699A4203D9079B00221A744CE091
:101CB800079B1A68079B1B689B6A1946104621F008
:101CC8005FFF0446079B1A68079B1B68DB6A194677
:101CD800104621F055FF03469C421CD1069B5C6CC4
:101CE800069BDB6A1946069822F010F80346E31AA9
:101CF8000593069B1A6B059BD21A069B1A63079BD2
:101D08001A68079B1B68996A079B1C68104622F093
:101D180008F80346E362079BDA68114B1B69134412
:101D280003F10802079BDA60079B18689DF80730E3
:101D380001220B49FFF76CFA0246079B5A60079B82
:101D48005B68002B01D0002307E0079B1B7A012B5F
:101D580002D1079B1B7C00E00123184608B010BD88
:101D6800A815002000B587B0039002910093134690
:101D78008DF80730009B05939DF80730032B42D060
:101D8800029B19680DF11303254A0398FFF772FDAA
:101D98000246059B5A60059B5B68002B33D19DF872
:101DA8001330032B2FD01E4B5A68029B5B689A4254
:101DB80029D1059B1B7A012B0CD1029B1A69059B23
:101DC800DB681A44039B5B699A4203D9059B00228E
:101DD8001A7418E0059BDA68029B1B69134403F127
:101DE8000802059BDA609DF80730012202990398E2
:101DF800FFF70EFA0246059B5A60059B5B68002BAD
:101E080001D0002307E0059B1B7A012B02D1059B1B
:101E18001B7C00E00123184607B05DF804FB00BFF7
:101E2800A815002000B58FB001900B468DF803303F
:101E3800019B5B6A1946019821F094FE0D90019B65
:101E4800DB6B5B6907A905220D98984707AB184615
:101E580023F07BFE03468DF833309DF83330012B99
:101E680001D100234FE0019B0293002303939DF8C7
:101E780003308DF810300023059301238DF81830B6
:101E8800019B9A6A019BDB6A9A4212D1019B9B6A69
:101E98001946019821F045FF0246019BDA62019B31
:101EA8001A6B019B5B6CD31A03F11402019B1A6332
:101EB80014E0019B1B7C83F00103DBB2002B07D0ED
:101EC800019B083302AA1249184600F093FD05E069
:101ED80002AB104A01210198FFF74AFE039B002B31
:101EE80010D19DF81830002B0CD0019B5B6A194665
:101EF800019821F037FE0D90019BDB6B0D99184678
:101F080023F0B3FD039B18460FB05DF804FB00BF38
:101F18003D1C00086D1D000800B585B00190019BAF
:101F28001B7C83F00103DBB2002B07D0019B083335
:101F3800019A2049184600F05DFD05E000231E4A7D
:101F480001210198FFF714FE019B5B6A194601986D
:101F580022F075FC0390039B01330393019B5B6A9A
:101F6800039A1946019822F0CDFC0290029B002B9F
:101F780008D1019B1A6B019B5B6C1344A3F11402FB
:101F8800019B1A63019B9B6A1946019821F0C9FEBF
:101F98000246019B9A62019B9B6A1946019821F0AF
:101FA800EFFD0246019B5A62029B184605B05DF898
:101FB80004FB00BF434902088549020800B583B005
:101FC8000190019B0833184600F048FC0023044A9E
:101FD80000210198FFF7CCFD00BF03B05DF804FBBA
:101FE800A150020810B586B001900091644B1B689F
:101FF8000493634B00221A60019B002B01D121231B
:1020080019E1019B93F83430002B2BD0009B1A6800
:10201800019B1B689A4223D1009B5A68019B5B680D
:102028009A421DD1009B9A68019B9B689A4217D1DE
:10203800009BDA68019BDB689A4211D1009B1A6900
:10204800019B5B699A420BD1009B9A69019BDB6BF0
:102058009A4205D1009B5A69019B9A610023EAE0E4
:102068005D23E8E0019B9B6B0393502200210198BC
:102078002FF0C4F9019B039A9A63009B1A68019B8D
:102088001A60009B5A68019B5A60009B1A69019B61
:102098005A61009B5A69019B9A61019B03F10800F0
:1020A800009B9968009BDB681A4600F0C5FB009B03
:1020B8009A69019BDA63009B9B699B68019A40328D
:1020C800104698470590059B002B0CD1019B5B6C33
:1020D800002B08D0019B5A68019B5B6CB2FBF3F2A2
:1020E800019BDA6102E0019B0022DA61019B93F80F
:1020F8004330002B01D121239DE0019B5B6C002B19
:1021080003D0019BDB69002B01D15B2393E0019B8A
:102118001B681A46019B5B6CB2FBF3F101FB03F3EE
:10212800D31A002B01D0592385E0019B5B68019AE3
:10213800526CB3FBF2F101FB02F29B1A002B01D0A7
:10214800592378E0019B5C68019821F0B2FC0346B2
:102158009C4201D25A236EE0019B5B69B3F5805F14
:1021680001D95F2367E0019B5B69CB2B01D85F2313
:1021780061E0019B5B6CB3F5007F03D25B235AE0FF
:10218800300F00200321019823F057F8019BDB6BE7
:102198001B68019A1068019A526811469847059081
:1021A800019BDB6BDB6802209847059B002B0CD159
:1021B8000499019822F088FF0590059B642B04D1AF
:1021C8000499019822F080FF0590019B5B6C143BF9
:1021D8000293059B002B0CD1019B1B6A029A02FB00
:1021E80003F4019821F065FC03469C4201D25A236E
:1021F8000593059B002B0CBF01230023DAB2019B3A
:1022080083F83420019B93F83430002B04D00B4B17
:102218001B680133094A1360059B002B07D1019BFA
:102228001A68019B5B681946104623F077F90198F4
:1022380023F016F8059B184606B010BD340F002091
:1022480000B589B0059004910392029301238DF89B
:102258001B30059B002B01D121234FE0059B93F8F0
:10226800343083F00103DBB2002B01D0112345E0A9
:10227800049821F0F7FD034683F00103DBB2002B3D
:1022880001D029233AE00221059822F0D6FF0DF16A
:102298001A031C4A04990598FFF7ECFA0790079B64
:1022A800002B1AD19DF81A30012B16D1154B1B693A
:1022B800029A9A4211D101230193124B0093029B77
:1022C80000220399059822F02EF80790079B002B0F
:1022D80014BF012300238DF81B309DF81B30002B01
:1022E80008D001230093029B039A04990598FFF7ED
:1022F80069F80790059822F0B3FF079B184609B0C4
:102308005DF804FB7C15002000B589B005900491A8
:1023180003920293059B002B01D1212348E0059BE2
:1023280093F8343083F00103DBB2002B01D0112382
:102338003EE0049821F096FD034683F00103DBB2EA
:10234800002B01D0292333E00121059822F075FFE5
:102358000DF11B03184A04990598FFF78BFA0790AB
:10236800079B002B20D19DF81B30012B13D1124B5A
:102378001B69029A9A420BD1002301930E4B0093DA
:10238800029B00220399059821F0CDFF07900BE0EE
:102398006323079308E09DF81B30022B02D16023CA
:1023A800079301E02D230793059822F059FF079B17
:1023B800184609B05DF804FB7C15002000B589B00B
:1023C8000590049103920293059B002B01D12123D0
:1023D8004AE0059B93F8343083F00103DBB2002B0D
:1023E80001D0112340E0049821F03CFD034683F01E
:1023F8000103DBB2002B01D0292335E00121059828
:1024080022F01BFF0DF11B03194A04990598FFF7E9
:1024180031FA0790079B002B22D19DF81B30012B26
:1024280015D1134B1A6902990A9B0B449A420BD394
:10243800002301930E4B00930A9B029A0399059877
:1024480021F071FF07900BE06323079308E09DF8E4
:102458001B30022B02D16023079301E02D23079341
:10246800059822F0FDFE079B184609B05DF804FBAD
:102478007C15002000B587B003900291019200936B
:10248800009B00221A60039B002B01D1212340E00E
:10249800039B93F8343083F00103DBB2002B01D0A7
:1024A800112336E0029821F0DDFC034683F0010396
:1024B800DBB2002B01D029232BE00121039822F065
:1024C800BCFE0DF11303154A02990398FFF7D2F9E0
:1024D8000590059B002B16D19DF81330032B12D0C5
:1024E8009DF81330022B06D1019B01221A60009B34
:1024F80004221A6009E0019B00221A60074B1A693E
:10250800009B1A6001E02D230593039822F0A8FE92
:10251800059B184607B05DF804FB00BF7C1500203A
:1025280000B589B003900291009313468DF80730E7
:10253800009B07939DF80730032B0CBF0123002352
:10254800DBB21A46079B1B7E9A4242D1029B1A684D
:10255800079B1B689A423CD3029B1A68079B5B68DF
:102568009A4236D8029B19680DF117031B4A039843
:10257800FFF780F90690069B002B2AD1174B5A6863
:10258800029B5B689A4224D19DF81730032B0CBF3D
:1025980001230023DBB21A46079B1B7E9A4218D1FF
:1025A800079B5B695A1C079B5A61079B1A69079B23
:1025B800DB689A420DD2079B9A68079B1B699B00B0
:1025C8001344029A12681A60079B1B695A1C079BDE
:1025D8001A610123184609B05DF804FBA81500200C
:1025E80000B58DB0039002910192009300230B93E4
:1025F800039B002B01D100233DE0039B93F834306B
:1026080083F00103DBB2002B01D0002333E001216A
:10261800039822F012FE009B04930E9B0593029BE5
:102628000693019B079300230893002309939DF8C1
:102638003C308DF82830039B1B7C83F00103DBB210
:10264800002B07D0039B083304AA0D49184600F055
:10265800D1F905E004AB0B4A00210398FFF788FA8B
:10266800019B002B01D1099B00E0089B0B93039869
:1026780022F0F6FD0B9B18460DB05DF804FB00BF79
:10268800855202082925000800B587B003900291F9
:10269800039B002B01D1212337E0039B93F83430AF
:1026A80083F00103DBB2002B01D011232DE0029847
:1026B80021F0D8FB034683F00103DBB2002B01D0E5
:1026C800292322E00221039822F0B7FD0DF113031C
:1026D800104A02990398FFF7CDF80590059B002B47
:1026E8000DD19DF81330032B09D003230093002349
:1026F800002202990398FEF765FE059001E02D235C
:102708000593039822F0ACFD059B184607B05DF8C9
:1027180004FB00BF7C15002084B001900091019B50
:102728001A68009BDB0013441B680393039BC3F3E5
:102738001303184604B0704784B001900091019BC0
:102748001A68009BDB0013441B680393039B1B0D53
:10275800DBB2184604B0704782B001900091019B2B
:102768001A68009BDB0013445B68184602B0704788
:1027780086B0039002910192039B1A68029BDB00CA
:1027880013441B680593059B1B0D1B050593059AB0
:10279800019B13430593039B1A68029BDB001344B8
:1027A800059A1A6000BF06B0704700BF86B0039054
:1027B800029113468DF80730039B1A68029BDB00D1
:1027C80013441B680593059BC3F3130305939DF8F6
:1027D80007301B05059A13430593039B1A68029B50
:1027E800DB001344059A1A6000BF06B0704700BFAB
:1027F80084B0039002910192039B1A68029BDB004C
:102808001344019A5A6000BF04B0704782B0019027
:102818000091019B1A68009BDB0013444FF0FF32C4
:102828001A60019B1A68009BDB0013444FF0FF32CB
:102838005A6000BF02B0704700B585B0039002919E
:102848000192039B029A1A60039B019A5A600398AB
:1028580000F004F800BF05B05DF804FB00B585B0D2
:1028680001900023039306E003990198FFF7CEFF38
:10287800039B01330393019B5B68039A9A42F3D34A
:10288800019B00221A7200BF05B05DF804FB00BF6F
:1028980000B585B00190009100238DF80B3000231E
:1028A80003931BE0019B1A68039BDB0013441B681E
:1028B800B3F1FF3F0FD003990198FFF72DFF0246B0
:1028C800009B934207D103990198FFF79FFF0123CB
:1028D8008DF80B3008E0039B01330393019B5B6881
:1028E800039A9A42DED300BF00BF05B05DF804FB2F
:1028F80000B587B00390029101924FF0FF33059322
:102908000023049321E0039B1A68049BDB00134413
:102918001B68B3F1FF3F15D004990398FFF7FCFE3D
:102928000246029B93420DD104990398FFF704FFD6
:1029380003461A46019B1A7004990398FFF70CFF87
:10294800059007E0049B01330493039B5B68049A9A
:102958009A42D8D3059B184607B05DF804FB00BF20
:102968002DE9F8430546406800283ED00F469146B9
:10297800984600242B6853F83460013606D0214667
:102988002846FFF7C9FEB84213D068680134A04250
:10299800F0D850B300242A6802E00134A04214D0D1
:1029A80052F834300133F8D13A4621462846FFF729
:1029B800DFFE424621462846FFF7F8FE4A462146F2
:1029C8002846BDE8F843FFF713BFB8F1030F0CD052
:1029D800002403E06B680134A34206D92146284647
:1029E800FFF7AAFE0328F5D1DEE701232B72BDE825
:1029F800F88300BF2DE9F0439046426883B00AB3DC
:102A080005460F4600242B6853F83430013316D09E
:102A180021462846FFF780FE214681462846FFF7D3
:102A28008BFE214606462846FFF796FE4946034692
:102A380032462846CDF80080B84718B16A68013494
:102A48009442E0D303B0BDE8F08300BF08B5054B5E
:102A58001B68054A126811461846FFF7C3FA034671
:102A6800184608BD4C2900206C29002008B532F012
:102A780033FA0346014A136000BF08BD78150020E9
:102A880008B5034B1B68184632F019FA00BF08BD99
:102A98007815002000B583B001900091134B1B6896
:102AA8001A46002101982EF0A9FC019B4FF0FF3235
:102AB8001A60019B009A5A60019B00229A75019B3B
:102AC80000221A61019B4FF0FF329A60019B00229D
:102AD800DA75019B00225A76019B00229A76019BA7
:102AE80000221A7600BF03B05DF804FB34590308CE
:102AF80084B003468DF807309DF80730062B25D89B
:102B080001A252F823F000BF3D2B0008352B000826
:102B18002D2B00084D2B0008452B0008452B0008DD
:102B2800452B000802238DF80F3013E002238DF89F
:102B38000F300FE001238DF80F300BE000238DF8E4
:102B48000F3007E003238DF80F3003E001238DF8E1
:102B58000F3000BF9DF80F30184604B0704700BF13
:102B680000B591B0039002910192009300230F9356
:102B7800009B5B68184622F042FF03465B0303F4A0
:102B88006042009BDB781B0303F480531A44009BCC
:102B98009B78DB0203F400631A44009B1B88C3F391
:102BA8000A0313440E934FF6FF730D93334B0593AB
:102BB8000021019822F0FFFE0346069301210198A7
:102BC80022F0F9FE034607934FF0FF3308930D9B5D
:102BD8001A040E9B1343099310230C93029A0C9B1F
:102BE80013440B93039B9B6905AA02F11001012270
:102BF8000B9898470A900A9B002B01D00A9B0F93C9
:102C080008230C93029A0C9B13440B93039B9B6918
:102C180005AA02F1080101220B9898470A900A9B1D
:102C2800002B01D00A9B0F9304230C93029A0C9B50
:102C380013440B93039B9B6905AA111D01220B9852
:102C480098470A900A9B002B01D00A9B0F930023F8
:102C58000C93029A0C9B13440B93039B9B6905A945
:102C680001220B9898470A900A9B002B01D00A9BD7
:102C78000F930F9B184611B05DF804FB01009AB240
:102C880008B500BF0421044823F057F80346002B79
:102C9800F8D100BF00BF08BD8440005008B5FFF759
:102CA800EFFF044BD3F884309B0903F00303DBB236
:102CB800184608BD00400050034B5B6A024A23F0E7
:102CC8000103536200BF704700000850054BDB69E1
:102CD80003F48033002B14BF01230023DBB2184612
:102CE800704700BF00000350024B0022DA6300BFA8
:102CF800704700BF00000350024B41F67132DA639F
:102D080000BF704700000350014B5B6818467047CE
:102D18000000035082B00190024A019B536000BF3B
:102D280002B070470000035084B001900023039361
:102D3800019BB3F5607F21D0019BB3F5607F34D848
:102D4800019BB3F5207F29D0019BB3F5207F2CD8B8
:102D5800019BB3F5007F19D0019BB3F5007F24D800
:102D6800019B002B03D0019BB3F5C07F1DD1124BF3
:102D78001B6F1B0B03F00F03039317E00E4BD3F8E5
:102D880080301B0903F0030303930FE00A4BD3F8C9
:102D980090301B0E03F01F03039307E0064B1B6FD5
:102DA8009B0A03F00103039300E000BF039B013378
:102DB800184604B0704700BF0080005010B584B0BA
:102DC80001900091019BB3F5607F4ED0019BB3F554
:102DD800607F00F2A280019BB3F5207F00F08D8018
:102DE800019BB3F5207F00F29880019BB3F5007F2B
:102DF80071D0019BB3F5007F00F28F80019B002BFF
:102E080004D0019BB3F5C07F40F08780009B012B65
:102E18000AD0009B022B07D0009B042B04D0009BF8
:102E2800082B01D0009B102B22F0CAFF22F0C0FF14
:102E380001F016FB3C4B1B6F23F47042009B013BD7
:102E48001B03394913430B6732F070F80446FFF748
:102E580025FF0346C3F102031946204622F094FFDA
:102E680001F07EFE01F008FB5AE0304BDB6803F00E
:102E78008073002B14BF012300238DF80F309DF8B9
:102E88000F30002B05D0294BDB68284A23F08073CC
:102E9800D360009B012B07D0009B022B04D0009B22
:102EA800032B01D0009B042B1F4BD3F8803023F059
:102EB8003002009B013B1B011B491343C1F88030C2
:102EC8009DF80F30002B2AD0184BDB68174A43F0C7
:102ED8008073D36023E0009B002B01D0009B202B44
:102EE800114BD3F8903023F0F852009B013B1B069E
:102EF8000D491343C1F8903012E0009B012B01D01B
:102F0800009B022B084B1B6F23F48062009B013B44
:102F18009B02054913430B6702E000BF00E000BFB6
:102F280000BF04B010BD00BF00800050F0ED00E00D
:102F380000B585B001900B468DF80330002303934C
:102F4800019B5B09002B13D0019B5B09012B02D16C
:102F58000F4B03930CE0019B5B09022B02D10D4B35
:102F6800039305E0019B5B09032B01D10A4B0393F3
:102F7800019B03F01F0302939DF803301A46029940
:102F8800039822F0C1FE00BF05B05DF804FB00BF46
:102F980064800050688000506C80005010B584B088
:102FA80001900023039300230293019BB3F5486F1C
:102FB80000F04383019BB3F5486F00F25683019BF1
:102FC800B3F5406F00F00383019BB3F5406F00F247
:102FD8004C83019BB3F5286F00F03583019BB3F553
:102FE800286F00F24283019BB3F5206F00F01F8326
:102FF800019BB3F5206F00F23883019BB3F5186F7E
:1030080000F00F83019BB3F5186F00F22E83019B2C
:10301800B3F5106F00F0F982019BB3F5106F00F261
:103028002483019BB3F5086F00F01983019BB3F566
:10303800086F00F21A83019BB3F5F06F00F0098363
:10304800019BB3F5F06F00F21083019BB3F5E06FBD
:1030580000F0E182019BB3F5E06F00F20683019B6B
:10306800B3F5D06F00F0CB82019BB3F5D06F00F2BF
:10307800FC82019BB3F5C06F00F0BB82019BB3F5E6
:10308800C06F00F2F282019BB3F5B06F00F0A58229
:10309800019BB3F5B06F00F2E882019BB3F5A06F16
:1030A80000F08F82019BB3F5A06F00F2DE82019BD6
:1030B800B3F5806F00F07F82019BB3F5806F00F25B
:1030C800D482019BB3F5607F00F06682019BB3F563
:1030D800607F00F2CA82019BB3F5407F00F04F8207
:1030E800019BB3F5407F00F2C082019BB3F5207FBE
:1030F80000F03982019BB3F5207F00F2B682019B74
:10310800B3F5007F00F02382019BB3F5007F00F246
:10311800AC82019BB3F5807F00F20A82019BB3F574
:10312800807F00F2A28201A252F823F04D350008F8
:1031380073360008733600087336000873360008C3
:1031480073360008733600087336000873360008B3
:1031580073360008733600087336000873360008A3
:103168007336000873360008733600087336000893
:103178007336000873360008733600087336000883
:103188007336000873360008733600087336000873
:103198007336000873360008733600087336000863
:1031A8007336000873360008733600084D3500087A
:1031B8006F3500084D3500086F350008BF35000829
:1031C800BF350008BF350008BF350008BF35000807
:1031D8006F350008E335000887350008FB3500081F
:1031E80007360008873500086F3500086F35000876
:1031F8006F35000873360008733600087336000808
:1032080073360008733600087336000873360008F2
:10321800733600086F3500086F3500086F350008F1
:103228005B3600081F3600086F3500087336000843
:1032380073360008733600087336000873360008C2
:1032480073360008733600087336000873360008B2
:103258007336000873360008733600082B360008EA
:10326800BF3500084D3500084D3500084D350008BC
:1032780013360008873500088735000837360008F8
:103288004F360008CB350008D735000873360008DC
:103298007336000873360008733600087336000862
:1032A800433600084D35000873360008BF3500085E
:1032B800BF350008BF350008BF350008BF35000816
:1032C800D7350008D73500086F3500087336000871
:1032D8006F3500086F35000873360008733600082C
:1032E8007336000873360008733600087336000812
:1032F8007336000873360008733600087336000802
:1033080073360008733600087336000873360008F1
:1033180073360008733600087336000873360008E1
:103328007336000873360008733600084335000802
:1033380073360008733600087336000873360008C1
:1033480073360008733600087336000873360008B1
:1033580073360008733600087336000873360008A1
:103368007336000873360008733600087336000891
:103378007336000873360008733600087336000881
:103388007336000873360008733600087336000871
:103398007336000873360008733600087336000861
:1033A8007336000873360008733600087336000851
:1033B8007336000873360008733600087336000841
:1033C8007336000873360008733600087336000831
:1033D8007336000873360008733600087336000821
:1033E8007336000873360008733600087336000811
:1033F8007336000873360008733600087336000801
:1034080073360008733600087336000873360008F0
:1034180073360008733600087336000873360008E0
:1034280073360008733600087336000873360008D0
:1034380073360008733600087336000873360008C0
:1034480073360008733600087336000873360008B0
:1034580073360008733600087336000873360008A0
:103468007336000873360008733600087336000890
:103478007336000873360008733600087336000880
:103488007336000873360008733600087336000870
:103498007336000873360008733600087336000860
:1034A8007336000873360008733600087336000850
:1034B8007336000873360008733600087336000840
:1034C8007336000873360008733600087336000830
:1034D8007336000873360008733600087336000820
:1034E8007336000873360008733600087336000810
:1034F8007336000873360008733600087336000800
:1035080073360008733600087336000873360008EF
:1035180073360008733600087336000873360008DF
:10352800733600087336000873360008EF35000854
:10353800019BB3F5C07F05D097E02FF0E3FE03466B
:10354800039393E02FF0BAFE034603938EE02FF027
:10355800D9FE04464FF40070FFF7E6FB0346B4FBC0
:10356800F3F3039382E02FF0A9FE04464FF4207092
:10357800FFF7DAFB0346B4FBF3F3039376E02FF08F
:103588009DFE04464FF42070FFF7CEFB0346B4FBC4
:10359800F3F35B08039369E002AB0021184601F0DE
:1035A8000BF8029C4FF46070FFF7BEFB0346B4FBB8
:1035B800F3F303935AE003AB0021184601F07AF8BD
:1035C80054E003AB0021184600F098FD4EE003AB31
:1035D8000021184600F0E2FD48E003AB0021184640
:1035E80001F07EFA42E003AB0021184601F0ACFB83
:1035F8003CE003AB0021184601F0B6F836E003AB17
:103608000021184601F008FB30E003AB0021184602
:1036180001F04EFB2AE003AB0021184601F0BAFA8C
:1036280024E003AB0021184600F010FE1EE003ABB7
:103638000021184600F046FE18E003AB00211846AA
:1036480000F08EFE12E003AB0021184600F0D6FE13
:103658000CE003AB0021184601F0C8F806E003AB04
:103668000021184600F0E4FF00E000BF039B184665
:1036780004B010BD00B585B0019000230393019BF1
:10368800B3F5486F00F0D881019BB3F5486F00F29D
:10369800DF81019BB3F5406F00F0B681019BB3F564
:1036A800406F00F2D581019BB3F5286F00F0CA8105
:1036B800019BB3F5286F00F2CB81019BB3F5206F16
:1036C80000F0B481019BB3F5206F00F2C181019B2A
:1036D800B3F5186F00F0A481019BB3F5186F00F2E1
:1036E800B781019BB3F5106F00F07681019BB3F5AC
:1036F800106F00F2AD81019BB3F5086F00F0728185
:10370800019BB3F5086F00F2A381019BB3F5F06F3D
:1037180000F05681019BB3F5F06F00F29981019B8F
:10372800B3F5E06F00F07681019BB3F5E06F00F22E
:103738008F81019BB3F5D06F00F04881019BB3F5F1
:10374800D06F00F28581019BB3F5C06F00F0328124
:10375800019BB3F5C06F00F27B81019BB3F5B06F9D
:1037680000F01681019BB3F5B06F00F27181019BE7
:10377800B3F5A06F00F04281019BB3F5A06F00F292
:103788006781019BB3F5806F00F00881019BB3F559
:10379800806F00F25D81019BB3F5607F00F02881A6
:1037A800019BB3F5607F00F25381019B802B00F2EF
:1037B800C780019B242BC0F04B81019B243B5C2BD1
:1037C80000F2468101A252F823F000BFA539000893
:1037D800A5390008A5390008A5390008A539000849
:1037E800593A000899390008593A0008BD390008C3
:1037F800D5390008593A0008593A0008593A0008DA
:10380800593A0008593A0008593A0008593A000844
:10381800593A0008593A0008593A0008593A000834
:10382800593A0008593A0008593A0008593A000824
:10383800C93900081D3A0008593A0008593A0008E1
:10384800593A0008593A0008593A0008593A000804
:10385800593A0008593A0008593A0008593A0008F4
:10386800593A0008593A0008593A0008293A000814
:10387800A5390008593A0008593A0008593A000889
:10388800E1390008593A0008593A0008353A000861
:103898004D3A0008053A0008113A0008593A00085C
:1038A800593A0008593A0008593A0008593A0008A4
:1038B800413A0008593A0008593A0008A539000861
:1038C800A5390008A5390008A5390008A539000858
:1038D800113A0008113A0008593A0008593A000804
:1038E800593A0008593A0008593A0008593A000864
:1038F800593A0008593A0008593A0008593A000854
:10390800593A0008593A0008593A0008593A000843
:10391800593A0008593A0008593A0008593A000833
:10392800593A0008593A0008593A0008593A000823
:10393800593A0008593A0008593A0008533900081A
:10394800019BB3F5807F2FD082E0444B1B6F03F0BF
:103958000703013B032B17D801A252F823F000BF3D
:103968008B390008793900087F3900088539000843
:10397800052303930BE00323039308E00823039331
:1039880005E00223039302E00023039300BF60E0F5
:1039980003AB1946002001F0A3F85AE003AB19461F
:1039A800002000F087FE54E003AB1946002001F028
:1039B800CBF94EE003AB1946002000F0D5FE48E0F5
:1039C80003AB1946002000F011FF42E003AB194693
:1039D800002001F021F93CE003AB1946002001F07A
:1039E80067F936E003AB1946002000F021FE30E00D
:1039F80003AB1946002000F0DFFD2AE003AB1946AF
:103A0800002000F07BFB24E003AB1946002000F007
:103A1800C5FB1EE003AB1946002001F0BBF818E017
:103A280003AB1946002000F011FC12E003AB194665
:103A3800002000F047FC0CE003AB1946002000F022
:103A48008FFC06E003AB1946002000F0D7FC00E02D
:103A580000BF039B184605B05DF804FB00800050CA
:103A680008B50121022001F0A7FA4FF42070FFF7F2
:103A78005BF90346DAB2054B1A7022F0A1F922F07D
:103A880097F900F0EDFC00BF08BD00BF81240020BD
:103A980010B582B003468DF8073031F047FA044676
:103AA800FFF7FCF80346C3F102031946204622F04B
:103AB8006BF90121002001F051FA9DF80730002B25
:103AC80002D001F04DF806E0054B1B7819464FF47B
:103AD8002070FFF773F900F0CFFC00BF02B010BDF3
:103AE8008124002000B583B0104B5B6E03F4803353
:103AF800002B0CBF012300238DF807300B4B03F577
:103B080080531A464FF480335366FFF7D5F89DF873
:103B18000730002B06D0054B03F500531A464FF427
:103B28008033536600BF03B05DF804FB008000508B
:103B380000B585B001900198FFF79CFD0290029BAB
:103B4800092B07D0029B092B20D3029B0A3B012B90
:103B58001CD804E0134B1B88ADF80E301BE0124B49
:103B680003F580531A464FF4800353660F4B5B6A84
:103B780003F00103002B04D04FF4FA73ADF80E30B4
:103B880009E04FF6FF73ADF80E3004E04FF6FF730F
:103B9800ADF80E3000BFBDF80E30184605B05DF820
:103BA80004FB00BF0A2B0020008000500040025098
:103BB80000B585B001900198FFF75CFD0290029B6B
:103BC800032B03D0029B052B05D009E00A4B1B8869
:103BD800ADF80E3009E04FF6FF73ADF80E3004E093
:103BE8004FF6FF73ADF80E3000BFBDF80E30184623
:103BF80005B05DF804FB00BF0C2B002000B589B0B0
:103C08000190019800F096FE0790079B002B02D0C8
:103C1800079BB3F1FF3F454B03F580531A464FF41A
:103C2800C0235366424B5B68012B0CD1404B03F514
:103C380000531A460123536000BF3D4B5B6803F0F5
:103C48000203002BF9D18020FFF714FD0346052B52
:103C580005D122F0B5F822F0ABF800F001FC079B83
:103C680023F040730793019B324A934204D0019B8F
:103C7800314A934205D009E0079B43F0007307934C
:103C880004E0079B43F08073079300BF2FF034FBD9
:103C98000690019A069B9A4203D90121019801F0E6
:103CA8005DF900BF254BDB6803F00603002BF9D153
:103CB800224B9B680593214A079B9360079B03F45B
:103CC800F81304931D4B9B6803F4F8130393049AA9
:103CD800039B9A4203D10198FDF748F804E0174A7C
:103CE800059B9360069B01938020FFF7C3FC034666
:103CF800052B0FD131F01AF90290FEF7CFFF0346DA
:103D0800C3F102031946029822F03EF800F028FF9A
:103D180000F0B2FB019A069B9A4203D801210020C9
:103D280001F01CF900BF09B05DF804FB00800050E9
:103D380000C0015040420F0080841E000000015066
:103D480000B585B001908020FFF794FC0346032B53
:103D580000F00C81874B03F580531A464FF480130B
:103D68005366854B45F60E02C3F88020824B03F557
:103D780080531A464FF0A06393627F4B03F50053BC
:103D88001A464FF48033936200BF7B4B9B6D03F45C
:103D98008033002BF9D100BF774B9B6D03F0804334
:103DA800002BF9D1019B1B681A06019B5B681B0558
:103DB8001A43019B1B7B1B041A43019B5B7B1B0360
:103DC8001A43019B9B7B9B011343019AD27B1146AB
:103DD800694A0B431361684B9B6903F00042019BDE
:103DE8001B699B061A43019B5B691B061A43019BCF
:103DF8001B7E1B041A43019B5B7E1B021343019A23
:103E0800927E11465C4A0B4393615B4B1B6A23F01D
:103E18000F03019AD269002A01D1002200E008228A
:103E28001A43019BDB7E9B001A43019BDB695249C5
:103E380013430B62019BDB69002B5CD14E4B9A6AE2
:103E48004E4B1340019A92F8202052011A43019BCD
:103E580093F821301B011A43019B93F82430DB00AF
:103E68001343454A43F48033936200BF424B9A6D33
:103E7800434B1340424A9342F8D13F4B03F58053DA
:103E88001A464FF0807393623B4B1B6923F4700210
:103E9800019B9B681B05384913430B61364B03F59F
:103EA80080531A464FF000439361019B93F82230E8
:103EB80083F00103DBB2002B06D02F4B03F5005330
:103EC8001A464FF080739362019B93F8233083F076
:103ED8000103DBB2002B3FD0274B03F500531A46F2
:103EE8004FF48033936200BF234B9B6D03F08043F4
:103EF800002BF9D130E0019BDB69022B12D11E4B5C
:103F080000221A611C4B00229A6102230393039B2F
:103F18001A03039B1B0213431A464FF47F411948A7
:103F280021F018FF144B9A6A144B1340019A92F827
:103F3800202052011A43019B93F822301B061A4392
:103F4800019B93F82430DB001A43019B93F823303C
:103F58001B04094913438B62019B93F82530002BFE
:103F680005D0054B084AC3F8802000E000BF05B023
:103F78005DF804FB008000500040005AC7FFFEFEB9
:103F8800030001003440005AF1A7FFFF024B93F9E8
:103F980000301846704700BF192B002082B0034636
:103FA800ADF80630034ABDF80630138000BF02B0F2
:103FB800704700BF0C2B002000B587B003468DF872
:103FC8000730002303930023059300230493274B12
:103FD80003F580531A464FF480035366244B02229C
:103FE8005A6000BF224B9B6803F48033002BF9D141
:103FF8009DF80730012B2ED12FF0C4F90390039BB5
:104008001C4A934205D11C4B059345F67A13049339
:1040180017E0039B194A934205D1194B059345F6BE
:104028001A0304930DE0039A13469B0013445B0A9A
:104038000593144B0493039B5B0A049AB2FBF3F3B6
:1040480004930B4A059BD362094A049B1363084BEC
:1040580001225A6202E0064B00225A62044B0022F7
:104068005A6000BF07B05DF804FB00BF0080005035
:104078000040025000F04902D8B80500C0175302AA
:10408800BBCF05006466666600B585B001900198EF
:1040980000F008FA0390039B002B02D0039BB3F1B6
:1040A800FF3F134B03F580531A464FF40023536622
:1040B800039B23F040730393019B0E4A934204D061
:1040C800019B0D4A934205D009E0039B43F000731E
:1040D800039304E0039B43F08073039300BF4FF006
:1040E800B442039B936000BF05B05DF804FB00BFBA
:1040F8000080005040420F0080841E0000B585B04B
:104108000190009100230293234BD3F8203203F04F
:104118000703042B2CD801A252F823F0734100089E
:104128003941000849410008574100086541000825
:1041380002AB0021184600F031F8122303931AE06D
:104148002FF02CF9034602930723039313E030F072
:10415800AEFE034602930A2303930CE02FF098F96E
:10416800034602930923039305E00123039302E026
:104178000023039300BF019B002B02D0029A019BEE
:104188001A60009B002B02D0009B039A1A6000BFA4
:1041980005B05DF804FB00BF0080005000B585B095
:1041A8000190009100230393274BD3F8283103F0A3
:1041B8000703013B052B33D801A252F823F000BFB7
:1041C800E1410008054200081D420008F9410008C5
:1041D800ED410008114200082FF08EF803900523E6
:1041E800029320E02FF088F80390062302931AE048
:1041F8002FF0D4F803900723029314E02FF0C2F8AD
:104208000390032302930EE02FF0BCF803900423DD
:10421800029308E02FF0B0F803900223029302E023
:104228000023029300BF019B002B02D0019B039A3D
:104238001A60009B002B02D0009B029A1A6000BFF4
:1042480005B05DF804FB00BF0080005000B585B0E4
:104258000190009100230393194BD3F8503203F0D7
:104268000303032B06D0032B16D8012B08D0022BEF
:104278000CD011E030F01FFE03900C2302930EE0E7
:1042880030F015FE03900A23029308E02FF000F99E
:1042980003900923029302E00023029300BF019BCD
:1042A800002B02D0019B039A1A60009B002B02D0BE
:1042B800009B029A1A6000BF05B05DF804FB00BFBE
:1042C8000080005000B585B0019000910023029352
:1042D800224BD3F8603203F00703013B032B29D8A4
:1042E80001A252F823F000BF01430008114300085F
:1042F8002F4300082143000802AB0021184600F0B4
:10430800D9F91023039318E002AB0021184600F0F6
:104318002BFA1123039310E02FF040F80346029381
:104328000723039309E02FF027F80346029302239B
:10433800039302E00023039300BF019B002B02D0EC
:10434800029A019B1A60009B002B02D0009B039AE3
:104358001A6000BF05B05DF804FB00BF0080005084
:1043680000B585B00190009100230293224BD3F849
:10437800943203F00703013B032B29D801A252F81A
:1043880023F000BF9D430008AD430008CB4300085D
:10439800BD43000802AB0021184600F08BF910233A
:1043A800039318E002AB0021184600F0DDF9112351
:1043B800039310E02EF0F2FF0346029307230393C2
:1043C80009E02EF0D9FF034602930223039302E08B
:1043D8000023039300BF019B002B02D0029A019B8C
:1043E8001A60009B002B02D0009B039A1A6000BF42
:1043F80005B05DF804FB00BF0080005000B585B033
:104408000190009100230293144BD3F8703203F00B
:104418000303012B02D0022B08D00CE002AB0021D1
:10442800184600F0A1F91123039307E00023029333
:104438001523039302E00023039300BF019B002B85
:1044480002D0029A019B1A60009B002B02D0009BAD
:10445800039A1A6000BF05B05DF804FB00800050A5
:10446800044B03F580531A464FF48033136700BF9B
:10447800704700BF0080005008B58020FEF78EFD11
:104488000346064A934206D8054B03F500531A46DD
:104498004FF48033136700BF08BD00BF005A6202A3
:1044A8000080005084B0019000230393019B384A98
:1044B800934260D0019B364A934261D8019B354AAA
:1044C800934253D0019B334A934259D8019B324AB5
:1044D800934246D0019B304A934251D8019B2F4AC0
:1044E800934239D0019B2D4A934249D8019B2C4ACB
:1044F80093422CD0019B2A4A934241D8019B294AD6
:1045080093421FD0019B274A934239D8019B264AE0
:10451800934212D0019B244A934231D8019B234AEB
:1045280093420AD0019B214A934229D8019B002B30
:1045380028D0019B1E4A934222D11E4BD3F8A030AB
:10454800039320E01B4BD3F8B83003931BE0194BBF
:10455800D3F8BC30039316E0164BD3F8C03003935E
:1045680011E0144BD3F8C83003930CE0114BD3F887
:10457800CC30039307E00F4BD3F8D030039302E01D
:1045880000BF00E000BF039B184604B0704700BF9F
:10459800005A62020048E80180BA8C01C0EA210191
:1045A8000024F400405DC60000093D0080841E0020
:1045B80040420F000080E00F00B585B001900091E7
:1045C80000230393194BD3F8803003F00303032B24
:1045D80012D0032B16D8012B02D0022B06D011E0E3
:1045E8002EF090FE03900E2302930EE02EF0D6FEDE
:1045F80003900723029308E02EF07EFE0390062323
:10460800029302E00023029300BF019B002B02D01B
:10461800019B039A1A60009B002B02D0009B029A10
:104628001A6000BF05B05DF804FB00BF00800050B1
:1046380000B585B001900091002303931C4BD3F87B
:10464800003103F00303032B1FD801A252F823F013
:104658008D4600086946000875460008814600082E
:104668002EF090FE03900323029311E02EF010FF2A
:104678000390092302930BE02EF08AFE039008238F
:10468800029305E00123029302E00023029300BF96
:10469800019B002B02D0019B039A1A60009B002B00
:1046A80002D0009B029A1A6000BF05B05DF804FBB7
:1046B8000080005000B585B001900091002303935D
:1046C800284BD3F8203103F00703062B37D801A273
:1046D80052F823F029470008F94600080547000862
:1046E8001D470008114700082F4700083B470008EE
:1046F8002EF002FE03900523029323E02EF042FEE3
:104708000390032302931DE02EF048FE0390072335
:10471800029317E02EF030FE03900223029311E07B
:10472800012302930EE02EF0E7FD03900623029387
:1047380008E02EF027FE03900423029302E00023F2
:10474800029300BF019B002B02D0019B039A1A60C1
:10475800009B002B02D0009B029A1A6000BF05B094
:104768005DF804FB0080005000B585B00190009111
:10477800002303931C4BD3F8403103F00303032BAE
:104788001FD801A252F823F0C5470008A147000826
:10479800AD470008B947000830F089FB03900A23A9
:1047A800029311E02EF074FE0390092302930BE0AC
:1047B80030F081FB03900C23029305E00123029360
:1047C80002E00023029300BF019B002B02D0019B53
:1047D800039A1A60009B002B02D0009B029A1A6071
:1047E80000BF05B05DF804FB0080005000B585B03F
:1047F80001900091002303931C4BD3F8603103F020
:104808000303032B1FD801A252F823F049480008DC
:1048180025480008314800083D48000830F047FBAB
:1048280003900A23029311E02EF032FE039009232D
:1048380002930BE030F03FFB03900C23029305E05A
:104848000123029302E00023029300BF019B002B87
:1048580002D0019B039A1A60009B002B02D0009B98
:10486800029A1A6000BF05B05DF804FB0080005092
:1048780084B0019000914FF440130393009B002BE8
:104888000AD1019B0D4A934203D94FF48013039335
:104898000FE0002303930CE0009B002B09DD019B34
:1048A800074A934203D94FF48013039301E000238E
:1048B8000393039B184604B0704700BF005A620276
:1048C800002D310100B585B001900091184B03F51A
:1048D80080531A464FF4803393660020FEF724FA7B
:1048E8000246019B02FB03F30193FEF7EFF903462F
:1048F8008DF80F30FEF700FAFEF706FA034623F4A8
:104908004013029300990198FFF7B2FF0246029BF9
:10491800134302930298FEF7FDF99DF80F30002B20
:1049280001D0FEF7E1F900BF05B05DF804FB00BF58
:104938000080005084B0019000230393019B594AE2
:10494800934200F0A380019B564A934200F2A38051
:10495800019B554A934200F09480019B524A93422E
:1049680000F29980019B514A934200F08580019B97
:104978004E4A934200F28F80019B4D4A934276D073
:10498800019B4B4A934200F28680019B494A93421D
:1049980068D0019B474A93427DD8019B464A93427F
:1049A8005BD0019B444A934275D8019B434A93428A
:1049B8004ED0019B414A93426DD8019B404A934295
:1049C80042D0019B3E4A934265D8019B3D4A93429F
:1049D80036D0019B3B4A93425DD8019B3A4A9342A9
:1049E8002AD0019B384A934255D8019B374A9342B3
:1049F8001ED0019B354A93424DD8019B344A9342BD
:104A080012D0019B324A934245D8019B314A9342C6
:104A18000AD0019B2F4A93423DD8019B002B3CD0E2
:104A2800019B2D4A934236D12C4B9B6D039335E065
:104A38002A4B5B6E039331E0284B1B6F03932DE0E9
:104A4800264B5B6F039329E0244B9B6F039325E070
:104A5800224BD3F88030039320E0204BD3F88430E6
:104A680003931BE01D4BD3F88830039316E01B4BD0
:104A7800D3F88C30039311E0184BD3F8903003939C
:104A88000CE0164BD3F89430039307E0134BD3F89C
:104A98009830039302E000BF00E000BF039B184674
:104AA80004B0704700B4C4040090D003007E5603DD
:104AB800006CDC0280D543020048E80180BA8C0112
:104AC800C0EA21010024F400405DC600C0CF6A009E
:104AD80000093D0080841E0040420F000080E00F66
:104AE80000B585B001900091002302931B4BD3F8C9
:104AF800803103F00303032B0ED0032B1AD8012BAC
:104B080002D0022B0FD015E002AB00211846FFF7A8
:104B1800D1FD1023039310E02EF040FC03460293CE
:104B28000723039309E02EF027FC03460293022390
:104B3800039302E00023039300BF019B002B02D0E4
:104B4800029A019B1A60009B002B02D0009B039ADB
:104B58001A6000BF05B05DF804FB00BF008000507C
:104B680000B583B0022301934FF4C070FEF716FA24
:104B78000346074A934201D80123019301994FF450
:104B88002070FEF71BF900BF03B05DF804FB00BFFF
:104B980080F0FA0200B585B00190009100230393DC
:104BA8001C4BD3F8403203F00303032B1FD801A298
:104BB80052F823F0F14B0008CD4B0008D94B000800
:104BC800E54B000830F073F903900A23029311E0D3
:104BD8002EF05EFC0390092302930BE030F06BF992
:104BE80003900C23029305E00123029302E00023C3
:104BF800029300BF019B002B02D0019B039A1A600D
:104C0800009B002B02D0009B029A1A6000BF05B0DF
:104C18005DF804FB0080005000B585B0019000915C
:104C280000230393214BD3F8003203F00703042B2E
:104C380029D801A252F823F0894C0008554C0008E5
:104C4800614C00086D4C0008794C000830F02FF9D1
:104C580003900A23029319E02EF01AFC039009230B
:104C6800029313E030F027F903900C2302930DE030
:104C78002EF024FB03469B0A03930F23029305E0BF
:104C88000123029302E00023029300BF019B002B43
:104C980002D0019B039A1A60009B002B02D0009B54
:104CA800029A1A6000BF05B05DF804FB008000504E
:104CB80000B585B00190009100230393214BD3F8F0
:104CC800083203F00703042B29D801A252F823F075
:104CD800214D0008ED4C0008F94C0008054D00086E
:104CE800114D000830F0E3F803900A23029319E00D
:104CF8002EF0CEFB03900923029313E030F0DBF88B
:104D080003900C2302930DE02EF0D8FA03469B0A79
:104D180003930F23029305E00123029302E000238B
:104D2800029300BF019B002B02D0019B039A1A60DB
:104D3800009B002B02D0009B029A1A6000BF05B0AE
:104D48005DF804FB0080005000B585B0019000912B
:104D580000230393114B1B6803F00403002B06D0B8
:104D68002EF0ACFA034603930D23029305E002AA42
:104D780003AB11461846FFF7F7FC019B002B02D046
:104D8800039A019B1A60009B002B02D0029A009B99
:104D98001A6000BF05B05DF804FB00BF10E000E03A
:104DA800024B034A1A6400BF704700BF00800950D5
:104DB8003254FFFF024B4AF6CD321A6400BF7047E7
:104DC8000080095082B0019000BF054B5A6B019BCF
:104DD8001340002BF9D100BF00BF02B0704700BFDD
:104DE8000080095008B500BF0421044820F0F2FFF4
:104DF8000346002BF8D100BF00BF08BD8440005017
:104E080008B5FFF7EFFF044BD3F884309B0903F094
:104E18000303DBB2184608BD0040005082B0019081
:104E2800044B03F500531A46019BC2F8203400BF17
:104E380002B0704700C0035000B583B00190019BD9
:104E48001A78054B1A700121002000F087F800BF7E
:104E580003B05DF804FB00BF2C16002082B001905F
:104E6800064B5B6F23F44072019B5B781B0203497E
:104E780013434B6700BF02B0704700BF00400050AB
:104E880000B583B003468DF80730124B1B69114AF1
:104E980043F0040313612FF0DDF920F0B6FF0E4B49
:104EA8005B6E03F08063002B02D00C48FFF7B6FF5F
:104EB80030BF20F0ACFF05F017FF9DF8073083F0F6
:104EC8000103DBB2002B01D030F036F800BF03B08D
:104ED8005DF804FB00ED00E0008000500000FF0FCB
:104EE80000B583B003468DF80730104B1B690F4A95
:104EF80043F0040313610E4B5B6E03F08063002BD9
:104F080002D00C48FFF78AFF2FF0A4F930BF05F054
:104F1800EBFE9DF8073083F00103DBB2002B01D0D4
:104F280030F00AF800BF03B05DF804FB00ED00E0C4
:104F3800008000500000FF0F82B00190064BDB6E2E
:104F480023F03003019A12791146034A0B43D366C2
:104F580000BF02B0704700BF0040005000B585B0E8
:104F680001900B468DF80330019B002B03D12EF0E6
:104F7800C9F9039001E0019B03930D4B1B78002BAB
:104F88000AD0039B0B4A934206D89DF80330194672
:104F9800012000F011F806E09DF8033019460220C0
:104FA80000F00AF800BF00BF05B05DF804FB00BFC1
:104FB8002C160020005A620210B586B003460A4635
:104FC8008DF8073013468DF80630FFF719FF0346B2
:104FD8001A469DF80730934240D02EF093F9059079
:104FE800059B04939DF80730012B03D101210598F7
:104FF80020F0CAFE2FF070FF03901A4B03F5005300
:105008001A464FF0007353669DF80730184620F093
:1050180004FF144C9DF80730184620F0E8FE0346BC
:10502800236702E00F4BD3F884300E4B5B6E03F01E
:105038000073002B06D10B4BD3F8843003F0200308
:10504800002BEFD003982FF03AFF9DF80730022B82
:1050580005D10021059820F097FE00E000BF06B0BA
:1050680010BD00BF0040005000B587B003468DF862
:1050780007300023059300230493404B03F5805326
:105088001A464FF0004353663D4B5B6C03F0010337
:10509800002B14BF012300238DF80F30FFF78AFE81
:1050A8009DF80730002B28D10120FFF78BFE344BE9
:1050B8005B6803F001030293029B002B50D0304B36
:1050C80003F500531A460123536002E0049B0133A1
:1050D80004932B4B1B6B03F00103002B03D1049BA0
:1050E800284A9342F2D9049B264A934238D9072387
:1050F800059335E0049B01330493214B1B6B03F0AC
:105108000803002B03D0049B1E4A9342F2D9049B48
:105118001C4A934202D90723059321E0184B03F553
:1051280000531A4620239362154B03F580531A4601
:10513800012353600023049302E0049B013304938A
:105148000F4B9B6A03F02003002B03D1049B0D4AED
:105158009342F2D9049B0B4A934201D90723059342
:105168009DF80F30002B01D0FFF71AFE2BF0B1FB92
:10517800059B184607B05DF804FB00BF008000508F
:10518800008009503F420F0000B585B00190254BC3
:1051980003F580531A464FF000435366224B5B6C6D
:1051A80003F00103002B14BF012300238DF80F30F7
:1051B800FFF700FE019B5B785B001C4A43F001038C
:1051C800D3630B20FFF7FEFD174B5B6823F4F872DF
:1051D800019B9B781B01144913434B60019BDB78AF
:1051E8001B02019A527911460F4A0B439360019BA7
:1051F8001B791B02019A927911460B4A0B431361E2
:10520800019B1B781846FFF72FFF9DF80F30002BE6
:1052180001D0FFF7C5FD2BF05CFB0123184605B054
:105228005DF804FB008000500080095000400050E9
:1052380000B585B0019000238DF80F3000238DF85C
:105248000E30019B0F2B01D90F2301931E4B5B6E70
:10525800DB0F8DF80E301C4B03F580531A464FF0C8
:1052680000435366194B5B6C03F00103002B14BF1A
:10527800012300238DF80F30FFF79CFD8020FFF7F6
:10528800A1FD124B1B6A23F00F021049019B134327
:105298000B629DF80F30002B01D0FFF781FD9DF8C0
:1052A8000E3083F00103DBB2002B06D0064B03F56A
:1052B80000531A464FF0004353662BF00AFB00BF19
:1052C80005B05DF804FB00BF008000500080095065
:1052D80000B585B003468DF8073000238DF80F30F0
:1052E80000238DF80E301F4B5B6EDB0F8DF80E30F0
:1052F8001C4B03F580531A464FF0004353661A4B74
:105308005B6C03F00103002B14BF012300238DF80D
:105318000F30FFF74FFD8020FFF754FD124B1B6A3B
:1053280023F4F8529DF807301B020F4913430B6210
:105338009DF80F30002B01D0FFF732FD9DF80E309D
:1053480083F00103DBB2002B06D0064B03F50053B4
:105358001A464FF0004353662BF0BBFA00BF05B066
:105368005DF804FB0080005000800950094B03F5EC
:1053780080531A464FF480339366074B41F67132D7
:10538800DA63054B03F500531A460123D36000BFC7
:10539800704700BF00800050000003500A4B41F6E0
:1053A8007132DA63084B03F500531A460123D360C0
:1053B800054B0022DA63054B03F500531A464FF4F8
:1053C8008033936600BF7047000003500080005090
:1053D80084B0019000230393019B372B00F298803F
:1053E80001A252F823F000BFD1540008D754000896
:1053F80019550008195500081955000819550008CD
:1054080019550008195500081955000819550008BC
:1054180019550008195500081955000819550008AC
:10542800195500081955000819550008195500089C
:105438000D5500081955000813550008195500089E
:10544800195500081955000819550008195500087C
:10545800195500081955000819550008195500086C
:10546800195500081955000819550008DD54000899
:10547800E3540008E9540008EF54000819550008DF
:10548800195500081955000819550008195500083C
:10549800195500081955000819550008195500082C
:1054A800195500081955000819550008195500081C
:1054B800F55400081955000819550008FB54000850
:1054C80001550008075500080023039321E0032332
:1054D80003931EE0012303931BE00223039318E0C8
:1054E8000423039315E00523039312E00623039393
:1054F8000FE0092303930CE00A23039309E00B232D
:10550800039306E00723039303E00823039300E0D3
:1055180000BF039B184604B0704700BF84B00190D9
:105528000091009B0393019B372B72D8019B212B81
:105538000CD2019B142B5ED0019B142B69D8019BC4
:10554800012B32D0019B122B47D062E0019B213BFB
:10555800324A22FA03F303F00103002B14BF01239C
:105568000023DBB2002B54D0009B042B1BD801A2D4
:1055780052F823F091550008975500089D550008EA
:10558800A3550008A9550008002303930CE0012344
:10559800039309E00223039306E00323039303E044
:1055A8000423039300E000BF34E0009B022B0FD0DC
:1055B800009B022B0FD8009B002B03D0009B012BD4
:1055C80003D008E00023039306E00123039303E0DC
:1055D8000223039300E000BF1CE0009B012B03D0D3
:1055E800009B042B03D005E00023039302E0012372
:1055F800039300BF0EE0009B022B03D0009B052BFA
:1056080003D005E00023039302E00123039300BFC6
:1056180000E000BF039B184604B070470F007200FB
:1056280000B585B001900B468DF803301346ADF8F0
:105638000030BDF800301B0A03F07F030393BDF868
:10564800003003F0070302939DF80330002B0BD1C1
:10565800039B1A02029B13430E4943F44022019B09
:10566800063341F8232011E002990398FFF756FF0B
:1056780002900398FFF7ACFE0390039B1A020549BA
:10568800029B1A43019B163341F8232000BF05B043
:105698005DF804FB0080035084B001900B468DF840
:1056A80003301346ADF800300E4B0393BDF80030BD
:1056B8000293029B23F00303039A13440393BDF858
:1056C8000030002B0BD09DF80330002B03D1039B37
:1056D800019A1A6003E0019B1A02039B1A6000BF3B
:1056E80004B0704700800350054B03F580531A46F9
:1056F8004FF480335366034B9B691846704700BFCD
:105708000080005000000850F0B482B00E4B9B6C33
:1057180001930D4BDB6C00221E4617464FF000022A
:105728004FF0000333000022019E0027304639461F
:1057380042EA000443EA010522462B461046194670
:1057480002B0F0BC704700BF0080E00F82B0074B8A
:105758009B68DBB20193019B0A3303F01F0301220C
:1057680002FA03F3184602B0704700BF0080E00F4A
:10577800024BD3F810331846704700BF00C00350DF
:1057880082B00190019B1B78002B0AD0019B1B78EB
:10579800012B06D0019B1B78022B02D0019B1B78A2
:1057A800032B019B5B781A460849019B1B78184616
:1057B800012303FA02F203465B0003441B010B4476
:1057C80003F501531A6000BF02B0704700C00350D0
:1057D80084B00190019B1B78002B0AD0019B1B7899
:1057E800012B06D0019B1B78022B02D0019B1B7852
:1057F800032B0D4A019B1B7819460B465B000B4493
:105808001B01134444331B68019A5278D34003F0B8
:105818000103002B14BF012300238DF80F309DF8DE
:105828000F30184604B0704700C0035082B0019092
:10583800044B03F580531A46019BC2F8243400BF79
:1058480002B0704700C0035082B00190044B03F5CA
:1058580000531A46019BC2F8243400BF02B07047B7
:1058680000C0035082B00190044B03F500531A4660
:10587800019BC2F8203400BF02B0704700C003503B
:10588800024BD3F824341846704700BF00C00350B9
:1058980082B0064BD3F824340193044BD3F8202468
:1058A800019B1340184602B0704700BF00C0035068
:1058B80084B003468DF807300F4BDB6E03F03003DE
:1058C8000393039B202B13D09DF80730002B08D09F
:1058D800094BDB6E23F03003074A43F01003D3660D
:1058E80007E0054BDB6E044A23F03003D36600E083
:1058F80000BF04B0704700BF0040005000B585B03D
:1059080001900B468DF8033013468DF802300023C2
:105918008DF80F30019B1B78002B0AD0019B1B7858
:10592800012B06D0019B1B78022B02D0019B1B7810
:10593800032BFFF71DFF9DF803300F2B62D801A240
:1059480052F823F08D590008955900089D59000810
:10595800A5590008AD590008B5590008BD590008F7
:10596800C5590008CD590008D5590008DD59000867
:10597800E5590008ED590008F5590008FD590008D7
:10598800055A000800238DF80F303CE001238DF8FC
:105998000F3038E002238DF80F3034E003238DF800
:1059A8000F3030E004238DF80F302CE005238DF8FC
:1059B8000F3028E006238DF80F3024E007238DF8F8
:1059C8000F3020E008238DF80F301CE009238DF8F4
:1059D8000F3018E00A238DF80F3014E00B238DF8F0
:1059E8000F3010E00C238DF80F300CE00D238DF8EC
:1059F8000F3008E00E238DF80F3004E00F238DF8E8
:105A08000F3000E000BF9DF80330002B0AD09DF84E
:105A18000230002B03D001982DF04EFD02E00198D2
:105A2800FFF7AEFE019B5B78072B1BD8019B1B7809
:105A38001A4613465B0013441B011A1D224B1344DC
:105A4800019A527892000F2101FA02F09DF80F1086
:105A5800019A5278920001FA02F20146184620F0A3
:105A6800A1FA1DE0019B1B781A4613465B001344FC
:105A78001B0103F10C02144B1344019A5278083AA3
:105A880092000F2101FA02F09DF80F10019A527846
:105A9800083A920001FA02F20146184620F082FA0A
:105AA8009DF80330002B0AD19DF80230002B03D05B
:105AB80001982DF001FD02E00198FFF761FE00BF9B
:105AC80005B05DF804FB00BF30C0035000B587B0D7
