:020000040800F2
:10000000C00A0020810700086FE001086FE00108C6
:10001000F5FC01086FE001086FE001086FE00108DE
:100020006FE001086FE001086FE001086FE0010870
:100030006FE001086FE0010893FD01086FE001081F
:100040006FE001086FE001086FE001086FE0010850
:100050006FE001086FE001086FE001086FE0010840
:100060006FE001086FE001086FE001086FE0010830
:100070006FE001086FE001086FE001086FE0010820
:100080006FE001086FE001086FE001086FE0010810
:100090006FE001086FE001086FE001086FE0010800
:1000A0006FE001086FE001086FE001086FE00108F0
:1000B0006FE001086FE001086FE001086FE00108E0
:1000C0006FE001086FE001086FE001086FE00108D0
:1000D0006FE001086FE001086FE001083D0A0008C9
:1000E0001D0A00086FE001086FE001086FE00108D9
:1000F0006FE0010841770108DD810108997302086A
:100100009573020885790108AF7302089D73020890
:10011000AD810108A17302081D82010889820108CE
:100120006FE001086FE001086FE001086FE001086F
:10013000EBFB01086FE001086FE001086FE00108C8
:100140006FE001086FE001086FE001086FE001084F
:100150006FE001086FE001086FE001086FE001083F
:100160006FE001086FE001086FE001086FE001082F
:100170006FE001086FE001086FE001086FE001081F
:100180006FE001086FE001086FE0010805A60208B2
:10019000ED5C01086FE001088373020889730208AF
:1001A0006FE001086FE001086FE001086FE00108EF
:0401B0006FE00108F3
:1001B400F0B5114A114C124E00F00105E3695F07D6
:1001C40013D40DB9334213D103EA00078F4207D188
:1001D4000B4A1A40002A0CBF00206FF00100F0BD4A
:1001E400013AEBD16FF00200F9E74FF0FF30F6E788
:1001F4006FF00100F3E700BF809698000000035001
:10020400020001000B4B70B5D96911F480310DD196
:1002140001244FF48072084E084DF46020462C648B
:100224001A61FFF7C5FF3464EC6070BD6FF0010024
:10023400FBE700BF000003500010035000200350F0
:100244004FF4803238B50E4B0E4C9A66E56941F690
:10025400713315400122E3630B4B0021DA60022362
:10026400606121202361FFF7A3FF10B92120FFF76C
:100274009FFF0122054BDA600DB10023E36338BD13
:100284000090005000000350001003500020035061
:1002940070B5134C6061E3695B071ED40E4656F8D3
:1002A400043B8D18A361AE420BD10423002121200D
:1002B4002361FFF77DFF58B9BDE870402120FFF7A7
:1002C40077BF08210846FFF773FF10B104232361A9
:1002D40070BD56F8043BA361E5E74FF0FF30F7E744
:1002E400000003502DE9F84315464FF48032184BB3
:1002F40089469A6603F51C33DF690646174041F6C2
:100304007132DA63012203F58053DFF84C80DA603E
:1003140055B9284601220F4BDA601FB10022A3F51C
:100324000053DA63BDE8F88306F5005404EA0804D0
:10033400A41BAC4228BF2C46494622463046FFF750
:10034400A7FF0028E6D12644A1442D1BE0E700BF07
:10035400009000500020035000E0FFFF0000000068
:100364000000000000000000000000000000000089
:10037800002370B5404C05468AB0E36318B1008885
:1003880023600CF09DFB3D4826F0E7FA3C4E3D4BC0
:10039800304633603C4B736023F06EFB00213046DF
:1003A80011F0D8F832A3D3E90023A062C4E90623E8
:1003B80023F06DFBD4E9062319431043C4E9060171
:1003C800CDE900014FF0FF334FF0FF32A06A26F06D
:1003D8006BFB02224FF0FF31A06A26F06AFB012076
:1003E8000CF0EEF84FF4007300222849A06A26F0BA
:1003F800C1FBB0F5007F39D10023942207930993FC
:100408003C23CDE903320593962306935023A06A33
:1004180003A9089311F0B8F935B3287C0CF03CFE19
:100428000546F0B9A06A26F09AFC0CF0E3FD0CF042
:10043800A9F820B14FF48070002108F0FBFF0CF000
:10044800B1F820B14FF40060002108F0F3FF23F069
:10045800EEFB012026F055FA0D4A0E49A06A23F05A
:1004680009FB28460AB070BDFF20D7E70725F8E743
:100478000DD5015520000000300B0020690345EC24
:100488009C1B002001C40008AC1B00209C19002004
:10049800253A0208653A02080348044B834202D011
:1004A800034B03B118477047B0290020B02900203A
:1004B80000000000064B0749C91A891048BF0131DE
:1004C800491003D0044B0BB101481847704700BFCF
:1004D800B0290020B02900200000000010B5064C0B
:1004E800237843B9FFF7D8FF044B13B10448AFF39F
:1004F80000800123237010BD742400200000000038
:10050800ECFF020808B5054B1BB105490548AFF3D8
:100518000080BDE80840FFF7CDBF00BF0000000025
:10052800B00D0020ECFF0208A3F5803A704700BF29
:10053800174B002B08BF134B9D46FFF7F5FF002113
:100548008B460F461348144A121A27F060F80E4BD0
:10055800002B00D098470D4B002B00D09847002067
:10056800002104000D000D48002802D00C48AFF30C
:10057800008018F0E7F9200029001DF008FD18F0A8
:1005880087F800BF0000080000000000000000001D
:10059800C00A0020C00A00208025002000000000BA
:1005A800000000000368304A23F47F4323F0070368
:1005B800934213B541D008D82C4A934216D002F57D
:1005C800A022934249D002B010BD294A9342FAD1E1
:1005D8004FF6FF730022CDE90032FC23B0F8071074
:1005E8004FF6FD72007910F041FCECE7214C2248EF
:1005F80018F004F9204610F0A5FB08B100BEFDE78D
:100608000121207810F0D8FB0221207810F0E8FBB7
:10061800034608B100BEFDE7A022009011462078ED
:1006280010F0A8FB08B100BEFDE70221207810F009
:10063800EBFB0028C7D000BEFDE70E4C0221207856
:1006480010F0CEFB08B100BEFDE70221207810F0C3
:10065800DBFB0028B7D000BEFDE7084802B0BDE8C4
:10066800104018F0CBB800BFA0000601A0000100A0
:10067800A00043018829002068A6020881A6020874
:100688000022014B1A8070472824002010B529F059
:100698008BFE054A148814B1631E0124138029F0C7
:1006A8007EFE204610BD00BF282400207FB50368C9
:1006B800264A23F47F4323F00703934243D10021C2
:1006C80008221220224B0DF019FC014608B100BE89
:1006D800FDE7032214201F4B0DF010FC014608B162
:1006E80000BEFDE7052216201B4B0DF007FC08B1E4
:1006F80000BEFDE70DF1070102A810F099FB0146C5
:1007080008B100BEFDE7BDF80C3008225BBAADF8B1
:1007180010309DF80B3018208DF81230FF238DF81B
:100728001330FE238DF814309DF80A308DF81530FB
:10073800BDF808305BBAADF8163004AB0DF0DEFB3F
:1007480008B100BEFDE707B05DF804FBA00001009A
:100758008CA6020895A6020899A602080348044A2E
:100768000449121A92101DF07FBC00BFB4010008A2
:10077800740300088025002008B500F02FF8FFF763
:10078800EDFF124B12498B4212D30020114B124934
:100798008B4218D3FFF7CCFE186850F822405868EF
:1007A80040F82240013298688242F5D30C33EAE7D8
:1007B8000022F8E71C6844F8220001325C68A24273
:1007C800F8D30833E4E70022F8E700BFF4FF020893
:1007D8000000030800000308000003084FF48041EC
:1007E800144B154A70B59A60D3F88820134D42F41B
:1007F8007002C3F88820124A05F5005491664FF03C
:10080800FF3222666FF4003262660D22A26602226F
:10081800C3F8D020BFF34F8FBFF36F8F4FF440362C
:10082800002005F0F9F80020E66005F0D9F82E61FF
:1008380070BD00BF00ED00E000000008008000442B
:1008480000900050014B1860704700BF50270020EF
:10085800054B1860054B1B6F03F00703032B01D1F1
:1008680028F0E8BD704700BF5827002000800050DE
:100878002DE9F04104460C254FF00108124E0CB347
:1008880014F001000BD0002024F0010405FB0062E5
:100898005768002FF3D09168C0B2B847EFE72246F7
:1008A800013020284FEA520201D0D307F8D508FAC0
:1008B80000F20F2824EA0204E8D9103805FB006288
:1008C800B432E5E7BDE8F081C80D002008B50C4852
:1008D8001FF07EF9272005F091F828B1272005F0B0
:1008E8009BF8272005F07CF8282005F087F828B128
:1008F800282005F091F8282005F072F8002008BD9E
:1009080040BB02082DE9F0410E461746054618B3CC
:100918000F2923D80378E3B1013BDBB2022B1DD8A2
:10092800104A32F813306A78D340DB0716D50E4BDD
:10093800D3F81043A4B929F040FD80463A4628462A
:10094800314602F0FDFE404629F032FD2046BDE862
:10095800F08143F6FF73E6E72224F7E72124F5E761
:100968000224F3E77CA8020800C0035010B504462F
:10097800E8B10378C3B1013BDBB2022B19D80E4AA8
:1009880032F813306278D340DB0712D529F015FD11
:100998000122637821789A4030235943074B5A50F3
:1009A80029F006FD002010BD43F6FF73EAE7222078
:1009B800F9E72120F7E700BF7CA8020840D00350E0
:1009C80010B50446E8B10378C3B1013BDBB2022B92
:1009D80019D80E4A32F813306278D340DB0712D5A3
:1009E80029F0EBFC0122637821789A40302359439F
:1009F800074B5A5029F0DCFC002010BD43F6FF736A
:100A0800EAE72220F9E72120F7E700BF7CA80208DF
:100A180040E0035008B502F089FE054B00F0553060
:100A280020F0A040C3F82004BDE80840FFF720BF2D
:100A380000E0035008B502F079FE054B00F0AA303B
:100A480020F02040C3F82004BDE80840FFF710BF9D
:100A580000E003502DE9F04F144606460D469B462C
:100A6800C36B87B001225B6902A960689847F36B82
:100A780001225B6903A92846984702A81DF00BFFCD
:100A8800074648B10023A37563754FF0FF33A36091
:100A9800002007B0BDE8F08F03A81DF009FF01236F
:100AA800A375237E04EBC303DD611F846368AB4237
:100AB8000ED1206003A81DF01DFF4FF0FF332075F5
:100AC800A360237D043B022B26D80023A375DFE710
:100AD80023681A1A53425341A37503A81DF00AFF4D
:100AE800237D834218BFA77503A81DF0E5FE0746BE
:100AF80002A81DF0E1FE874218BF002303A818BF13
:100B0800A3751DF0E1FE074602A81DF0DDFE874231
:100B18001CBF0023A375D4E703A81DF0CDFE80B148
:100B2800F36B022228465B6904A9984704A81DF0C4
:100B3800D2FE0346207D032839D8DFE800F0383894
:100B4800040903A8F3E7CC22237E04EBC3031A8429
:100B580001F0A2FA109B187003A8277E1DF0A0FED2
:100B680004EBC70787F82200237E03A804EBC3031E
:100B7800B3F8209093F822701DF09EFE804603A8DB
:100B88001DF0A2FE8246B8F1000F15D0F36B0222C9
:100B980028465B6904A9984704A81DF061FE6075A2
:100BA800637D6BB90023A3754FF0000838E0227EFF
:100BB80004EBC2021384CBE703A81DF03CFEEEE76A
:100BC80094F81680B8F1000FEED0B9F1000F09D1F2
:100BD800DFB10123627EE375002A44D19F4218D118
:100BE800677614E0736C05EB0A02594285EA020045
:100BF80008421CBF0021A175591E0A409B1A99453D
:100C0800D0D8A37D002BE3D1CEE7E37D43B94FF0E5
:100C180000084B465246294630461DF07AFBA06034
:100C2800A27D12B123694B4423611449237E0978BC
:100C380099421ED901332376BBF1000F1BD0D2B1E4
:100C4800E37DC3B1B8F1000F15D1032F13D0A1680C
:100C58004B1C10D0109B2246009330460123FFF70F
:100C6800F9FEA07507E0012FDAD0032F08BFA3769D
:100C7800CDE70023A375A07D0BE700BFA4A8020859
:100C88002DE9F04F0E46984600238BB004464FF0EE
:100C9800FF31104617468DF8133001F0E7F9B6F525
:100CA800801F3BD3B21C53D1E56A6B1C57D1204639
:100CB800616A1DF074FA0546B31C18BF0123DFF8FA
:100CC80010910193636A626C0293236805A902FB81
:100CD800053AE36B05225B695046984705A81DF065
:100CE80075FE1DF098FE50461DF0A0FE4FF0000B5B
:100CF800824601464B1C05D0636C81EA0A025B42BE
:100D0800134232D0294620461DF049FA029BAB42D5
:100D18004DD0BBF1000F4DD10546D3E7314605AAAA
:100D280004F108001DF005FD0146481C10D03846A6
:100D380001F09CF90122394620460DF113031DF0FC
:100D48003AFB28B19DF8133088F80030002003E002
:100D5800237C002BA8D12D200BB0BDE8F08F236891
:100D6800ED1A636CB5FBF3F5A6E7484601F07EF98A
:100D78000DF1130349462046019A1DF01CFB03465A
:100D880090B1B21C03D0D9F80020B2420CD19DF822
:100D9800132003930D4B88F8002049461A683846FB
:100DA80026F040FC039B9B46D9F80810A2E7BBF14C
:100DB800000FD0D0B6F5801FC8D2314698F8003061
:100DC8007A6804F1080001F07FF8BFE7A0A80208DC
:100DD800A41500202DE9F3410446174698460E460F
:100DE800194D816AE36A8B422AD04B1C18E02846C9
:100DF80001F03CF90122294620460DF107031DF0B8
:100E0800DAFA30B14346294620469DF80720B8470C
:100E1800B0B1A9684A1C05D0012E0AD0E36A9942EC
:100E2800E5D10DE0696820461DF046FA012E01461D
:100E3800D8D16B6881EA0302636C5B421A42D1D055
:100E480002B0BDE8F08100BF781500202DE9F0411F
:100E5800036B9046826B07689A4288BF8363426C33
:100E6800436A90B002FB0377C36B0E46052201A9C3
:100E78005B6904463846984701A81DF0A7FD01287C
:100E88000146307057D0656CE26B2368606AD2F80F
:100E980014C005FB0030052206A9E04706A81DF08E
:100EA80095FD01284FF0000523D0D4E90A3201212D
:100EB8009342CDE90B458DF834800E958DF83C10A2
:100EC8002AD1194620461DF0F7F9236B626C1433BA
:100ED8009B1AE06223630C9B53B99DF83C303BB1ED
:100EE800626A616C2368E06B01FB02311DF026FD2C
:100EF8000C9DE36B05225B6901A93846984701A858
:100F08001DF064FD30702846236BA26B9A4288BF9F
:100F1800A36310B0BDE8F081237C33B91C490BAA48
:100F280004F1080001F01EF8D5E72046194A0BAB7A
:100F3800FFF750FFCFE7237C23BB2246164904F175
:100F4800080001F00FF8616A20461DF049F9616A4E
:100F5800421C20461DF012F9054620B9236B626C2D
:100F68001344143B23632046A16A1DF0A5F92368A6
:100F7800A062C01A636CB0FBF3F0606220461DF0FB
:100F8800DEF9B6E700232046044AFFF723FFDAE735
:100F980069170008E516000847E40108E3E30108BB
:100FA80073B50D46D11E4A421C461B7E4A419A42E1
:100FB80026D129682368994222D3636899421FD8A9
:100FC800114E0DF107033246FFF75AFEC0B9726899
:100FD8006B689A4214D19DF80730DA1E5342534188
:100FE800227E93420CD1636901336361D4E9032300
:100FF800934205D22968A26842F82310013323617D
:10100800012002B070BD00BFD01500202DE9F04FBF
:101018009A468BB09DF85030DFF850B10293DBF858
:101028001030804653450D461646C0F09980D1468B
:10103800DBF804300193B9F1000F00F08D80D8F887
:101048003C3001225B6907A90198984707A81DF061
:101058002FFCDBF80030984240F0858007A81DF08F
:1010680033FC0428074614D107A81DF034FC019B63
:10107800029A04463B44002A3FD1864212D91446BC
:10108800361A404601991DF017F9A9EB0409019099
:10109800D1E7D8F83C3002225B69019808A9984743
:1010A80008A8E2E7841B544528BF5446032C03EBE9
:1010B8000607AAEB040A4FEA94021CD9D8F83C3078
:1010C800294638465B69984724F0030304F0030671
:1010D8001F441D44002ED4D0D8F83C3001225B694F
:1010E80008A9384698473246284608A9354426F0C4
:1010F80099FA0026C5E72646ECE7074600F0030202
:10110800039203442A1804920593049BDD1B059B54
:10111800D81B039B9F420FD1002FB2D0D8F83C3088
:10112800012208A95B6998473A46284608A926F08B
:1011380044FA78B93D44A4E7D8F83C30012208A91C
:101148005B6998470422284608A926F036FA08B9A8
:10115800043FDAE74FF0360948460BB0BDE8F08F98
:101168004FF06309F8E74FF06F09F5E7FC15002029
:101178002DE9F0410F4616469846044688B060B3FC
:1011880090F83450FDB101211CF0CEFF00210E9BD8
:10119800CDE90511CDE902379DF83C30CDF8048042
:1011A8008DF81C30237C04968BB90D4901AA04F1F3
:1011B800080000F0D7FEDDE90553E06B002E08BFFC
:1011C8001D461DF04AF9284608B0BDE8F0812046C2
:1011D800044A01ABFFF7FEFDEDE70546F3E700BF64
:1011E80011E40108A90F00082DE9F04F99B00F4646
:1011F80009920A69416C0E931439D31DB3FBF1F3BC
:10120800013302EBC302036B04469342C0F00D8224
:101218000023DFF820940D93E36A484619460793A4
:1012280000F024FFD7E9033604930E9B022B4ED11E
:10123800CC2E40F08A81099B002B42D039462046AB
:101248001DF069F9656C079A6B1E13401490ED1A2E
:10125800E36B01225B6916A97868984716A81DF008
:101268002BFB00280CBF04230823782E06933DD9B6
:10127800012300254FF0080A05933B6805990E984D
:10128800C9F80030C9F810601DF038FB4FEA9A031E
:1012980010930023DDF81CB089F814000B930F930A
:1012A80008930C93616C4A1E0BEA02028B1A002EFB
:1012B80038D05544AB4240D8236B5B1A13442363A0
:1012C800ABE0049B1B68149308230693D0E7656C76
:1012D800079A6B1E1340782EA5EB030516D8FB7DE5
:1012E8007BB9099B002BB3D104230693331DAB4272
:1012F80010D9A6B1082DBBD804250023AA4605930A
:10130800BBE7099B002BA3D10823EEE7099B002B21
:101318009ED1D9E7002505954FF0040AADE70425CD
:101328000596F9E75345C7D3B0460BEB0A03039379
:10133800089B002B18BF032313E0A3EB0A039E426C
:10134800B0460BEB0A0228BF98469E420392EFD99B
:101358000123D9F8102089F81730964271D1C9F8BD
:1013680004B0089399F81730002B6CD099F818201E
:101378000899D31C09EBC3030132C3F804B0A3F8DE
:101388000880997289F81820B8F1000F14D00E9BC4
:10139800022B5BD10B9B7BB90F9B4344032B0BD9CF
:1013A800E36B01229B69039814A998470546002816
:1013B80040F03D8101230B93089B16A80193059BE0
:1013C800009399F814204346396800F005FEE36B52
:1013D80058469B69109A16A99847051E0D9B18BF79
:1013E8005B4652460D935946434620461CF091FFF2
:1013F800236B08F10302A3EB0A0322F003029B1AF2
:10140800C9F808002363002D40F011810F9BDDF817
:101418000CB04344A6EB08060F93594620461CF02F
:101428004BFF00258346002E7FF43CAF814A396884
:10143800936804F10800E36252680E9B00F044FDD3
:10144800DEE002238DE7C9F804B09DE7099B002B75
:1014580030D1049BB8F1030F43440A9327D9DDE93F
:101468000301E36B4FEA98029B69984705460028F9
:1014780065D118F003025FD0049B28F003052B44C4
:101488000493039B1D444FF0FF33049915A815934B
:1014980026F0C8F8E36B28469B69012215A99847EE
:1014A80005460A9B0493002D86D0039B99E7424684
:1014B800039DE8E7039B0A9307F120031193FB7D43
:1014C80078689BB100233D7E0C9AD9B28D4211D920
:1014D800119903F1010C31F83310914226D906997C
:1014E80007EBC303D8690A44104403E00C9B069A2F
:1014F80013441844E36B01225B6915A99847159BAF
:10150800012213930C9B0A9804330C93E36B13A9E1
:101518009B699847039B0A9A43449B1A042B0546E8
:1015280007D978B9134604330A93C8E76346521AB1
:10153800CBE70A9B0393B6E70A9B04933CE70A9B15
:101548000493B2E70A9B0393AFE7702604F10803FC
:1015580003932368079A606CA2EB030ABAFBF0FABC
:1015680000FB0A301DF062FAE16A804620461CF052
:10157800A3FEA26A82424AD0626CD9F80830511E92
:101588000B40216B2568891A0B4423630D9BE0628D
:101598005D1BB5FBF2F5AA4536D1079BB3EB080AEC
:1015A80012D0E36B4FEA9A0241469B6998478346FB
:1015B800E36A079A5344E362236B03989B1A4344F4
:1015C80023631DF087F8DA462368616CE06B01FB42
:1015D80005311DF0A0F920461CF0B1FD20461CF095
:1015E800AEFE2063BAF1000F11D03A69616CD31DC9
:1015F8001439B3FBF1F3013302EBC3029042A8D2D2
:10160800304619B0BDE8F08F4FF0000ADCE73A69C0
:10161800616CD31D1439B3FBF1F3013302EBC30240
:10162800236B9342BFF4F8ADEAE71C26E8E72E46A1
:101638008CE700BFA41500202DE9F3471E46436937
:101648000446B342884617469DF828903DD30025A6
:101658008DF8075020461CF03EFDD4F830A0824596
:101668000AD2236AB5EB430F06D2002220460DF1B9
:101678000701FFF7EBFB30B39DF80730012B05D1CD
:10168800002220460DF10701FFF7E0FBB9F1030F37
:1016980006D0314620461CF009FD256B854218D33B
:1016A8000D4D4FF0FF31284600F0E0FC4B4600227C
:1016B80029462046C5E90376C5F8008002B0BDE892
:1016C800F047FFF791BD0135C4E7622002B0BDE8DD
:1016D800F0871C20FAE700BFD0150020032A2DE967
:1016E800F34106460D4617461C4606D1237A012BC0
:1016F80023D0012002B0BDE8F081DFF860800968DE
:1017080042460DF10703FFF7BBFA60600028EDD1F0
:101718009DF80720237A032AE8D0D8F804106A68CD
:101728009142E3D1012B2969D4F80CC007D1726921
:101738000CEB0103934202D92074207CDAE70831CC
:101748006144E1603B46012229463046FFF74CFDE3
:1017580060600028CAD00020CCE700BFD015002068
:101768002DE9F341089C032A1746266806D1237AF7
:10177800012B24D0012002B0BDE8F081DFF8908071
:10178800304642460DF10703FFF77AFA60600028F9
:10179800EDD12568D8F80400A96AD5F844C04840B6
:1017A800CCF100031840227AE1D1012A09D1E2687C
:1017B800D8F8103013447269934202D92074207CFF
:1017C800D9E72868EB6A1B1A081AB3FBFCF3B0FBCD
:1017D800FCF083420BD1706CF36A421E1340326BEB
:1017E800121A1344284633631CF066FDE862D8F8E1
:1017F8001020E36808321344E36001223B460449A1
:101808002068FFF7F1FC60600028B0D00020B2E744
:10181800D01500202DE9F04F4FF0FF334FF6FF723F
:101828000025044600F10806C0E909238BB0C3620D
:101838000562056330460F461CF04CFF20461CF03D
:101848007EFC20BB204639461CF0F9FC20461CF0E3
:1018580076FC20BB5E200BB0BDE8F08FE26B2368FE
:10186800606CD2F814C000FB0530052205A9E047DA
:1018780005A81DF0ABF8012828D1294620461CF000
:10188800AFFC421C294620461CF078FC0135E36970
:101898009D42E3D320461CF052FC0028D2D00025FC
:1018A8004FF0FF394FF6FF73CA46A846C4E90853FC
:1018B800E369984514D3A5EB0905012D36D84FF6F1
:1018C800FF72636A934246D16720C4E71DF0A8F807
:1018D8000028DBD0294620461CF082FC0246D1E7CE
:1018E8002368E26B606C576900FB0830052205A984
:1018F800B84705A81DF06AF8834605A81DF03DF80D
:10190800074658461DF087F868B1574538BFC4F8F0
:101918002480B94528BFB946BD4238BF3D46BA46BE
:10192800236A0133236208F10108C1E74FF6FF7308
:1019380000256362E3699D42C1D2676C2068E36B4E
:10194800052207FB05005B6905A9984705A81DF056
:1019580014F80135EEE7E26B676C2068694607FB0F
:10196800030055690522A84768461DF006F8626A13
:101978002368606C504D00FB02301DF057F84FF0A3
:10198800FF33A062E3622A466FF00101204605ABEF
:10199800FFF776F900284FD1AD6829462046E56261
:1019A8001CF0A9FB206320B92046E16A1CF084FCE6
:1019B800E062294620461CF07FFC0546A36A9D424A
:1019C8003CD16569626CE91C143AB1FBF2F14FF045
:1019D800000805EBC1050335B5FBF2F5C146023534
:1019E800E36999453CD3A8455AD22046616A1CF060
:1019F800D6FB0027064604F1400AB84512D8626CA7
:101A08002368694602FB0639E36B05225B69484691
:101A1800984768461CF0B1FF534602464946E06BBA
:101A28001DF006F8314620461CF0B9FB0137AF42DD
:101A38000646E2D364200EE7A56AAEE729462046AB
:101A48001CF059FB236B29460344074623632046B1
:101A58001CF032FC0546002FB0D1C4E90B07ADE7F6
:101A6800636C2768052203FB0977E36B05A95B69AB
:101A78003846984705A81CF0A9FF1CF0CCFF60B1B8
:101A880038461CF0D3FF014620461CF034FB636C3B
:101A9800143B984208BF08F1010809F101099FE7C2
:101AA80030461CF017FE002320461946034AFFF76C
:101AB80091F90020CFE600BFD0150020ADE3010862
:101AC8000023624A2DE9F04117680E460446136068
:101AD80018B921252846BDE8F08190F834500DB397
:101AE80009680268914240F0A98071684268914291
:101AF80040F0A480B1688268914240F09F80F1680C
:101B0800C268914240F09A8031694269914240F03E
:101B18009580B169C26B914240F0908072691D4610
:101B28008261D7E750222946D0F8388025F06FFD2A
:101B3800D6E90212336804F1080023607368C4F818
:101B480038806360336963617369A3611CF0D4FDF5
:101B5800B36904F14000E3639B68984794F8432015
:101B680020B1E561002AB4D05B25B3E7656C002D90
:101B7800F7D06668B6FBF5F3E361002AA9D0B54251
:101B8800F2D82268B2FBF5F105FB1122002A57D1E1
:101B980005FB1363002B53D120461CF09CFAA36964
:101BA800043303449E424DD340F634726369CC3B00
:101BB800934249D8B5F5007FD6D3032120461CF0BF
:101BC800B3FAD4E90001E36B1B6898470546E36B59
:101BD8000220DB6898471DB1002384F834301DE0EB
:101BE80039462046FFF716FE6428054604D13946D3
:101BF8002046FFF70FFE0546636C143B002DEBD122
:101C0800226A204602FB03F61CF065FAA369043336
:101C180003449E4206D284F834505A25E06B1CF0E7
:101C28001CFC57E70123D4E90001094A84F8343041
:101C38001368013313601CF0F9FDEFE75D2549E7F0
:101C4800592547E75A2545E75F2543E7340F002024
:101C5800300F00202DE9FF410F4690461E460546ED
:101C680098B390F8343093B3B1F5801F31D21A4C41
:101C780002211CF059FA2246394628460DF10F0375
:101C8800FEF7FEFF024678B101234246009339462B
:101C980033462846FFF7D0FC0446E86B1CF0DDFB12
:101CA800204604B0BDE8F0819DF80F30012BEBD140
:101CB8002169B142E8D10093414633462846FFF7EF
:101CC800A5F904460028DFD1E7E72124E8E7112435
:101CD800E6E72924E4E700BFFC1500202DE9FF41D1
:101CE8000C4616461F46054680B390F834307BB341
:101CF800B1F5801F2ED2DFF8608001211CF014FAA4
:101D08002146424628460DF10F03FEF7B9FF044667
:101D180070B99DF80F30012B11D1D8F81030BB42A3
:101D280012D10246009031462846FFF76FF9044663
:101D3800E86B1CF092FB204604B0BDE8F081022B52
:101D480014BF2D246024F3E76324F1E72124F2E78C
:101D58001124F0E72924EEE7FC1500202DE9F043D3
:101D680085B00C4617461E460546DDF8308098B308
:101D780090F8343093B3B1F5801F31D2DFF8649016
:101D880001211CF0D1F921464A4628460DF10F03DE
:101D9800FEF776FF044688B99DF80F30012B14D161
:101DA800D9F8102006EB08039A4213D30090434653
:101DB800324639462846FFF729F90446E86B1CF0F5
:101DC8004CFB204605B0BDE8F083022B14BF2D2440
:101DD8006024F3E76324F1E72124F2E71124F0E714
:101DE8002924EEE7FC1500202DE9F3411F460023C6
:101DF8000C46164605463B6050B390F834304BB35A
:101E0800B1F5801F28D2DFF8548001211CF08CF92D
:101E18002146424628460DF10703FEF731FF0446E6
:101E2800A0B99DF80730032B10D0022B0AD101234B
:101E3800336004233B60E86B1CF00FFB204602B0C4
:101E4800BDE8F081D8F810303060F3E72D24F2E7D0
:101E58002124F3E71124F1E72924EFE7FC150020FA
:101E680030B50C46054685B028B390F8343023B316
:101E7800B1F5801F23D202211CF056F90DF10F0392
:101E8800214628460F4AFEF7FBFE034688B99DF80F
:101E98000F20032A0DD0032221460092024628462D
:101EA800FFF7CAFB0446E86B1CF0D7FA204605B0DA
:101EB80030BD2D24F7E72124F8E71124F6E729247B
:101EC800F4E700BFFC1500202DE9F043466886B30F
:101ED800056898464FF0000CA946AE4655F83C40B8
:101EE8000CF1010CC4F31307013401D0B94217D027
:101EF80066450EF1080EF1D12F46002403E0A642F4
:101F080007F1080712D055F8343001340133F6D1FF
:101F1800C1F3130141EA0851C7E90012BDE8F08393
:101F280041EA0851CEE90012BDE8F083B8F1030F89
:101F380003D101230372BDE8F083002303E09E422E
:101F480009F10809F5D055F833400133C4F30754B3
:101F5800032CF4D1C1F3130343EA0853C9E900324F
:101F6800BDE8F0832DE9F0410646406882B0C0B173
:101F78000F4690460024336853F8345003EBC403EB
:101F8800C5F30752C5F31301013504F1010406D066
:101F98005B683046CDF80080B84710B1706884425D
:101FA800E9D302B0BDE8F081024B1968024B18680A
:101FB800FFF786BD5C2700207C27002008B528F0A5
:101FC800F3F9014B186008BD28160020014B18686A
:101FD80028F0E5B92816002073B504462248012ADE
:101FE80000EAC1119DF8185023F07C4007D9961ECD
:101FF800012E28D9073303F07F03194308E09DF821
:102008001C300A43DB0603F0C053134343F060411E
:102018000023C4E900108DF80730B5B1202221460D
:102028000DF107001CF01EFD1A220DF10700211DFD
:102038001CF018FD082063689DF8072043EA8263B6
:10204800636002B070BD1143E2E71B220DF1070087
:1020580021461CF007FD23689DF80720042043EA69
:10206800C2632360EDE700BF80FFFF0738B5094B67
:102078000D461A680021044625F0C9FA00234FF0DE
:10208800FF322383C4E900252361A260E382A3769B
:1020980038BD00BFA0A802080138C0B205289ABF01
:1020A800014B185C01207047A5A802082DE9F041F2
:1020B8000746154600240E46596888B0490A012982
:1020C80022464FEA510104F10104F8D8DC789978E6
:1020D80024031B88C90201F4006104F480540C43F2
:1020E800C3F30A035203234492B24FF000089C182A
:1020F800274B6FEA0444039325F07843ED4302A984
:102108000DF107001B2202938DF807801CF0AAFC32
:102118009DF80720029B02A943EAC2630DF107005C
:102128001B2225F07845049302958DF807801CF052
:1021380099FC9DF80720029B6FEA144443EAC263A6
:1021480005934FF0FF330794069307A9BB69012253
:1021580006F110009847BB6905A90446012206F15B
:1021680008009847BB69404518BF044604A90122E6
:10217800301D98470122404518BF0446BB693046C8
:1021880003A99847404508BF204608B0BDE8F0813C
:1021980001009AB2044BD3F88420D206FBD4D3F8BA
:1021A8008400C0F3811070470040005038B5174BC9
:1021B8000546D3F828310C4603F00703013B052BED
:1021C80020D8DFE803F003131B0F0B1727F00CF9D7
:1021D800052305B1286004B1236038BD27F004F950
:1021E8000623F6E727F04AF90723F2E727F03CF938
:1021F8000323EEE727F038F90423EAE727F030F95C
:102208000223E6E700231846E3E700BF00800050FA
:10221800002337B50193164B0546D3F820320C46F8
:1022280003F00703042B21D8DFE803F0030B111692
:102238001B0001230DB1019A2A6004B1236003B089
:1022480030BD002101A8FFF7B1FF1223F2E727F004
:1022580015F907230190EDE728F09BF80A23019070
:10226800E8E727F053F909230190E3E70023E1E7C2
:102278000080005038B5104B0546D3F850320C4654
:1022880003F00303022B12D0032B08D0012B0AD032
:102298000023184605B1286004B1236038BD28F032
:1022A8007BF80C23F6E728F074F80A23F2E727F006
:1022B8002DF90923EEE700BF0080005038B5104B18
:1022C8000546D3F880300C4603F00303022B0BD0ED
:1022D800032B0DD0012B0FD127F08CF80E2305B15D
:1022E800286004B1236038BD27F0C8F80723F6E753
:1022F80027F07AF80623F2E700231846EFE700BF35
:102308000080005038B5104B0546D3F800310C4614
:1023180003F00303022B0BD0032B0DD0012B0FD19D
:1023280027F0A2F8032305B1286004B1236038BD63
:1023380027F0ECF80923F6E727F09CF80823F2E7E2
:1023480001230020EFE700BF0080005038B5184B8C
:102358000546D3F820010C4600F00700062823D8CC
:10236800DFE800F0040A0E16121A1E00012305B158
:10237800286004B1236038BD27F036F80523F6E756
:1023880027F072F80323F2E727F078F80723EEE73F
:1023980027F066F80223EAE727F026F80623E6E79F
:1023A80027F062F80423E2E700231846DFE700BFBE
:1023B8000080005038B5104B0546D3F840310C4624
:1023C80003F00303022B0BD0032B0DD0012B0FD1ED
:1023D80027F0DFFF0A2305B1286004B1236038BD68
:1023E80027F094F80923F6E727F0D6FF0C23F2E745
:1023F80001230020EFE700BF00800050002337B51D
:102408000193164B0546D3F860320C4603F00703D8
:10241800013B032B1FD8DFE803F0020E191400213B
:1024280001A8FFF793FF10230DB1019A2A6004B1A8
:10243800236003B030BD002101A8FFF7BBFF1123C3
:10244800F2E727F01BF807230190EDE727F008F8DB
:1024580002230190E8E70023E6E700BF0080005070
:10246800002337B50193164B0546D3F894320C4632
:1024780003F00703013B032B1FD8DFE803F0020E2C
:102488001914002101A8FFF761FF10230DB1019A6B
:102498002A6004B1236003B030BD002101A8FFF712
:1024A80089FF1123F2E726F0E9FF07230190EDE702
:1024B80026F0D6FF02230190E8E70023E6E700BFF5
:1024C8000080005038B5104B0546D3F860310C46F3
:1024D80003F00303022B0BD0032B0DD0012B0FD1DC
:1024E80027F057FF0A2305B1286004B1236038BDDF
:1024F80027F00CF80923F6E727F04EFF0C23F2E744
:1025080001230020EFE700BF008000502E4B9842C7
:102518004AD022D82D4B984240D014D82C4B984200
:1025280039D00AD82B4B984232D02B4B98422FD017
:102538002A4B98422CD000207047294B9842FAD158
:10254800284B186F7047284B98422AD0274B98423F
:10255800F1D1244BD3F880007047254B98422BD0FB
:1025680009D8244B984223D0234B9842E3D11D4BE2
:10257800D3F88C007047214B984221D003F574039F
:1025880003F510539842D6D1164BD3F898007047EC
:10259800144B986D7047134B586E7047114B586F1A
:1025A8007047104B986F70470E4BD3F884007047F4
:1025B8000C4BD3F8880070470A4BD3F8900070474B
:1025C800084BD3F8940070470048E8010024F40051
:1025D800C0CF6A0080841E0000093D0040420F0001
:1025E800405DC6000080E00FC0EA210180BA8C017E
:1025F800007E560380D54302006CDC020090D003B5
:1026080073B50D460021114B0191D3F88041064660
:1026180004F00304022C13D0032C0CD0012C13D18A
:1026280001A8FFF793FE10240EB1019B336005B19A
:102638002C6002B070BD26F021FF07240190F3E75B
:1026480026F00EFF0190EFE70C46EDE70080005002
:1026580038B5104B0546D3F840320C4603F0030357
:10266800022B0BD0032B0DD0012B0FD127F091FE9D
:102678000A2305B1286004B1236038BD26F046FF5F
:102688000923F6E727F088FE0C23F2E70123002050
:10269800EFE700BF0080005038B5144B0546D3F86B
:1026A80000020C4600F0070004281BD8DFE800F001
:1026B80003090D111500012305B1286004B1236039
:1026C80038BD27F066FE0A23F6E726F01FFF092328
:1026D800F2E727F061FE0C23EEE726F0ABFE0F23AE
:1026E800800AE9E700231846E6E700BF00800050AB
:1026F80038B5144B0546D3F808020C4600F007001D
:1027080004281BD8DFE800F003090D111500012388
:1027180005B1286004B1236038BD27F03AFE0A23CA
:10272800F6E726F0F3FE0923F2E727F035FE0C233F
:10273800EEE726F07FFE0F23800AE9E7002318461C
:10274800E6E700BF00800050B0F5207F1FD009D811
:10275800B0F5007F15D003D868B1B0F5C07F0AD0B6
:1027680000200CE0B0F5607FFAD10B4BD3F8800065
:10277800C0F3011003E0084B186FC0F303300130B9
:102788007047054BD3F89000C0F30460F7E7024B9D
:10279800186FC0F38020F2E70080005002464FF423
:1027A8008030104B10B598660020FFF7CDFF5043DE
:1027B80041F671320C4BDC69DA635A6804F48034F0
:1027C80022F4401259B90949884294BF00200120D7
:1027D800000502435A600CB10022DA6310BD0449B7
:1027E800F2E700BF0090005000000350005A620258
:1027F800002D31014209531E022B96BF074B0023BF
:1028080003EB820300F01F0029B103F58053012276
:1028180082401A60704703F50053F8E76080005063
:102828001FB50021B0F5807F0446CDE9001100F006
:10283800CF803BD8002800F0A480A0F12004602CB1
:1028480044D8602C42D8DFE804F09CA49CA4B4B41B
:10285800B4B4B4A4BE4AD46A4AA4A4A44141414130
:1028680041414141A4A4A47CDEA4414141414141EC
:10287800414141414141E3B49C9C9CD94A4A88E882
:102888005FB94141414141939C41B4B4B4B4B4B936
:10289800B9A441A4A441414141414141414141417F
:1028A800414141414141414141419800B0F5E06F0A
:1028B80000F0A98038D8B0F5607F75D01AD8B0F587
:1028C800007F61D005D8B0F5C07F5AD0009804B019
:1028D80010BDB0F5207F5CD0B0F5407FF6D126F072
:1028E800A9FD02464FF42070FFF72EFFB2FBF0F26D
:1028F800520857E0B0F5B06F65D00AD8B0F5806FD0
:1029080057D0B0F5A06FE1D100216846FFF780FCF1
:10291800DCE7B0F5C06F6CD0B0F5D06FD6D1002130
:102928006846FFF7B9FED1E7B0F5186F70D00DD83B
:10293800B0F5086F7FD0B0F5106F5FD0B0F5F06FCD
:10294800C4D100216846FFF7BDFDBFE7B0F5286F89
:1029580063D007D8B0F5206FB8D100216846FFF7DB
:102968004DFDB3E7B0F5406F28D0B0F5486FADD155
:1029780000216846FFF774FDA8E726F03BFD0090AC
:10298800A4E726F057FDFAE726F034FD0246204674
:1029980004E026F04FFD02464FF42070FFF7D4FE06
:1029A800B2FBF0F2009291E701A8FFF787FC019AC9
:1029B800EDE700216846FFF7C9FC87E70021684674
:1029C800FFF7F4FB82E700216846FFF719FE7DE771
:1029D8004FF0E02302911B695B0705D526F02AFD1D
:1029E8000290029B009371E703A902A8FFF7E2FC9B
:1029F800F7E700216846FFF7DDFC67E70021684636
:102A0800FFF776FE62E700216846FFF721FE5DE7E3
:102A180000216846FFF72EFC58E70021084B039178
:102A2800D3F8703203F00303012B02D103A8FFF798
:102A3800C1FC039BD6E76846FFF764FC46E700BF86
:102A48000080005008B58020FFF7EAFE034B98424B
:102A58009EBF4FF48032024B1A6708BD005A6202CB
:102A680000A000501FB503460020B3F5807F0190F9
:102A780000F0F48000F28E80662B7DD83C2B06D8BF
:102A8800243B092B5ED9019805B05DF804FB3D3B5A
:102A9800292BF8D801A252F823F000BF872C000890
:102AA800B52C00088F2A00088F2A00088F2A0008F2
:102AB8008F2A00088F2A00088F2A00088F2A00080A
:102AC8008F2A00088F2A00088F2A00088F2A0008FA
:102AD8008F2A00088F2A0008BF2C00085B2C0008EA
:102AE8008F2A00088F2A00088F2A0008032C000864
:102AF8008F2A00088F2A00081D2C0008C92C0008FE
:102B0800C52B0008AB2C00088F2A00088F2A000864
:102B18008F2A00088F2A00088F2A0008352C000801
:102B28008F2A00088F2A00085B2C00085B2C0008FD
:102B38005B2C00085B2C00085B2C0008AB2C000801
:102B4800AB2C0008092B9ED801A252F823F000BF35
:102B58005B2C00085B2C00085B2C00085B2C000831
:102B68005B2C00088F2A0008512C00088F2A0008C7
:102B7800E32B0008912C0008802B84D1594B1B6F44
:102B880003F00703013B032B3FF67DAFDFE803F0BB
:102B98005A535658B3F5F06F71D023D8B3F5B06FC8
:102BA80052D010D8B3F5607F77D0FFF46CAFB3F58F
:102BB800806F4ED0B3F5A06F7FF465AF002001A9F8
:102BC800FFF726FB5FE7B3F5D06F5DD0B3F5E06F95
:102BD8006CD0B3F5C06F7FF456AF002001A9FFF7A2
:102BE800E9FB50E7B3F5186F65D00BD8B3F5086F5C
:102BF8004FD0B3F5106F7FF446AF002001A9FFF75F
:102C080077FD40E7B3F5286F5AD008D8B3F5206FA1
:102C18007FF439AF002001A9FFF7F0FB33E7B3F5E4
:102C2800406F3ED0B3F5486F7FF42DAF002001A967
:102C3800FFF716FC27E70523019324E70323FBE7A7
:102C48000823F9E70223F7E7002001A9FFF7D8FCDA
:102C580019E7002001A9FFF779FB14E74FF0E023FB
:102C680002901B695B0705D526F0E4FB0D2303934F
:102C7800039BE1E703A902A8FFF79CFBF8E7002004
:102C880001A9FFF71FFCFEE6002001A9FFF704FDDC
:102C9800F9E601A9FFF736FBF5E601A9FFF70EFBF8
:102CA800F1E6002001A9FFF781FAECE6002001A96E
:102CB800FFF7CEFCE7E6002001A9FFF7DBFAE2E622
:102CC800084BD3F8703203F00303012B04D0022B16
:102CD8000CBF15230023AFE7002103A8FFF76AFB09
:102CE8001123A9E7008000504FF48032074B0849B0
:102CF800586E03F580535A664B6A23F001034B6202
:102D0800C3035CBF034B5A66704700BF0080005086
:102D18000000085000A0005008B5FFF7A3FE0928DE
:102D280011D00A38012802D94FF6FF7008BD4FF4B8
:102D38008002064B5A6603F5D8335B6ADB07F3D586
:102D48004FF4FA70F2E7024B1888EFE70090005052
:102D58007629002008B5FFF785FE03280ABF024B35
:102D68004FF6FF70188808BD7429002038B504464E
:102D78008020FFF777FE032800F083804FF480124D
:102D8800524B4FF0A0615A6645F60E02504BC3F8FD
:102D98008020504A91624FF4803102F5805291624E
:102DA8009A6DD203FCD4996D11F08041FBD1D4E91E
:102DB8000002120542EA0062E07B0243207B42EAFD
:102DC8000042607B42EA0032A07B42EA80121A612C
:102DD8009869D4E90452120642EA856200F000407C
:102DE8000243A07EE57E0243207E42EA0042607EE6
:102DF80042EA00229A611A6AE06922F00F0242EA66
:102E08008502354D00283DD11A6294F82420996A2C
:102E180094F82000D200294042EA40120A4394F86C
:102E2800211042EA011242F480329A622B49284A60
:102E3800936D31EA0303FBD14FF08071254881621D
:102E48001369A56823F4700343EA055313614FF02F
:102E58000043836194F822300BB9214B996294F8AE
:102E680023303BB94FF480321D4B9A62184A936D58
:102E78005B00FCD494F825301BB1154B194AC3F8F4
:102E8800802038BD024342F0080202281A6208D1A5
:102E980019614FF40852996113484FF47F411BF0B0
:102EA800FFFD0B4994F822308A6A94F820001B062B
:102EB8002A4043EA4013134394F8242043EAC20308
:102EC80094F8232043EA02438B62D3E70090005032
:102ED8000040005A0050005AC7FFFEFE03000100E0
:102EE8000060005AF1A7FFFF3440005A014B93F9E4
:102EF8000000704789290020014B1880704700BFE7
:102F0800742900204FF4800208B5184B5A66022332
:102F1800174A5360936813F48033FBD1012822D1F8
:102F280026F0A2FA134B984215D003F5122303F5A5
:102F3800F863984213D0104B00EB8002400AB3FBB1
:102F4800F0F3520A0A49CA620B6301234B6200225A
:102F5800074B5A6008BD45F67A13084AF2E745F66A
:102F68001A03074AEEE75362F1E700BF00900050EA
:102F78000040025000F0490264666666D8B8050051
:102F8800BBCF0500B0F5207F10B50C465DD008D842
:102F9800B0F5007F4ED003D8C0B1B0F5C07F15D0D2
:102FA80010BDB0F5607FFBD12C4B4C1ED3F8FC2034
:102FB8002B4912F0807F4FEA041427D1D1F88030D2
:102FC80023F030032343C1F88030E9E71BF077FD95
:102FD8001BF083FD4FF48031224B214A1967136F90
:102FE800013C23F4704343EA0433136726F022FAC2
:102FF8000446FFF7CFF8C0F1020120461BF067FD39
:1030080000F04AF8BDE81040FFF71CBDD3F8FC20DB
:1030180022F08072C3F8FC20D1F8802022F0300220
:103028002243C1F88020D3F8FC2042F08072C3F814
:10303800FC20B5E70A4A4C1ED2F8903023F0F8532A
:1030480043EA0463C2F89030AAE7054A4C1E136F9E
:1030580023F4806343EA84231367A1E700ED00E0CB
:10306800008000500090005008B50121022000F0B7
:1030780095F94FF42070FFF767FB054B18701BF0AC
:103088001EFD1BF02AFD4FF48032024B1A6708BD63
:10309800752400200090005008B54FF4C070FFF769
:1030A800BFFBBDE808400449884294BF01210221C2
:1030B8004FF42070FFF766BF80F0FA0238B5044677
:1030C80026F0B8F90546FFF765F8C0F10201284671
:1030D8001BF0FDFC0121002000F0A0F92CB1FFF746
:1030E800DBFFBDE83840FFF7ADBC034B4FF4207061
:1030F8001978FFF747FFF4E7752400204FF4C02242
:1031080070B50546FFF702FA314B04465A6603F5D7
:1031180098335A68012A04D12E494A605A6892079E
:10312800FCD48020FFF79EFC052807D11BF0C7FCC4
:103138001BF0D3FC4FF48032254B1A67264B24F042
:1031480040749D4230D0254B9D4230D026F04CF93A
:103158008542064603D90121284600F05FF9204B35
:10316800DA6812F0060FFBD199689C609A68624091
:1031780012F4F81F1ED12846FDF764FB8020FFF7E4
:1031880071FC05280DD126F055F90446FFF702F821
:10319800C0F1020120461BF09AFCFFF77DFFFFF704
:1031A80051FCAE420CD270BD44F00074CEE744F03E
:1031B8008074CBE780209960FFF754FC052805D080
:1031C800BDE870400121002000F028B93546DAE753
:1031D8000090005000E0015040420F0080841E0023
:1031E80000000150304B314A984251D020D8A3F505
:1031F800B703A3F55863984246D00DD82C4B984294
:1032080031D02C4B984239D02B4B4FF400219842A7
:103218001DD00023516622E0284B4FF4002198422C
:10322800F7D1274BD3F8BC30516623F0407316E032
:10323800244B984230D0244B984231D0234B4FF442
:1032480000219842E5D11E4BD3F8C830ECE71C4B5F
:10325800D3F8A030516623F0407343F000734FF069
:10326800B442936070474FF40021154BD3F8A03057
:10327800516623F0407343F08073F0E7104BD3F8A6
:10328800A0304FF40021CFE70D4BD3F8B830F8E762
:103298000B4BD3F8C030F4E7094BD3F8CC30F0E748
:1032A800074BD3F8D030ECE7C0EA2101009000507A
:1032B80080841E0000093D0040420F000024F400F5
:1032C8000080E00F0048E801005A620280BA8C01D1
:1032D800024A536B0342FCD1704700BF008009507B
:1032E800044A4178536F23F4407343EA0123536738
:1032F800704700BF004000500E4A10B513690446DD
:1033080043F00403136126F09FFC1BF0EBFB0A4B10
:103318005B6E5B0142BF094B094AC3F8202430BFEA
:103328001BF0E1FB03F06AF81CB9BDE8104026F079
:1033380081B810BD00ED00E00080005000E00350AF
:103348000000FF0F0C4A10B51369044643F004034C
:1033580013610A4B5B6E5B0142BF094B094AC3F814
:10336800202426F071FC30BF03F048F81CB9BDE8F2
:10337800104026F05FB810BD00ED00E0008000505E
:1033880000E003500000FF0F034A0179D36E23F0D9
:1033980030030B43D366704700400050F8B504462D
:1033A8001C4BD3F88420D106FBD4D3F88430C3F364
:1033B80081139C422CD026F01DF8012C064602D120
:1033C80021461BF084FB26F0EFFF4FF00072124BF2
:1033D80007465A6620461BF089FB4FF480630D4D63
:1033E800621E93402B676B6E9A0103D4D5F8843024
:1033F8009B060AD5384626F0D2FF022C08D1304663
:10340800BDE8F84000211BF062BBD5F88430EAE73C
:10341800F8BD00BF004000500060005010B50C46D9
:1034280008B925F0E7FF074B21461B783BB1064B4F
:10343800984204D80120BDE81040FFF7AFBF022032
:10344800F9E700BF76240020005A62020278034B95
:10345800012100201A70FFF7E1BF00BF7624002089
:103468004FF0004238B5244B244C5A664AF6CD3307
:10347800656C014605F00105236428BB0120FFF7B0
:1034880027FF6368DB0715D51D4B586008461D4BA1
:10349800226BD2070CD4984208D1072415B1174BD8
:1034A800194A1A6423F01EFB204638BD0130EFE7A5
:1034B8009842F2D00024F1E70132236B13F008039D
:1034C80005D08A42F8D1E8E700220E49F5E78A429A
:1034D800E3D020210A4A91620121A2F5805251606D
:1034E8000649084A886A800603D49342D5D0013336
:1034F800F8E79342DDE700BF0090005000800950D4
:1035080000A0095040420F003254FFFF4FF0004224
:1035180038B5164B01465A664AF6CD33144C154A4F
:10352800656C236443780B205B0043F00103D3638D
:10353800FFF7CEFE63688A7823F4F87343EA021330
:103548006360CA784B7943EA0223A3600A798B79CE
:1035580043EA022323610878FFF782FFEB0744BFA1
:10356800054B236423F0BEFA012038BD00900050BB
:1035780000800950004000503254FFFF4FF00042D5
:10358800124B70B55D6E03F580535A664AF6CD331B
:1035980004460F4980204E6C0B64FFF799FE0B6AB6
:1035A80023F00F030F2C94BF234343F00F030B6248
:1035B800F30744BF074B0B64002DA2BF4FF0004236
:1035C800054B5A6623F08EFA70BD00BF008000508C
:1035D800008009503254FFFF00A000504FF0004215
:1035E800104B70B55D6E03F580535A664AF6CD33BD
:1035F80004460D4980204E6C0B64FFF769FE0B6A88
:1036080023F4F85343EA04230B62F30744BF074B40
:103618000B64002DA2BF4FF00042054B5A6623F001
:1036280061FA70BD00800050008009503254FFFFDD
:1036380000A000504FF48032054B9A6641F6713273
:1036480003F51C33DA63012203F50053DA6070478F
:103658000090005041F671320121064BDA6303F500
:103668000052D1600022DA634FF48032A3F5183398
:103678009A66704700000350013836289ABF024BFB
:10368800185C0020704700BFABA8020838B5C2F329
:103698000625044602F0070241B942EA052242F42F
:1036A80040220634074B43F8242038BD11462846EB
:1036B8001BF01DFA02462846FFF7DEFF163442EAE1
:1036C8000022EFE7008003504FF48032084B5A661F
:1036D80003F5EE239B69C3F3461203F00F010A4377
:1036E8004280C3F30342C3F303334270037070474D
:1036F80000900050014B986CD96C70470080E00F27
:103708000120034B9B680A3303F01F03984070475E
:103718000080E00F0122437801789A403023594312
:10372800014B5A50704700BF40E00350034BD3F899
:103738002424D3F820041040704700BF00C0035071
:103748002DE9F8431F4B0546D3F810334B1E0E2BBB
:103758000E461746047890F8018026D951B34FF0E9
:10376800000928461FB325F0E1FE0F21B8F1070F25
:1037780004EB440488BFA8F108084FEA041412486F
:1037880095BF4FEA88084FEA880804340C3409FAD0
:1037980008F201FA08F120441BF0CAF986B9284654
:1037A80057B1BDE8F84325F0C1BE8946D9E7FFF710
:1037B800B1FFDAE78946D8E7BDE8F843FFF7AABFC3
:1037C800BDE8F88300C0035030C00350054B9A6829
:1037D8009107FCD45A689207F9D4DA69002AF6D11D
:1037E800704700BF00C00A5008B525F0ABFE0222A2
:1037F800014B1A6108BD00BF00C00A5008B5FFF7A9
:10380800E5FF0122024B03F580514A601A6108BDA9
:1038180000C00A5008B5044B5968012903D1FFF7C5
:10382800E3FF024B596008BD00C00A5000E00A508F
:1038380010B5064CFFF7CAFF6368012B03D1FFF7E9
:10384800E9FFFFF7C3FF0378E36010BD00C00A502B
:10385800B8B94A680B7812B1127843EAC2034A78B9
:1038680043EA42038A6812B1127843EA82138A78DB
:1038780043EA8203CA6812B1127843EA4223014A32
:103888009364704700C00A504FF480320A4B5A665E
:1038980003F5EE239B69C3F303320270C3F30342BB
:1038A8004270C3F3461203F00F03134343804FF6ED
:1038B800FF738380704700BF0090005040F6B73216
:1038C800064B5B689BB293429FBF4FF47A72B3FB7F
:1038D800F2F3034AD05C88BF002070470080E00FF5
:1038E800E2A80208014B986CD96C70470080E00F81
:1038F80070B5044623F021F9064630B90FCC044DC3
:103908000FC594E8030085E80300304670BD00BF8A
:103918002C16002047F6FF739A42F0B56FD00229A3
:103928006FD8394B5B5C012B6BD8384DDF0005EB4A
:10393800C30415F83330A178012B13D10025E078A2
:10394800401AA84202D80844C0B2F0BD431B6668BA
:10395800A0EB530336F913609642D4BF1D4603F11A
:10396800FF30EEE760680028EFD0B0F900409442DD
:1039780004DBB0F902409442B8BF144683883D4442
:10398800FF2B19BFC8224FF0280CB0F90620B0F958
:1039980008C0A2EB04030CBF0126002693FBFCF32E
:1039A80033446E781BB29E4201DD002B01DA731E90
:1039B8001BB24FF47A7C01339BB2071D5D1E2DB2FA
:1039C8004FEAC50E00EBC505EA88AD689E4214FBB8
:1039D800025222EAE27202F15C02B2FBFCF204DD5E
:1039E80037F8335001339542E8D200EB0E0398883C
:1039F800904228BF1046884238BF0846A4E7FF20F7
:103A0800A3E70020A1E700BFE5A802082C160020C4
:103A18000229F0B555D82C4B585C012851D82B4CAD
:103A280004EBC00114F830004B6801280FD1C878A6
:103A38008C78904294BFC4EB0001C4EB0201001BD8
:103A4800CAB28242C8BF002233F91200F0BD002B6F
:103A580037D08878904202D3B3F90200F6E7CC78E1
:103A6800B3F900009442F1D94C789988013CA1F14E
:103A7800FF06714203F10405E4B2714103F10C073A
:103A8800CEB2B44216D805EBC1014FF47A756A4339
:103A9800B1F902404968521A04EBD47102EB610291
:103AA80092FBF4F29042D1DBB3F902009042CDDCF4
:103AB80010B2CBE737F831C04E1C9445E3D33146FA
:103AC800DEE70348C2E700BFE5A802082C1600207D
:103AD8000080FFFF08B50448FFF70AFFBDE808406B
:103AE800012023F02EB800BFE8A80208004870475C
:103AF800782900207FB50222084B0949CDE9012326
:103B08004FF04073CDE90313052301A94FF0FF30AF
:103B1800059323F05FF807B05DF804FB006A18000E
:103B2800000304002DE9F0418CB08846DDE91276E7
:103B38001D460446002847D0002945D0002F43D011
:103B4800002E41D013F00F033ED120482049A36036
:103B5800002A08BF0146E361C4E90013404609A9E9
:103B68001BF0F9F868BB2046099926F02CFC294679
:103B7800204626F028FC6946404600F0DFFA00BBE4
:103B8800694620461BF014FB404603A91BF0E2F9E6
:103B9800B8B9204603A91BF00BFB0697012720465E
:103BA80045F0005506A9079708951BF001FB20462C
:103BB80009A909960A970B951BF004FB204625F0E6
:103BC8000BFD0CB0BDE8F0812120FAE700010004EC
:103BD800000101042DE9F0418CB0884616461D46C7
:103BE8000446129F00284BD0002949D0002A47D00C
:103BF800002F45D00B68103B102B41D8214A22FAE0
:103C080003F3D9073CD500231F4A8360C0E900238A
:103C1800C36109A940461BF09EF870BB204609996C
:103C280026F0D1FB2946204626F0CDFB69464046C2
:103C380000F084FA08BB694620461BF0B9FA4046F2
:103C480003A91BF087F9C0B9204603A91BF0B0FAF5
:103C580006960126204606A945F0005507960895C0
:103C68001BF0A6FA094B204609A909970A960B9357
:103C78001BF0A8FA204625F0AFFC0CB0BDE8F08197
:103C88002120FAE7010101000000040410000020CF
:103C9800F0B50C4617461E46054695B0002874D068
:103CA800002972D0002A70D0002B6ED0036B0F2B26
:103CB8005BD80023364A3846C4E90023A360E36191
:103CC80011A91BF048F800285BD12046119926F06D
:103CD8007AFB296B20460F2984BF01F00F011031B0
:103CE80026F071FB384602A900F028FA002848D1CE
:103CF800204602A91BF05CFA384605A91BF02AF9F0
:103D080000283ED1204605A91BF052FA0122214B7A
:103D1800089509920A932B6B05F1100003F00F0127
:103D280041F000510B900F2B0C920D910E900F92B9
:103D380043F00052109226D90A9B08A923F0005399
:103D480020460A931BF034FA0BA920461BF030FAE0
:103D58000123119612930F4B204611A913931BF0C0
:103D680031FA204625F038FC0BE000F120030190E1
:103D780000930122102339462046FFF7D3FE00287E
:103D880097D015B0F0BD0EA9DFE72120F9E700BFF5
:103D980000000404100000202DE9F04F9BB00C46F1
:103DA80090461F460546DDF89090002800F0B28046
:103DB800002900F0AF80002A00F0AC80002B00F052
:103DC800A980026B02EB09031B09B3EB121F02F077
:103DD8000F0600F0978000234F4A8B60C1E900234B
:103DE800CB61404617A91AF0B6FF0346002840F0F9
:103DF800858006EB090B204617992BF00F0A26F051
:103E0800E2FA5146204626F0DEFA404602A900F0C2
:103E180095F90346002871D1204602A91BF0C8F97C
:103E2800404605A91BF096F80346002866D14FF0D6
:103E38000108019005A920461BF0BAF9374A204627
:103E480008A90895CDF824800A921BF0B1F946F02C
:103E58000051AAEB060605F1100346F000560B9335
:103E6800CDF830800D910E97CDF83C8010960D99C5
:103E7800204621F000510D910BA900931BF098F9F1
:103E880020460EA91BF094F9019B244A1193AAF12C
:103E9800100343F00053CDF84880139305F1200335
:103EA8001493CDF854801692139B204643F0804318
:103EB8001393139B11A923F0005313931BF082F95A
:103EC800204614A91BF07EF9144A17A92046179515
:103ED800CDF8608019921BF075F9204625F07CFB1F
:103EE800AAEB0B0149440190ABEB0A020098394454
:103EF80023F098FB019B2A6B4A442A6318461BB09F
:103F0800BDE8F08F10304A463946304423F08AFB2A
:103F18000023F0E72123F1E703020004100000204A
:103F28002DE9FF474FF000080E4617460446CDF826
:103F38000080002859D022B90025284604B0BDE8E1
:103F4800F087002951D032F0030902F0030A1FD08C
:103F58004FF0E063C0E9003801230191C0F8088000
:103F68000293C0F81C8049F0005301A903931BF089
:103F780029F94946204626F026FA204625F02CFB4A
:103F8800054628B14A464146304623F040FBD4E76F
:103F9800BAF1000FD0D04FF000084FF0E063C4E949
:103FA80000380123CDF804D00293114B204601A913
:103FB800C4F80880C4F81C8003931BF003F904219B
:103FC800204626F000FA204625F006FB054608B1F3
:103FD8003A46D8E7009A4E44EB00013522FA03F33B
:103FE800AA4506F8013BF7D1A6E72125A5E700BFBA
:103FF80004000020F0B50F4616461D46044693B04F
:1040080010B9212013B0F0BD0029FAD0002AF8D049
:10401800002BF6D0002331461A4638461AF040FEE7
:104028000028EFD1304602A91AF0D6FD0028E9D1C0
:10403800EB68022B0AD039683F48029A81426B69C3
:1040480002D01830814270D19A42DAD82B68002BFE
:10405800D7D14FF060623846C4E90023A360E3611A
:1040680001A91AF078FE0028CCD10199204621F444
:10407800F061019126F0A7F9694628461AF06BFE0F
:104088000028BFD12046009926F09DF9384609A995
:1040980000F054F80028B5D1204609A91BF088F88B
:1040A80038460CA91AF056FF0028ABD120460CA9B7
:1040B8001BF07EF8EB684BB1284606A900F03EF8E5
:1040C80000289FD1204606A91BF072F8304603A9A4
:1040D8001AF040FF002895D1B368DA040CD59B0488
:1040E80027D50621F36932691B6801FB03225B00AF
:1040F80043F0005303920593204603A91BF058F898
:1041080028460FA91AF026FF00287FF47BAF204627
:104118000FA91BF057F80325204625F05DFA012862
:104128007FF470AF013DF7D16CE7B3EB420F8DD24E
:1041380067E7292066E700BF200000B090B189B189
:1041480001234B60C368013B012B08D88269064BE9
:104158001AB10A6000208B607047044AF9E74FF0F3
:104168000053F7E72120704708000020BCBA020876
:1041780070B50E46154604468AB000285BD0002963
:1041880059D0002A57D0012329461A4630461AF03A
:1041980087FD00284DD1B36813F4C04F4BD0AB68EE
:1041A80003F4C043B3F5005F45D1254BA060C4E9D3
:1041B8000030E06107A930461AF0CDFD002838D15B
:1041C8002046079926F0FFF8304601A9FFF7B6FF09
:1041D80078BB20461AF0ECFF304604A91AF0BAFE64
:1041E80038BB204604A91AF0E3FFEB681BBBAB6899
:1041F80003F4C043B3F5005F1DD1694628461AF0A1
:1042080016FDB0B9009B6A699A4216D32A6943F031
:10421800005307920122204607A908920325099313
:104228001AF0D0FF204625F0D7F9012801D1013D29
:10423800F8D10AB070BD2120FBE71D20F9E700BFC7
:104248000000010206289ABF014B185C0020704745
:10425800C4BA020830B5154B87B00293144B0390CB
:10426800049346F611030D46059300F077F91428D8
:10427800044616D168461BF041F84FF0A8430322C4
:1042880002A95A6319601D619A63DA6B9207FCD11F
:10429800142C02D168461BF03FF800F093F904464D
:1042A80001E00028E9D0204607B030BD44160020C0
:1042B800040000202DE9F04FB1B005468C469E461B
:1042C800E8466F4EDDF8EC90409C06F1100A474630
:1042D80030687168083603C75645B846F7D13E9B23
:1042E80003EB0208C8F1000A0AF00F0AB9F1000F3F
:1042F80000F09D80C9F1000707F00F070121DDF8E4
:10430800FCB044F00050C4F11006CDF810B005918F
:104318000690300200F4F85040F021000790B9F1FF
:10432800000F40F08680CDF820D047F00050002DD7
:1043380000F08480099121210A9041EA07210B911C
:1043480042F00050CDF830C03D9B08A94FEA0A2C36
:104358000D910E904CF041000F901093002A75D1EA
:104368003E9B119143F0005312933C9B139014937E
:1043780010AB1593434B444A169340F61103179319
:10438800424B0021002D08BF1346189314AB199314
:104398003F4B10221A9311231B931CAB184623F092
:1043A80036F901221D92002246F0804603461E96E9
:1043B800239205B9EB46102CCDF880B024AE4BD132
:1043C80001232246002130462193229423F01FF92D
:1043D80020AB002125938F4218BF334647F0804217
:1043E80026923A9A2CA828922993B2FA82F35B096A
:1043F80049EA837310222B912A9323F008F9B9F123
:10440800000F00D028AED04448F080432CA918A84B
:104418002D962E93FFF71EFF30B92DB90346A34200
:1044280025D1002818BF2C2031B0BDE8F08F102707
:1044380064E7CDF820E049F0005078E7002C3FF41D
:1044480079AF04A9099101210A9076E73E9B0CAA4D
:1044580011924120129388E71022002130462193BF
:10446800229423F0D4F8002CB2D10123B1E703F150
:10447800C0026A4412F8C02C01331043CFE700BFD2
:10448800CBBA020810000020E0BA0208E4BA020819
:1044980004000020F0B5C0299FB0DDE9244557D0BD
:1044A800B1F5807F04D0802948D029201FB0F0BD05
:1044B80001265CB140F23447029410240396049418
:1044C800212401970594069502AC0AE040F21447AE
:1044D800029410240396049421240594012401973E
:1044E8000695079401251024089409950A9221221B
:1044F8000B950C940D92174A0AAD0E92164A0F9519
:10450800109242F611021192129313951494159277
:1045180001AA1692D3B112AB17930423189311234F
:10452800199316AB1A901B9340F61103C9081C91F6
:104538001AA806A91D93FFF78DFEB7E7012614B93F
:104548004FF48267C4E74FF48667B5E70EABE3E73D
:104558000F20ABE7DCBA02081000001038B5164B84
:104568005A6E42F004025A66D3F8802242F00102E1
:10457800C3F88022114B5B68C3F3080343B14FF0C3
:10458800A842D36B13F0430FFBD11424204638BD47
:104598004FF0A843DC6B14F04304FBD1084D2B68A3
:1045A8001BB9042128461CF0E6F82B68013343F0B8
:1045B80000432B60EAE700BF0080005000ED00E0F8
:1045C80044160020014B00205B68704700ED00E0B6
:1045D800012300F01F02A0F506200949A0F550604C
:1045E8004009934051F820201A4341F820200549FA
:1045F80051F8202022EA030241F82020704700BF2A
:104608005C160020481600200121A0F506230E4A5A
:10461800A3F550635B0900F01F00814052F82300A6
:10462800014342F823100949D1E90030034488685E
:104638000344C868096903445B1802BFC2E9003330
:10464800C2E9023313617047481600205C16002047
:104658002DE9F04FA9B003921D4604460822339E67
:10466800CDE90401414021FA02F34B40980702F1D9
:10467800080218BF9B00202A1C44F4D18123B4FBF4
:10468800F3F303EBC313E41A734B04F506241B7806
:1046980004F55064002B3ED1FDF786FC074620B197
:1046A8006FF0910029B0BDE8F08F0146402208A8BC
:1046B80022F0ADFF4022394618A822F0A8FFDFF803
:1046C800B081DFF8B091C3460BF10F0ACDF800A016
:1046D800102208A95B46D9F8000019F0E9FF00226A
:1046E800014608F1100808AF914246D1CDF800A064
:1046F8005B461022D9F8000018A919F0E2FF4FF024
:10470800000A834618AFD34541D1544B9845DAD1B6
:104718000122514B1A704FF0810A4FF00008DFF860
:1047280058B1A4F50627A7F550635B095BF8232069
:1047380004F01F01CA40D2073DD4494A52F8233039
:10474800CB40DB072AD5B8F1000F08BFA04681236C
:10475800A7F6FF47B7FBF3F303EBC313FF1A07F5FD
:104768000624BAF1010A04F55064DAD1039BBBB1FF
:10477800B8F1000F14D0444619E057F8040BCDE9FE
:104788000612FFF725FF079A06990132ACE757F89A
:10479800040BFFF739FF0AF1010AB4E7039B13B9C9
:1047A8006FF08B007EE7B8F1000F18BF4446349BCA
:1047B80000201C6076E7329B13B10023329A136005
:1047C8000EB1002333601023DFF8A89000932A4627
:1047D80000232146D9F80000FDF7C0FA60BB3299E2
:1047E8002A68204BC9B99A4206D02146D9F8000058
:1047F800FDF736FB0028D3D1D5E90223DDE9041003
:10480800834208BF8A42A2D1039B002BCFD06B689A
:10481800012BCCD16FF0840044E7102032999A42E2
:104828000860E2D1002EE7D033462146D9F80000CF
:1048380018AAFDF7D9FA40B10B4B9842D5D0632896
:10484800D3D00A4B9842D7D02AE7329A33681268F5
:104858009B1A3360D0E700BF77240020007108005E
:1048680048160020105D175EFFDF00F0FEDF00F045
:10487800006D08007C2700205C1600202DE9F04F11
:1048880087B08246894698461646DDF840B02AB178
:10489800002B4FD040F26C739A424ED8BBF1010FF7
:1048A8004ED8002406F110073946012005941BF064
:1048B80007FA0546002846D021463A4622F0A7FEC8
:1048C80005ABCDE9014300942B46012250464946E9
:1048D800FFF7BEFE044680B110F18C0F08BF6FF0E1
:1048E8008D043A460021284622F091FE28461BF006
:1048F800C9F9204607B0BDE8F08F144BC5E902A9F5
:104908002B60C5F804B02EB13246414605F11000BF
:1049180022F088FE059E0E483B462A46314600682E
:10492800FDF798F918B93046FFF752FED9E76FF04E
:104938009104D6E76FF08604DBE76FF09104D8E7BF
:104948006FF08504D5E76FF08C04D2E7105D175E31
:104958007C2700202DE9F0438DB08146DDE91478ED
:104968000E4615461C469BB1B8F1000F05D16FF0F5
:10497800860630460DB0BDE8F083002FF7D0B7F1BA
:10498800005FF4D3C3F1005303F500239F42EED830
:104998001022002108A822F03AFE002207AB029359
:1049A80005AB019306AB31460093484608ABCDE909
:1049B8000522FFF74DFE06460028DAD1059BA4B173
:1049C800AB4215D853EA0504D1D1069B0B48C8F869
:1049D800004000943A46079900682B44FDF7BEF959
:1049E800002818BF6FF09106C3E7AB42EDD2BEE7CF
:1049F8005B1B9C4228BF1C46E7E700BF7C270020C2
:104A080030B58DB00C4605461022002108A822F0CA
:104A1800FEFD002207AB029305AB019306AB2146CE
:104A28000093284608ABCDE90522FFF711FE04469E
:104A3800D8B9099B012B1BD0079D104B2946186834
:104A4800FDF70EFAB8B90122A5F506230C49A3F51E
:104A580050635B0905F01F00824051F82300424073
:104A6800284641F82320FFF7CFFD20460DB030BD82
:104A78006FF08404F9E76FF09104F6E77C270020D3
:104A88005C1600202DE9F04F95B00446DDE920754D
:104A9800DDE922689346DDE91E028A46DDF890903A
:104AA80029B96FF08604204615B0BDE8F08FBBF138
:104AB800000FF6D00FB9002DF3D108B9002AF0D1B4
:104AC80016B9B8F1000FECD1B9F1000FE9D02C4AB2
:104AD800934251D12388B3F5105F4DD12422002190
:104AE8000BA822F094FD2022002103A822F08FFDBC
:104AF8000BA81AF062F810B16FF09204D3E72046C1
:104B08005A46514603AB00F00DFA04460028CAD1B4
:104B180003981AF059FC04460028C4D115B9C9F8FD
:104B28000050C0E7B74224D27B199E4221D24545A6
:104B3800B7D839462A46304622F04FFD374615F099
:104B48000F0AAED1CDE900762B46524603A90BA831
:104B5800FEF7E8FF07460028E1D0424651463046B6
:104B680022F055FD012FC9F800A0C5D16FF08B04C4
:104B780099E74545E3D994E76FF0850493E700BFCB
:104B8800004440042DE9F047C2B00C460746002116
:104B98001546684620229A464A9EDDF83091DDF88F
:104BA800388122F034FD202200210DEB020022F092
:104BB8002EFD2022002110A822F029FD2422002108
:104BC80018A822F024FD0021802222A8219122F099
:104BD8001EFD3CB135B12EB1B9F1000F02D0B8F1CC
:104BE800000F05D16FF08604204642B0BDE8F0877B
:104BF8002188628801F4E043B3F5804FF2D02C4B52
:104C08002C483B4043F01063834202D06FF0850488
:104C1800EAE7D31DBAEBD30F4FEAD307E2D34D9B94
:104C28009F423FD847F212139942EFD1B2F5807FE5
:104C3800ECD1214B4B98089384230230013620F0A5
:104C4800030015937B000C960D90119320466B463C
:104C58005246294621AE149600F064F9044600280D
:104C6800C2D10A9B109043F4005318A80A9319F074
:104C7800A4FFD0B9694610AB08AA18A8FFF7BAF97B
:104C8800054610B14828ADD1C0E73A4631464846F6
:104C980022F0C8FC2B4673550135842DFBD1C8F88A
:104CA8000070A1E76FF089049EE76FF092049BE71C
:104CB8000000FFF600000209200000802DE9F04105
:104CC8000D4614461E46C4B010B96FF086000DE0BC
:104CD8000029FAD0002AF8D0002BF6D0038803F474
:104CE8004F42B2F5824F04D06FF0850044B0BDE862
:104CF800F081DAB2122AF7D123F0FF03B3F5E24FBD
:104D080027D143883360FBB9E3003360B3F5807F74
:104D1800EAD10023184642492E19214411F8014DC1
:104D280016F8012D1043121B0CBF4FF0FF3400245E
:104D3800B54203EA040343EA0203EFD10028C4D0D2
:104D4800002BC2DA0020D1E7DA1DB4EBD20FDDD098
:104D5800BBE7B3F5824F5FD10B78042BB5D1242282
:104D6800002119A822F053FC19A819F026FF0028E1
:104D78004FD100278422394623A8229722F047FCE6
:104D880001234FF0880820223946013C01A88DF8FC
:104D98008830013522F03BFC20223946069409A8C8
:104DA800E4000595640822F032FC22AD2022394641
:104DB80011A80D95CDF8388022F029FCE02CCDE91A
:104DC8001558346003D0B4F5807F7FF47EAF154B5F
:104DD8000734019309934FF4005303934FF480432E
:104DE800E4080B9301AA11AB640009A919A812944D
:104DF800FFF700F933680733DB085A0033B10021A5
:104E0800531E013B297005F10105FAD2002899D0FB
:104E18005BE76FF0920069E76FF0960066E700BF06
:104E2800E8BA020820000080F8B5134642880C460C
:104E38000732072A4FEAD20101D0A1426DD1D0E949
:104E48000167058820221846002122F0E0FB360A77
:104E5800034626B1012E11D06FF08B00F8BD002C4F
:104E68005BD041F20102954205D0B5F5885F02D0CA
:104E7800B5F5905F1BD15C600020EFE7C660002CA1
:104E88004BD041F2010295420BD15C60B90707F0A3
:104E980001021FD4002AEFD19A6842F080729A600A
:104EA800EAE7B5F5885FF0D0B5F5905FEDD0B5F5D8
:104EB800105F0AD1182C03D0202C01D0102C2CD133
:104EC800C3E90044002ED7D0E0E705F44F42B2F51D
:104ED800824F02D06FF08500C0E7EAB2122AF9D1FA
:104EE800202CF7D10E4A25F0FF05B5F5E24F1A60E0
:104EF8000CD0B5F5824F10D14FF4005217F4705F03
:104F080009D017F4864F04D09A60E3E74FF4804243
:104F1800F4E742F480629A60D4E76FF086009DE778
:104F2800200000802DE9F041174600221C46436806
:104F38008CB01B0A80460D46009204D0012B56D037
:104F48006FF08B008EE0008820F0FF03B3F5824FEE
:104F580015D1B8F802200732D20800921AF040FAA8
:104F6800002800F0E1800B78042B05D1013FB7EB56
:104F7800420F05F1010503D06FF0860072E000973B
:104F8800009E224631464046FFF74EFF002869D171
:104F9800FA1CC4E9030522F003026261002E00F046
:104FA800A4802022002101A822F031FB314640468E
:104FB80001AAFFF739FF002840F097802368019A7B
:104FC8009A4240F092806368029A9A4240F08D803B
:104FD800A368039A9A4240F08880A369079A9A4284
:104FE80040F08380E369089A9A423BD07DE0032F22
:104FF800C2D90B78012B40F09A80497800294BD010
:10500800F73908299CD801A353F821F07D500008EE
:1050180039500008494F000873500008494F0008EC
:1050280097500008494F0008875000088F50000823
:105038004FF41056F8253F4F1C22002102A822F0F9
:10504800E6FA03230197CDE90435039601AA09ADD1
:10505800134603CBAB42206061601A4604F1080492
:10506800F6D100200CB0BDE8F08110274FF0807613
:10507800FA25E1E720274FF00076F725DCE7FE2543
:105088002C4F2D4ED8E7FF252A4F2C4ED4E74FF44E
:105098001056FC25274FCFE72B2F7FF66DAF202228
:1050A800204622F0B4FA05F110032361AB070DD0B6
:1050B80001AB05F128061A4628686968083503C255
:1050C800B5421346F7D1286801AD10606B68103FF0
:1050D8002360AB6869466360EB682046A3600123E0
:1050E8006761E36019F078FD28B12022002120468D
:1050F80022F08DFA40E7B8F80030009E03F44F42E2
:10510800B2F5824F0ED1DAB2122A0BD123F0FF0387
:10511800B3F5824F06D1730062691C339A42BFF41B
:105128003DAFE2E73346F7E76FF085009AE76FF0A7
:10513800910097E72000008000440002004400032B
:105148002DE9F04F91B0DDF8688081460C46924613
:105158009B461C9FB8F1000F05D16FF086042046CE
:1051680011B0BDE8F08F002FF7D00028F5D0242229
:10517800002107A822F04BFA07A819F01EFD10B16C
:105188006FF09204EBE714F47C1FC4F305452AD0B2
:10519800102DE2D81B9B9D4233D81D4B24F47E145E
:1051A8009C4231D1002303AECDE90333CDE9053369
:1051B80052465B464946009607A8FEF70BFD044693
:1051C80098B92A463146404622F02CFA23463355F0
:1051D8000134102CFBD100243D6007A819F0F7FC1E
:1051E8000028BCD0CCE71025D4E7212806D0012818
:1051F80014BF6FF092046FF08B04EEE76FF0860433
:10520800EBE76FF08904AAE76FF08504A7E700BF12
:105218000002C00370B50E461446054610B96FF07B
:10522800860070BD0029FAD03822002122F0EFF95B
:10523800094B24F47E129A420AD13388B3F5105FE1
:1052480006D1C4F30543102BE9D800202C60E8E709
:105258006FF08500E5E700BF0002C003F0B50F4618
:1052680016461D4604468DB088B302B97BBB24227E
:10527800002103A822F0CBF903A819F09EFC20B165
:105288006FF0920420460DB0F0BD2368114A23F454
:105298007E13934215D135B9002403A819F097FC61
:1052A8000028EFD0ECE733463A46009503A9201DC5
:1052B800FEF772FD012807D00028EDD06FF09204A8
:1052C800EBE76FF08804E8E76FF08B04E5E76FF031
:1052D8008604D7E70002C0032DE9F0418EB0884666
:1052E80016461D460446149F002840D0002A3ED08A
:1052F800002B3CD0002F3AD0102B036828BF102574
:1053080013F47C1FC3F3054202D0954228BF15460B
:105318001A4A23F47E1393422CD12422002105A893
:1053280022F075F9002305A8CDE90133CDE903334F
:1053380019F043FC40B9424601AB05A9201DFEF710
:10534800A7FC30B100233B606FF092000EB0BDE8BF
:10535800F08105A819F03BFC04460028F2D12A4642
:10536800304601A922F05EF920463D60EEE76FF075
:105378008600EBE76FF08800E8E700BF0002C00393
:105388002DE9F0410E4617469846044600B3F9B198
:10539800F2B19822002122F03AF93146069A04F136
:1053A8006000FFF737FF0546A0B923464246394655
:1053B8003046FFF7B7FD054660B97288D208A2F1FA
:1053C80010011029E26503D80A4BCB40DB0704D44F
:1053D8006FF086052846BDE8F08163691C32934268
:1053E800F6D304F120031846216922F01BF9206145
:1053F800F0E700BF010101000023C36001F1380399
:10540800036120230A6843618B6D0B4922F47E12E5
:105418008A42436003D001F580718A4208D1102B7B
:1054280001D0182B02D1036000207047202BFAD03E
:105438006FF08800704700BF0001C00370B50546D3
:105448000C4624F0BAFF0D2D064616D80D2D18D897
:10545800DFE805F01B1B171B1B2A171B2E1731171C
:10546800343901231B4AAB4013421DD1182D2DD0CE
:10547800132D06D14FF4E06022E0A5F10F03102BA5
:10548800EFD900232380212409E08020FDF762FC66
:105498004FF6FF73984220800CBF0E24002430463C
:1054A80024F086FF204670BD002323800F24F6E7F2
:1054B8004FF48060EAE74FF44060E7E74FF4C060DC
:1054C800FDF72AFCE4E74FF4F060F9E74FF41860C1
:1054D800F6E700BF008063D4D8B1036813F4E07F17
:1054E80003F03F00C3F382120CD0012A0CD0022A29
:1054F8000FD1094B51B103F58053012282401A6044
:1055080000207047054BF5E7054BF3E703F500531B
:10551800F3E70E20704700BF6C8000506480005095
:105528006880005070B578488AB01AF051FB06467A
:10553800002840F0C9806C46744D0FCD0FC40FCDC4
:105548000FC495E8030084E80300714BD3F84C219D
:10555800110340F1BC80A3F5FE431C88B4F5807F9D
:1055680028BF8C248DF81940FDF7C0FC044484F34F
:10557800080468488DF81840FBF76AF96846FDF793
:10558800F5FB3220FDF7B8FC6348FDF7B7FD63482B
:10559800FDF728FE624C01213620FDF72BF900208B
:1055A800FDF7B0FCFDF760FD236F002023F0070333
:1055B80043F003032367FDF781FD236F23F474434E
:1055C8002367584BD3F8FC20D20100F18480D4F82B
:1055D800803023F0030343F00103C4F88030D4F88B
:1055E8008030C4F880304E4CD4F8203123F00703C3
:1055F80043F00203C4F82031D4F8283123F007031C
:1056080043F00203C4F82831D4F8803123F00303AF
:1056180043F00103C4F88031D4F8403123F0030388
:1056280043F00103C4F84031D4F8603123F0030398
:1056380043F00103C4F86031D4F8403223F0030387
:1056480043F00103C4F84032D4F8003223F00703D2
:1056580043F00103C4F80032D4F8083223F00703FA
:1056680043F00103C4F80832D4F8503223F003039E
:1056780043F00103C4F85032D4F8703223F0030326
:1056880043F00103C4F87032D4F8203223F0070342
:1056980043F00103C4F82032FDF726FB4FF0E02267
:1056A800136943F004031361D4F8603223F007034D
:1056B80043F00103C4F86032D4F8943223F00703AE
:1056C80043F00103C4F8943230460AB070BDD3F8F1
:1056D8005041E4B246E7D3F8FC2022F08072C3F8C8
:1056E800FC20D4F8802022F0030242F00102C4F822
:1056F8008020D4F88020C4F88020D3F8FC2042F021
:105708008072C3F8FC206EE738BB020808BB0208A9
:105718000080E00FC017530200B4C404C0EA21019E
:105728000080005000ED00E007B5094B18689A8822
:105738009B7900906846ADF804208DF80630FDF797
:10574800E5FE0C20FDF71AFF002003B05DF804FB0E
:1057580030BB020870B500F083FE0446E8B900F0DB
:1057680009FF24F027FC4FF4167343430C4A03F552
:10577800742303F23F23B3FBF2F30A490A480B6090
:105788000A230268094D0E68013B45F8046B0E6850
:1057980013F0FF033244F6D10260204670BD00BF0B
:1057A80040420F00A416002074160020781600202E
:1057B800012208B5034B1A7024F0DDFE024B186075
:1057C80008BD00BF782400207016002010B524F012
:1057D800F1FB044624F0E0FD844207D924F0D7FE0B
:1057E80020B10122024B1860024B1A7010BD00BF95
:1057F8007016002078240020F8B51F4C2378E3B1F8
:1058080024F0B9FE1D4B1E4D1B68C01A28602B687A
:10581800A3B12B682B6024F0CDFB4FF416725043D4
:10582800184A00F5742000F23F20B0FBF2F02B6814
:105838002B68834204D900232370F8BD0123E9E7CC
:105848001148124E0378296856F82320104F511A30
:105858003A68521A29683A6046F823100A21093230
:10586800B2FBF1F20B4D0133DBB22A60B3FBF1F26C
:1058780001FB12330370DEE7782400207016002045
:10588800A016002040420F0079240020781600203E
:1058980074160020A4160020014B1868704700BF3A
:1058A800A416002070B502213C201AF09CF94FF490
:1058B800801204250E4C0F4B0F4E5A6604F5005308
:1058C8005E673C205D671E671D6700F0A5F83C20F9
:1058D80000F086F804F580535E675D67A36A23F0DD
:1058E8000073A362A36A43F48053A36270BD00BF30
:1058F8000040005A00900050010000A0064B074AE3
:10590800996D11F0050F01D0117811B10028F7D168
:1059180070470120704700BF0040005A7A240020D9
:10592800164B10B51C6F14F0040111D0144A1167FE
:10593800082191629B6DDA0701D4FFF747FF00F059
:105948009FFC00F07FFC012024F09CFB24F021FE4A
:10595800E30706D501220A4B1A67FFF74DFF00F04F
:1059680071FC14F000521CBF054B1A67002CBEBF17
:105978004FF00042024B1A6710BD00BF0040005AAA
:105988000060005A0028ACBF00F16040064B4FEAA7
:105998000111C9B2ABBF00F5614000F00F0080F8FB
:1059A80000131954704700BF14ED00E008B524F047
:1059B80004FD0A4B1A786AB901221A7024F0F8FC1F
:1059C8006FF00402104605210132FFF7DBFF5D2A64
:1059D800F8D108BDBDE8084024F0EABC7B240020CB
:1059E800002807DB01234109034A00F01F00834018
:1059F80042F82130704700BF00E100E0054B42113A
:105A080053F8223000F01F0023FA00F0C04300F0E2
:105A18000100704700E100E0002808DB012243098B
:105A2800034900F01F008240603341F8232070478B
:105A380000E100E073B50024684600F0C1F90C4BA2
:105A480000981C600B4B0C4D1C600C4E0C4B3060CE
:105A580018602C601AF044F92046019B3268013B1B
:105A6800DB0853802B6801332B6002B070BD00BF88
:105A7800AC160020A8160020B0160020B81600208A
:105A8800B41600202DE9F04F0E460027984689B03D
:105A9800054606A81446059700F092F9731C14BF32
:105AA800B3464FF0080BB8F1000F00F0BC80C8F8FF
:105AB8000070002D00F0B980079BAB4240F2B58022
:105AC80024F07BFC073505AB25F00705314600932C
