:020000021000EC
:10200000C80A00207D460100D9950300D995030038
:10201000BDDD0300D9950300D9950300D9950300D0
:10202000D9950300D9950300D9950300D9950300EC
:10203000D99503008CCD040087E00300D9950300F7
:10204000D9950300D9950300D9950300D9950300CC
:10205000D9950300D9950300D9950300D9950300BC
:10206000D9950300D9950300D9950300D9950300AC
:1020700097DF0300D9950300D9950300D995030094
:10208000D9950300D9950300D9950300D99503008C
:10209000D995030055520100D9950300D995030045
:1020A000D9950300DD9A0300B59A0300D995030082
:1020B000D9950300291F0300D9950300892903003E
:1020C000357C0400317C0400692103004B7C040052
:1020D000397C0400592903003D7C0400C929030010
:1020E000D90003009D020300392A0300D99503009B
:1020F000D9950300D9950300D9950300D99503001C
:10210000D9950300D9950300D9950300D99503000B
:10211000D9950300D9950300D9950300D9950300FB
:10212000D9950300D9950300D9950300D9950300EB
:10213000D9950300D9950300E13A0100D13A010095
:1021400082B030BF084B1B6803F00103002B08D09E
:102150000023019302E0019B01330193019B052BB6
:10216000F9DD00BF02B07047F0ED00E000B583B0CC
:10217000184BDB6903F48033002B02D06FF00103AE
:1021800024E0144B03F580531A460123D360114B0E
:1021900003F500531A46012313640E4B4FF480726B
:1021A0001A610021012000F0D3F803468DF80730B2
:1021B000084B03F580531A4601231364054B03F5BE
:1021C00000531A460123D3609DF90730184603B027
:1021D0005DF804FB0000035000B585B00190234B6F
:1021E00003F580531A464FF400339366204BDB69A6
:1021F00003F48033002B14BF012300238DF80E302D
:102200001B4B41F67132DA63194B03F580531A46C2
:102210000123D360164A019B5361154B02221A61B8
:102220000021212000F094F803468DF80F309DF92D
:102230000F30002B06D10021212000F089F8034641
:102240008DF80F300A4B03F500531A460123D36073
:102250009DF80E30002B02D0054B0022DA639DF969
:102260000F30184605B05DF804FB00BF0080005039
:102270000000035000B58BB003900291019200233F
:102280008DF81F30304B03F580531A464FF400335E
:1022900093662E4BDB6903F48033002B14BF0123BC
:1022A00000238DF81E30294B41F67132DA63274B3B
:1022B00003F580531A460123D360039B0993029BC5
:1022C000089329E0019B0693099B03F5005323F42F
:1022D000FF5323F01F03099A9B1A0593059A069B47
:1022E000934228BF13460493049A0899099800F072
:1022F0006FF803468DF81F309DF91F30002B0FD16A
:10230000099A049B13440993089A049B1344089365
:10231000019A049BD31A0193019B002BD2D100E0B8
:1023200000BF0A4B03F500531A460123D3609DF802
:102330001E30002B02D0054B0022DA639DF91F30BE
:1023400018460BB05DF804FB0080005000000350FD
:1023500084B0019000911B4B03932AE01A4BDB6978
:102360000293029B03F00403002B02D04FF0FF33D3
:1023700024E0019B03F00103002B07D1029A134BC9
:102380001340002B02D06FF0010317E0029A019B6B
:102390001340009A9A4209D1029A0C4B1340002B29
:1023A00002D06FF0010309E0002307E0039B013B2B
:1023B0000393039B002BD1D16FF00203184604B0A6
:1023C000704700BF80969800000003500200010093
:1023D00000B587B0039002910192274A039B536195
:1023E000254BDB6903F00403002B02D04FF0FF33D1
:1023F0003DE0029B1A1D02921F4A1B689361019BDC
:10240000043B019319E008210820FFF7A1FF0346D0
:102410008DF817309DF91730002B05D0164B04228C
:102420001A619DF9173022E0029B1A1D0292124A8E
:102430001B689361019B043B0193019B002BE2D13C
:102440000D4B04221A6100212120FFF781FF034672
:102450008DF817309DF91730002B06D1002121206F
:10246000FFF776FF03468DF817309DF917301846B1
:1024700007B05DF804FB00BF00000350000000003F
:10248000013800D0FCE77047002370B5404C05468A
:102490008AB0E36318B10088236014F0A7F93D48BF
:1024A00034F064FE3C4E3D4B304633603C4B736031
:1024B00031F05BFD0021304619F022FE32A3D3E952
:1024C0000023A062C4E9062331F05AFDD4E90623B3
:1024D00019431043C4E90601CDE900014FF0FF3371
:1024E0004FF0FF32A06A34F0E8FE02224FF0FF31D5
:1024F000A06A34F0E7FE012013F0F8FE4FF40073F9
:1025000000222849A06A34F03EFFB0F5007F39D19F
:1025100000239422079309933C23CDE903320593CA
:10252000962306935023A06A03A9089319F0FCFE92
:1025300035B3287C14F046FC0546F0B9A06A35F0A6
:1025400017F814F0EDFB13F0B3FE20B14FF48070D8
:10255000002110F087FC13F0BBFE20B14FF40060A7
:10256000002110F07FFC31F0DBFD012034F0D2FDC2
:102570000D4A0E49A06A31F0F6FC28460AB070BD3B
:10258000FF20D7E70725F8E70DD50155200000000B
:10259000380B0020690345EC9831002025610200CA
:1025A000A8310020982F00200F3F04004F3F040067
:1025B0000348044B834202D0034B03B118477047D2
:1025C0007C4100207C41002000000000064B0749B0
:1025D000C91A891048BF0131491003D0044B0BB10F
:1025E00001481847704700BF7C4100207C41002013
:1025F0000000000010B5064C237843B9FFF7D8FF60
:10260000044B13B10448AFF300800123237010BDC5
:10261000623A002000000000B815050008B5054B1F
:102620001BB105490548AFF30080BDE80840FFF73E
:10263000CDBF00BF00000000B00D0020B8150500A0
:10264000A3F5803A704700BF174B002B08BF134B10
:102650009D46FFF7F5FF00218B460F461348144AAD
:10266000121A35F026FC0E4B002B00D098470D4B6C
:10267000002B00D098470020002104000D000D48D9
:10268000002802D00C48AFF3008020F033FE200079
:10269000290026F07FFD20F0E3FB00BF00000800CA
:1026A0000000000000000000C80A0020C80A002046
:1026B000803B0020000000000000000000B585B055
:1026C000019000910023039312E0039A1346DB006C
:1026D0009B1A019A134406220099184635F0BFFB55
:1026E0000346002B01D1012308E0039B0133039330
:1026F000044B1B68039A9A42E7D30023184605B09F
:102700005DF804FB880F002000B585B003900291AE
:1027100013468DF80730174B1B683F2B01D9002358
:1027200024E002990398FFF7C9FF0346002B01D06C
:1027300000231BE00F4B1A681346DB009B1A039A19
:102740001344029A1168196092889A80094B1A689A
:102750001346DB009B1A039A13449DF807209A71D5
:10276000044B1B680133034A13600123184605B06C
:102770005DF804FB880F002084B001900B468DF8B3
:1027800003300023039334E0039A1346DB009B1AC3
:10279000019A13449B799DF803209A4226D1039B0A
:1027A000029316E0029B5A1C1346DB009B1A019A07
:1027B000D118029A1346DB009B1A019A13440A4669
:1027C000116819609188927999809A71029B0133FE
:1027D00002930C4B1B68013B029A9A42E2D3094BCD
:1027E0001B68013B074A1360012308E0039B013388
:1027F0000393044B1B68039A9A42C5D300231846DF
:1028000004B07047880F002084B001900B468DF80B
:1028100003300023039314E0039A1346DB009B1A52
:10282000019A13449B799DF803209A4206D1039A9A
:102830001346DB009B1A019A134408E0039B013303
:102840000393044B1B68039A9A42E5D3002318466E
:1028500004B07047880F002000B587B00390029144
:1028600013468DF80730002305931BE0059A1346A5
:10287000DB009B1A039A134406220299184635F08E
:10288000EEFA0346002B0AD1059A1346DB009B1A89
:10289000039A13449DF807209A71012308E0059BD1
:1028A00001330593044B1B68059A9A42DED300233B
:1028B000184607B05DF804FB880F002000B587B00C
:1028C00001900B468DF80330002305934AE0059BE9
:1028D000019A13441B788DF80F309DF80F30002BB0
:1028E00046D0059B5A1C9DF803309A4241DA059B5D
:1028F0005A1C9DF80F301A449DF803309A4238DC78
:10290000059B0133019A13441B788DF80E309DF816
:102910000E30032B03D09DF80E30022B1CD1002368
:10292000049313E0059B9A1C049B13441A46019BD5
:10293000134402221149184635F091FA0346002B40
:1029400001D1012316E0049B023304939DF80F305C
:10295000013B049A9A42E5DB9DF80F300133059A5A
:10296000134405939DF80330059A9A42AFDB00E0CB
:1029700000BF0023184607B05DF804FBD0C0040078
:1029800008B5054801F0C8FF034826F01BFF0220E8
:1029900001F03EFA00BF08BD48CC040000B583B08A
:1029A00000F03AFE1A4826F0A4FE0346002B14BF9E
:1029B00001230023DAB2174B1A70174B1B7883F0F0
:1029C0000103DBB2002B1AD0124B1B78002B16D060
:1029D000FF238DF80330114820F00AFB104B1878C4
:1029E000104B19880DF10303012218F0CBFF019061
:1029F000019B002B03D101990B4820F0E7FA054B0E
:102A00001A78054B1A7000BF03B05DF804FB00BFD5
:102A100048CC04006C3A00206B3A0020D4C004007B
:102A200053410020083A0020F4C004002DE9F04191
:102A3000ADF58F6D0DF58F63A3F22C4318600DF586
:102A40008F63A3F22C431B681B6823F47F4323F09E
:102A50000703BF4A934200F00485BD4A934200F247
:102A60008C85BC4A934200F08382BA4A934200F2BA
:102A70008485B94A934200F0E684B74A934200F253
:102A80007C85B64A934200F08382B44A934200F2B6
:102A90007485B34A934200F00482B14A934200F233
:102AA0006C85B04A934200F0EC83AE4A934200F248
:102AB0006485AD4A934200F0A483AB4A934200F28E
:102AC0005C85AA4A934200F0F180A84A934200F242
:102AD0005485A74A934200F03385A54A934200F2F9
:102AE0004C85A44A934200F06D81A24A934200F2C1
:102AF0004485A14A934204D0A04A934246D000F0B4
:102B00003CBD9F4B00221A709E4820F071FA9E48EF
:102B100020F06EFA4FF4805200219C4835F0C9F93C
:102B2000A0224FF4C861012018F070FF012101209C
:102B300018F084FF964820F05BFA0DF25B420DF22C
:102B40005C431146184618F0CFFE9DF85C341C46D5
:102B50009DF85D341D469DF85E349DF85F249DF818
:102B600060149DF8610403900291019200932B463A
:102B700022468849854820F0F7FA874820F026FA4F
:102B80008249864820F022FA00F0FEBC0DF58F63E2
:102B9000A3F22C431B6803F117020DF58F63A3F218
:102BA0002C431B689B7D19461046FFF787FE0346A2
:102BB000002B00F0E4840DF58F63A3F22C431B6817
:102BC000053319467648FFF779FD034683F0010384
:102BD000DBB2002B00F0D384724A0DF58F63A3F2B1
:102BE0002C431B680533186810609B889380002273
:102BF0006C496B48FFF788FD0DF58F63A3F22C43FA
:102C00001B685B791C460DF58F63A3F22C431B6890
:102C10009B791D460DF58F63A3F22C431B68DB796E
:102C20001A460DF58F63A3F22C431B681B7A1946D5
:102C30000DF58F63A3F22C431B685B7A18460DF5E4
:102C40008F63A3F22C431B689B7A0393029001913C
:102C500000922B4622464F494C4820F085FA5248B4
:102C600020F0B4F94949514820F0B0F94FF48052AE
:102C70000021464835F01DF94D4820F0B9F90DF511
:102C80008F63A3F22C431B684A4A0092D3F80520B5
:102C900010465A7A9B7A1B021343002163F30F01FB
:102CA0000123002218F0E0FD00F069BC424B002235
:102CB0001A700DF58F63A3F22C431B689B7919469C
:102CC0003748FFF7A1FD02460DF254431068186023
:102CD00092889A800DF58F63A3F22C431B689B7931
:102CE00019462F48FFF748FD344820F06FF99DF84A
:102CF00054341C469DF855341D469DF856349DF8B5
:102D000057249DF858149DF859040390029101929C
:102D100000932B4622461F491C4820F025FA1B49E8
:102D2000224820F053F94FF480520021174835F023
:102D3000C0F8234B1B780221184618F06DFD204B7C
:102D40001B780221184618F07BFD00F01DBC00BF67
:102D5000A0000906A0004304A0000904A00043034A
:102D6000A0004302A0000902A0000901A000060182
:102D7000A0000900A0000600A0000100A0000500BE
:102D8000643A002040C104004CC104001811002026
:102D900064C104007CC104009CC10400C4C10400DF
:102DA000C80D00208C0F0020DCC1040004C2040008
:102DB0001CC2040053410020683A00203CC20400B9
:102DC000524100200DF58F63A3F22C431B681A7B40
:102DD0008F4B1A708F4B1B785A1CD1B28D4A1170D1
:102DE0001A460DF58F63A3F22C431B68197B8A4B9F
:102DF00099548A4B01221A70854B1B781A468849D0
:102E00008848FFF729FD0DF58F63A3F22C431B685B
:102E10001B791C460DF58F63A3F22C431B685B796D
:102E20001D460DF58F63A3F22C431B689B791A4650
:102E30000DF58F63A3F22C431B68DB7919460DF562
:102E40008F63A3F22C431B681B7A18460DF58F6322
:102E5000A3F22C431B685B7A0393029001910092CA
:102E60002B4622467049714820F07EF9704820F0C8
:102E7000ADF86E496F4820F0A9F8654B1B781946EC
:102E80006D4820F0A3F86D4820F0B2F86C4B012299
:102E90001A705F4B1B786B4A0221184614F04AFEE9
:102EA00072E30DF58F63A3F22C431B68B3F80D306A
:102EB0009BB2002B4CD1644820F088F80DF58F634D
:102EC000A3F22C431B68B3F809309AB25F4B1A8007
:102ED0000DF58F63A3F22C431B68B3F807309AB249
:102EE0005B4B1A800DF58F63A3F22C431B68B3F87C
:102EF0000F309BB2DAB2574B1A70574B1B881946EA
:102F0000564820F063F8534B1B781946544820F07C
:102F10005DF8544B1B881946534820F057F84B4B2B
:102F20001B881946514820F051F8514B1B8819460F
:102F3000504820F04BF8464B1B8819464E4820F06D
:102F400045F84E4B1B8819464D4820F03FF81BE3CF
:102F50004C4820F03BF80DF58F63A3F22C431B681F
:102F6000B3F80D309BB21946474820F02FF80BE319
:102F7000464820F02BF80DF58F63A3F22C431B6815
:102F8000B3F807309BB21946414820F01FF8FBE226
:102F9000224B01221A703F4B1B78013319463E48E1
:102FA00020F014F83B4B1B78002B7BD10DF58F6381
:102FB000A3F22C431B681B7A5AB20DF58F63A3F260
:102FC0002C431B685B7A1B025BB213435BB2DAB221
:102FD000324B1A700DF58F63A3F22C431B6803F17B
:102FE0000A000DF58F63A3F22C431B68DB79023BCB
:102FF0001A4615AB194626F0AFF80DF58F63A3F20C
:103000002C431B68DB79023B9AB2254B1A8064E0A3
:1030100053410020653A0020940F0020683A0020B8
:103020008C0F0020C80D00207CC104001811002066
:103030006CC2040004C20400A4C20400C0C20400A4
:10304000643A0020D0C00400E8C204000C3A00201A
:103050000A3A0020633A0020083A00201CC304000A
:1030600030C304003C41002044C304005CC304009E
:103070003A41002074C304008CC304003E41002088
:10308000A4C30400C4C30400F0C3040004C40400C7
:1030900028C40400693A002038C404006A3A0020B9
:1030A000103A00200DF58F63A3F22C431B6803F147
:1030B00008000DF58F63A3F22C431B68DB791A46D9
:1030C00015AB194626F048F80DF58F63A3F22C4393
:1030D0001B68DB791A46884B1A80884B1B780133B2
:1030E000DAB2864B1A70864B1B881A46854B1344FE
:1030F000814A128815A9184634F0E6FE804B1A88DA
:103100007D4B1B8813449AB27D4B1A807E4B1B78F3
:103110001A467B4B1B889A4240F033827B481FF053
:1031200055FF78497A481FF051FF0DF58F63A3F2E0
:103130002C431B68DB79002B2FD00DF58F63A3F296
:103140002C431B681B7A082B27D10DF58F63A3F244
:103150002C431B685B7A082B1FD10DF58F63A3F2FC
:103160002C431B681A790DF58F63A3F22C431B685F
:10317000B3F805309BB21946104618F031FCCDF873
:103180007004DDF87034002B04D0DDF87014614851
:103190001FF01CFF60481FF02BFF584B1B7819468F
:1031A0005E481FF013FF0DF58F63A3F22C431B68DD
:1031B00018790DF58F63A3F22C431B68B3F8053023
:1031C0009BB24E4A1278194618F0F2FBCDF86C0407
:1031D000DDF86C34002B04D0DDF86C1450481FF07F
:1031E000F5FE4FF480520021464834F062FE434B16
:1031F00000221A70424B00221A80434B00221A70A0
:10320000BFE10DF58F63A3F22C431B68D3F80530A3
:10321000444A1360444B1B785A1CD1B2424A117085
:103220001946404B1B68414A42F8213040481FF084
:10323000CDFE0DF58F63A3F22C431B685B7A022B46
:1032400018D10DF58F63A3F22C431B689B7A1AB239
:103250000DF58F63A3F22C431B68DB7A1B021BB2B4
:1032600013431BB2ADF86434BDF8643419463148D9
:103270001FF0ACFE2B4B1B6819462F481FF0A6FE13
:1032800082E10DF58F63A3F22C431B68B3F8053080
:103290009AB22A4B1A802A4B1B785A1CD1B2284A60
:1032A00011701A46254B1988264B23F81210264810
:1032B0001FF08CFE0DF58F63A3F22C431B681B7A65
:1032C000022B43D10DF58F63A3F22C431B685B7A6D
:1032D0001AB20DF58F63A3F22C431B689B7A1B0275
:1032E0001BB213431BB2ADF86634BDF86634194601
:1032F00010481FF06BFE9FE0103A0020693A002052
:103300000E3A0020181100206A3A002068C4040018
:1033100098C40400B0C4040004C504003CC5040003
:1033200068C50400CC3E0020663A0020980F0020BB
:10333000BCC50400E4C50400F8C5040042410020F7
:10334000673A00209810002008C604000DF58F632E
:10335000A3F22C431B681B7A102B6DD10DF58F63E4
:10336000A3F22C431B680933CDF86834DDF86834C8
:103370000F331B789C46DDF868340E331B789E466D
:10338000DDF868340D331B789846DDF868340C336B
:103390001B781946DDF868340B331B781846DDF8C6
:1033A00068340A331B781C46DDF8683409331B780F
:1033B0001D46DDF8683408331B781E46DDF8683496
:1033C00007331B781F46DDF8683406331B780E93ED
:1033D000DDF8683405331B780F93DDF86834043367
:1033E0001B781093DDF8683403331B781193DDF8F4
:1033F000683402331B781293DDF8683401331B788C
:103400001A46DDF868341B780C930B92129A0A92D4
:10341000119A0992109A08920F9A07920E9B06939E
:1034200005970496039502940190009143467246D5
:10343000614658481FF0CAFD574B1B88194657482C
:103440001FF0C4FDA0E056481FF0C0FD0DF58F63CE
:10345000A3F22C431B68DB7A194652481FF0B6FDD5
:1034600092E00DF58F63A3F22C431B68B3F805308F
:103470009BB2002B5ED14C481FF0A8FD4B4B1B7834
:10348000022B22D0022B7EDC002B02D0012B04D099
:1034900079E047481FF09AFD51E046481FF096FD3D
:1034A00045481FF0A5FD454B1B68194644481FF0D1
:1034B0008DFD3E4B02221A70424B1B783F4A126828
:1034C0001146184614F04CFB39E03F481FF07EFDD2
:1034D000364B00221A703D481FF08AFD3C493D489A
:1034E0001FF074FD374B1B7819463B481FF06EFDEB
:1034F0004FF480520021364834F0DBFC314B187811
:10350000364B1988364B1A88364B1C88364B1B882D
:10351000364D01950093234618F004FACDF8740453
:10352000DDF87434002B09D0DDF8741430481FF036
:103530004DFD03E02F481FF049FD24E000BF22E0CD
:103540002D481FF043FD0DF58F63A3F22C431B683C
:10355000B3F805309BB2194628481FF037FD2848BC
:103560001FF046FD0DF58F63A3F22C431B68B3F8E3
:1035700005309AB2234B1A8006E000BF04E000BF7A
:1035800002E000BF00E000BF00BF0DF58F6DBDE899
:10359000F08100BF38C604004241002088C6040004
:1035A00098C60400CCC60400E0C60400643A0020BB
:1035B00010C7040030C7040064C70400CC3E0020DC
:1035C0008CC7040053410020A4C70400DCC70400DA
:1035D0001811002004C20400A4C2040040410020CD
:1035E0003A4100203C4100203E410020083A0020A2
:1035F00000C8040054C8040080C80400A4C8040023
:10360000B8C8040038410020024B00221A8000BFD5
:10361000704700BF123A002000B583B000238DF838
:10362000073038F03AFA00900A4B1B88002B08D07C
:10363000084B1B88013B9AB2064B1A8001238DF878
:103640000730009838F01CFA9DF80730184603B090
:103650005DF804FB123A002000B58BB00390039B89
:103660001B6823F47F4323F00703994A934240F0F9
:103670002881984B08220021122014F041FB099068
:10368000099B002B2AD0944B1B689449184629F0BB
:1036900024FE914B1B689249184629F01EFE25F026
:1036A000A3FE25F0A3FE8C4B18688E4B00935C2381
:1036B0008D4A8E4929F011FE874B1868099B8C4A68
:1036C0008C4929F00AFE099800F0B2FB824B1B6876
:1036D0008949184629F001FE00BEFDE7874B032209
:1036E0000021142014F00CFB0990099B002B2AD018
:1036F000794B1B687949184629F0EFFD764B1B681A
:103700007749184629F0E9FD25F06EFE25F06EFE9A
:10371000714B1868734B00936A23734A734929F0FD
:10372000DCFD6D4B1868099B714A724929F0D5FD83
:10373000099800F07DFB684B1B686F49184629F01B
:10374000CCFD00BEFDE76E4B05220021162014F0D3
:10375000D7FA0990099B002B2AD05F4B1B685F4961
:10376000184629F0BAFD5C4B1B685D49184629F0E4
:10377000B4FD25F039FE25F039FE574B1868594B3A
:1037800000937823584A594929F0A7FD524B1868ED
:10379000099B574A574929F0A0FD099800F048FBBA
:1037A0004D4B1B685449184629F097FD00BEFDE7B4
:1037B0000DF11B0207AB1146184618F095F8099059
:1037C000099B002B2AD0444B1B684449184629F01A
:1037D00084FD414B1B684249184629F07EFD25F0C7
:1037E00003FE25F003FE3C4B18683E4B00938323F9
:1037F0003D4A3E4929F071FD374B1868099B3C4A08
:103800003C4929F06AFD099800F012FB324B1B6815
:103810003949184629F061FD00BEFDE79DF82130C9
:103820008DF810309DF820308DF811309DF81F3044
:103830008DF81230FF238DF81330FE238DF81430ED
:103840009DF81E308DF815309DF81D308DF816301E
:103850009DF81C308DF8173004AB08220021182089
:1038600014F04EFA0990099B002B2CD01A4B1B68C0
:103870001A49184629F031FD174B1B68184918469C
:1038800029F02BFD25F0B0FD25F0B0FD124B186896
:10389000144B00939323144A144929F01EFD0E4B38
:1038A0001868099B124A134929F017FD099800F07E
:1038B000BFFA094B1B681049184629F00EFD00BEDF
:1038C000FDE700BF00E000BF00BF0BB05DF804FBE8
:1038D000A000010024C904001022002030C9040007
:1038E00034C90400ACC904003CC9040064C9040024
:1038F00070C9040074C904008CC90400A0C9040084
:10390000A4C9040000B583B005F04EFF0346012BA7
:103910001ED1114B5B6E03F48023002B0CBF0123DF
:1039200000238DF807300C4B03F580531A464FF4F3
:1039300080235366094B04221A609DF80730002B40
:1039400006D0054B03F500531A464FF48023536607
:1039500000BF03B05DF804FB008000502020015040
:1039600082B006238DF80730002300933CE0224A02
:10397000009B52F823301B7A022B02DC002B03DC65
:103980002FE0032B13D02CE09DF80730022B25D01D
:10399000194A009B52F823301B7A8DF80730164ADB
:1039A000009B52F823301B68144A136016E09DF800
:1039B0000730022B14D09DF80730012B10D00E4A8F
:1039C000009B52F823301B7A8DF807300A4A009B7F
:1039D00052F823301B68094A136001E000BF00E081
:1039E00000BF009B013300930122009B9342BED392
:1039F00000BF00BF02B07047483F002018210020E0
:103A000030B593B0264B09AC1D460FCD0FC495E8D9
:103A1000070084E80700234A07AB92E8030083E825
:103A2000030001AB00221A605A609A60DA601A61E2
:103A30005A6101AB07AA92E8030083E803003E2322
:103A40008DF80C303F238DF80D30174B0493202355
:103A5000059301238DF8193000238DF81A3009AA37
:103A600001A9124B124808F091FE109000238DF826
:103A700047309DF81A3083F00103DBB2002B03D0EE
:103A800003238DF8473000BF9DF8473019464FF4A7
:103A9000612025F0FEFC109B184613B030BD00BF1E
:103AA00024CC040040CC0400B82100204821002090
:103AB0002421002008B5044904480AF023FDFFF73B
:103AC0009FFF00BF08BD00BF4C3F00201C2100200D
:103AD00008B5024829F05AFC00BF08BD2421002087
:103AE00008B5024829F052FC00BF08BD242100207F
:103AF00008B5034825F011FC0346184608BD00BF71
:103B00002421002000B583B003460A468DF8073013
:103B100013468DF806309DF80630002B0AD10E4B67
:103B20001B681B68002B13D00B4B1B68184609F051
:103B30004FF90DE09DF80630022B09D8064B1B68A3
:103B40001B68002B04D0044B1B68184629F0CFFCDF
:103B500000BF03B05DF804FB543F002008B50248E5
:103B600025F083FD00BF08BD48CC040000B58BB034
:103B7000039000230993674A05AB92E8030018609D
:103B800004331980FF238DF82330FF238DF8223072
:103B9000039B1B6823F47F4323F007035E4A934291
:103BA0000CD05D4A934200F2AB805C4A934200F035
:103BB000A0805B4A934200F08C80A1E0039BB3F8A5
:103BC00005309BB21C2B40F09D809DF822309DF863
:103BD000232005A903C925F0F0FB0346012B03D0E0
:103BE00041F2FC13099302E04E4B01221A70039B31
:103BF0001B79099AD2B21C21184614F097F8079045
:103C0000079B002B2AD0484B1B684849184629F0CF
:103C100064FB454B1B684649184629F05EFB25F0BE
:103C2000E3FB25F0E3FB404B1868424B009359231C
:103C3000414A424929F051FB3B4B1868079B404AD7
:103C4000404929F04AFB079800F0F2F8364B1B6810
:103C50003D49184629F041FB00BEFDE73B4B196882
:103C6000039B1B791A46002300931346384A3948B0
:103C700000F036F90790079B002B43D02A4B1B68B6
:103C80002A49184629F029FB274B1B682849184662
:103C900029F023FB25F0A8FB25F0A8FB224B186890
:103CA000244B00936223244A244929F016FB1E4B1F
:103CB0001868079B224A234929F00FFB079800F058
:103CC000B7F8194B1B682049184629F006FB00BEBF
:103CD000FDE7039BB3F805309AB2039BB3F80730B6
:103CE0009BB21946104625F026FB0346174A13607F
:103CF0000BE00C4B1B78002B06D02AF0AEF903E04A
:103D000000BF02E000BF00E000BF00BF0BB05DF8E5
:103D100004FB00BF1CCD0400A0000A02A0000601A5
:103D2000A00006026D3A00201022002060CC0400A2
:103D300064CC040024CD04006CCC0400E0CC04006E
:103D4000ECCC0400F0CC040008CD0400703F00204F
:103D5000593D0100D821002000B587B003900291A1
:103D6000029B0593039B1F4A934237D11E4B1B783E
:103D7000002B33D0059BDBB2184617F0A3FD04904F
:103D8000049B002B2AD0194B1B681949184629F0AF
:103D9000A4FA164B1B681749184629F09EFA25F01D
:103DA00023FB25F023FB114B1868134B009385234D
:103DB000124A134929F091FA0C4B1868049B114AD6
:103DC000114929F08AFA049800F032F8074B1B6871
:103DD0000E49184629F081FA00BEFDE700BF07B082
:103DE0005DF804FBD82100206D3A0020102200204D
:103DF00060CC040064CC040044CD04006CCC04000E
:103E0000E0CC0400ECCC0400F0CC040008CD0400AD
:103E100082B00190019B002B01D1222303E0034AD1
:103E2000019B13600023184602B070471022002047
:103E300000B585B001900F4B1B680F49184629F05B
:103E40004CFA08F049FC03900A4B1B68184608F02E
:103E50002FFC019800F032F8039808F029FC054B7C
:103E60001B680649184629F038FA00BF05B05DF80E
:103E700004FB00BF1022002054CD040058CD0400E4
:103E800008B5094B01221A70084B00221A70084B22
:103E900004221A70074B1F221A7008F01DFC0346FB
:103EA000054A136000BF08BD544100206E3A00204F
:103EB00055410020564100201022002000B583B05B
:103EC0000190054B1B680549184629F006FA00BF0A
:103ED00003B05DF804FB00BF102200205CCD04009D
:103EE0002DE9F04F8DB00590049103920293049B4D
:103EF000002B05D19DF85830002B01D0212391E0F3
:103F0000059800F095F80B900B9B002B01D00B9BB4
:103F100088E0059B002283F82C20059B00229A86CE
:103F2000059B0022DA860AF023FE0246049B934298
:103F300048D937F09BF80A90049B00229846914696
:103F40000A9B00221E46174606FB09F208FB07F3F0
:103F50001344A8FB06452B441D4640F2E73314EBFF
:103F6000030A45F1000B4FF47A724FF000035046FC
:103F700059461EF0E5FD02460B46CDE90823DDE972
:103F800008014FF0FF324FF000031EF0D9FD134639
:103F90000793DDE908014FF0FF324FF000031EF0F8
:103FA000CFFD02460B4692B2059BDA8605980023A8
:103FB000019300230093059B1C4A079937F0A9FE43
:103FC0000B901AE09DF85830002B0BD00598002379
:103FD000019300230093059B144A049937F044F998
:103FE0000B900AE005980023019300230093059BA2
:103FF0000E4A049937F01AFD0B900B9B002B10D141
:10400000059B039A1A62059B029A5A62059B9DF8CA
:10401000582083F82D20059B049A1A63059800F018
:10402000D3F80B9B18460DB0BDE8F08F1541010089
:1040300000B585B00190019B002B01D1222322E025
:10404000019B184636F01CFF019800F0E5F8034686
:104050008DF80F309DF80F30002B13D0019B93F893
:104060002C30002B0ED00A4B1B68002B0AD037F0E7
:104070002EFD0290064B1B68013B054A1360029817
:1040800037F017FD0023184605B05DF804FB00BFAC
:104090001422002000B583B00B4B1B68002B0FD0FF
:1040A00000F0F2F80190019B002B06D0019B1B6AE7
:1040B000019A526A114601989847019B002BEFD153
:1040C00000BF03B05DF804FB1422002082B001237E
:1040D0008DF80730054B1B68002B02D004238DF8A8
:1040E00007309DF80730184602B0704714220020B0
:1040F00082B001238DF80730054B1B68002B02D0DE
:1041000000238DF807309DF80730184602B070473D
:104110001422002000B587B003900291029B059302
:10412000059B93F82C3083F00103DBB2002B42D0C7
:10413000059B9A8E059BDB8E9A4215D2059B9B8E22
:10414000002B0AD105980023019300230093059BBF
:104150001B4A4FF0FF3137F00FFE059B9B8E01335A
:104160009AB2059B9A8626E0059BDB8E002B14D025
:10417000059B93F82D30002B0BD0059B196B059BED
:104180001A6A059B5B6A012000900598FFF7A8FE5C
:1041900003E0059B184636F073FE059B012283F869
:1041A0002C20084B1B68B3F1FF3F04D0054B1B6864
:1041B0000133044A136000BF07B05DF804FB00BF81
:1041C000154101001422002000B585B0019037F0A0
:1041D0007EFC02900F4B1B68002B0ED00D4B1B6812
:1041E000039302E0039B9B6A0393039B9B6A002B50
:1041F000F8D1039B019A9A6202E0064A019B136080
:10420000019B00229A62029837F053FC00BF05B070
:104210005DF804FB1822002000B587B0019037F04C
:1042200056FC039000230593164B1B68049304E08F
:10423000049B0593049B9B6A0493049B002B03D06F
:10424000049A019B9A42F3D1049A019B9A4204D0AA
:10425000039837F02EFC00230FE0059B002B04D0C1
:10426000019B9A6A059B9A6203E0019B9B6A054A3F
:104270001360039837F01DFC0123184607B05DF862
:1042800004FB00BF1822002000B583B037F01FFCEC
:1042900000901A4B1B68019324E0019B93F82C308B
:1042A000002B1CD0019B002283F82C20144B1B6890
:1042B000002B04D0124B1B68013B114A1360019B79
:1042C00093F82D3083F00103DBB2002B02D001986C
:1042D000FFF7A2FF009837F0ECFB019B09E0019B80
:1042E0009B6A0193019B002BD7D1009837F0E1FB2B
:1042F0000023184603B05DF804FB00BF182200201D
:104300001422002000B589B001900E2307930023EA
:104310008DF8183004238DF8193000238DF81430EF
:1043200004238DF8153000238DF8103004238DF808
:104330001130474B1B88ADF80C3000238DF8083046
:1043400000238DF80930019B202B49DC019B002BB9
:1043500077DD019B013B1F2B73D801A252F823F09C
:10436000E9430100FB4301004344010043440100D1
:104370004344010043440100434401000D44010053
:10438000434401004344010043440100434401000D
:1043900043440100434401004344010043440100FD
:1043A00043440100434401004344010043440100ED
:1043B00043440100434401004344010043440100DD
:1043C00043440100434401004344010043440100CD
:1043D0004344010043440100434401001F440100E1
:1043E000019B402B24D02CE006AB00220421184670
:1043F00025F05AFA0023079324E005AB002204219C
:10440000184625F051FA002307931BE004AB002265
:104410000421184625F048FA0023079312E003AB65
:1044200000220421184625F03FFA0023079309E0F3
:1044300002AB00220421184625F036FA0023079328
:1044400000E000BF079B184609B05DF804FB00BF01
:1044500060CD040008B5044828F006FE24F0F1FE03
:1044600000F044F800BF08BD14CF040008B50248AE
:1044700028F0FAFD00BF08BD14CF040000B583B0DA
:1044800002238DF8003000220221074824F0D5FFD6
:10449000034601936B460821184625F014F800BF27
:1044A00003B05DF804FB00BF006A180000B583B0DC
:1044B000054B1B88ADF8043001AB184625F080FA97
:1044C00000BF03B05DF804FB64CD040000B583B009
:1044D000054B1B88ADF8043001AB184625F037FAC0
:1044E00000BF03B05DF804FB64CD040030B58DB0AF
:1044F0004D4B05AC1D460FCD0FC495E8070084E871
:10450000070002238DF8103000238DF81130474B3F
:104510001B88ADF80C30464B1B88ADF80830454B76
:104520001B88ADF80430444828F09EFD434828F02D
:104530009BFD01238DF82230414B079305AB1946B3
:10454000404805F073F904AB01220421184625F018
:10455000ABF903AB00220121184625F0A5F902AB07
:1045600001220421184625F09FF901AB0122042104
:10457000184625F099F9344B4FF00212C3F8302653
:10458000314B324AC3F82C262F4B0222C3F8342673
:104590002D4B1C22C3F81C264FF448700AF036FB42
:1045A000FFF784FF14200AF031FBFFF78FFF232071
:1045B0000AF02CFBFFF77AFFB921224827F087FF8A
:1045C000FFF784FF04AB00220021184625F06CF9A8
:1045D00003AB00220021184625F066F902AB012248
:1045E0000021184625F060F901AB01220021184690
:1045F00025F05AF9134805F09BF9134B0022C3F834
:104600001C26114B0022C3F830260F4B0022C3F8A2
:104610002C260D4B0022C3F83426084828F030FD24
:1046200000BF0DB030BD00BF68CD040084CD0400D4
:1046300088CD040064CD040014CF04001CCF040016
:1046400000127A0000C0055000C0035002000100B3
:1046500000B583B0064A074BD31A9B100193019A09
:104660000549044824F0A2FF00BF03B05DF804FB35
:104670008024010040210100803B002000B585B06E
:1046800000F04AF8FFF7E4FF1F4B039319E0002303
:1046900002930EE0039B1A68029B9B001A44039B43
:1046A0005968029B9B000B4412681A60029B0133FD
:1046B0000293039B9B68029A9A42EBD3039B0C33B1
:1046C0000393039B114A9342E1D3114B019314E0EE
:1046D0000023009309E0019B1A68009B9B00134490
:1046E00000221A60009B01330093019B5B68009AD3
:1046F0009A42F0D3019B08330193019B054A9342F0
:10470000E6D3FDF7A1FF00BFC0150500CC150500DD
:10471000CC150500CC15050008B51E4B1E4A9A6045
:104720001C4BD3F888301B4A43F47003C2F888301E
:104730001A4B03F580531A464FF400439366184B07
:1047400003F500531A464FF0FF331366144B03F57D
:1047500000531A464FF6DF735366124B02221A605B
:10476000BFF34F8F00BFBFF36F8F00BF032007F071
:1047700035FF0B4B03F500531A464FF44033D3601B
:10478000032028F00FFD064B4FF440321A6100BFA2
:1047900008BD00BF00ED00E00020010000800050D7
:1047A00000800044D0ED00E082B00190024A019BFD
:1047B000136000BF02B070477C3F002000B583B09B
:1047C0000190074A019B1360064B1B6F03F0070320
:1047D000032B01D135F00EFC00BF03B05DF804FBE4
:1047E000743F00200080005000B583B00190282362
:1047F0001B68184624F0F2FE034683F00103DBB287
:10480000002B06D0019B00221A70019B00229A60A7
:1048100019E028231B681B680D4A93420DD1019BA8
:1048200001221A7028231B689A68019B5A6028236A
:104830001B689A69019B9A6005E0019B00221A702F
:10484000019B00229A6000BF03B05DF804FB00BF2B
:1048500007B0CD5E00B583B028231B68184624F04E
:10486000BDFE034683F00103DBB2002B02D04FF400
:1048700081731FE028231B681B68104A934202D0F3
:104880004FF4817316E00E4B1B78002B03D00C4BBA
:104890001B78022B0BD128231B68DB6998470190FA
:1048A000019B002B05D1064B01221A7001E0002369
:1048B0000193019B184603B05DF804FB07B0CD5E81
:1048C0006F3A002000B583B0084B0193019B009321
:1048D000009B40F202221A80009B4FF20F025A8086
:1048E00028F04CFC00BF03B05DF804FB0000002082
:1048F000BFF34F8F00BF064BDB6803F4E06204494F
:10490000044B1343CB60BFF34F8F00BF00BFFDE7E5
:1049100000ED00E00400FA0500B58DB00390039BA4
:104920000B930B9B1B680A930A9B1B798DF8143021
:104930000A9B5B798DF81530254828F095FB05AB6F
:1049400000220121184624F0AFFF0DF1130205AB40
:104950001146184625F06DF89DF8133083F00103D9
:10496000DBB21A460A9B1A700A9B9B79022B29D14B
:104970004FF0FF3307934FF0FF33069307A905A8C5
:104980000B9B0093134B002200F0F6F90990079B54
:10499000B3F1FF3F09D106A905A80B9B00930D4B6E
:1049A000042200F003F909900CE001238DF8233074
:1049B0009DF8232006A905A80B9B0093054B00F04A
:1049C000F5F80990002318460DB05DF804FB00BF10
:1049D00014CF04009996030000B585B0002301931D
:1049E0000023ADF80E300023ADF80C303B4828F022
:1049F0003BFB00238DF8003003238DF801306B461C
:104A000001220421184624F04FFF012005F0ACF8E4
:104A100001AB1946052037F08EF80290029B002B5F
:104A200001D0029B56E02E4B1B682D4A43F0010338
:104A300013602B4BDB682A4A43F08073D360012359
:104A4000ADF80E300F23ADF80C30BDF80E305A0221
:104A5000BDF80C305B001A432249234B13430B6013
:104A6000019B03F5D52303F2FC43DB081F4AA2FB9D
:104A700003239B0A1E4A013B13611D4B0222C3F80C
:104A8000F0201B4B4FF48072C3F804234FF06043B7
:104A9000184AC3F8B02F4FF06043174AC3F8802E6E
:104AA0004FF06043D3F8003E4FF0604243F4807310
:104AB000C2F8003E4FF06043FF2283F820204FF001
:104AC0006043D3F8003E4FF0604223F48073C2F895
:104AD000003E0023184605B05DF804FB14CF040027
:104AE000F0ED00E0001000E0E101004017916502E8
:104AF000000004E055CEACC50900010082B0019071
:104B00000B468DF803304FF06043D3F8803E03F03E
:104B10000103002B22D0134BDB68124A43F0807351
:104B2000D3604FF06043D3F8002E0121019B01FABE
:104B300003F34FF060411343C1F8003E4FF0604271
:104B4000019B52F82330002BE5D04FF06041019BD0
:104B50009DF8032001F82320002300E011231846CC
:104B600002B07047F0ED00E008B50F4828F07CFA7D
:104B7000192007F015FD0346002B05D0192007F07A
:104B80002DFD192028F00EFB1A2007F009FD034621
:104B9000002B05D01A2007F021FD1A2028F002FB77
:104BA0000023184608BD00BF14CF040000B587B02D
:104BB00003900291009313468DF80730039B002B5E
:104BC00002D0029B002B01D1222390E0039B1B7893
:104BD000002B13D0039B1B78012B0DD0039B1B785C
:104BE000022B07D0039B1B78032B01D10F2307E077
:104BF000002305E0FF2303E01F2301E040F2FF1341
:104C0000039A5278D34003F00103002B05D1039B94
:104C10001B78FF2B01D0212369E09DF80730002B82
:104C20000DD09DF80730012B09D09DF80730022BDD
:104C300005D09DF80730042B01D0212357E036F032
:104C400046FF0590039B1B78FF2B0AD0029B1B6835
:104C50009DF807201946039805F092F80246029B3A
:104C60001A60029B1B68B3F1FF3F0FD1039B1B78B7
:104C7000FF2B0BD104F03AFF0490039B5B7804995F
:104C8000184627F041FC0246029B1A60029B1B68F3
:104C9000B3F1FF3F22D0029B1A68174913465B000D
:104CA00013449B000B440433009A1A60029B1A6859
:104CB000114913465B0013449B000B440833089AC8
:104CC0001A60039B1B78FF2B0DD0029B1B680122EF
:104CD00002FA03F3184604F0DFFE04E0059836F00C
:104CE000E8FE2D2303E0059836F0E3FE0023184686
:104CF00007B05DF804FB00BF1C22002000B585B0A2
:104D00000190019BB3F1FF3F05D0019B0F2B02DC0B
:104D1000019B002B01DA212328E036F0D8FE039016
:104D20000122019B02FA03F3184604F0D1FE01228E
:104D3000019B02FA03F3184604F0BCFE0D49019AE8
:104D400013465B0013449B000B44043300221A609B
:104D50000849019A13465B0013449B000B44083337
:104D600000221A60039836F0A4FE0023184605B00E
:104D70005DF804FB1C22002000B587B0039002916F
:104D8000009313468DF80730039B002B02D0029B43
:104D9000002B01D122236AE0039B1B78002B13D048
:104DA000039B1B78012B0DD0039B1B78022B07D094
:104DB000039B1B78032B01D10F2307E0002305E0A1
:104DC000FF2303E01F2301E040F2FF13039A527810
:104DD000D34003F00103002B05D1039B1B78FF2B6D
:104DE00001D0212343E036F072FE0590039B1B782F
:104DF000FF2B0AD0029B1B689DF8072019460398D9
:104E000027F026FC0246029B1A60029B1B68B3F146
:104E1000FF3F23D0029B1A68174913465B001344D7
:104E20009B000B44B833009A1A60029B1A6812491F
:104E300013465B0013449B000B44BC33089A1A6072
:104E4000039B1B78FF2B0ED0029B1B6810330122A3
:104E500002FA03F3184604F01FFE04E0059836F04A
:104E600028FE2D2303E0059836F023FE0023184684
:104E700007B05DF804FB00BF1C22002000B587B01E
:104E8000019034E0019824F0F8FC05900122059B84
:104E900002FA03F3DB43019A13400193059B0F2BA6
:104EA00008D8059A13465B0013449B00144A134428
:104EB00004930EE0059BA3F1100213465B0013441C
:104EC0009B00B0330E4A134404330493059B103BFC
:104ED0000593049B5B68002B09D0049B5B680393DC
:104EE000059BDAB2049B9968039B10469847019B87
:104EF000002BC7D100BF00BF07B05DF804FB00BFA7
:104F00001C22002000B585B001900091204B1B7839
:104F100083F00103DBB2002B01D01E4B34E0019B78
:104F2000002B01D11C4B2FE036F0D1FD0290002365
:104F3000039322E0194A039B1B0113440C331B7893
:104F400083F00103DBB2002B14D0019B039A1A609B
:104F5000124A039B1B0113440C3301221A700F4A9F
:104F6000039B1B01134400221A60029836F0A1FD36
:104F7000002309E0039B01330393039B072BD9D93B
:104F8000029836F096FD064B184605B05DF804FB16
:104F9000703A0020028000F0018000F0842300209D
:104FA000048000F000B585B000238DF80B3036F09A
:104FB0008EFD0190002303930EE0154A039B1B0115
:104FC00013440C331B78002B03D001238DF80B30D6
:104FD00005E0039B01330393039B072BEDDD9DF855
:104FE0000B3083F00103DBB2002B09D004F0CAF9C7
:104FF000084B00221A70019836F05BFD002303E095
:10500000019836F056FD044B184605B05DF804FBD8
:1050100084230020703A0020058000F000B585B0A0
:105020000190164B1B7883F00103DBB2002B01D0FB
:10503000134B1FE0019B072B01D9124B1AE036F0EE
:1050400046FD0390104A019B1B0113440C331B784F
:10505000002B0BD00C4A019B1B0113440C33002284
:105060001A70039836F025FD002303E0039836F00C
:1050700020FD064B184605B05DF804FB703A002091
:10508000028000F0018000F084230020068000F000
:1050900000B585B0194B1B68019300238DF80430CF
:1050A00036F015FD0290164B1B78002B04D00298A9
:1050B00036F0FFFC134B1DE0114B01221A700298D1
:1050C00036F0F7FC0023039309E00F4A039B1B0112
:1050D00013440C3300221A70039B01330393039B88
:1050E000072BF2DD08238DF8073001AB184604F0DA
:1050F00079F90023184605B05DF804FBDCCD040007
:10510000703A0020038000F08423002000B587B0AF
:105110000390029101920093174B1B7883F00103D7
:10512000DBB2002B01D0154B21E0039B072B01DDE7
:10513000134B1CE0039B1B01124A13440593059B70
:105140001B7B83F00103DBB2002B01D00E4B0EE082
:10515000059B009A1A60059B089A5A60059B0022DD
:105160009A60019A0299039804F080F90023184686
:1051700007B05DF804FB00BF703A0020028000F029
:10518000018000F084230020078000F000B583B088
:105190000190124B1B7883F00103DBB2002B01D08E
:1051A0000F4B17E0019B072B01D90E4B12E00E4A63
:1051B000019B1B0113440C331B7883F00103DBB20A
:1051C000002B01D0094B05E0019B0021184604F09B
:1051D000F3F80023184603B05DF804FB703A002092
:1051E000028000F0018000F084230020078000F09E
:1051F00000B583B00190124B1B7883F00103DBB242
:10520000002B01D00F4B17E0019B072B01D90E4B50
:1052100012E00E4A019B1B0113440C331B7883F0F0
:105220000103DBB2002B01D0094B05E0019B0121FA
:10523000184604F0C1F80023184603B05DF804FBDB
:10524000703A0020028000F0018000F084230020EA
:10525000078000F000B587B0364B1B6D0393354BCC
:105260005B6D039A13400393039B002B01DA00BF8D
:10527000FDE7002305930123049353E0039A049B65
:105280001340002B48D02B4B03F500531A46049BC8
:105290001365059B1B01284A13440293029B1B685C
:1052A000002B39D0029B9B685A1C029B9A60029B80
:1052B0001B68029A9168029A5268059898470346BB
:1052C000002B14BF01230023DBB283F00103DBB208
:1052D0008DF807309DF8073003F001038DF8073093
:1052E000029B5B7B012B17D19DF80730002B13D05D
:1052F000124A059B5B01134403F1080213796FF313
:10530000410313710D4A059B5B01134403F118021D
:1053100013796FF341031371059B01330593049BCC
:105320005B000493059B072BA8D900BF00BF07B003
:105330005DF804FB000004508423002004240020B6
:1053400010B58AB00292019303468DF80F300B46D8
:105350008DF80E307B4B1B7883F00103DBB2002B02
:1053600001D0794BEBE0029B072B10D80C9B002B54
:105370000DD00D9B002B0AD0109BB3F5006F06DCFF
:105380009DF80F30012B04D10E9B002B01D16F4BE8
:10539000D5E0029B1B016E4A13440993099B1B7BBA
:1053A00083F00103DBB2002B01D06A4BC7E004ABF2
:1053B00000221A605A609A60DA60029B5B01664ABA
:1053C000134408939DF80E30002B1DD1089B1A46FC
:1053D0000023136053609360D360089A937843F07E
:1053E00010039370089AD37843F03003D3709DF87C
:1053F0003C3083F00103DBB2002B22D0089AD37833
:1054000043F00303D3701CE0089B1A46002313608B
:1054100053609360D360089A937843F010039370BD
:10542000089AD37843F00303D3709DF83C3083F09F
:105430000103DBB2002B04D0089AD37843F0300389
:10544000D370019B0493109B9BB2013B9BB2C3F3AF
:105450000A0399B2089A138861F30E1313800C9A09
:10546000089B9A600D9A089B5A609DF8443003F09F
:105470000303D9B2089AD37861F38303D3709DF8FC
:105480000F30012B3BD1089A137B43F001031373B8
:10549000089A137B43F002031373089AD36804211C
:1054A00061F39F03D3602C4A029B5B01134403F119
:1054B0001002089B14460FCB84E80F00264A029B7B
:1054C0005B01134403F1180253686FF0030161F3A9
:1054D0009F0353600E9A2049029B5B010B441433D7
:1054E0001A609DF80E30012B09D10D9A1A49029BC2
:1054F0005B010B4418331A600E9A089B5A60129B8A
:10550000002B08D19DF80F30002B04D1089A937816
:105510006FF304139370099B129A1A60099B139AF4
:105520005A60099B00229A60099B9DF80F205A73CC
:10553000029B04A9089A184603F098FF0023184616
:105540000AB010BD703A0020028000F0018000F027
:1055500084230020078000F00424002000B593B0CD
:105560000790069111461A460B468DF817301346E0
:105570008DF8163000230893069B1B69194607987F
:1055800024F07FFB034683F00103DBB2002B01D044
:105590001C23B6E0079BDB6A109310995B4801F06F
:1055A0001FFC08AB02939DF8163001939DF817304D
:1055B0000093109B554A0699079824F080FD0F90A0
:1055C0000F9B002B04D1514B9A68079BDA627CE059
:1055D0001099079824F0ACFB0E900E99079824F0D0
:1055E00099FB0346184626F0F6FB0D90079BDB6AF5
:1055F0001946079824F06DFC0C90079B9B6A0C9A47
:105600009A4261D0079B0C9ADA62404B9B6819461C
:10561000079824F043FC0246079B1B6B9A1A079BD2
:105620001A63109A0D9BD31A0B93089B194607987F
:1056300024F07EFB0A900A9A0E9B9A4221D10B9B82
:10564000002B1ED0079BDB6B9B69079AD06A0B9AD5
:1056500092080D9998471190079BDB6A0B991846A1
:1056600024F04FFB0246079BDA62079B1A6B0B9BE9
:10567000D21A079B1A63079B0833184601F094FA65
:1056800001E0002311930A99079824F043FB099045
:10569000079BDB6B0999184626F0A4FA079825F0BA
:1056A00099F8079824F031FC0246079B1A63119B76
:1056B000002B0AD0069B1B691946079824F0E1FAD3
:1056C0000346002B84D100E000BF0F9B002B09D0C4
:1056D000069B1B691946079824F0D3FA0346002B52
:1056E0007FF458AF0F9B002B0AD1079B03F10800F2
:1056F000069B1968054B5A689DF8163001F0D6FADA
:105700000F9B184613B05DF804FB00BFA82B0020C8
:1057100000B587B00390029101920093039B5B69EF
:10572000009A9A4201D9622332E0039825F021FBC6
:105730009DF82030032B06D00099039824F0B4FA8A
:105740000346002B01D0012300E000238DF8173021
:105750009DF8173083F00103DBB2002B01D01C232E
:1057600016E04FF0FF310C4801F03AFB0A4A029B69
:105770001360094A009B1361074A019BD3609DF89F
:105780002030002204490398FFF7E8FE0490049BB0
:10579000184607B05DF804FB7C2B002010B594B0D0
:1057A0000590049103928DF80B3000238DF84F3053
:1057B000059BDB6B5B69039A50680CA90122984733
:1057C000059BDB6B5B690BA90122049898470CAB26
:1057D000184626F0BBF80346002B0BD0039B002293
:1057E0009A75039B00225A75039B4FF0FF329A6013
:1057F0000023DFE10BAB184626F0D1F81190039B94
:1058000001229A75039B1B7E039A0333DB0013442A
:10581000049A5A60039B1B7E039A0333DB001344F4
:1058200000221A81039B5B68049A9A420FD1039B62
:10583000119A1A600BAB184626F0F6F803461A4682
:10584000039B1A75039B4FF0FF329A6033E0039B72
:105850001B68119A9A4202D0039B00229A750BABE7
:10586000184626F0E1F803461A46039B1B7D9A4230
:1058700002D0039B00229A750BAB184626F099F8CC
:1058800003461C460CAB184626F093F803469C4290
:1058900002D0039B00229A750BAB184626F094F8B1
:1058A00004460CAB184626F08FF803469C4202D003
:1058B000039B00229A75039B1B7D042B07D0039B3F
:1058C0001B7D052B03D0039B1B7D062B04D1039B63
:1058D00000229A7500236DE10BAB184626F069F89B
:1058E0000346002B0CD0059BDB6B5B6909A90222E8
:1058F0000498984709AB184626F075F8129004E012
:105900000BAB184626F06FF81290039B1B7D032B00
:1059100029D801A252F823F0515901003B59010046
:10592000295901007D590100039B1B7E039A033313
:10593000DB001344CC221A8121E0039B1B7E129AC8
:1059400091B2039A0333DB0013440A461A8116E02E
:10595000039B1B7E129A91B2039A0333DB0013441C
:105960000A461A810BE0039B1B7E129A91B2039A9E
:105970000333DB0013440A461A8100E000BF039B97
:105980001B7D184601F05AFA03461A46169B1A70F8
:10599000039B1B7E1C460BAB184625F0E4FF034619
:1059A0001946039AE31CDB0013440A469A72039BD0
:1059B0001B7E039A0333DB0013441B891293039B62
:1059C0001B7E039A0333DB0013449B7A8DF843302C
:1059D0000BAB184625F0EDFF03468DF842300BABBC
:1059E000184625F0F1FF0F909DF84230002B0FD0A4
:1059F000059BDB6B5B6907A902220498984707ABFC
:105A0000184625F076FF03461A46039B5A7507E0B1
:105A10000BAB184625F048FF03461A46039B5A7500
:105A2000039B5B7D83F00103DBB2002B02D0039B61
:105A300000229A75039B9B7D002B21D0129B002B8B
:105A40001ED00F99049824F05CF90E90049A0E99D8
:105A5000059824F07DF9034683F00103DBB2002BA7
:105A600002D0039B00229A750E99059824F016FA2D
:105A70000D90129A0D9B9A4202D9039B00229A75AF
:105A8000039B9B7D002B30D09DF84330002B07D12A
:105A9000039BDB7D002B28D001238DF84F3024E0C1
:105AA000039B0122DA75039B5B7E83F00103DBB26B
:105AB000002B0BD09DF84330012B03D1039B012217
:105AC0005A7612E001238DF84F300EE09DF84330F6
:105AD000012B03D101238DF84F3006E09DF84330B0
:105AE000032B02D1039B01229A76039B9B7D002B03
:105AF0001BD09DF84F3083F00103DBB2002B0BD19C
:105B00009DF84F30002B10D09DF84330012B0CD066
:105B10009DF84330002B08D0129B0F9A04990598EA
:105B200024F0A0FA0246039B9A60039B9B7D002B06
:105B300005D0039B1A69129B1A44039B1A61039BAD
:105B40001A7E1E4B1B789A4206D2039B1B7E0133A2
:105B5000DAB2039B1A7602E0039B00229A759DF845
:105B60000B30002B24D0039B9B7D002B20D0039B6C
:105B7000DB7D002B1CD09DF84F3083F00103DBB29E
:105B8000002B15D09DF84330032B11D0039B9B684D
:105B9000B3F1FF3F0CD0039B9968169B0093012340
:105BA000039A0598FFF7FAFD03461A46039B9A7578
:105BB000039B9B7D184614B010BD00BFFCCD0400B4
:105BC00000B593B003900291019200934FF0FF3320
:105BD000109300238DF83F3000238DF83E300023D2
:105BE0008DF817304FF0FF31019801F0F9F8029865
:105BF00024F010FA0346002B08D0039B08330DF164
:105C000016020299184601F019F81090109BB3F192
:105C1000FF3F18D01099019801F0E2F80DF1170339
:105C200001220199039824F049FD03468DF83D3087
:105C30009DF83D30002B06D001238DF83F309DF8B4
:105C40001720009B1A70029824F0D8F90346002B05
:105C50000CD19DF83F3083F00103DBB2002B00F044
:105C6000BB80039B1B7C002B00F0B680039BDB6A90
:105C7000B3F1FF3F07D1039B5B6A1946039824F0F9
:105C8000D6F8119006E0039BDB6A1946039824F0CE
:105C90004FF81190029824F0B1F90346002B14BF7D
:105CA00001230023DBB283F00103DBB28DF83C302B
:105CB0009DF83C3003F001038DF83C30039B5B6A98
:105CC000119A9A4202D101238DF83E30119903981E
:105CD00024F020F80E90039BDB6B5B6906A905227C
:105CE0000E98984706AB184626F008F803468DF83C
:105CF00037309DF83730184626F043F80E9826F0D6
:105D00006AF80C900C9B109333E01099394801F01D
:105D100067F80DF117039DF83C203649039824F0ED
:105D2000CDFC03468DF83D309DF83D30002B1DD055
:105D30009DF83C3083F00103DBB2002B08D19DF8C5
:105D40003C30002B12D02B4B1B68029A9A420DD18B
:105D500001238DF83F309DF81720009B1A70264BC9
:105D60001B681A462349019832F0AEF8214B9B6814
:105D70001093109BB3F1FF3F07D00C9A1099039832
:105D800023F0E6FF0346002BBFD11199039824F0BE
:105D90004EF811909DF83E3083F00103DBB2002BEA
:105DA00006D09DF83F3083F00103DBB2002B85D194
:105DB0009DF83F30002B0FD0029824F02BF90346BA
:105DC000002B09D0039B03F10800019B5A68009B3C
:105DD0001B78029900F06AFF9DF83F30002B01D03C
:105DE000002300E02D230B930B9B184613B05DF8A6
:105DF00004FB00BFA82B002000CE040000B587B034
:105E00000190019B4FF0FF32DA620DF10B032A4A39
:105E10006FF001010198FFF7D3FE0490049B002B63
:105E200004D1254B9A68019BDA6203E0019B9A6AD0
:105E3000019BDA62019BDB6A0593019BDB6A1946D1
:105E4000019824F0B1F80246019B1A63019B1B6B79
:105E5000002B08D1019BDB6A1946019824F039F820
:105E60000246019BDA620599019824F032F8059008
:105E700018E00599019824F097F80390019B1A6B9C
:105E8000039B1A44019B1A630599019824F021F899
:105E90000590039B002B05D1019B00221A63019BF7
:105EA000059ADA62019B9B6A059A9A42E1D100BF8A
:105EB00000BF07B05DF804FB7C2B002010B586B056
:105EC0000390019200930B468DF80B30039B9B6A65
:105ED000059346E00599294800F082FF0DF1110372
:105EE00001222649039824F0E9FB03468DF813307C
:105EF0009DF81330002B10D09DF81120019C009BC1
:105F00001E490398A04703468DF812309DF81230C1
:105F100083F00103DBB2002B2DD1184B9B68B3F14A
:105F2000FF3F03D0154B9B68059306E0134B5B685E
:105F30001946039823F0CDFF05909DF80B30012BF7
:105F40000FD10E4B5B681A460599039823F000FFAA
:105F5000034683F00103DBB2002B02D04FF0FF3386
:105F60000593039BDB6A059A9A4205D0059BB3F122
:105F7000FF3FAFD100E000BF06B010BDD42B002022
:105F800010B588B003900291009313468DF8073046
:105F90000A9B0793079B1B6806939DF80730032B0A
:105FA00079D0079B18680DF11303404A0299FFF757
:105FB00007FE0246079B5A60079B5B68002B6AD16D
:105FC000079B1868394B5968079B1B689B6A1A46E0
:105FD00023F0BEFE0346002B5DD0079B1B7A012BEE
:105FE0000CD1324B1A69079BDB681A44069B5B692C
:105FF0009A4203D9079B00221A744CE0079B1A6847
:10600000079B1B689B6A1946104623F091FE0446C5
:10601000079B1A68079B1B68DB6A1946104623F02A
:1060200087FE03469C421CD1069B5C6C069BDB6A88
:106030001946069823F042FF0346E31A0593069B90
:106040001A6B059BD21A069B1A63079B1A68079B5B
:106050001B68996A079B1C68104623F03AFF0346A9
:10606000E362079BDA68114B1B69134403F10802D2
:10607000079BDA60079B18689DF8073001220B49DF
:10608000FFF76CFA0246079B5A60079B5B68002B80
:1060900001D0002307E0079B1B7A012B02D1079B4D
:1060A0001B7C00E00123184608B010BD7C2B0020AB
:1060B00000B587B003900291009313468DF8073026
:1060C000009B05939DF80730032B42D0029B196873
:1060D0000DF11303254A0398FFF772FD0246059B55
:1060E0005A60059B5B68002B33D19DF81330032B5E
:1060F0002FD01E4B5A68029B5B689A4229D1059BA0
:106100001B7A012B0CD1029B1A69059BDB681A4490
:10611000039B5B699A4203D9059B00221A7418E01D
:10612000059BDA68029B1B69134403F10802059B77
:10613000DA609DF80730012202990398FFF70EFA02
:106140000246059B5A60059B5B68002B01D000232B
:1061500007E0059B1B7A012B02D1059B1B7C00E00D
:106160000123184607B05DF804FB00BF7C2B00201C
:1061700000B58FB001900B468DF80330019B5B6A30
:106180001946019823F0C6FD0D90019BDB6B5B69FE
:1061900007A905220D98984707AB184625F0AEFDD4
:1061A00003468DF833309DF83330012B01D10023A5
:1061B0004FE0019B0293002303939DF803308DF879
:1061C00010300023059301238DF81830019B9A6A43
:1061D000019BDB6A9A4212D1019B9B6A1946019886
:1061E00023F077FE0246019BDA62019B1A6B019B4A
:1061F0005B6CD31A03F11402019B1A6314E0019B38
:106200001B7C83F00103DBB2002B07D0019B08331A
:1062100002AA1249184600F093FD05E002AB104AAD
:1062200001210198FFF74AFE039B002B10D19DF836
:106230001830002B0CD0019B5B6A1946019823F0A3
:1062400069FD0D90019BDB6B0D99184625F0E6FC6E
:10625000039B18460FB05DF804FB00BF815F01008F
:10626000B160010000B585B00190019B1B7C83F0FB
:106270000103DBB2002B07D0019B0833019A2049B0
:10628000184600F05DFD05E000231E4A012101983B
:10629000FFF714FE019B5B6A1946019824F0A7FBE7
:1062A0000390039B01330393019B5B6A039A194696
:1062B000019824F0FFFB0290029B002B08D1019B68
:1062C0001A6B019B5B6C1344A3F11402019B1A63CC
:1062D000019B9B6A1946019823F0FBFD0246019B36
:1062E0009A62019B9B6A1946019823F021FD0246A0
:1062F000019B5A62029B184605B05DF804FB00BF83
:10630000EBAA03002DAB030000B583B00190019B05
:106310000833184600F048FC0023044A0021019885
:10632000FFF7CCFD00BF03B05DF804FB49B20300EA
:1063300010B586B001900091644B1B680493634BC9
:1063400000221A60019B002B01D1212319E1019B3E
:1063500093F83430002B2BD0009B1A68019B1B68EC
:106360009A4223D1009B5A68019B5B689A421DD1D7
:10637000009B9A68019B9B689A4217D1009BDA6840
:10638000019BDB689A4211D1009B1A69019B5B69F2
:106390009A420BD1009B9A69019BDB6B9A4205D113
:1063A000009B5A69019B9A610023EAE05D23E8E0C3
:1063B000019B9B6B039350220021019831F079FDE2
:1063C000019B039A9A63009B1A68019B1A60009BC9
:1063D0005A68019B5A60009B1A69019B5A61009B95
:1063E0005A69019B9A61019B03F10800009B99681F
:1063F000009BDB681A4600F0C5FB009B9A69019B75
:10640000DA63009B9B699B68019A4032104698476B
:106410000590059B002B0CD1019B5B6C002B08D0D9
:10642000019B5A68019B5B6CB2FBF3F2019BDA6142
:1064300002E0019B0022DA61019B93F84330002BBC
:1064400001D121239DE0019B5B6C002B03D0019BBC
:10645000DB69002B01D15B2393E0019B1B681A468B
:10646000019B5B6CB2FBF3F101FB03F3D31A002B2E
:1064700001D0592385E0019B5B68019A526CB3FB04
:10648000F2F101FB02F29B1A002B01D0592378E0B4
:10649000019B5C68019823F0E4FB03469C4201D217
:1064A0005A236EE0019B5B69B3F5805F01D95F23DE
:1064B00067E0019B5B69CB2B01D85F2361E0019B07
:1064C0005B6CB3F5007F03D25B235AE00425002008
:1064D0000321019824F089FF019BDB6B1B68019A63
:1064E0001068019A5268114698470590019BDB6B32
:1064F000DB6802209847059B002B0CD1049901987A
:1065000024F0BAFE0590059B642B04D104990198F0
:1065100024F0B2FE0590019B5B6C143B0293059B3B
:10652000002B0CD1019B1B6A029A02FB03F4019819
:1065300023F097FB03469C4201D25A230593059B07
:10654000002B0CBF01230023DAB2019B83F8342017
:10655000019B93F83430002B04D00B4B1B680133A4
:10656000094A1360059B002B07D1019B1A68019B08
:106570005B681946104625F0AAF8019824F048FFF8
:10658000059B184606B010BD0825002000B589B04F
:10659000059004910392029301238DF81B30059B13
:1065A000002B01D121234FE0059B93F8343083F079
:1065B0000103DBB2002B01D0112345E0049823F046
:1065C00029FD034683F00103DBB2002B01D0292310
:1065D0003AE00221059824F008FF0DF11A031C4A45
:1065E00004990598FFF7ECFA0790079B002B1AD146
:1065F0009DF81A30012B16D1154B1B69029A9A424D
:1066000011D101230193124B0093029B00220399A5
:10661000059823F060FF0790079B002B14BF012310
:1066200000238DF81B309DF81B30002B08D0012370
:106630000093029B039A04990598FFF769F8079065
:10664000059824F0E5FE079B184609B05DF804FBA9
:10665000502B002000B589B005900491039202935D
:10666000059B002B01D1212348E0059B93F8343092
:1066700083F00103DBB2002B01D011233EE004982C
:1066800023F0C8FC034683F00103DBB2002B01D0EA
:10669000292333E00121059824F0A7FE0DF11B0307
:1066A000184A04990598FFF78BFA0790079B002B6F
:1066B00020D19DF81B30012B13D1124B1B69029A7C
:1066C0009A420BD1002301930E4B0093029B0022B0
:1066D0000399059823F0FFFE07900BE063230793CF
:1066E00008E09DF81B30022B02D16023079301E0E4
:1066F0002D230793059824F08BFE079B184609B0BD
:106700005DF804FB502B002000B589B00590049182
:1067100003920293059B002B01D121234AE0059BA4
:1067200093F8343083F00103DBB2002B01D0112346
:1067300040E0049823F06EFC034683F00103DBB2D3
:10674000002B01D0292335E00121059824F04DFECE
:106750000DF11B03194A04990598FFF731FA0790C8
:10676000079B002B22D19DF81B30012B15D1134B19
:106770001A6902990A9B0B449A420BD30023019396
:106780000E4B00930A9B029A0399059823F0A3FEEF
:1067900007900BE06323079308E09DF81B30022B62
:1067A00002D16023079301E02D230793059824F07D
:1067B0002FFE079B184609B05DF804FB502B002004
:1067C00000B587B00390029101920093009B0022D4
:1067D0001A60039B002B01D1212340E0039B93F817
:1067E000343083F00103DBB2002B01D0112336E0FB
:1067F000029823F00FFC034683F00103DBB2002B69
:1068000001D029232BE00121039824F0EEFD0DF1A6
:106810001303154A02990398FFF7D2F90590059BD7
:10682000002B16D19DF81330032B12D09DF8133096
:10683000022B06D1019B01221A60009B04221A60E0
:1068400009E0019B00221A60074B1A69009B1A603D
:1068500001E02D230593039824F0DAFD059B1846EB
:1068600007B05DF804FB00BF502B002000B589B0D5
:1068700003900291009313468DF80730009B079315
:106880009DF80730032B0CBF01230023DBB21A460F
:10689000079B1B7E9A4242D1029B1A68079B1B688A
:1068A0009A423CD3029B1A68079B5B689A4236D88F
:1068B000029B19680DF117031B4A0398FFF780F933
:1068C0000690069B002B2AD1174B5A68029B5B68E7
:1068D0009A4224D19DF81730032B0CBF01230023CB
:1068E000DBB21A46079B1B7E9A4218D1079B5B6955
:1068F0005A1C079B5A61079B1A69079BDB689A42DF
:106900000DD2079B9A68079B1B699B001344029A50
:1069100012681A60079B1B695A1C079B1A610123A6
:10692000184609B05DF804FB7C2B002000B58DB043
:10693000039002910192009300230B93039B002B81
:1069400001D100233DE0039B93F8343083F0010331
:10695000DBB2002B01D0002333E00121039824F0A7
:1069600044FD009B04930E9B0593029B0693019BA1
:10697000079300230893002309939DF83C308DF87A
:106980002830039B1B7C83F00103DBB2002B07D074
:10699000039B083304AA0D49184600F0D1F905E01D
:1069A00004AB0B4A00210398FFF788FA019B002BE8
:1069B00001D1099B00E0089B0B93039824F028FD6C
:1069C0000B9B18460DB05DF804FB00BF2DB403000F
:1069D0006D68010000B587B003900291039B002B06
:1069E00001D1212337E0039B93F8343083F0010376
:1069F000DBB2002B01D011232DE0029823F00AFB1B
:106A0000034683F00103DBB2002B01D0292322E0EF
:106A10000221039824F0E9FC0DF11303104A0299B6
:106A20000398FFF7CDF80590059B002B0DD19DF83D
:106A30001330032B09D00323009300230022029973
:106A40000398FEF765FE059001E02D23059303985A
:106A500024F0DEFC059B184607B05DF804FB00BF80
:106A6000502B002084B001900091019B1A68009B7C
:106A7000DB0013441B680393039BC3F31303184603
:106A800004B0704784B001900091019B1A68009B8C
:106A9000DB0013441B680393039B1B0DDBB21846FA
:106AA00004B0704782B001900091019B1A68009B6E
:106AB000DB0013445B68184602B0704786B0039051
:106AC00002910192039B1A68029BDB0013441B682E
:106AD0000593059B1B0D1B050593059A019B13430D
:106AE0000593039B1A68029BDB001344059A1A6006
:106AF00000BF06B0704700BF86B0039002911346F6
:106B00008DF80730039B1A68029BDB0013441B6857
:106B10000593059BC3F3130305939DF807301B05ED
:106B2000059A13430593039B1A68029BDB001344E9
:106B3000059A1A6000BF06B0704700BF84B003908A
:106B400002910192039B1A68029BDB001344019A95
:106B50005A6000BF04B0704782B001900091019B61
:106B60001A68009BDB0013444FF0FF321A60019B50
:106B70001A68009BDB0013444FF0FF325A6000BFDD
:106B800002B0704700B585B0039002910192039B5B
:106B9000029A1A60039B019A5A60039800F004F865
:106BA00000BF05B05DF804FB00B585B0019000237F
:106BB000039306E003990198FFF7CEFF039B01338F
:106BC0000393019B5B68039A9A42F3D3019B0022D3
:106BD0001A7200BF05B05DF804FB00BF00B585B0B8
:106BE0000190009100238DF80B30002303931BE0EC
:106BF000019B1A68039BDB0013441B68B3F1FF3F42
:106C00000FD003990198FFF72DFF0246009B934296
:106C100007D103990198FFF79FFF01238DF80B30EF
:106C200008E0039B01330393019B5B68039A9A423C
:106C3000DED300BF00BF05B05DF804FB00B587B030
:106C40000390029101924FF0FF33059300230493C8
:106C500021E0039B1A68049BDB0013441B68B3F11B
:106C6000FF3F15D004990398FFF7FCFE0246029BF4
:106C700093420DD104990398FFF704FF03461A4687
:106C8000019B1A7004990398FFF70CFF059007E029
:106C9000049B01330493039B5B68049A9A42D8D304
:106CA000059B184607B05DF804FB00BF2DE9F843CB
:106CB0000546406800283ED00F469146984600247D
:106CC0002B6853F83460013606D021462846FFF77A
:106CD000C9FEB84213D068680134A042F0D850B35E
:106CE00000242A6802E00134A04214D052F8343063
:106CF0000133F8D13A4621462846FFF7DFFE4246E7
:106D000021462846FFF7F8FE4A4621462846BDE8B8
:106D1000F843FFF713BFB8F1030F0CD0002403E0D2
:106D20006B680134A34206D921462846FFF7AAFE24
:106D30000328F5D1DEE701232B72BDE8F88300BFFD
:106D40002DE9F0439046426883B00AB305460F46EA
:106D500000242B6853F83430013316D021462846DE
:106D6000FFF780FE214681462846FFF78BFE21462D
:106D700006462846FFF796FE494603463246284611
:106D8000CDF80080B84718B16A6801349442E0D366
:106D900003B0BDE8F08300BF08B5054B1B68054A8A
:106DA000126811461846FFF7C3FA0346184608BD95
:106DB000843F0020A43F002008B534F06EFE034657
:106DC000014A136000BF08BD4C2B002008B5034BDF
:106DD0001B68184634F054FE00BF08BD4C2B002041
:106DE00000B583B001900091134B1B681A46002137
:106DF000019831F05EF8019B4FF0FF321A60019B61
:106E0000009A5A60019B00229A75019B00221A6128
:106E1000019B4FF0FF329A60019B0022DA75019BC3
:106E200000225A76019B00229A76019B00221A7654
:106E300000BF03B05DF804FB00CE040084B003463D
:106E40008DF807309DF80730062B25D801A252F89F
:106E500023F000BF816E0100796E0100716E0100A8
:106E6000916E0100896E0100896E0100896E01003A
:106E700002238DF80F3013E002238DF80F300FE05E
:106E800001238DF80F300BE000238DF80F3007E061
:106E900003238DF80F3003E001238DF80F3000BF7E
:106EA0009DF80F30184604B0704700BF00B591B090
:106EB000039002910192009300230F93009B5B6863
:106EC000184624F075FE03465B0303F46042009B02
:106ED000DB781B0303F480531A44009B9B78DB028E
:106EE00003F400631A44009B1B88C3F30A03134492
:106EF0000E934FF6FF730D93334B059300210198CA
:106F000024F032FE034606930121019824F02CFE62
:106F1000034607934FF0FF3308930D9B1A040E9B13
:106F20001343099310230C93029A0C9B13440B9365
:106F3000039B9B6905AA02F1100101220B98984757
:106F40000A900A9B002B01D00A9B0F9308230C93F5
:106F5000029A0C9B13440B93039B9B6905AA02F1B5
:106F6000080101220B9898470A900A9B002B01D038
:106F70000A9B0F9304230C93029A0C9B13440B93CC
:106F8000039B9B6905AA111D01220B9898470A9043
:106F90000A9B002B01D00A9B0F9300230C93029AAB
:106FA0000C9B13440B93039B9B6905A901220B982F
:106FB00098470A900A9B002B01D00A9B0F930F9BC6
:106FC000184611B05DF804FB01009AB208B500BF85
:106FD0000421044824F08AFF0346002BF8D100BFA7
:106FE00000BF08BD8440005008B5FFF7EFFF044B19
:106FF000D3F884309B0903F00303DBB2184608BDC5
:1070000000400050034B1B6A024A23F00103136245
:1070100000BF704700C00750054BDB6903F48033A5
:10702000002B14BF01230023DBB21846704700BFBA
:1070300000000350024B0022DA6300BF704700BF1C
:1070400000000350024B41F67132DA6300BF704713
:1070500000000350014B9B68184670470000035026
:1070600082B00190024A019B936000BF02B070475A
:107070000000035084B0019000230393019BB3F5FB
:10708000607F21D0019BB3F5607F34D8019BB3F5BD
:10709000207F29D0019BB3F5207F2CD8019BB3F52D
:1070A000007F19D0019BB3F5007F24D8019B002BF2
:1070B00003D0019BB3F5C07F1DD1124B1B6F1B0B7F
:1070C00003F00F03039317E00E4BD3F880301B0936
:1070D00003F0030303930FE00A4BD3F890301B0E29
:1070E00003F01F03039307E0064B1B6F9B0A03F09B
:1070F0000103039300E000BF039B0133184604B073
:10710000704700BF0080005010B582B00190009120
:10711000019BB3F5607F49D0019BB3F5607F7CD8BC
:10712000019BB3F5207F68D0019BB3F5207F74D815
:10713000019BB3F5007F4ED0019BB3F5007F6CD867
:10714000019B002B03D0019BB3F5C07F65D1009B51
:10715000012B0AD0009B022B07D0009B042B04D0EC
:10716000009B082B01D0009B102B24F003FF24F080
:10717000F9FE01F09FF82B4B1B6F23F47042009B2C
:10718000013B1B03274913430B6734F0B0FC044653
:10719000FFF72AFF0346C3F102031946204624F0F5
:1071A000B2FE01F01BFB01F091F837E0009B012BD0
:1071B00004D0009B022B01D0009B042B194BD3F869
:1071C000803023F03002009B013B1B011549134323
:1071D000C1F8803022E0009B002B01D0009B202BC7
:1071E000104BD3F8903023F0F852009B013B1B0664
:1071F0000C491343C1F8903010E0009B012B01D0E3
:10720000009B022B074B1B6F23F48062009B013B0A
:107210009B02044913430B6700E000BF00BF02B0AC
:1072200010BD00BF0080005000B585B001900B4636
:107230008DF8033000230393019B5B09002B0FD0D3
:10724000019B5B09012B02D10D4B039308E0019BCD
:107250005B09022B02D10B4B039301E00A4B039312
:10726000019B03F01F0302939DF803301A46029915
:10727000039824F022FE00BF05B05DF804FB00BFB8
:1072800064800050688000506082005010B584B067
:1072900001900023039300230293019BB3F5086F31
:1072A00000F0D282019BB3F5086F00F2D382019BFC
:1072B000B3F5F06F00F0C282019BB3F5F06F00F2FE
:1072C000C982019BB3F5E06F00F0B282019BB3F578
:1072D000E06F00F2BF82019BB3F5D06F00F0A28295
:1072E000019BB3F5D06F00F2B582019BB3F5C06F7F
:1072F00000F09282019BB3F5C06F00F2AB82019B5C
:10730000B3F5B06F00F07C82019BB3F5B06F00F273
:10731000A182019BB3F5A06F00F06C82019BB3F5D5
:10732000A06F00F29782019BB3F5906F00F05C8232
:10733000019BB3F5906F00F28D82019BB3F5806FD6
:1073400000F04C82019BB3F5806F00F28382019BB9
:10735000B3F5607F00F03382019BB3F5607F00F2EC
:107360007982019BB3F5407F00F01C82019BB3F54D
:10737000407F00F26F82019BB3F5207F00F0068210
:10738000019BB3F5207F00F26582019BB3F5007F7E
:1073900000F0F081019BB3F5007F00F25B82019B5E
:1073A000B3F5C07F00F0E181019BB3F5C07F00F22F
:1073B0005182019B002B00F0D881019BB3F5807FA7
:1073C00000F24882019B202BC0F04482019B203BAD
:1073D000E02B00F23F8201A252F823F06B7701000C
:1073E0008D7701006B7701008D770100DD7701005B
:1073F000DD770100DD770100DD7701008D77010089
:107400008D77010001780100A5770100197801004E
:1074100025780100A57701008D7701008D770100A7
:107420008D770100557801005578010055780100ED
:10743000557801005578010055780100F577010075
:10744000E97701008D7701008D7701008D770100CC
:107450003D780100317801008D77010055780100F9
:1074600055780100557801005578010055780100E4
:1074700055780100557801005578010055780100D4
:1074800055780100557801005578010055780100C4
:107490006B770100557801006B7701006B77010075
:1074A0006B770100DD770100557801005578010008
:1074B0005578010055780100557801005578010094
:1074C0005578010055780100557801005578010084
:1074D0005578010055780100557801006B7701005F
:1074E0006B7701005578010055780100557801004F
:1074F0005578010055780100557801005578010054
:107500005578010055780100557801005578010043
:107510005578010055780100557801005578010033
:107520005578010055780100557801005578010023
:107530005578010055780100557801005578010013
:107540005578010055780100557801005578010003
:1075500055780100557801005578010061770100E8
:1075600055780100557801005578010055780100E3
:1075700055780100557801005578010055780100D3
:1075800055780100557801005578010055780100C3
:1075900055780100557801005578010055780100B3
:1075A00055780100557801005578010055780100A3
:1075B0005578010055780100557801005578010093
:1075C0005578010055780100557801005578010083
:1075D0005578010055780100557801005578010073
:1075E0005578010055780100557801005578010063
:1075F0005578010055780100557801005578010053
:107600005578010055780100557801005578010042
:107610005578010055780100557801005578010032
:107620005578010055780100557801005578010022
:107630005578010055780100557801005578010012
:107640005578010055780100557801005578010002
:1076500055780100557801005578010055780100F2
:1076600055780100557801005578010055780100E2
:1076700055780100557801005578010055780100D2
:1076800055780100557801005578010055780100C2
:1076900055780100557801005578010055780100B2
:1076A00055780100557801005578010055780100A2
:1076B0005578010055780100557801005578010092
:1076C0005578010055780100557801005578010082
:1076D0005578010055780100557801005578010072
:1076E0005578010055780100557801005578010062
:1076F0005578010055780100557801005578010052
:107700005578010055780100557801005578010041
:107710005578010055780100557801005578010031
:107720005578010055780100557801005578010021
:107730005578010055780100557801005578010011
:107740005578010055780100557801005578010001
:107750005578010055780100557801000D78010039
:1077600032F06CFC0346039375E032F043FC0346B1
:10777000039370E032F062FC04464FF40070FFF7B0
:1077800079FC0346B4FBF3F3039364E032F032FC7C
:1077900004464FF42070FFF76DFC0346B4FBF3F38F
:1077A000039358E032F026FC04464FF42070FFF7B4
:1077B00061FC0346B4FBF3F35B0803934BE002ABBD
:1077C0000021184624F0B3FB029C4FF46070FFF7D1
:1077D00051FC0346B4FBF3F303933CE003AB0021FD
:1077E000184600F0CBFD36E003AB0021184600F050
:1077F000DBFC30E003AB0021184600F02FFD2AE04F
:1078000003AB0021184600F0B5FF24E003AB0021D4
:10781000184601F085F81EE003AB0021184600F081
:10782000EFFD18E003AB0021184601F02DF812E03F
:1078300003AB0021184600F0EBFF0CE003AB002186
:10784000184600F01FFE06E003AB0021184600F0CA
:1078500053FD00E000BF039B184604B010BD00BFFD
:1078600000B585B0019000230393019BB3F5086F29
:1078700000F02681019BB3F5086F00F23381019B74
:10788000B3F5006F00F01081019BB3F5006F00F2BB
:107890002981019BB3F5F06F00F00081019BB3F5E6
:1078A000F06F00F21F81019BB3F5E06F00F01481CF
:1078B000019BB3F5E06F00F21581019BB3F5D06F2A
:1078C00000F0F880019BB3F5D06F00F20B81019BB3
:1078D000B3F5C06F00F0DC80019BB3F5C06F00F220
:1078E0000181019BB3F5B06F00F0C080019BB3F53F
:1078F000B06F00F2F780019BB3F5A06F00F0E68057
:10790000019BB3F5A06F00F2ED80019BB3F5906F82
:1079100000F0CA80019BB3F5906F00F2E380019BF9
:10792000B3F5806F00F0A880019BB3F5806F00F283
:10793000D980019BB3F5807F00F0A480019BB3F553
:10794000807F00F2CF80019B522B69D8019B242BB2
:10795000C0F0C880019B243B2E2B00F2C38001A203
:1079600052F823F0797A0100797A0100797A0100DE
:10797000797A0100E57A0100E57A01006D7A01006B
:10798000E57A0100917A0100B57A0100E57A0100FB
:10799000E57A0100E57A0100E57A0100E57A010067
:1079A000E57A0100E57A0100E57A0100E57A010057
:1079B000E57A0100CD7A0100E57A0100E57A01005F
:1079C000E57A0100E57A01009D7A0100D97A01008B
:1079D000E57A0100E57A0100E57A0100E57A010027
:1079E000E57A0100E57A0100E57A0100E57A010017
:1079F000E57A0100E57A0100E57A0100E57A010007
:107A0000E57A0100E57A0100E57A0100E57A0100F6
:107A1000E57A0100E57A0100E57A0100797A010052
:107A2000019B802B5ED1324B1B6F03F00703013BA0
:107A3000032B17D801A252F823F000BF5F7A010090
:107A40004D7A0100537A0100597A0100052303930E
:107A50000BE00323039308E00723039305E00223CD
:107A6000039302E00023039300BF3CE003AB1946FD
:107A7000002000F07FFE36E003AB1946002000F046
:107A80007DFC30E003AB1946002000F049FF2AE0FE
:107A900003AB1946002000F0B3FC24E003AB194609
:107AA000002000F0EFFC1EE003AB1946002000F0C0
:107AB0007BFB18E003AB1946002000F0E5FE12E066
:107AC00003AB1946002000F017FC0CE003AB19468D
:107AD000002000F0C3FB06E003AB1946002000F0D5
