:020000021000EC
:10200000C80A0020E53801005733030057330300A6
:10201000394A030057330300573303005733030093
:10202000573303005733030057330300573303007C
:1020300057330300AC0A0400DB4A030057330300A4
:10204000573303005733030057330300573303005C
:10205000573303005733030057330300573303004C
:10206000573303005733030057330300573303003C
:102070008DA001005733030057330300573303008B
:10208000573303005733030057330300573303001C
:1020900057330300954301005733030057330300C0
:1020A00057330300D53F0100B53F0100573303000C
:1020B00057330300D1BC02005733030031C702007D
:1020C0004BCB030047CB030011BF020061CB0300E1
:1020D0004FCB030001C7020053CB030071C70200BE
:1020E000819E020045A00200E1C7020057330300B1
:1020F00057330300573303005733030057330300AC
:10210000573303005733030057330300573303009B
:10211000573303005733030057330300573303008B
:10212000573303005733030057330300573303007B
:102130005733030057330300692E01006D3003004D
:1021400082B030BF074BD3F8F030DB0704D5002353
:102150000193019B052B01DD02B07047019B013308
:10216000F6E700BF00ED00E0F0B5114A114C124E49
:1021700000F00105E3695F0713D40DB9334213D1B1
:1021800003EA00078F4207D10B4A1A40002A0CBF0E
:1021900000206FF00100F0BD013AEBD16FF00200BA
:1021A000F9E74FF0FF30F6E76FF00100F3E700BF0B
:1021B0008096980000000350020001000B4B70B5A0
:1021C000D96911F480310DD101244FF48072084E89
:1021D000084DF46020462C641A61FFF7C5FF346493
:1021E000EC6070BD6FF00100FBE700BF0000035022
:1021F00000100350002003504FF4003238B50F4B4D
:102200000F4C9A6641F671330122E569E3630D4B89
:102210000021DA60022360612120236105F480350A
:10222000FFF7A2FF10B92120FFF79EFF0122064B06
:10223000DA600DB10023E36338BD00BF00900050A9
:1022400000000350001003500020035070B5134CE1
:102250006061E3695B071ED40E4656F8043B8D1897
:10226000A361AE420BD10423002121202361FFF79B
:102270007BFF58B9BDE870402120FFF775BF0821EA
:102280000846FFF771FF10B10423236170BD56F8B3
:10229000043BA361E5E74FF0FF30F7E70000035090
:1022A0002DE9F84315464FF40032184B89469A66DB
:1022B00041F6713203F51C33DF69DA630122064609
:1022C00003F58053DFF84C8007F48037DA6055B9A6
:1022D000284601220E4BDA601FB10022A3F50053FD
:1022E000DA63BDE8F88306F5005404EA0804A41B89
:1022F000AC4228BF2C46494622463046FFF7A6FF8F
:102300000028E6D12644A1442D1BE0E700900050B0
:102310000020035000E0FFFF00000000000000006C
:10232000013800D0FCE77047002370B5404C0546EB
:102330008AB0E36318B1008823600EF023FE3D48A5
:1023400029F09FFE3C4E3D4B304633603C4B736062
:1023500026F0F1FD0021304613F0A6FD32A3D3E9AB
:102360000023A062C4E9062326F0F0FDD4E9062389
:1023700019431043C4E90601CDE900014FF0FF33D2
:102380004FF0FF32A06A29F023FF02224FF0FF3105
:10239000A06A29F022FF01200EF074FB4FF40073B5
:1023A00000222849A06A29F079FFB0F5007F39D1D1
:1023B00000239422079309933C23CDE9033205932C
:1023C000962306935023A06A03A9089313F080FE76
:1023D00035B3287C0FF0C2F80546F0B9A06A2AF0A0
:1023E00052F80FF069F80EF02FFB20B14FF4807017
:1023F00000210BF003F90EF037FB20B14FF4006021
:1024000000210BF0FBF826F071FE012029F00DFEF3
:102410000D4A0E49A06A26F08CFD28460AB070BD10
:10242000FF20D7E70725F8E70DD50155200000006C
:10243000380B0020690345EC301E0020BD08020067
:10244000401E0020301C0020DB8E03001B8F030089
:102450000348044B834202D0034B03B11847704733
:10246000E83D0020E83D002000000000064B074941
:10247000C91A891048BF0131491003D0044B0BB170
:1024800001481847704700BFE83D0020E83D0020A4
:102490000000000010B5064C237843B9FFF7D8FFC1
:1024A000044B13B10448AFF300800123237010BD27
:1024B000C627002000000000D452040008B5054BD8
:1024C0001BB105490548AFF30080BDE80840FFF7A0
:1024D000CDBF00BF00000000B00D0020D4520400AA
:1024E000A3F5803A704700BF174B002B08BF134B72
:1024F0009D46FFF7F5FF00218B460F461348144A0F
:10250000121A2AF061FC0E4B002B00D098470D4B9D
:10251000002B00D098470020002104000D000D483A
:10252000002802D00C48AFF300801AF0B7FD20005D
:10253000290020F014FD1AF067FB00BF000008001E
:102540000000000000000000C80A0020C80A0020A7
:1025500040390020000000000000000010B5064CCB
:10256000204601F08BFA204620F06EFFBDE81040B7
:10257000022000F089BE00BF3C09040037B500F01E
:10258000A7FA0E4820F031FF031E18BF01230C4D9F
:102590000C4C2B70237863B958B1FF230A490B48C0
:1025A0008DF807300122098800780DF1070313F038
:1025B000BDF82B78237003B030BD00BF3C09040088
:1025C000C7270020C827002078270020BE3D002014
:1025D0002DE9F04703689A4A23F47F4323F0070369
:1025E00093420446ADF5826D00F0E58145D802F1D5
:1025F0007E42934200F0188212D8A2F580229342C4
:1026000000F0DA8002F58032934200F05781A2F5A3
:10261000A022934200F0B4800DF5826DBDE8F087F2
:10262000884A934200F0FA8002F540329342F3D197
:102630008549D0F805200B78844D581C08708449D2
:10264000844821F813202A601AF0A6FB637A022B33
:1026500003D1618980481AF08DFB29687F481AF000
:1026600089FB7F481AF098FBD4F8051020790DF506
:10267000826DBDE8F0470FF065BE7A4A934200F0E4
:10268000C18168D8A2F1E372934200F05D8102F14A
:1026900080729342C0D10122734F744B39787448D1
:1026A0001A701AF067FB3E78DFF80C92E579002E7D
:1026B00040F07A81237A023D2A4604A904F10A00F7
:1026C00089F8003020F040FCEDB201363E70694ED2
:1026D000DFF8B4A196F800802A4604A90AEB0800A6
:1026E0002AF07DFBA844E179634886F800801AF05F
:1026F00041FBE279B4F80510207913F02DF899F830
:10270000002033789A4287D15C481AF033FB0022CC
:10271000337851465A480AF803201AF02BFBE37924
:102720006BB1237A082B0AD1637A082B07D1B4F84E
:102730000510207913F028F852481AF02DFB4FF4B9
:102740008052002150482AF03FFB00233B70337039
:1027500089F8003060E74D4A934200F01E8102F193
:10276000E37293427FF458AFB0F80530002B40F08D
:10277000598147480DF5826DBDE8F0471AF0FABA65
:1027800044481AF009FB44481AF006FB4FF4805203
:1027900000213D482AF018FB02220421012013F0F9
:1027A00009F80121084613F01DF83C480DF5826D2B
:1027B000BDE8F0471AF0F0BA817D173020F09CFB9D
:1027C00000283FF429AFA37A35490393637A2E4852
:1027D0000293237A0193E3790093A37962791AF043
:1027E00097FB30481AF0C6FA27492F481AF0C2FA68
:1027F0004FF48052002124482AF0E6FA2B481AF0C0
:10280000CBFA2B4B00220093617AA57A0123D4F8EE
:10281000050041EA052112F0FBFEFDE60022134B04
:1028200024481A701AF0A6FA0221FF2012F0C8FEFE
:102830000221FF200DF5826DBDE8F04712F0D4BEF5
:10284000A0000902A0000601CE3700202C3B00208A
:10285000F8260020630404008004040091040400AE
:10286000A3040400A0000904CB270020CC270020EB
:102870008E030400C9270020BD030400E9030400FF
:10288000180404002D040400CD270020A0004304F8
:102890007D050400F0000400FA00040012010400A9
:1028A00029010400470104006C01040085010400B3
:1028B000BE3D0020A4010400CA2700205E4A057B1B
:1028C0001378591C11705D4A5D49D55401225D4B46
:1028D0001A70437A0393037A0293C379019383793D
:1028E00000934379027958481AF012FB57481AF0BE
:1028F00041FA554956481AF03DFA294655481AF00A
:1029000039FA55481AF048FA544928460FF048FD5C
:1029100053481AF041FA0221524A28460FF0FCFCB3
:1029200051481AF039FA4FF48052002146482AF0F3
:102930004BFA4E4B3F22019340232321009328461C
:10294000172312F0C3FE67E6B0F80D30CBB9474D40
:1029500047481AF00FFA298846481AF00BFAB4F8DB
:102960000F1045481AF006FA402144481AF002FABE
:102970004022298820790DF5826DBDE8F04712F0DC
:10298000EBBE3F481AF0F6F9B4F80D103D480DF5CE
:10299000826DBDE8F0471AF0EDB93B481AF0EAF94C
:1029A000B4F807103948F2E72A4604A904F10800F0
:1029B00020F0CAFA89E63649B0F805200B78354D83
:1029C000581C08703449354821F813202A801AF021
:1029D000E3F9237A022B04D1B4F8091030481AF035
:1029E000C9F929882F481AF0C5F92F481AF0C2F9F9
:1029F0000222B4F8051020790DF5826DBDE8F0478C
:102A00000FF0B6BC29481AF0C7F9E17A28481AF045
:102A1000B1F9402127481AF0ADF9144B4FF48072F8
:102A20001988A7E72448A5E624481AF0B5F9B4F8B0
:102A300005102348ABE700BFCF370020D037002078
:102A400029010400CC270020CD270020D401040058
:102A50006C0104000902040025020400163D002058
:102A60004F020400010604007A02040078270020C7
:102A70009A020400CB020400D9020400EE02040012
:102A80001703040043030400580304007C030400FC
:102A9000CD370020143D002078260020E3040400F8
:102AA0008004040007050400180504004005040024
:102AB00068050400BD030400AB050400D50504004F
:102AC000ED0504000022014B1A8070477A27002090
:102AD00010B52DF0B2F9054A148814B1631E012413
:102AE00013802DF0A5F9204610BD00BF7A270020E5
:102AF00030B503687E4A23F47F4323F007039342F3
:102B000089B040F0F380082200211220794B0FF0A9
:102B10001BFD044618B3784D7849286821F092FCD3
:102B20007749286821F08EFC20F0AFFA20F0AEFA49
:102B3000744B754A009375495C23286821F082FC28
:102B400073492346734A286821F07CFC204600F034
:102B5000CBFB7149286821F075FC00BEFDE70146FA
:102B6000032214206D4B0FF0EFFC044618B3624DA6
:102B70006249286821F066FC6149286821F062FCFE
:102B800020F083FA20F082FA5E4B5F4A00935F499F
:102B90006A23286821F056FC5D4923465D4A28686F
:102BA00021F050FC204600F09FFB5B49286821F093
:102BB00049FC00BEFDE7014605221620584B0FF0E8
:102BC000C3FC054618B34C4C4C49206821F03AFC34
:102BD0004B49206821F036FC20F057FA20F056FAD5
:102BE000484B494A009349497823206821F02AFC40
:102BF00047492B46474A206821F024FC284600F02C
:102C000073FB4549206821F01DFC00BEFDE70DF176
:102C10000F0104A812F03CFD044618B3364D3749A5
:102C2000286821F00FFC3649286821F00BFC20F0C1
:102C30002CFA20F02BFA334B334A00933349832389
:102C4000286821F0FFFB32492346324A286821F0E8
:102C5000F9FB204600F048FB2F49286821F0F2FBE1
:102C600000BEFDE7BDF8143001465BBAADF8183080
:102C70009DF8133008228DF81A30FF238DF81B3091
:102C8000FE238DF81C309DF8123018208DF81D3071
:102C9000BDF810305BBAADF81E3006AB0FF054FC37
:102CA000054618B3144C1549206821F0CBFB144994
:102CB000206821F0C7FB20F0E8F920F0E7F9114B7C
:102CC000114A009311499323206821F0BBFB10495E
:102CD0002B46104A206821F0B5FB284600F004FB83
:102CE0000D49206821F0AEFB00BEFDE709B030BD04
:102CF000A000010003060400AC0E00202B04040019
:102D00000C060400780604001106040039060400CD
:102D100048060400450604005D0604006E06040033
:102D20007206040008B504F04FFA01280ED1124BC8
:102D300004205A6E4FF480231049520358BF104AA2
:102D40004B6601F51041086258BF536605F02EFF2F
:102D500000F0FEFC21F025FB05F004FF21F012FB42
:102D600006F0BEFA00F0E8FC00F04CFE02F0F6FDC2
:102D7000BDE8084006F08CBF008000500090005075
:102D800000A00050064B1B681A7A022A04D812B120
:102D90001B68044A13607047032AF9D0704700BFCC
:102DA000303B0020C80D002030B51A4D8FB007AC65
:102DB0000FCD0FC495E8070084E807000E2200211C
:102DC0000DEB02002AF000F84FF48012124B01A91B
:102DD000CDE901233E238DF80C303F238DF80D30D3
:102DE0000E4B07AA04932023059301230C488DF86A
:102DF00019300C4B05F0AAFF04469DF81A304FF429
:102E00006120002B0CBF0321002120F095FA204601
:102E10000FB030BD200904003400035A10380020E0
:102E20003C0E0020CC0D002029B9074B1868036820
:102E30004BB106F013BA022905D8034B1868036892
:102E40000BB121F041BD7047443B002008B5044957
:102E5000044806F0F5FEBDE80840FFF7A5BF00BF37
:102E6000483B0020600E0020014821F00CBB00BF51
:102E70003C0E0020014B1A6A186810473C0E0020D7
:102E8000014820F090BA00BF3C090400184B37B548
:102E900083422BD1174B1B7843B3C8B212F0E6FB29
:102EA000054618B3144C1549206821F0CBFA144993
:102EB000206821F0C7FA20F0E8F820F0E7F8114B7D
:102EC000114A009311498523206821F0BBFA10496B
:102ED0002B46104A206821F0B5FA284600F004FA83
:102EE0000D49206821F0AEFA00BEFDE703B030BD09
:102EF000680E002030380020AC0E00202B040400A7
:102F00000C060400C7090400540904003906040033
:102F100048060400450604005D06040030B500259F
:102F200003685A4A23F47F4323F0070385B0934292
:102F300004460295ADF80C5000F0818002F5802225
:102F400093420ED0A2F18272934240F09C80504B8B
:102F50001B78002B00F0978005B0BDE8304021F0D1
:102F6000AFBDB0F805301F2B40F08D80FF2304A9C2
:102F70001A4611E9030020F07BF8012814BF41F242
:102F8000FC15434B05F0FC0208BF18701F21207987
:102F90000FF0F0FA054618B33E4C3F49206821F087
:102FA00051FA3E49206821F04DFA20F06EF820F0E9
:102FB0006DF83B4B3B4A00933B495923206821F075
:102FC00041FA3A492B463A4A206821F03BFA284612
:102FD00000F08AF93749206821F034FA00BEFDE795
:102FE000354900902379354A0968354800F084FA5C
:102FF0000546002847D0274C2749206821F022FAAF
:103000002649206821F01EFA20F03FF820F03EF813
:10301000234B244A009324496223206821F012FAAA
:1030200022492B46224A206821F00CFA284600F05B
:103030005BF92049206821F005FA00BEFDE7B0F8F1
:103040000530B7EE047A07EE903AF8EE677AB0F8FA
:10305000073067EE877A013307EE103AB8EEC77A89
:1030600067EE877AB1EE047A67EE877AFAFE677ABE
:10307000FCEEE77A17EE903AB3F57A7F38BF4FF45B
:103080007A730D4A136005B030BD00BFA000060280
:1030900030380020AC0E00202B0404000C06040085
:1030A000D609040054090400390604004806040047
:1030B000450604005D060400543B00208D2E0100EF
:1030C000680E002037B5054618B3134C1349206825
:1030D00021F0B8F91249206821F0B4F91FF0D5FFAA
:1030E0001FF0D4FF0F4B104A00931049E5232068CE
:1030F00021F0A8F90E492B460E4A206821F0A2F9CA
:10310000284600F0F1F80C49206821F09BF900BE38
:10311000FDE703B030BD00BFAC0E00202B0404005F
:103120000C060400650A0400F609040039060400D0
:10313000480604005E0A04005D0604000422002123
:1031400000B5114B89B01A7101A81022196029F03D
:103150003BFE29238DF804300C4B4FF48062029320
:103160000B4B0C49039302238DF810300A4B01A836
:10317000CDE905230823079300F0D6F808B1FFF73F
:10318000A1FF09B05DF804FBA40E00209D310100F1
:1031900081300300A00E002005000400F0B51D4E94
:1031A00085B0306801AA02A920F061F8044668BB26
:1031B000FA20029F9DF80C502CF02AFC87420ED278
:1031C0002046154C04EBC50528712179042917D137
:1031D000306820F01DF805B0F0BD0120F1E74FF494
:1031E0007A70029C2CF014FC8442F6D341F28830B1
:1031F000029C2CF00DFC844234BF02200320E0E747
:1032000000201FF03CFF04232371E1E7FFF75AFF82
:10321000E1E700BFA00E0020A40E0020164A73B5FF
:103220001678DEB102B070BD2CF009FF2B688DF866
:103230000460C41A282000942CF0EAFB844202D8CF
:103240002B79052BEED10D4B0822694618681FF02B
:10325000E1FF0028E6D0FFF735FFE3E7084A1268F0
:103260009042DFD120F0A4F80128064DDCD12CF0EB
:10327000E6FE2860D6E700BFBF3D0020A00E00207C
:10328000503B0020A40E002018B1034B1860002012
:1032900070472220704700BFAC0E0020012208B505
:1032A000074B1A700022074B1A700422064B1A7043
:1032B0001F22064B1A7005F0DBFC054B186008BD99
:1032C000C23D002031380020C13D0020C03D00201B
:1032D000AC0E0020024B0349186821F0B3B800BFC0
:1032E000AC0E00207C0A040070B50C4C0C4906465C
:1032F000206821F0A7F805F0BBFC0546206805F022
:10330000ABFC3046FFF7E6FF284605F0A5FC206839
:103310000449BDE8704021F095B800BFAC0E002014
:103320007E0A0400800A0400F8B50F46054600280E
:1033300043D0002941D003784268980702D01AB9D7
:10334000212428E0002AFBD1190702D5AA8A002AE5
:10335000F6D09A0605D5EB8A002BF1D0AB69002B8D
:10336000EED02C2021F014FB064640B32C22002185
:1033700029F02AFD2B46321D05F11C0153F8040BE0
:103380008B4242F8040BF9D12B785B0705D53E60E0
:103390006B686BB900242046F8BD012130461FF050
:1033A000FDFE04460028F2D0304621F003FBF2E790
:1033B000314604481FF0E4FFECE72224EBE7192430
:1033C000E9E700BFB00E002008B504481FF0D1FFA8
:1033D0001FF0D3FDBDE808401FF0D1BDB00E0020A6
:1033E0000B4B10B51C680CB901200AE02CF025FD30
:1033F00094F8202003462AB1A26A1AB12CF018FDD5
:10340000002010BD18462CF013FD2468EBE700BF28
:10341000B00E00200B4B10B51C680CB901200AE05F
:103420002CF00BFD94F8202003462AB1A26A1AB1B1
:103430002CF0FEFC042010BD18462CF0F9FC24688A
:10344000EBE700BFB00E00200C4B10B51C6804B9B0
:1034500010BD2CF0F2FC94F8203002464BB1A36A68
:103460003BB1013BA3622CF0E3FCA36898472468BE
:10347000EDE710462CF0DCFCF9E700BFB00E0020B1
:1034800038B505462CF0E2FC00230B4A14685CB109
:10349000AC4206D1A96A6BB199622CF0D2FC012032
:1034A00007E02346A46AF2E7002DF3D02CF0C9FC14
:1034B000204638BD1160F0E7B40E002010B5044678
:1034C000B0B12CF00BFA2046FFF7DAFF10B194F8F8
:1034D0002C300BB9002010BD064C2368002BF9D00E
:1034E0002CF0B4FC2368013B23602CF0AAFCF1E72C
:1034F0002220F0E7B80E00202DE9F04385B0054604
:10350000914698460E469DF8307009B9002F5CD15F
:103510002846FFF7D3FF0446002836D185F82C0053
:10352000686306F06DFD864233D92CF06BFA2146B4
:10353000844640F2E7304FF47A720023E6FB0C0138
:1035400019F0D2F94FF0FF32002319F0CDF92B46D4
:10355000E88611462846CDE900441D4A2CF04AFD74
:10356000044690B9C5E9089885F82D702E632CF0B3
:103570006DFC184A136833B31A469B6A002BFBD1C3
:1035800095620023AB622CF05CFC204605B0BDE8E0
:10359000F08347B12B4631462846CDE900440C4A1A
:1035A0002CF094FADCE7304603A92CF043FA0446E9
:1035B0000028EAD12B462846CDE90077044A039932
:1035C0002CF0F4FCCCE71560DBE72124DDE700BF3D
:1035D000D9350100B40E002091F82C3013B50C46FB
:1035E00083B98B8ECA8E93420ED243B9CDE9003394
:1035F00020460B46124A4FF0FF312CF0BBFCA38E45
:103600000133A38602B010BD52B191F82D3093B1B1
:1036100001230093D1E908232046096BFFF76CFFD3
:10362000012384F82C30074B1A6801321EBF1A6838
:1036300001321A60E6E708462CF050F9F0E700BFC7
:10364000D9350100B80E00202DE9F041154E336840
:1036500033B34FF00008144F2CF0F8FB05463C68DC
:1036600024B92846BDE8F0412CF0EBBB94F82C308F
:10367000A3B1336884F82C8013B13368013B336005
:1036800094F82D3013B92046FFF7FAFE28462CF0A7
:10369000D8FBD4E9083120469847DDE7A46ADFE784
:1036A000BDE8F081B80E0020B40E0020034B1B686B
:1036B000002B14BF04200120704700BFB80E00206B
:1036C000024B1868B0FA80F040097047B80E00202D
:1036D0007FB54FF480630022ADF80430ADF80830B8
:1036E000ADF80C30134B08281B88ADF81420ADF84A
:1036F000103019D007DC01280CD0022811D00E2080
:1037000007B05DF804FB202811D04028F7D1042130
:1037100005A802E004210DEB010000F0BBFA002037
:10372000EEE7042102A8F8E7042103A8F5E7042145
:1037300004A8F2E7830A040008B5044820F029FE33
:103740001FF046FCBDE8084000F01CB8380C04002F
:10375000014820F01EBE00BF380C040007B5082049
:103760001FF089FE02238DF80030054B6846019357
:103770001FF0A6FD082003B05DF804EB1FF086BE25
:10378000006A18102DE9F043494E4FF00209354602
:103790008DB005AC0FCD0FC495E807000125B38BA4
:1037A000DFF82081ADF80430F38B368C84E8070015
:1037B0004048414FADF80830ADF80090ADF80C60CE
:1037C00020F0E7FD404620F0E4FD3C4B384605A9DB
:1037D00007938DF8225003F031FD2A4604216846F4
:1037E00000F058FA2946002201A800F053FA2A46B0
:1037F000042102A800F04EFA2A46042103A800F092
:1038000049FA4FF002132E4C4FF44870C4F830368A
:10381000A3F58033C4F82C361C23C4F83496C4F8BE
:103820001C3606F04DFC04A8ADF8106000F092FACA
:10383000142006F045FC04A8ADF8106000F05EFA14
:10384000232006F03DFC04A8ADF8106000F082FAD9
:10385000B921384620F0CAFB04A8ADF8106000F08A
:103860004DFA00226846114600F014FA002201A821
:10387000114600F00FFA2A46002102A800F00AFAC9
:103880002A46002103A800F005FA384603F0AEFCF2
:1038900000234046C4F81C36C4F83036C4F82C3631
:1038A000C4F8343620F078FD0DB0BDE8F08300BFD9
:1038B000880A0400380C040000C0055000127A0089
:1038C00000C00350300C04000348044A0449121A93
:1038D00092101FF041BD00BF4021010020230100D4
:1038E0004039002008B500F02FF8FFF7EDFF124B2C
:1038F00012498B4212D30020114B12498B4218D32C
:10390000FEF7F2FD186850F82240586840F822404F
:10391000013298688242F5D30C33EAE70022F8E7D7
:103920001C6844F8220001325C68A242F8D30833D4
:10393000E4E70022F8E700BFDC520400E85204008C
:10394000E8520400E85204004FF40041134B144ABB
:1039500070B59A60D3F88820124D42F47002C3F813
:103960008820114A05F5005491664FF0FF32226617
:103970004FF6DF7262660222C3F8D020BFF34F8F8A
:10398000BFF36F8F4FF44036032005F057F9032043
:10399000E66005F037F92E6170BD00BF00ED00E074
:1039A000002001000080004400900050014B18608E
:1039B000704700BF5C3B0020054B1860054B1B6F38
:1039C00003F00703032B01D12BF0C6BA704700BFE9
:1039D000643B00200080005000239B6AB3F5903FB9
:1039E00003D21968064A914203D000230370836012
:1039F0007047012202709A689B694260F7E700BF36
:103A000007B0CD5E00239B6A10B5B3F5903F11D28D
:103A100019680A4A91420DD1094C227812F0FD0F23
:103A200001D0002010BDDB6998470028FAD101239E
:103A30002370F6E74FF48170F4E700BF07B0CD5E66
:103A400032380020024B034A1A6020F0ACBC00BFA1
:103A50000000002002020FF0BFF34F8F0549064B14
:103A6000CA6802F4E0621343CB60BFF34F8F00BF1C
:103A7000FDE700BF00ED00E00400FA0530B5056881
:103A800087B0AB8804461848ADF80C3020F081FCB4
:103A90000022012103A800F0FDF80DF10B0103A89D
:103AA00000F084F99DF80B3083F001032B70AB79A3
:103AB000022B15D14FF0FF330022CDE9043304A9C6
:103AC0000A4B009403A800F021FA049B00940133F0
:103AD0000CBF04220122054B05A903A800F094F9AC
:103AE000002007B030BD00BF380C0400BB3303001A
:103AF000002307B52948019320F04BFC4FF4407395
:103B0000012204216846ADF8003000F0C3F801221C
:103B1000234B0520C3F8442401A92CF0ABF900285D
:103B200039D1204BD3F8F02042F00102C3F8F02045
:103B3000D3F8FC2042F08072C3F8FC201A4AA3F5A7
:103B40005D431A60019B194A03F5D52303F2FC4338
:103B5000B3FBF2F3164A013B13610223C2F8F030C3
:103B60004FF48073C2F804334FF06043114AC3F836
:103B7000B02F114AC3F8802ED3F8002E42F4807281
:103B8000C3F8002EFF2283F82020D3F8002E22F461
:103B90008072C3F8002E03B05DF804FB380C0400FB
:103BA00000D0035000ED00E0FF030040F8590D0085
:103BB000000004E055CEACC5090001004FF06043A1
:103BC000D3F8802E30B5D20715D501240B4D844093
:103BD000D5F8FC2042F08072C5F8FC20D3F8002E06
:103BE0002243C3F8002E53F82020002AF0D003F817
:103BF0002010002030BD1120FCE700BF00ED00E0E8
:103C00002DE9F04104460C254FF00108124E0CB38B
:103C100014F001000BD0002024F0010405FB006229
:103C20005768002FF3D09168C0B2B847EFE722463B
:103C3000013020284FEA520201D0D307F8D508FA04
:103C400000F20F2824EA0204E8D9103805FB0062CC
:103C5000B432E5E7BDE8F081BC0E002008B50C48A1
:103C600020F097FB192004F0DBFF28B1192004F0A5
:103C7000E5FF192004F0C6FF1A2004F0D1FF28B197
:103C80001A2004F0DBFF1A2004F0BCFF002008BD5E
:103C9000380C04002DE9F0410E461746054610B3D6
:103CA0000F2922D80378DBB1013BDBB2022B1CD8F1
:103CB000104AD35C6A78D340DB0716D50E4BD3F895
:103CC0001043A4B92CF0C2F880463A462846314643
:103CD00003F026FB40462CF0B4F82046BDE8F08106
:103CE00040F2FF13E6E72224F7E72124F5E7022458
:103CF000F3E700BFFC0A040000C0035010B50446FF
:103D000008B30378E3B1013BDBB2022B1DD8104AA4
:103D1000D35C6278D340DB0717D52CF097F80122EB
:103D2000617823788A4030214B4341F2100103F13E
:103D3000A04303F570335A502CF083F8002010BDD7
:103D400040F2FF13E5E72220F9E72120F7E700BF63
:103D5000FC0A040010B5044608B30378E3B1013B44
:103D6000DBB2022B1DD8104AD35C6278D340DB074C
:103D700017D52CF06BF80122617823788A40302126
:103D80004B4342F2100103F1A04303F570335A5044
:103D90002CF057F8002010BD40F2FF13E5E7222079
:103DA000F9E72120F7E700BFFC0A040038B50D460B
:103DB000044610B309B30378E3B1013BDBB2022B35
:103DC0001DD8104AD35C6278D340DB0717D52CF09E
:103DD0003DF830222378534303F1A04303F57033B9
:103DE0005B696278D34003F001032B702CF029F853
:103DF000002038BD40F2FF13E5E72220F9E721203B
:103E0000F7E700BFFC0A04002DE9F0410D46164615
:103E100098460446002851D000294FD00378002B43
:103E200042D05A1ED2B2022A03D9FF2B07D021203A
:103E300042E0234B9B5C4278D340DA07F7D5022E51
:103E400001D9042EF3D12CF001F823780746FF2B7B
:103E500005D032462046296803F0A8FA28602B686E
:103E6000013309D12378FF2B06D1164B6078D3F8A4
:103E7000241420F0E2F8286029684B1C18D00C2389
:103E8000114A03FB0122069BC2F804809360237849
:103E9000FF2B04D001230D4A8B40C2F8243438464E
:103EA0002BF0CFFF002007E040F2FF134278C3E77A
:103EB00038462BF0C6FF2D20BDE8F0812220FBE71D
:103EC000FC0A040000C00350BC0E002000D00350C8
:103ED0000F2810B5044613D82BF0B8FF0123094A68
:103EE000A340C2F82034C2F824340C22064B02FB53
:103EF00004330024C3E901442BF0A3FF204610BD86
:103F00002120FCE700E00350BC0E00202DE9F04129
:103F10000D4690461F460446002842D0002940D056
:103F20000378002B33D0591EC9B2022903D9FF2BC5
:103F300007D0212033E01C4B42785B5CD340DA078A
:103F4000F7D52BF083FF23780646FF2B05D042469A
:103F50002046296803F0B0FA28602A68531C1AD05A
:103F60000C23124903FB0211069BC1F8B870C1F87B
:103F7000BC302378FF2B05D00123103293400C4A2C
:103F8000C2F8243430462BF05CFF002007E040F2FA
:103F9000FF134278D2E730462BF053FF2D20BDE8C7
:103FA000F0812220FBE700BFFC0A0400BC0E0020C9
:103FB00000D0035008B503F099F9054B00F05530D7
:103FC00020F05020C3F82004BDE80840FFF718BED9
:103FD00000E0035008B503F089F9054B00F0AA3062
:103FE00020F0A020C3F82004BDE80840FFF708BE79
:103FF00000E003502DE9F04F9A46564B85B01B78F0
:1040000006460F461546DDF83C909DF844B0DDF8B5
:104010005080002B00F09780072A00F296800E9BBC
:10402000002B00F09280B9F1000F00F08E80129BFF
:10403000B3F5006F00F38980012803D1109B002B9A
:1040400000F08380444B03EB05131B7B002B7ED0D9
:10405000424C10220021684628F0B6FE04EB4514BD
:104060001022A7BB3946204628F0AEFE43F21003CB
:104070006380BBF1000F03D1E37843F00303E370E7
:10408000364A0E9B02EB451CCCE90193129B690159
:10409000581E9DF84C30C0F30A0003F003039B0642
:1040A00043EA001E53582E48012E00EA03004EEA50
:1040B0000003CDF800A0535017D0B8F1000F2ED157
:1040C0009CF8023068F304138CF8023027E00021DA
:1040D000204628F079FE4FF444736380BBF1000F53
:1040E000CED1E37843F03003C9E713230CF1100E6F
:1040F000CCF80C309CE80F008EE80F006FF0030145
:10410000DCF81C20109B61F39F02012FCCF81C20CF
:10411000CCF8143003D1CCF81890CCF80430002738
:104120000D4A290102EB051342F80180159A284631
:104130005A60694622469F605E7302F015FF38465A
:1041400005B0BDE8F08F0748FAE70748F8E70748E9
:10415000F6E700BF3338002024110020241000208F
:104160000F80FFF3028000F0018000F0078000F074
:1041700038B5124B05461B78DBB1E0B12BF066FE7B
:104180000F4A00231146147B54B92B6001251A01F4
:1041900001EB03131D738C502BF053FE204638BDEA
:1041A0000133082B02F11002EDD12BF04AFE054835
:1041B000F5E70548F3E70548F1E700BF333800208D
:1041C00024110020048000F0028000F0018000F043
:1041D00038B52BF03BFE002305460B4A147B6CB927
:1041E0000133082B02F11002F8D102F069FE074BEF
:1041F00028461C702BF025FE204603E028462BF0B5
:1042000020FE034838BD00BF2411002033380020B1
:10421000058000F00D4B10B51B78044693B10728BC
:1042200012D82BF013FE0A4B03EB04131A7B2AB1AE
:1042300000241C732BF005FE204610BD2BF001FE60
:104240000448FAE70448F8E70448F6E73338002062
:1042500024110020068000F0028000F0018000F0B0
:10426000154B13B51868002301908DF804302BF01E
:10427000EDFD124B1C7824B12BF0E3FD104802B089
:1042800010BD01221A702BF0DCFD0E4B01A81C732F
:104290001C7783F82C4083F83C4083F84C4083F82B
:1042A0005C4083F86C4083F87C4008238DF807302D
:1042B00002F02AFE2046E2E7FF0A0400333800201D
:1042C000038000F024110020F8B50D4D2D7885B144
:1042D000072810DC0B4D060105EB0014277B67B1A6
:1042E000AB510025069BA560636002F03DFE2846A9
:1042F000F8BD0548FCE70548FAE70548F8E700BFC0
:104300003338002024110020028000F0018000F0EA
:10431000078000F00A4A08B512785AB107280BD86E
:10432000084A02EB00131B7B43B1002102F0DEFDC3
:10433000002008BD0448FCE70448FAE70448F8E711
:104340003338002024110020028000F0018000F0AA
:10435000078000F00A4A08B512785AB107280BD82E
:10436000084A02EB00131B7B43B1012102F0BEFDA2
:10437000002008BD0448FCE70448FAE70448F8E7D1
:104380003338002024110020028000F0018000F06A
:10439000078000F0184B2DE9F0411F6D5B6D1F4049
:1043A00000D5FEE701260025144CDFF8588037427F
:1043B00018D02368C8F85060A3B1A168284601311D
:1043C0006268A1609847637B012B0BD150B90C4BFD
:1043D00003EB45131A7B60F341021A731A7F60F3F3
:1043E00041021A770135082D4FEA460604F1100400
:1043F000DDD1BDE8F08100BF000004502411002091
:1044000024100020002004502DE9F04F14460646E9
:104410000D469B46C36B87B001225B6902A96068A9
:104420009847F36B01225B6903A92846984702A8C5
:104430001FF047FC074648B10023A37563754FF092
:10444000FF33A360002007B0BDE8F08F03A81FF082
:1044500045FC0123A375237E04EBC303DD611F84A8
:104460006368AB420ED1206003A81FF059FC4FF0E7
:10447000FF332075A360237D043B022B26D8002345
:10448000A375DFE723681A1A53425341A37503A8A3
:104490001FF046FC237D834218BFA77503A81FF0B9
:1044A00021FC074602A81FF01DFC874218BF00230D
:1044B00003A818BFA3751FF01DFC074602A81FF034
:1044C00019FC87421CBF0023A375D4E703A81FF083
:1044D00009FC80B1F36B022228465B6904A9984766
:1044E00004A81FF00EFC0346207D032839D8DFE81E
:1044F00000F03838040903A8F3E7CC22237E04EB4C
:10450000C3031A8401F0A2FA109B187003A8277E37
:104510001FF0DCFB04EBC70787F82200237E03A80B
:1045200004EBC303B3F8209093F822701FF0DAFB7A
:10453000804603A81FF0DEFB8246B8F1000F15D0BD
:10454000F36B022228465B6904A9984704A81FF070
:104550009DFB6075637D6BB90023A3754FF0000868
:1045600038E0227E04EBC2021384CBE703A81FF0DD
:1045700078FBEEE794F81680B8F1000FEED0B9F1B1
:10458000000F09D1DFB10123627EE375002A44D117
:104590009F4218D1677614E0736C05EB0A0259420A
:1045A00085EA020008421CBF0021A175591E0A407D
:1045B0009B1A9945D0D8A37D002BE3D1CEE7E37DAC
:1045C00043B94FF000084B465246294630461FF08B
:1045D000B6F8A060A27D12B123694B44236114494F
:1045E000237E097899421ED901332376BBF1000F4F
:1045F0001BD0D2B1E37DC3B1B8F1000F15D1032FA9
:1046000013D0A1684B1C10D0109B2246009330465B
:104610000123FFF7F9FEA07507E0012FDAD0032F81
:1046200008BFA376CDE70023A375A07D0BE700BFED
:10463000240B04002DE9F04F0E46984600238BB062
:1046400004464FF0FF31104617468DF8133001F045
:10465000E7F9B6F5801F3BD3B21C53D1E56A6B1C5A
:1046600057D12046616A1EF0B0FF0546B31C18BF43
:104670000123DFF810910193636A626C029323684F
:1046800005A902FB053AE36B05225B695046984792
:1046900005A81FF0B1FB1FF0D4FB50461FF0DCFB58
:1046A0004FF0000B824601464B1C05D0636C81EA3B
:1046B0000A025B42134232D0294620461EF085FF93
:1046C000029BAB424DD0BBF1000F4DD10546D3E765
:1046D000314605AA04F108001FF041FA0146481CC2
:1046E00010D0384601F09CF90122394620460DF1E0
:1046F00013031FF076F828B19DF8133088F80030C6
:10470000002003E0237C002BA8D12D200BB0BDE8B6
:10471000F08F2368ED1A636CB5FBF3F5A6E7484606
:1047200001F07EF90DF1130349462046019A1FF06E
:1047300058F8034690B1B21C03D0D9F80020B24219
:104740000CD19DF8132003930D4B88F800204946A7
:104750001A68384628F043FB039B9B46D9F808109B
:10476000A2E7BBF1000FD0D0B6F5801FC8D231460A
:1047700098F800307A6804F1080001F07FF8BFE78C
:10478000200B0400181800202DE9F34104461746B9
:1047900098460E46194D816AE36A8B422AD04B1C1B
:1047A00018E0284601F03CF90122294620460DF187
:1047B00007031FF016F830B14346294620469DF8FE
:1047C0000720B847B0B1A9684A1C05D0012E0AD00D
:1047D000E36A9942E5D10DE0696820461EF082FF48
:1047E000012E0146D8D16B6881EA0302636C5B42FB
:1047F0001A42D1D002B0BDE8F08100BFEC17002012
:104800002DE9F041036B9046826B07689A4288BF9E
:104810008363426C436A90B002FB0377C36B0E461E
:10482000052201A95B6904463846984701A81FF094
:10483000E3FA01280146307057D0656CE26B2368BB
:10484000606AD2F814C005FB0030052206A9E047D3
:1048500006A81FF0D1FA01284FF0000523D0D4E9B3
:104860000A3201219342CDE90B458DF834800E9533
:104870008DF83C102AD1194620461EF033FF236BD9
:10488000626C14339B1AE06223630C9B53B99DF84E
:104890003C303BB1626A616C2368E06B01FB023122
:1048A0001FF062FA0C9DE36B05225B6901A9384693
:1048B000984701A81FF0A0FA30702846236BA26B1E
:1048C0009A4288BFA36310B0BDE8F081237C33B95E
:1048D0001C490BAA04F1080001F01EF8D5E7204698
:1048E000194A0BABFFF750FFCFE7237C23BB2246CF
:1048F000164904F1080001F00FF8616A20461EF025
:1049000085FE616A421C20461EF04EFE054620B917
:10491000236B626C1344143B23632046A16A1EF090
:10492000E1FE2368A062C01A636CB0FBF3F0606222
:1049300020461EF01AFFB6E700232046044AFFF780
:1049400023FFDAE715510100915001006B38030095
:104950000738030073B50D46D11E4A421C461B7E24
:104960004A419A4226D129682368994222D3636832
:1049700099421FD8114E0DF107033246FFF75AFE38
:10498000C0B972686B689A4214D19DF80730DA1E7C
:1049900053425341227E93420CD1636901336361D8
:1049A000D4E90323934205D22968A26842F8231070
:1049B00001332361012002B070BD00BF4418002004
:1049C0002DE9F04F9A468BB09DF85030DFF850B18A
:1049D0000293DBF81030804653450D461646C0F072
:1049E0009980D146DBF804300193B9F1000F00F053
:1049F0008D80D8F83C3001225B6907A9019898475F
:104A000007A81FF06BF9DBF80030984240F0858072
:104A100007A81FF06FF90428074614D107A81FF054
:104A200070F9019B029A04463B44002A3FD186421A
:104A300012D91446361A404601991EF053FEA9EBCE
:104A400004090190D1E7D8F83C3002225B69019853
:104A500008A9984708A8E2E7841B544528BF544694
:104A6000032C03EB0607AAEB040A4FEA94021CD9B5
:104A7000D8F83C30294638465B69984724F0030350
:104A800004F003061F441D44002ED4D0D8F83C3057
:104A900001225B6908A9384698473246284608A98A
:104AA000354428F09CF90026C5E72646ECE7074682
:104AB00000F00302039203442A1804920593049B16
:104AC000DD1B059BD81B039B9F420FD1002FB2D04B
:104AD000D8F83C30012208A95B6998473A46284635
:104AE00008A928F047F978B93D44A4E7D8F83C3044
:104AF000012208A95B6998470422284608A928F0E2
:104B000039F908B9043FDAE74FF0360948460BB0E7
:104B1000BDE8F08F4FF06309F8E74FF06F09F5E754
:104B2000701800202DE9F0410F46164698460446BD
:104B300088B060B390F83450FDB101211EF00AFD39
:104B400000210E9BCDE90511CDE902379DF83C30DF
:104B5000CDF804808DF81C30237C04968BB90D4968
:104B600001AA04F1080000F0D7FEDDE90553E06B6F
:104B7000002E08BF1D461EF086FE284608B0BDE880
:104B8000F0812046044A01ABFFF7FEFDEDE7054644
:104B9000F3E700BF35380300554901002DE9F04F18
:104BA00099B00F4609920A69416C0E931439D31DCE
:104BB000B3FBF1F3013302EBC302036B04469342F0
:104BC000C0F00D820023DFF820940D93E36A48467D
:104BD0001946079300F024FFD7E9033604930E9B90
:104BE000022B4ED1CC2E40F08A81099B002B42D063
:104BF000394620461EF0A5FE656C079A6B1E1340D1
:104C00001490ED1AE36B01225B6916A97868984746
:104C100016A81FF067F800280CBF04230823782E7D
:104C200006933DD9012300254FF0080A05933B6800
:104C300005990E98C9F80030C9F810601FF074F893
:104C40004FEA9A0310930023DDF81CB089F8140092
:104C50000B930F9308930C93616C4A1E0BEA0202AC
:104C60008B1A002E38D05544AB4240D8236B5B1AC8
:104C700013442363ABE0049B1B681493082306933F
:104C8000D0E7656C079A6B1E1340782EA5EB0305E1
:104C900016D8FB7D7BB9099B002BB3D10423069367
:104CA000331DAB4210D9A6B1082DBBD80425002373
:104CB000AA460593BBE7099B002BA3D10823EEE787
:104CC000099B002B9ED1D9E7002505954FF0040ADA
:104CD000ADE704250596F9E75345C7D3B0460BEB7E
:104CE0000A030393089B002B18BF032313E0A3EBD5
:104CF0000A039E42B0460BEB0A0228BF98469E422A
:104D00000392EFD90123D9F8102089F81730964281
:104D100071D1C9F804B0089399F81730002B6CD002
:104D200099F818200899D31C09EBC3030132C3F882
:104D300004B0A3F80880997289F81820B8F1000F20
:104D400014D00E9B022B5BD10B9B7BB90F9B434472
:104D5000032B0BD9E36B01229B69039814A9984795
:104D60000546002840F03D8101230B93089B16A8BF
:104D70000193059B009399F814204346396800F08D
:104D800005FEE36B58469B69109A16A99847051EC5
:104D90000D9B18BF5B4652460D935946434620462D
:104DA0001EF0CDFC236B08F10302A3EB0A0322F0F3
:104DB00003029B1AC9F808002363002D40F01181FB
:104DC0000F9BDDF80CB04344A6EB08060F93594641
:104DD00020461EF087FC00258346002E7FF43CAF62
:104DE000814A3968936804F10800E36252680E9BB7
:104DF00000F044FDDEE002238DE7C9F804B09DE732
:104E0000099B002B30D1049BB8F1030F43440A9354
:104E100027D9DDE90301E36B4FEA98029B699847C4
:104E20000546002865D118F003025FD0049B28F0E6
:104E300003052B440493039B1D444FF0FF33049957
:104E400015A8159327F0CBFFE36B28469B69012239
:104E500015A9984705460A9B0493002D86D0039B0D
:104E600099E74246039DE8E7039B0A9307F1200375
:104E70001193FB7D78689BB100233D7E0C9AD9B2DB
:104E80008D4211D9119903F1010C31F8331091427F
:104E900026D9069907EBC303D8690A44104403E0F6
:104EA0000C9B069A13441844E36B01225B6915A915
:104EB0009847159B012213930C9B0A9804330C937B
:104EC000E36B13A99B699847039B0A9A43449B1A77
:104ED000042B054607D978B9134604330A93C8E76B
:104EE0006346521ACBE70A9B0393B6E70A9B0493E7
:104EF0003CE70A9B0493B2E70A9B0393AFE7702653
:104F000004F1080303932368079A606CA2EB030A79
:104F1000BAFBF0FA00FB0A301EF09EFFE16A804601
:104F200020461EF0DFFBA26A82424AD0626CD9F8AA
:104F30000830511E0B40216B2568891A0B442363EE
:104F40000D9BE0625D1BB5FBF2F5AA4536D1079BD0
:104F5000B3EB080A12D0E36B4FEA9A0241469B6911
:104F600098478346E36A079A5344E362236B0398A6
:104F70009B1A434423631EF0C3FDDA462368616C29
:104F8000E06B01FB05311EF0DCFE20461EF0EDFA61
:104F900020461EF0EAFB2063BAF1000F11D03A69F7
:104FA000616CD31D1439B3FBF1F3013302EBC3027F
:104FB0009042A8D2304619B0BDE8F08F4FF0000AF9
:104FC000DCE73A69616CD31D1439B3FBF1F30133AB
:104FD00002EBC302236B9342BFF4F8ADEAE71C2651
:104FE000E8E72E468CE700BF181800202DE9F347AC
:104FF0001E4643690446B342884617469DF82890EA
:105000003DD300258DF8075020461EF07AFAD4F8DB
:1050100030A082450AD2236AB5EB430F06D20022A4
:1050200020460DF10701FFF7EBFB30B39DF8073089
:10503000012B05D1002220460DF10701FFF7E0FB0F
:10504000B9F1030F06D0314620461EF045FA256B14
:10505000854218D30D4D4FF0FF31284600F0E0FC9B
:105060004B46002229462046C5E90376C5F8008054
:1050700002B0BDE8F047FFF791BD0135C4E76220FB
:1050800002B0BDE8F0871C20FAE700BF44180020FA
:10509000032A2DE9F34106460D4617461C4606D164
:1050A000237A012B23D0012002B0BDE8F081DFF884
:1050B0006080096842460DF10703FFF7BBFA6060A4
:1050C0000028EDD19DF80720237A032AE8D0D8F8EC
:1050D00004106A689142E3D1012B2969D4F80CC00D
:1050E00007D172690CEB0103934202D92074207C32
:1050F000DAE708316144E1603B4601222946304647
:10510000FFF74CFD60600028CAD00020CCE700BF4C
:10511000441800202DE9F341089C032A174626680D
:1051200006D1237A012B24D0012002B0BDE8F08102
:10513000DFF89080304642460DF10703FFF77AFA18
:1051400060600028EDD12568D8F80400A96AD5F878
:1051500044C04840CCF100031840227AE1D1012A32
:1051600009D1E268D8F8103013447269934202D929
:105170002074207CD9E72868EB6A1B1A081AB3FB55
:10518000FCF3B0FBFCF083420BD1706CF36A421E5F
:105190001340326B121A1344284633631EF0A2FAEE
:1051A000E862D8F81020E36808321344E360012273
:1051B0003B4604492068FFF7F1FC60600028B0D04E
:1051C0000020B2E7441800202DE9F04F4FF0FF33E4
:1051D0004FF6FF720025044600F10806C0E90923D6
:1051E0008BB0C3620562056330460F461EF088FC33
:1051F00020461EF0BAF920BB204639461EF035FA8B
:1052000020461EF0B2F920BB5E200BB0BDE8F08F47
:10521000E26B2368606CD2F814C000FB05300522F5
:1052200005A9E04705A81EF0E7FD012828D1294679
:1052300020461EF0EBF9421C294620461EF0B4F928
:105240000135E3699D42E3D320461EF08EF9002824
:10525000D2D000254FF0FF394FF6FF73CA46A8465B
:10526000C4E90853E369984514D3A5EB0905012D5A
:1052700036D84FF6FF72636A934246D16720C4E77F
:105280001EF0E4FD0028DBD0294620461EF0BEF9C2
:105290000246D1E72368E26B606C576900FB083077
:1052A000052205A9B84705A81EF0A6FD834605A856
:1052B0001EF079FD074658461EF0C3FD68B15745FC
:1052C00038BFC4F82480B94528BFB946BD4238BFAD
:1052D0003D46BA46236A0133236208F10108C1E75B
:1052E0004FF6FF7300256362E3699D42C1D2676C8C
:1052F0002068E36B052207FB05005B6905A9984759
:1053000005A81EF050FD0135EEE7E26B676C2068E2
:10531000694607FB030055690522A84768461EF049
:1053200042FD626A2368606C504D00FB02301EF043
:1053300093FD4FF0FF33A062E3622A466FF0010154
:10534000204605ABFFF776F900284FD1AD68294616
:105350002046E5621EF0E5F8206320B92046E16AA8
:105360001EF0C0F9E062294620461EF0BBF9054652
:10537000A36A9D423CD16569626CE91C143AB1FB99
:10538000F2F14FF0000805EBC1050335B5FBF2F56E
:10539000C1460235E36999453CD3A8455AD2204617
:1053A000616A1EF012F90027064604F1400AB8456A
:1053B00012D8626C2368694602FB0639E36B05224A
:1053C0005B694846984768461EF0EDFC5346024626
:1053D0004946E06B1EF042FD314620461EF0F5F8CE
:1053E0000137AF420646E2D364200EE7A56AAEE776
:1053F000294620461EF095F8236B294603440746AC
:10540000236320461EF06EF90546002FB0D1C4E993
:105410000B07ADE7636C2768052203FB0977E36B95
:1054200005A95B693846984705A81EF0E5FC1EF003
:1054300008FD60B138461EF00FFD014620461EF003
:1054400070F8636C143B984208BF08F1010809F139
:1054500001099FE730461EF053FB00232046194602
:10546000034AFFF791F90020CFE600BF441800205F
:10547000D13703000023624A2DE9F04117680E4638
:105480000446136018B921252846BDE8F08190F83C
:1054900034500DB309680268914240F0A9807168E8
:1054A0004268914240F0A480B1688268914240F025
:1054B0009F80F168C268914240F09A8031694269E8
:1054C000914240F09580B169C26B914240F090806A
:1054D00072691D468261D7E750222946D0F838808C
:1054E00027F072FCD6E90212336804F10800236049
:1054F0007368C4F838806360336963617369A3615A
:105500001EF010FBB36904F14000E3639B68984709
:1055100094F8432020B1E561002AB4D05B25B3E7BD
:10552000656C002DF7D06668B6FBF5F3E361002AE1
:10553000A9D0B542F2D82268B2FBF5F105FB1122E1
:10554000002A57D105FB1363002B53D120461DF0D1
:10555000D8FFA369043303449E424DD340F634720E
:105560006369CC3B934249D8B5F5007FD6D303217C
:1055700020461DF0EFFFD4E90001E36B1B6898475C
:105580000546E36B0220DB6898471DB1002384F8D1
:1055900034301DE039462046FFF716FE64280546E4
:1055A00004D139462046FFF70FFE0546636C143BD5
:1055B000002DEBD1226A204602FB03F61DF0A1FF6D
:1055C000A369043303449E4206D284F834505A251A
:1055D000E06B1EF058F957E70123D4E90001094AAE
:1055E00084F834301368013313601EF035FBEFE7A5
:1055F0005D2549E7592547E75A2545E75F2543E7F4
:10560000A8110020A41100202DE9FF410F4690466B
:105610001E46054698B390F8343093B3B1F5801F19
:1056200031D21A4C02211DF095FF224639462846F8
:105630000DF10F03FEF7FEFF024678B1012342464B
:105640000093394633462846FFF7D0FC0446E86B02
:105650001EF019F9204604B0BDE8F0819DF80F3026
:10566000012BEBD12169B142E8D100934146334689
:105670002846FFF7A5F904460028DFD1E7E72124F3
:10568000E8E71124E6E72924E4E700BF70180020CA
:105690002DE9FF410C4616461F46054680B390F89B
:1056A00034307BB3B1F5801F2ED2DFF8608001214A
:1056B0001DF050FF2146424628460DF10F03FEF72C
:1056C000B9FF044670B99DF80F30012B11D1D8F8FD
:1056D0001030BB4212D10246009031462846FFF7F7
:1056E0006FF90446E86B1EF0CEF8204604B0BDE822
:1056F000F081022B14BF2D246024F3E76324F1E72B
:105700002124F2E71124F0E72924EEE770180020A5
:105710002DE9F04385B00C4617461E460546DDF8D8
:10572000308098B390F8343093B3B1F5801F31D204
:10573000DFF8649001211DF00DFF21464A462846FE
:105740000DF10F03FEF776FF044688B99DF80F3080
:10575000012B14D1D9F8102006EB08039A4213D379
:1057600000904346324639462846FFF729F9044659
:10577000E86B1EF088F8204605B0BDE8F083022BE8
:1057800014BF2D246024F3E76324F1E72124F2E71A
:105790001124F0E72924EEE7701800202DE9F341E9
:1057A0001F4600230C46164605463B6050B390F852
:1057B00034304BB3B1F5801F28D2DFF8548001217B
:1057C0001DF0C8FE2146424628460DF10703FEF7AC
:1057D00031FF0446A0B99DF80730032B10D0022BEF
:1057E0000AD10123336004233B60E86B1EF04BF8C1
:1057F000204602B0BDE8F081D8F810303060F3E701
:105800002D24F2E72124F3E71124F1E72924EFE71F
:105810007018002030B50C46054685B028B390F8C6
:10582000343023B3B1F5801F23D202211DF092FE44
:105830000DF10F03214628460F4AFEF7FBFE0346F3
:1058400088B99DF80F20032A0DD00322214600922B
:1058500002462846FFF7CAFB0446E86B1EF013F821
:10586000204605B030BD2D24F7E72124F8E71124A8
:10587000F6E72924F4E700BF701800202DE9F04373
:10588000466886B3056898464FF0000CA946AE46B8
:1058900055F83C400CF1010CC4F31307013401D05E
:1058A000B94217D066450EF1080EF1D12F460024FB
:1058B00003E0A64207F1080712D055F8343001344E
:1058C0000133F6D1C1F3130141EA0851C7E90012CF
:1058D000BDE8F08341EA0851CEE90012BDE8F0834B
:1058E000B8F1030F03D101230372BDE8F083002355
:1058F00003E09E4209F10809F5D055F83340013321
:10590000C4F30754032CF4D1C1F3130343EA08533F
:10591000C9E90032BDE8F0832DE9F0410646406850
:1059200082B0C0B10F4690460024336853F834501B
:1059300003EBC403C5F30752C5F31301013504F1AA
:10594000010406D05B683046CDF80080B84710B13E
:1059500070688442E9D302B0BDE8F081024B196857
:10596000024B1868FFF786BD683B0020883B00208B
:1059700008B52AF062FA014B186008BD9C18002097
:10598000014B18682AF054BA9C18002073B50446DD
:105990002248012A00EAC1119DF8185023F07C40EA
:1059A00007D9961E012E28D9073303F07F03194328
:1059B00008E09DF81C300A43DB0603F0C053134394
:1059C00043F060410023C4E900108DF80730B5B101
:1059D000202221460DF107001EF05AFA1A220DF17D
:1059E0000700211D1EF054FA082063689DF8072067
:1059F00043EA8263636002B070BD1143E2E71B2299
:105A00000DF1070021461EF043FA23689DF8072098
:105A1000042043EAC2632360EDE700BF80FFFF0775
:105A200038B5094B0D461A680021044627F0CCF919
:105A300000234FF0FF322383C4E900252361A260D5
:105A4000E382A37638BD00BF200B04000138C0B24A
:105A500005289ABF014B185C01207047250B0400F4
:105A60002DE9F0410746154600240E46596888B0D6
:105A7000490A012922464FEA510104F10104F8D8EC
:105A8000DC78997824031B88C90201F4006104F4CE
:105A900080540C43C3F30A035203234492B24FF0E1
:105AA00000089C18274B6FEA0444039325F07843C1
:105AB000ED4302A90DF107001B2202938DF8078028
:105AC0001EF0E6F99DF80720029B02A943EAC26393
:105AD0000DF107001B2225F07845049302958DF8FF
:105AE00007801EF0D5F99DF80720029B6FEA144449
:105AF00043EAC26305934FF0FF330794069307A967
:105B0000BB69012206F110009847BB6905A904464C
:105B1000012206F108009847BB69404518BF0446BA
:105B200004A90122301D98470122404518BF0446B0
:105B3000BB69304603A99847404508BF204608B0D6
:105B4000BDE8F08101009AB2044BD3F88420D2065C
:105B5000FBD4D3F88400C0F381107047004000509C
:105B600038B5184B0546D3F824010C4600F0070061
:105B7000062823D8DFE800F0040A121A1E0E1600C9
:105B8000012305B1286004B1236038BD29F0BEF9B6
:105B90000523F6E729F0BAF90623F2E729F0F6F92A
:105BA0000323EEE729F0F2F90423EAE729F0EAF902
:105BB0000223E6E729F0F0F90723E2E7002318467D
:105BC000DFE700BF0080005038B5104B0546D3F822
:105BD00000310C4603F00303022B0BD0032B0DD036
:105BE000012B0FD129F0D2F9032305B1286004B1AC
:105BF000236038BD29F0D4F90823F6E729F0CCF961
:105C00000723F2E701230020EFE700BF00800050E8
:105C100038B5104B0546D3F820310C4603F003038A
:105C2000022B0BD0032B0DD0012B0FD129F06EF9D5
:105C3000052305B1286004B1236038BD29F0A6F919
:105C40000323F6E729F09EF90223F2E7012300205F
:105C5000EFE700BF0080005038B5104B0546D3F881
:105C600040310C4603F00303022B0BD0032B0DD065
:105C7000012B0FD12AF0D6F8092305B1286004B111
:105C8000236038BD29F08CF90823F6E72AF0CDF817
:105C90000B23F2E701230020EFE700BF0080005054
:105CA00038B5104B0546D3F860310C4603F00303BA
:105CB000022B0BD0032B0DD0012B0FD12AF0B2F801
:105CC000092305B1286004B1236038BD29F068F9C3
:105CD0000823F6E72AF0A9F80B23F2E701230020B6
:105CE000EFE700BF008000502E4B98424AD022D8E8
:105CF0002D4B984240D014D82C4B984239D00AD81A
:105D00002B4B984232D02B4B98422FD02A4B9842A3
:105D10002CD000207047294B9842FAD1284B186F9D
:105D20007047284B98422AD0274B9842F1D1244BF8
:105D3000D3F880007047254B98422BD009D8244BCC
:105D4000984223D0234B9842E3D11D4BD3F88C00CB
:105D50007047214B984221D003F5740303F510538B
:105D60009842D6D1164BD3F898007047144B986DD3
:105D70007047134B586E7047114B586F7047104B5C
:105D8000986F70470E4BD3F8840070470C4BD3F8D4
:105D9000880070470A4BD3F890007047084BD3F83F
:105DA000940070470048E8010024F400C0CF6A0066
:105DB00080841E0000093D0040420F00405DC60087
:105DC0000080E00FC0EA210180BA8C01007E5603FA
:105DD00080D54302006CDC020090D00373B50D4601
:105DE00000210E4B0191D3F88041064604F00304D4
:105DF000012C09D0022C0CD00C460EB1019B336053
:105E000005B12C6002B070BD01A8FFF701FF0F249F
:105E1000F3E729F0B7F80190EFE700BF00800050EA
:105E200038B5104B0546D3F840320C4603F0030357
:105E3000022B0BD0032B0DD0012B0FD129F0F2FF39
:105E4000092305B1286004B1236038BD29F0A8F802
:105E50000823F6E729F0E9FF0B23F2E700231846B1
:105E6000EFE700BF0080005038B5144B0546D3F86B
:105E700000020C4600F0070004281BD8DFE800F001
:105E800003090D111500012305B1286004B1236039
:105E900038BD29F0C7FF0923F6E729F081F8082368
:105EA000F2E729F0C2FF0B23EEE729F055F80E23A5
:105EB000800AE9E700231846E6E700BF00800050AB
:105EC00010B40D4C0B46D4F8204204F00304012C0E
:105ED0000AD0022C0CD008B1002101600BB10022C5
:105EE0001A605DF8044B70475DF8044BFFF790BEF5
:105EF0005DF8044BFFF7B0BE00800050B0F5207F86
:105F00001FD009D8B0F5007F15D003D868B1B0F51F
:105F1000C07F0AD000200CE0B0F5607FFAD10B4BB7
:105F2000D3F88000C0F3011003E0084B186FC0F3F2
:105F3000033001307047054BD3F89000C0F3046084
:105F4000F7E7024B186FC0F38020F2E700800050A3
:105F50004FF400320E4B014610B500209A66FFF751
:105F6000CDFF484341F671320A490B4B884294BF3A
:105F700000200120DC69DA639A6822F4401242EAC8
:105F800000529A60E20344BF0022DA6310BD00BFF2
:105F900000900050005A620200000350420910B500
:105FA0000FD0012A0FD00A4B0A4C022A18BF2346F1
:105FB00000F01F0049B103F58053012282401A60AE
:105FC00010BD1346F4E7044BF2E703F50053F4E782
:105FD0006880005060820050648000501FB500212E
:105FE000B0F5807F0446019100F0068100F29D80AB
:105FF000612800F295801F2805D8002840F0928083
:1060000028F0AAFFDCE0A0F12004412C00F28A80F5
:1060100001A353F824F000BF01600100C561010035
:1060200001600100C5610100E5610100E561010059
:10603000E5610100E5610100C5610100C561010084
:106040009F610100596101001B620100256201008E
:1060500059610100C5610100C5610100C561010010
:106060002561010025610100256101002561010014
:106070002561010025610100EF6101007B610100E4
:10608000C5610100C5610100C561010039620100FF
:106090002F620100C5610100256101002561010039
:1060A00025610100256101002561010025610100D4
:1060B00025610100256101002561010025610100C4
:1060C00025610100256101002561010001600100D9
:1060D0002561010001600100016001000160010013
:1060E000E5610100256101002561010025610100D4
:1060F0002561010025610100256101002561010084
:106100002561010025610100256101002561010073
:1061100025610100256101000160010001600100AD
:1061200080284BD0019804B010BDB0F5A06F5ED0B0
:1061300028D8B0F5607F50D019D8B0F5007F4CD08A
:1061400004D8B0F5C07F3FF45BAFEBE7B0F5207F3C
:1061500038D0B0F5407FE5D128F0FEFE02464FF47E
:106160002070FFF7CBFEB2FBF0F2520833E0B0F53F
:10617000806F37D0B0F5906FD4D1002101A8FFF720
:10618000EFFCCFE7B0F5E06F51D00DD8B0F5C06FA0
:1061900043D0B0F5D06F45D0B0F5B06FC2D100217B
:1061A00001A8FFF71BFEBDE7B0F5F06F44D0B0F5D6
:1061B000086FB7D101A8FFF707FDB3E728F0ACFEE1
:1061C0000190AFE728F0C8FE02464FF42070FFF7B9
:1061D00095FEB2FBF0F20192A4E728F09DFE024684
:1061E0002046F4E7002101A8FFF712FD9AE70021FD
:1061F00001A8FFF765FE95E74FF0E02302911B69C8
:106200005B0705D528F0A8FE0290029B019389E761
:1062100003A902A8FFF720FDF7E7002101A8FFF777
:106220001BFD7FE7002101A8FFF71EFE7AE7002192
:1062300001A8FFF7F5FD75E7002101A8FFF730FD84
:1062400070E700BF08B58020FFF7C8FE034B9842F7
:106250009EBF4FF48032024B1A6708BD005A62029B
:1062600000A000501FB503460020B3F5807F0190C9
:106270006FD027D8382B00F082800BD8243B092B15
:106280000FD8092B0DD8DFE803F05F5F5F5F0C0CC0
:106290005A0C3675522B57D007D83D2B3AD03E2B8F
:1062A00072D0019805B05DF804FB802BF9D1394B11
:1062B0001B6F03F00703013B032BF2D8DFE803F069
:1062C0003D36393BB3F5D06F54D019D8B3F5A06F34
:1062D00055D00AD8B3F5806F36D0B3F5906FE0D1C2
:1062E000002001A9FFF73CFCDBE7B3F5B06F26D037
:1062F000B3F5C06FD5D1002001A9FFF7ADFCD0E701
:10630000B3F5006FECD00AD8B3F5E06F3CD0B3F52D
:10631000F06FC6D1002001A9FFF7C2FCC1E7B3F5B9
:10632000086FBED101A9FFF74FFCBAE7052301931F
:10633000B7E70323FBE70723F9E70223F7E700208A
:1063400001A9FFF74BFDACE7002001A9FFF760FCB6
:10635000A7E74FF0E02302901B695B0705D528F003
:10636000FBFD0C230393039BE1E703A902A8FFF7BE
:1063700073FCF8E7002001A9FFF776FD91E7002004
:1063800001A9FFF79DFD8CE7002001A9FFF748FD5B
:1063900087E700BF008000504FF48032074B084968
:1063A000586E03F580535A660B6A23F001030B62A3
:1063B000C3035CBF034B5A66704700BF00800050A8
:1063C00000C0075000A0005008B5FFF74BFF082899
:1063D00011D00938012802D94FF6FF7008BD4FF4DB
:1063E0000012064B5A6603F5D8335B6ADB07F3D518
:1063F0004FF4FA70F2E7024B1888EFE70090005074
:10640000AC3D002008B5FFF72DFF03280ABF024B63
:106410004FF6FF70188808BDAA3D0020F8B5044665
:106420008020FFF71FFF032800F087804FF4002231
:10643000424B02215A6645F60E03414AC2F88030AB
:10644000404B9962012103F580539962936DD90302
:10645000FCD4D4E900131B0543EA0163E17B94F803
:1064600020500B43217BE77E43EA0143617B6D01B2
:1064700043EA0133A17B43EA811313619169D4E9B3
:1064800004031B0643EA806301F000410B43A17E35
:1064900094F823000B43217E43EA0143617E43EAE3
:1064A00001239361136AE66923F00D0394F8221027
:1064B00043EA8703002E2DD11362966A94F82130A7
:1064C00045EA031326F033052B4343F0010393629F
:1064D0001D4D1B4B9A6D35EA0202FBD10222194D6C
:1064E000AA621A659A6D5200FCD41A69A56822F452
:1064F000700242EA05521A614FF00042114B9A6154
:1065000019B9022203F580539A6278B901220F4B20
:106510009A620BE0334343F008031362936A23F05B
:10652000330303432B4343EA4103936294F824303B
:106530001BB1034B064AC3F88020F8BD0090005001
:1065400000C0005000D000500300014000E00050A7
:10655000F1A7FFFF014B93F9000070473538002089
:10656000F0B5D0E901434FF480061A4A4178057826
:1065700056664FF4D156022702F5B8325662164ECF
:106580004F2977604FF0010728BF4F2106F580564D
:1065900077601669F603FCD441EA052151611B01BD
:1065A000417B43EA04230B43017B43EA41039360AD
:1065B000C37B817B1B0143EA4113417C0B43017C7C
:1065C00043EA41035360837C13B16FF4D1535362A8
:1065D000F0BD00BF0090005000100250014B188029
:1065E000704700BFAC3D0020014B1880704700BFD2
:1065F000AA3D00204FF4001208B5184B5A6602233A
:10660000174A5360936813F48033FBD1012822D1D9
:1066100028F0BCFC134B984215D003F5122303F568
:10662000F863984213D0104B00EB8002400AB3FB92
:10663000F0F3520A0A49CA620B6301234B6200223B
:10664000074B5A6008BD45F67A13084AF2E745F64B
:106650001A03074AEEE75362F1E700BF00900050CB
:106660000040025000F0490264666666D8B8050032
:10667000BBCF0500B0F5207F10B50C4642D008D83E
:10668000B0F5007F33D003D888B1B0F5C07F0ED00D
:1066900010BDB0F5607FFBD11F4A4C1ED2F8803090
:1066A00023F0300343EA0413C2F88030F0E71DF012
:1066B0000DFC1DF019FC4FF48031184B164A196778
:1066C000136F013C23F4704343EA0433136728F04B
:1066D00043FC0446FFF738FAC0F1020120461DF0E2
:1066E000FDFB00F035F8BDE81040FFF7ABBD0A4AEE
:1066F0004C1ED2F8903023F0F85343EA0463C2F8FA
:106700009030C5E7044A4C1E136F23F4806343EABC
:1067100084231367BCE700BF008000500090005046
:1067200008B50121022000F085F94FF42070FFF731
:10673000E5FB054B18701DF0C9FB1DF0D5FB4FF4B0
:106740008032024B1A6708BD343800200090005098
:1067500008B54FF4C070FFF741FCBDE8084004499C
:10676000884294BF012102214FF42070FFF782BFBD
:1067700080F0FA0238B5044628F0EEFB0546FFF734
:10678000E3F9C0F1020128461DF0A8FB0121002019
:1067900000F090F92CB1FFF7DBFFBDE83840FFF7C0
:1067A00051BD034B4FF420701978FFF763FFF4E7F6
:1067B000343800204FF4C02270B50546FFF794FA34
:1067C000314B04465A6603F598335A68012A04D1BE
:1067D0002E494A609A699207FCD18020FFF742FD5A
:1067E000052807D11DF072FB1DF07EFB4FF48032AF
:1067F000254B1A67264B24F040749D4230D0254B20
:106800009D4230D028F082FB8542064603D9012103
:10681000284600F04FF9204BDA6812F0060FFBD142
:1068200099689C609A68624012F4F81F1ED128464D
:10683000FDF7BCF88020FFF715FD05280DD128F0E5
:106840008BFB0446FFF780F9C0F1020120461DF0E2
:1068500045FBFFF77DFFFFF7F5FCAE420CD270BDA4
:1068600044F00074CEE744F08074CBE78020996058
:10687000FFF7F8FC052805D0BDE870400121002095
:1068800000F018B93546DAE70090005000E00150FA
:1068900040420F0080841E000000015010B5224BC2
:1068A00070B94FF40031214A1860516602F59832F0
:1068B0005268012A03D11E4AD2F800211A6010BD85
:1068C0001B68002BFBD01B4A5268012AF7D0184ADC
:1068D0008020C2F80031FFF7C5FC05281FD14FF416
:1068E000C070FFF70BFB0128044604D102214FF4CE
:1068F000C070FFF7BFFE07220F4B1A610122A3F5FC
:1069000080535A600B4A1369DB07FCD5012CD6D1A2
:106910002146BDE810404FF4C070FFF7ABBE012226
:10692000064B5A60CBE700BFA01800200090005033
:106930000080005000C0015000E0015000D0015024
:10694000044A4178536F23F4407343EA01235367A9
:10695000704700BF0040005010B5044610B1002041
:10696000FFF79CFF124A136943F00403136128F0F8
:10697000B3FE1DF0BEFA0F4B5B6E5B0142BF0E4BC8
:106980000E4AC3F8202429F058FA29F0A5FB29F073
:106990004FFA1DF0AFFA03F0BBFA1CB9BDE8104086
:1069A00028F0DABA0120BDE81040FFF777BF00BF3A
:1069B00000ED00E00080005000E003500000FF0FF9
:1069C00010B5044610B10020FFF768FF104A1369A4
:1069D00043F0040313610F4B5B6E5B0142BF0E4B30
:1069E0000E4AC3F8202428F077FE29F026FA29F071
:1069F00073FB29F01DFA03F08BFA1CB9BDE81040B7
:106A000028F0AABA0120BDE81040FFF747BF00BF39
:106A100000ED00E00080005000E003500000FF0F98
:106A2000034A0179D36E23F030030B43D3667047DA
:106A300000400050F8B504461C4BD3F88420D10622
:106A4000FBD4D3F88430C3F381139C422CD028F0BC
:106A500063FA012C064602D121461DF03FFA29F0C7
:106A6000ECF94FF00072124B07465A6620461DF0B3
:106A700048FA4FF480630D4D621E93402B676B6E96
:106A80009A0103D4D5F884309B060AD5384629F0FC
:106A9000CFF9022C08D13046BDE8F84000211DF0A6
:106AA0001DBAD5F88430EAE7F8BD00BF00400050B9
:106AB0000060005010B50C4608B928F02DFA074BBD
:106AC00021461B783BB1064B984204D80120BDE813
:106AD0001040FFF7AFBF0220F9E700BF36380020B3
:106AE000005A62020278034B012100201A70FFF75E
:106AF000E1BF00BF363800204FF0004238B5264BCA
:106B000026495A6601224A604AF6CD3103F50B2325
:106B10005D6C1964154030BB9968C9070BD400241B
:106B200001221F4B5A6015B11E4B1F4A1A6425F0F3
:106B30006DFB204638BD1A498A601C4AD96ACC07C9
:106B400005D4904201D10724EAE70130F6E79042EC
:106B5000E5D1F8E70132DC6A14F0080406D08A4275
:106B6000F8D10724DFE700221049F4E78A42F8D081
:106B700020220B4B0B495A620122A3F580539A60E5
:106B800023460A4A486A800603D49342E9D0013377
:106B9000F8E79342C7D1E4E7009000500050095055
:106BA00000600950004009503254FFFF40420F007E
:106BB0004FF0004238B5174B174C5A66012203F5C7
:106BC0000C235A604AF6CD33656C236443789340B6
:106BD0001343124AD363C3788178A2689B0043EAC7
:106BE000011322F074021343A3600279837943EA0C
:106BF000022323614279C37943EA02236361007867
:106C0000FFF77AFFEB0744BF054B236425F0FEFA3C
:106C1000012038BD00900050004009500040005055
:106C20003254FFFF10B504461DF070F9002341F205
:106C300002020849E360A360226104F50052E361A7
:106C40006361A36123626362E362A3645164A3622C
:106C500010BD00BF7F370C0138B50446154639B961
:106C60001848844214BF08463820FFF7B7F9014698
:106C70006368A36803F0E003402B1AD003D8D3B1B4
:106C8000202B1AD038BD602B19D0802BFAD10123CC
:106C90006B434901B1FBF3F10B4A2039204602EA6C
:106CA000C10201211DF02EF9A262BDE838401DF09D
:106CB00029B90623ECE71023EAE70823E8E70423D1
:106CC000E6E700BF0000035AF8FF7F00F8B543680D
:106CD00004460D4616461BB140F2FF711DF012F935
:106CE0002046FFF79FFFE9896B7B22690B43298AC6
:106CF00022F44C520B4322F0030213432361A26897
:106D00002B7B297E22F0804222F0E2020B431343C8
:106D10006A69AF681343A3601FB9A36843F00043D7
:106D2000A360EB69002B57D0987A1A7A4004A168C7
:106D300040EA82503E4A0A4010439A8802F4C04218
:106D400010435A7840EA82005A7B40EAC2009A7B9C
:106D500040EA02109A7840EA8220A060E168D3E914
:106D6000042021F4D81121F4C06102430A43997927
:106D700042EA8122D97942EA4122E2601A78012A64
:106D800005D1E26842F00402E2602A4A06E0032AE2
:106D90003DD1E26842F00402E260274A0121C2F8D4
:106DA000C0105A7A04F580510A621AB1E26842F4BE
:106DB0000062E260DA7A4AB1E268204942F40042B5
:106DC000E2601A7B02F00F02C1F88020E269DB7BEF
:106DD00022F003021343E36136B196F8203004F544
:106DE0008051C3B101238B61052120461DF0ABF812
:106DF0001FB13A466968FFF72FFF204629781DF03A
:106E0000BFF8236CDB4313F4405FFAD1F8BD023ABC
:106E1000012AC2D9B9E7626996F8223096F82100B2
:106E200022F009020343134343F001034B61DBE704
:106E3000E39BBDFF00E4035000D4035000900350D7
:106E4000F8B504460D461F4616464AB101238B404D
:106E50003021184A01FB0022F7B141F210015350D2
:106E600004EB4403072D4FF00F014FEA031316D82C
:106E7000A80006FA00F281400F4818441DF08FF870
:106E80004EB9012330210B4AAB4001FB042277B1FC
:106E900041F210015350F8BD42F21001DFE7A5F1B5
:106EA0000800800006FA00F281400448E5E742F25B
:106EB0001001EFE700C0035004C003500CC00350A2
:106EC00010B5152001F08CFE0024FF22064B214650
:106ED0005C6520209A625C60FFF760F82146BDE89F
:106EE00010402120FFF75AB800000450044A054B17
:106EF000002908BF1346012282401A60704700BF74
:106F0000401004504020045010B5012104462020B8
:106F1000FFF744F801212120FFF740F80122114B2F
:106F200015205A60227812069A606178A27842EAA7
:106F300001429A61FF229A6200229A631A644FF01A
:106F400000425A654FF0FF3203F500531A6501F015
:106F500075FE1520E1781DF028FABDE810401520D7
:106F600001F050BE00000450F8B50125C3B2DFF8AF
:106F70008CC0D1F800E09D408F7ACB7A0C46097B1B
:106F8000CCF850500CF5005C4CF820E04FF0300E7F
:106F9000184E1B050EFB006094F80DC043EA074332
:106FA00043EA415322F00302C0F860C0C3650267A0
:106FB00028F04CFF104B5D65237A13B1336C2B43E3
:106FC0003364637A13B1B36B2B43B3632279A37930
:106FD00043EA0243094A93616179E37943EA014351
:106FE00005498B61034B55639D64BDE8F84028F06B
:106FF00028BF00BF000004500010045000200450BF
:1070000010B50124C0B2844028F020FF044B5A6D13
:1070100022EA04025A659C62BDE8104028F011BFC4
:107020000000045010B50124C0B2844028F00EFFC7
:10703000074BDA6A224208D15B6B9C430CBF0124E8
:10704000002428F0FEFE204610BD0024F9E700BF12
:107050000000045070B5054628F0F8FE3022084BB9
:107060005E6B02FB05335C6E28F0EBFE0123EDB294
:10707000AB4033420ABFC4F30A100020013070BD98
:10708000000004504FF40032054B9A6641F671320D
:1070900003F51C33DA63012203F50053DA6070470D
:1070A0000090005041F671320121064BDA6303F57E
:1070B0000052D1600022DA634FF40032A3F5183396
:1070C0009A66704700000350CB784A7810B55B0190
:1070D0000C7843EA82030A79234343EA02130C2221
:1070E000424302F1B0421363012C02BF8A78024B83
:1070F00043F8202010BD00BFE880035008B54FF0D2
:10710000B0435A686AB958B15B680BB11CF056FFBE
:1071100001210D4B59601CF051FF4FF0B043D96075
:1071200008BD5B680BB11CF049FF0028F0D11CF0D2
:1071300045FF4FF0B0430222DA601CF03FFF01220E
:10714000024B5A60ECE700BF0010005800200058C6
:107150004FF0B0414B6810B50BB11CF02FFF01226E
:107160000B4BC4785A608378934043EA8403447895
:107170002343047943EA0413447943EAC4038B604C
:10718000044B5A600378C3F10203CB6010BD00BF0B
:1071900000200058001000584FF48032064B5A6609
:1071A00003F5E6235B69C3F38512827003F03F02A7
:1071B0001B0B42700370704700900050014B986C9D
:1071C000D96C70470080E00F024B1868C0F307408D
:1071D000704700BF0080E00F0120034B9B680A331B
:1071E00003F01F03984070470080E00F012200F574
:1071F00080535A6040F6AA6341F2050243610023BE
:107200000B498360C365C26000F500520361C3612E
:10721000C364916407498365884203D103650023F1
:10722000436502E004498842F8D001235360704767
:10723000FFFF010000C005500000065038B50D46A4
:10724000FFF7D4FF012200F580535A602B8A826831
:1072500043F001031343AA7B044643EA822383607D
:1072600083682A7D43EA42738360AB7C5BB11D4A2D
:10727000EB7C90422DD1A2F51032C2F88C31E36D37
:1072800043F08003E3652B7B2046D5E9011243F4EC
:107290008053E3601CF09AFE6B7B0BB1102363619B
:1072A0006B7D1BB1A36843F48033A360AB7D1BB13E
:1072B000A36843F40043A360EB7D2A7E1B071205FD
:1072C00003F0E04302F4E0021343A3652B7863610B
:1072D00038BD054A904204BFA2F52032C2F89C3165
:1072E000CDE700BF00C0055000000650034BD3F8A7
:1072F0002424D3F820041040704700BF00C003507E
:10730000064BDA6E02F03002202A06D0DA6E22F046
:10731000300208B142F01002DA66704700400050B7
:107320002DE9F8431E4B0546D3F810334B1E0E2BA8
:107330000E46174690F8009044781DD909B34FF0D7
:1073400000082846D7B128F087FD09EB4903072C30
:107350004FF00F014FEA031315D8A400114808FAA3
:1073600004F2A14018441CF04BFEBEB928468FB170
:10737000BDE8F84328F070BD8846E2E71CF04FFEF8
:10738000E3E78846E1E7083CA400074808FA04F26E
:10739000A140E7E7BDE8F8431CF041BEBDE8F88333
:1073A00000C0035004C003500CC003502DE9F0414D
:1073B0002B4B1746D3F810234A1C06460C46407840
:1073C00004D1D3F824141CF038FE0446002C2FDB23
:1073D000072C4FF0030532782DDC4FEA840805FABC
:1073E00008F529461F4802FA08F21CF009FE294652
:1073F00072781D4802F0030202FA08F21CF000FE47
:10740000012317F0050F194A18BF194903FA04F3AD
:107410000CBFC2F81034C1F8103417F0060F18BFB3
:10742000134AC2F814340123104AA340C2F820348E
:107430002046BDE8F081A4F108084FEA880805FA63
:1074400008F529460B4802FA08F21CF0D9FD7278BB
:10745000294602F00302084802FA08F2CEE700BF0C
:1074600000C0035000C4035008C4035000E00350A0
:1074700000D0035004C403500CC4035038B5054673
:107480000C4C0140D4F8303423EA0003C4F8303403
:10749000D4F830341943C4F83014D4F82C340343EE
:1074A000C4F82C34012004F50054FFF729FFC4F878
:1074B000205438BD00C00350124B70B5D3F81033C0
:1074C00006461CF0D4FD0446481C154603D1621C38
:1074D00005D1204670BD631CFBD08C420ED13046D6
:1074E000032185F00102FFF71BFF012004F11003C7
:1074F00005FA03F19840FFF7C1FFEAE74FF0FF34C8
:10750000E7E700BF00C003504FF48032084B5A66D3
:1075100003F5E6235B691A0B027003F03F02427029
:107520004FF6FF72C3F3851342808380704700BF1C
:1075300000900050014B03205B6870470080E00F13
:10754000014B986CD96C70470080E00F70B5044611
:1075500024F087FE064630B90FCC044D0FC594E8E1
:10756000030085E80300304670BD00BFA41800206A
:1075700047F6FF739A42F0B56FD002296FD8394BA6
:107580005B5C012B6BD8384DDF0005EBC30415F8AD
:107590003330A178012B13D10025E078401AA8429E
:1075A00002D80844C0B2F0BD431B6668A0EB530389
:1075B00036F913609642D4BF1D4603F1FF30EEE763
:1075C00060680028EFD0B0F90040944204DBB0F9C5
:1075D00002409442B8BF144683883D44FF2B19BF34
:1075E000C8224FF0280CB0F90620B0F908C0A2EB71
:1075F00004030CBF0126002693FBFCF333446E7892
:107600001BB29E4201DD002B01DA731E1BB24FF448
:107610007A7C01339BB2071D5D1E2DB24FEAC50E69
:1076200000EBC505EA88AD689E4214FB025222EACF
:10763000E27202F15C02B2FBFCF204DD37F8335077
:1076400001339542E8D200EB0E039888904228BFA0
:107650001046884238BF0846A4E7FF20A3E7002071
:10766000A1E700BF2B0B0400A41800200229F0B5ED
:1076700055D82C4B585C012851D82B4C04EBC00139
:1076800014F830004B6801280FD1C8788C789042EC
:1076900094BFC4EB0001C4EB0201001BCAB28242DA
:1076A000C8BF002233F91200F0BD002B37D0887814
:1076B000904202D3B3F90200F6E7CC78B3F90000A8
:1076C0009442F1D94C789988013CA1F1FF067142AE
:1076D00003F10405E4B2714103F10C07CEB2B442E8
:1076E00016D805EBC1014FF47A756A43B1F902402F
:1076F0004968521A04EBD47102EB610292FBF4F276
:107700009042D1DBB3F902009042CDDC10B2CBE75E
:1077100037F831C04E1C9445E3D33146DEE70348C9
:10772000C2E700BF2B0B0400A41800200080FFFF5D
:1077300008B50448FFF70AFFBDE80840012024F01F
:1077400094BD00BF300B040000487047AE3D0020E0
:107750007FB50222084B0949CDE901234FF00073A0
:10776000CDE90313052301A94FF0FF30059324F061
:10777000C5FD07B05DF804FB006A180000020400B4
:1077800006289ABF014B185C00207047B40B040018
:1077900030B5154B87B00293144B0390049346F613
:1077A00011030D46059300F077F91428044616D10D
:1077B00068461CF023FD4FF0A843032202A95A6338
:1077C00019601D619A63DA6B9207FCD1142C02D107
:1077D00068461CF021FD00F093F9044601E0002802
:1077E000E9D0204607B030BDBC18002004000020BE
:1077F0002DE9F04FB1B005468C469E46E8466F4EE7
:10780000DDF8EC90409C06F1100A4746306871683C
:10781000083603C75645B846F7D13E9B03EB02082E
:10782000C8F1000A0AF00F0AB9F1000F00F09D80BC
:10783000C9F1000707F00F070121DDF8FCB044F0A3
:107840000050C4F11006CDF810B00591069030023A
:1078500000F4F85040F021000790B9F1000F40F01B
:107860008680CDF820D047F00050002D00F08480B5
:10787000099121210A9041EA07210B9142F0005021
:10788000CDF830C03D9B08A94FEA0A2C0D910E900F
:107890004CF041000F901093002A75D13E9B11913E
:1078A00043F0005312933C9B1390149310AB159329
:1078B000434B444A169340F611031793424B002161
:1078C000002D08BF1346189314AB19933F4B102299
:1078D0001A9311231B931CAB184625F075FA01224D
:1078E0001D92002246F0804603461E96239205B95B
:1078F000EB46102CCDF880B024AE4BD101232246AC
:10790000002130462193229425F05EFA20AB00211D
:1079100025938F4218BF334647F0804226923A9A09
:107920002CA828922993B2FA82F35B0949EA83735F
:1079300010222B912A9325F047FAB9F1000F00D0BD
:1079400028AED04448F080432CA918A82D962E9339
:10795000FFF71EFF30B92DB90346A34225D10028F9
:1079600018BF2C2031B0BDE8F08F102764E7CDF8A8
:1079700020E049F0005078E7002C3FF479AF04A9EB
:10798000099101210A9076E73E9B0CAA11924120B1
:10799000129388E71022002130462193229425F08B
:1079A00013FA002CB2D10123B1E703F1C0026A44FB
:1079B00012F8C02C01331043CFE700BFBB0B04000B
:1079C00010000020D00B0400D40B040004000020A1
:1079D000F0B5C0299FB0DDE9244557D0B1F5807FCF
:1079E00004D0802948D029201FB0F0BD01265CB109
:1079F00040F2344702941024039604942124019702
:107A00000594069502AC0AE040F214470294102453
:107A10000396049421240594012401970695079464
:107A200001251024089409950A9221220B950C94A3
:107A30000D92174A0AAD0E92164A0F95109242F611
:107A400011021192129313951494159201AA169291
:107A5000D3B112AB1793042318931123199316ABC8
:107A60001A901B9340F61103C9081C911AA806A985
:107A70001D93FFF78DFEB7E7012614B94FF4826717
:107A8000C4E74FF48667B5E70EABE3E70F20ABE73B
:107A9000CC0B04001000001038B5164B5A6E42F0A3
:107AA00004025A66D3F8802242F00102C3F8802211
:107AB000114B5B68C3F3080343B14FF0A842D36B8B
:107AC00013F0430FFBD11424204638BD4FF0A843D8
:107AD000DC6B14F04304FBD1084D2B681BB9042167
