S014000062745F736F635F7365727665722E73333770
S214012000C80A00200D2D01007F0203007F02030095
S2140120104F1103007F0203007F0203007F020300CB
S2140120207F0203007F0203007F0203007F0203009A
S2140120307F020300CCC50300F11103007F020300F9
S2140120407F0203007F0203007F0203007F0203007A
S2140120507F0203007F0203007F0203007F0203006A
S2140120607F0203007F0203007F0203007F0203005A
S214012070F97D01007F0203007F0203007F02030057
S2140120807F0203007F0203007F0203007F0203003A
S2140120907F0203007F0203007F0203007F0203002A
S2140120A07F02030071300100513001007F020300FE
S2140120B07F020300DD9702007F0203003DA20200BB
S2140120C04B910300479103001D9A020061910300A2
S2140120D04F9103000DA20200539103007DA202005E
S2140120E08D790200517B0200EDA202007F020300FF
S2140120F07F0203007F0203007F0203007F020300CA
S2140121007F0203007F0203007F0203007F020300B9
S2140121107F0203007F0203007F0203007F020300A9
S2140121207F0203007F0203007F0203007F02030099
S2140121307F0203007F0203007F0203007F02030089
S21401214082B030BF074BD3F8F030DB0704D500234D
S2140121500193019B052B01DD02B07047019B013302
S214012160F6E700BF00ED00E0F0B5114A114C124E43
S21401217000F00105E3695F0713D40DB9334213D1AB
S21401218003EA00078F4207D10B4A1A40002A0CBF08
S21401219000206FF00100F0BD013AEBD16FF00200B4
S2140121A0F9E74FF0FF30F6E76FF00100F3E700BF05
S2140121B08096980000000350020001000B4B70B59A
S2140121C0D96911F480310DD101244FF48072084E83
S2140121D0084DF46020462C641A61FFF7C5FF34648D
S2140121E0EC6070BD6FF00100FBE700BF000003501C
S2140121F000100350002003504FF4003238B50F4B47
S2140122000F4C9A6641F671330122E569E3630D4B83
S2140122100021DA60022360612120236105F4803504
S214012220FFF7A2FF10B92120FFF79EFF0122064B00
S214012230DA600DB10023E36338BD00BF00900050A3
S21401224000000350001003500020035070B5134CDB
S2140122506061E3695B071ED40E4656F8043B8D1891
S214012260A361AE420BD10423002121202361FFF795
S2140122707BFF58B9BDE870402120FFF775BF0821E4
S2140122800846FFF771FF10B10423236170BD56F8AD
S214012290043BA361E5E74FF0FF30F7E7000003508A
S2140122A02DE9F84315464FF40032184B89469A66D5
S2140122B041F6713203F51C33DF69DA630122064603
S2140122C003F58053DFF84C8007F48037DA6055B9A0
S2140122D0284601220E4BDA601FB10022A3F50053F7
S2140122E0DA63BDE8F88306F5005404EA0804A41B83
S2140122F0AC4228BF2C46494622463046FFF7A6FF89
S2140123000028E6D12644A1442D1BE0E700900050AA
S2140123100020035000E0FFFF000000000000000066
S214012320013800D0FCE77047002370B5404C0546E5
S2140123308AB0E36318B1008823600CF0D9FC3D48ED
S21401234026F09FF93C4E3D4B304633603C4B736064
S21401235023F07CF90021304611F02CFB32A3D3E99F
S2140123600023A062C4E9062323F07BF9D4E90623FF
S21401237019431043C4E90601CDE900014FF0FF33CC
S2140123804FF0FF32A06A26F023FA02224FF0FF3107
S214012390A06A26F022FA01200CF02AFA4FF4007304
S2140123A000222849A06A26F079FAB0F5007F39D1D3
S2140123B000239422079309933C23CDE90332059326
S2140123C0962306935023A06A03A9089311F006FCEE
S2140123D035B3287C0CF078FF0546F0B9A06A26F0E4
S2140123E052FB0CF01FFF0CF0E5F920B14FF48070A2
S2140123F0002108F0B9FF0CF0EDF920B14FF40060B0
S214012400002108F0B1FF23F0FCF9012026F00DF9B8
S2140124100D4A0E49A06A23F017F928460AB070BD86
S214012420FF20D7E70725F8E70DD501552000000066
S214012430380B0020690345ECDC1B002029E601006F
S214012440EC1B0020DC190020F15503003156030077
S2140124500348044B834202D0034B03B1184770472D
S214012460D8290020D829002000000000064B074983
S214012470C91A891048BF0131491003D0044B0BB16A
S21401248001481847704700BFD8290020D8290020E6
S2140124900000000010B5064C237843B9FFF7D8FFBB
S2140124A0044B13B10448AFF300800123237010BD21
S2140124B07024002000000000340D040008B5054B10
S2140124C01BB105490548AFF30080BDE80840FFF79A
S2140124D0CDBF00BF00000000B00D0020340D040089
S2140124E0A3F5803A704700BF174B002B08BF134B6C
S2140124F09D46FFF7F5FF00218B460F461348144A09
S214012500121A26F061FF0E4B002B00D098470D4B98
S214012510002B00D098470020002104000D000D4834
S214012520002802D00C48AFF3008018F04DFA2000C6
S21401253029001DF032FE18F0EDF800BF000008007B
S2140125400000000000000000C80A0020C80A0020A1
S21401255080250020000000000000000030B5036860
S2140125603E4A23F47F4323F007039342044685B093
S21401257060D009D8A2F5A022934221D002F580228C
S214012580934227D005B030BD354A934243D002F17D
S2140125909E7202F580329342F4D101238DF80F30FA
S2140125A0B0F80D30002BEDD1B0F80510FF220DF17B
S2140125B00F03007910F06EFE2A4818F061F9E1E782
S2140125C004220120114610F07BFE0221012010F0AA
S2140125D08FFED7E7244D254818F052F9601D0622D4
S2140125E0294626F0C7FE04460028CBD1204818F01D
S2140125F047F921461F4B00936A792B79286843EAED
S214012600022363F30F012246012310F0B5FD0028D3
S214012610B8D000BEFDE70221FF2010F085FD08B10D
S21401262000BEFDE70221FF2010F092FD0028A9D090
S21401263000BEFDE7104818F023F9104B4FF6FD7267
S21401264001934FF6FF7300932321FC23207B10F0A8
S214012650F1FD002896D000BEFDE700BFA0000600F1
S214012660A000060147C30300AE29002010C30300E3
S2140126701CC30300B42900202EC303002429002014
S2140126800022014B1A8070472424002010B529F03F
S214012690E9FC054A148814B1631E0124138029F04D
S2140126A0DCFC204610BD00BF242400207FB5036853
S2140126B0264A23F47F4323F00703934243D10021A4
S2140126C008221220224B0DF04BFD014608B100BE38
S2140126D0FDE7032214201F4B0DF042FD014608B111
S2140126E000BEFDE7052216201B4B0DF039FD08B193
S2140126F000BEFDE70DF1070102A810F07DFD0146C1
S21401270008B100BEFDE7BDF80C3008225BBAADF893
S21401271010309DF80B3018208DF81230FF238DF8FD
S2140127201330FE238DF814309DF80A308DF81530DD
S214012730BDF808305BBAADF8163004AB0DF010FDED
S21401274008B100BEFDE707B05DF804FBA00001007C
S21401275064C303006DC3030071C3030008B503F02F
S21401276047F901280ED1124B04205A6E4FF48023EC
S2140127701049520358BF104A4B6601F510410862D2
S21401278058BF536604F068FD00F00AFA1EF058FCC4
S21401279004F03EFD1EF045FC04F0A2FD00F0F4F945
S2140127A000F044FB01F01EFFBDE8084005F026B925
S2140127B0008000500090005000A0005008B5064B65
S2140127C0834208D1054B1B782BB1C8B210F002FD2D
S2140127D008B100BEFDE708BDC80D00207124002029
S2140127E030B500250368354A23F47F4323F00703F9
S2140127F085B0934204460295ADF80C5037D002F5E9
S214012800802293420CD0A2F18272934253D12C4B78
S2140128101B78002B4FD005B0BDE830401EF0DBBC66
S214012820B0F805301B2B46D1FF2304A91A4611E93F
S21401283003001DF01BFD012814BF41F2FC15204BBF
S2140128404FF01B0108BF187005F0FC0220790DF04F
S2140128509DFC08B100BEFDE71A49009023791A4A8B
S21401286009681A4800F070F828B300BEFDE7B0F812
S2140128700530B7EE047A07EE903AF8EE677AB0F8CC
S214012880073067EE877A013307EE103AB8EEC77A5B
S21401289067EE877AB1EE047A67EE877AFAFE677A90
S2140128A0FCEEE77A17EE903AB3F57A7F38BF4FF42D
S2140128B07A73044A136005B030BD00BFA00006025B
S2140128C0712400206C270020BD270100C80D0020C0
S2140128D038B5054629F0CFFB00230B4A14685CB1D6
S2140128E0AC4206D1A96A6BB1996229F0BFFB0120FF
S2140128F007E02346A46AF2E7002DF3D029F0B6FBE1
S214012900204638BD1160F0E7000E002010B50446E1
S214012910B0B129F021F92046FFF7DAFF10B194F89B
S2140129202C300BB9002010BD064C2368002BF9D0C3
S21401293029F0A1FB2368013B236029F097FBF1E70F
S2140129402220F0E7040E00202DE9F04385B005466D
S214012950914698460E469DF8307009B9002F5CD115
S2140129602846FFF7D3FF0446002836D185F82C0009
S214012970686305F0FBF9864233D929F081F92146CF
S214012980844640F2E7304FF47A720023E6FB0C01EE
S21401299017F030FD4FF0FF32002317F02BFD2B46CA
S2140129A0E88611462846CDE900441D4A29F037FC41
S2140129B0044690B9C5E9089885F82D702E6329F06C
S2140129C05AFB184A136833B31A469B6A002BFBD18D
S2140129D095620023AB6229F049FB204605B0BDE8AD
S2140129E0F08347B12B4631462846CDE900440C4AD0
S2140129F029F098F9DCE7304603A929F047F904469F
S214012A000028EAD12B462846CDE90077044A0399E7
S214012A1029F0E1FBCCE71560DBE72124DDE700BF09
S214012A20292A0100000E002091F82C3013B50C461F
S214012A3083B98B8ECA8E93420ED243B9CDE9003349
S214012A4020460B46124A4FF0FF3129F0A8FBA38E11
S214012A500133A38602B010BD52B191F82D3093B167
S214012A6001230093D1E908232046096BFFF76CFF89
S214012A70012384F82C30074B1A6801321EBF1A68EE
S214012A8001321A60E6E7084629F066F8F0E700BF6B
S214012A90292A0100040E00202DE9F041154E336865
S214012AA033B34FF00008144F29F0E5FA05463C68A9
S214012AB024B92846BDE8F04129F0D8BA94F82C305C
S214012AC0A3B1336884F82C8013B13368013B3360BB
S214012AD094F82D3013B92046FFF7FAFE284629F060
S214012AE0C5FAD4E9083120469847DDE7A46ADFE74E
S214012AF0BDE8F081040E0020000E0020034B1B6889
S214012B00002B14BF04200120704700BF040E0020D4
S214012B10024B1868B0FA80F040097047040E002096
S214012B207FB54FF480630022ADF80430ADF808306D
S214012B30ADF80C30134B08281B88ADF81420ADF8FF
S214012B40103019D007DC01280CD0022811D00E2035
S214012B5007B05DF804FB202811D04028F7D10421E6
S214012B6005A802E004210DEB010000F0E5F90020C4
S214012B70EEE7042102A8F8E7042103A8F5E70421FB
S214012B8004A8F2E7A4C5030008B504481EF050FAED
S214012B901DF039FBBDE8084000F008B854C7030033
S214012BA001481EF045BA00BF54C703002DE9F043A3
S214012BB0494E4FF0020935468DB005AC0FCD0FC416
S214012BC095E807000125B38BDFF82081ADF80430C6
S214012BD0F38B368C84E807004048414FADF8083047
S214012BE0ADF80090ADF80C601EF022FA40461EF0DB
S214012BF01FFA3C4B384605A907938DF8225002F080
S214012C0031FF2A460421684600F096F9294600223B
S214012C1001A800F091F92A46042102A800F08CF9D7
S214012C202A46042103A800F087F94FF002132E4C20
S214012C304FF44870C4F83036A3F58033C4F82C3608
S214012C401C23C4F83496C4F81C3605F0EFF804A823
S214012C50ADF8106000F0D0F9142005F0E7F804A8EC
S214012C60ADF8106000F09CF9232005F0DFF804A809
S214012C70ADF8106000F0C0F9B92138461EF050F8E2
S214012C8004A8ADF8106000F08BF9002268461146E2
S214012C9000F052F9002201A8114600F04DF92A462B
S214012CA0002102A800F048F92A46002103A800F0F6
S214012CB043F9384602F0AEFE00234046C4F81C36FF
S214012CC0C4F83036C4F82C36C4F834361EF0B3F9DE
S214012CD00DB0BDE8F08300BFA8C5030054C70300CC
S214012CE000C0055000127A0000C003504CC7030014
S214012CF00348044A0449121A92101DF0C1BA00BFD3
S214012D0040210100202301008025002008B500F0A5
S214012D102FF8FFF7EDFF124B12498B4212D300201A
S214012D20114B12498B4218D3FFF7DEFB186850F897
S214012D302240586840F82240013298688242F5D312
S214012D400C33EAE70022F8E71C6844F82200013257
S214012D505C68A242F8D30833E4E70022F8E700BF34
S214012D603C0D0400480D0400480D0400480D040005
S214012D704FF40041134B144A70B59A60D3F888207B
S214012D80124D42F47002C3F88820114A05F500542A
S214012D9091664FF0FF3222664FF6DF7262660222BC
S214012DA0C3F8D020BFF34F8FBFF36F8F4FF4403679
S214012DB0032004F087FA0320E66004F067FA2E6128
S214012DC070BD00BF00ED00E000200100008000445F
S214012DD000900050014B1860704700BF7427002018
S214012DE0054B1860054B1B6F03F00703032B01D13E
S214012DF028F054BA704700BF7C270020008000509E
S214012E0000239B6AB3F5903F03D21968064A9142A4
S214012E1003D00023037083607047012202709A6812
S214012E209B694260F7E700BF07B0CD5E00239B6A4F
S214012E3010B5B3F5903F11D219680A4A91420DD1E7
S214012E40094C227812F0FD0F01D0002010BDDB697D
S214012E5098470028FAD101232370F6E74FF48170D2
S214012E60F4E700BF07B0CD5E72240020024B034A90
S214012E701A601EF0E7B800BF0000002002020FF043
S214012E80BFF34F8F0549064BCA6802F4E06213434D
S214012E90CB60BFF34F8F00BFFDE700BF00ED00E042
S214012EA00400FA052DE9F04104460C254FF001080F
S214012EB0124E0CB314F001000BD0002024F00104D4
S214012EC005FB00625768002FF3D09168C0B2B8477F
S214012ED0EFE72246013020284FEA520201D0D307FD
S214012EE0F8D508FA00F20F2824EA0204E8D91038C7
S214012EF005FB0062B432E5E7BDE8F081080E00206C
S214012F0008B50C481EF094F8192004F0CDF928B144
S214012F10192004F0D7F9192004F0B8F91A2004F0A2
S214012F20C3F928B11A2004F0CDF91A2004F0AEF93D
S214012F30002008BD54C703002DE9F0410E46174690
S214012F40054610B30F2922D80378DBB1013BDBB26B
S214012F50022B1CD8104AD35C6A78D340DB0716D5FF
S214012F600E4BD3F81043A4B929F085F880463A46AB
S214012F702846314602F0D8FD404629F077F820462B
S214012F80BDE8F08140F2FF13E6E72224F7E72124AB
S214012F90F5E70224F3E700BF1CC6030000C0035098
S214012FA010B5044608B30378E3B1013BDBB2022B4C
S214012FB01DD8104AD35C6278D340DB0717D529F0B9
S214012FC05AF80122617823788A4030214B4341F236
S214012FD0100103F1A04303F570335A5029F046F867
S214012FE0002010BD40F2FF13E5E72220F9E721207B
S214012FF0F7E700BF1CC6030010B5044608B3037804
S214013000E3B1013BDBB2022B1DD8104AD35C6278D8
S214013010D340DB0717D529F02EF8012261782378F3
S2140130208A4030214B4342F2100103F1A04303F5DD
S21401303070335A5029F01AF8002010BD40F2FF13E1
S214013040E5E72220F9E72120F7E700BF1CC60300C9
S21401305008B502F05FFD054B00F0553020F050201A
S214013060C3F82004BDE80840FFF71CBF00E003508A
S21401307008B502F04FFD054B00F0AA3020F0A02065
S214013080C3F82004BDE80840FFF70CBF00E003507A
S2140130902DE9F04F144606460D469B46C36B87B096
S2140130A001225B6902A960689847F36B01225B699C
S2140130B003A92846984702A81DF0F9FC074648B11F
S2140130C00023A37563754FF0FF33A360002007B09C
S2140130D0BDE8F08F03A81DF0F7FC0123A375237E3E
S2140130E004EBC303DD611F846368AB420ED120602D
S2140130F003A81DF00BFD4FF0FF332075A360237D61
S214013100043B022B26D80023A375DFE723681A1A8F
S21401311053425341A37503A81DF0F8FC237D834257
S21401312018BFA77503A81DF0D3FC074602A81DF01B
S214013130CFFC874218BF002303A818BFA3751DF054
S214013140CFFC074602A81DF0CBFC87421CBF00231C
S214013150A375D4E703A81DF0BBFC80B1F36B022274
S21401316028465B6904A9984704A81DF0C0FC0346DD
S214013170207D032839D8DFE800F03838040903A891
S214013180F3E7CC22237E04EBC3031A8401F0A2FAF0
S214013190109B187003A8277E1DF08EFC04EBC70752
S2140131A087F82200237E03A804EBC303B3F820901C
S2140131B093F822701DF08CFC804603A81DF090FC4D
S2140131C08246B8F1000F15D0F36B022228465B69E0
S2140131D004A9984704A81DF04FFC6075637D6BB980
S2140131E00023A3754FF0000838E0227E04EBC202EC
S2140131F01384CBE703A81DF02AFCEEE794F81680AB
S214013200B8F1000FEED0B9F1000F09D1DFB10123FB
S214013210627EE375002A44D19F4218D1677614E096
S214013220736C05EB0A02594285EA020008421CBF8C
S2140132300021A175591E0A409B1A9945D0D8A37D35
S214013240002BE3D1CEE7E37D43B94FF000084B46B0
S2140132505246294630461DF068F9A060A27D12B19B
S21401326023694B4423611449237E097899421ED968
S21401327001332376BBF1000F1BD0D2B1E37DC3B17E
S214013280B8F1000F15D1032F13D0A1684B1C10D035
S214013290109B2246009330460123FFF7F9FEA075E6
S2140132A007E0012FDAD0032F08BFA376CDE700236E
S2140132B0A375A07D0BE700BF40C603002DE9F04FC4
S2140132C00E46984600238BB004464FF0FF31104659
S2140132D017468DF8133001F0E7F9B6F5801F3BD39A
S2140132E0B21C53D1E56A6B1C57D12046616A1DF0AA
S2140132F062F80546B31C18BF0123DFF8109101934D
S214013300636A626C0293236805A902FB053AE36BC4
S21401331005225B695046984705A81DF063FC1DF021
S21401332086FC50461DF08EFC4FF0000B824601468F
S2140133304B1C05D0636C81EA0A025B42134232D011
S214013340294620461DF037F8029BAB424DD0BBF113
S214013350000F4DD10546D3E7314605AA04F1080012
S2140133601DF0F3FA0146481C10D0384601F09CF9CE
S2140133700122394620460DF113031DF028F928B124
S2140133809DF8133088F80030002003E0237C002BE2
S214013390A8D12D200BB0BDE8F08F2368ED1A636C21
S2140133A0B5FBF3F5A6E7484601F07EF90DF11303E8
S2140133B049462046019A1DF00AF9034690B1B21C0F
S2140133C003D0D9F80020B2420CD19DF81320039304
S2140133D00D4B88F8002049461A68384625F0FFFF4D
S2140133E0039B9B46D9F80810A2E7BBF1000FD0D08B
S2140133F0B6F5801FC8D2314698F800307A6804F1D5
S214013400080001F07FF8BFE73CC60300E415002082
S2140134102DE9F3410446174698460E46194D816A32
S214013420E36A8B422AD04B1C18E0284601F03CF98F
S2140134300122294620460DF107031DF0C8F830B1D8
S2140134404346294620469DF80720B847B0B1A968EB
S2140134504A1C05D0012E0AD0E36A9942E5D10DE057
S214013460696820461DF034F8012E0146D8D16B68F4
S21401347081EA0302636C5B421A42D1D002B0BDE816
S214013480F08100BFB81500202DE9F041036B90468E
S214013490826B07689A4288BF8363426C436A90B026
S2140134A002FB0377C36B0E46052201A95B6904463E
S2140134B03846984701A81DF095FB01280146307053
S2140134C057D0656CE26B2368606AD2F814C005FBBE
S2140134D00030052206A9E04706A81DF083FB012857
S2140134E04FF0000523D0D4E90A3201219342CDE9F9
S2140134F00B458DF834800E958DF83C102AD119466F
S21401350020461CF0E5FF236B626C14339B1AE062C5
S21401351023630C9B53B99DF83C303BB1626A616CE6
S2140135202368E06B01FB02311DF014FB0C9DE36B7D
S21401353005225B6901A93846984701A81DF052FB90
S21401354030702846236BA26B9A4288BFA36310B0E3
S214013550BDE8F081237C33B91C490BAA04F10800AD
S21401356001F01EF8D5E72046194A0BABFFF750FFCE
S214013570CFE7237C23BB2246164904F1080001F05D
S2140135800FF8616A20461CF037FF616A421C20462C
S2140135901CF000FF054620B9236B626C1344143BF4
S2140135A023632046A16A1CF093FF2368A062C01A19
S2140135B0636CB0FBF3F0606220461CF0CCFFB6E70C
S2140135C000232046044AFFF723FFDAE79D3D01006A
S2140135D0193D010057060300F305030073B50D46B8
S2140135E0D11E4A421C461B7E4A419A4226D1296870
S2140135F02368994222D3636899421FD8114E0DF170
S21401360007033246FFF75AFEC0B972686B689A42E2
S21401361014D19DF80730DA1E53425341227E93425D
S2140136200CD1636901336361D4E90323934205D264
S2140136302968A26842F8231001332361012002B0F1
S21401364070BD00BF101600202DE9F04F9A468BB0D2
S2140136509DF85030DFF850B10293DBF81030804609
S21401366053450D461646C0F09980D146DBF8043026
S2140136700193B9F1000F00F08D80D8F83C3001229B
S2140136805B6907A90198984707A81DF01DFADBF8A2
S2140136900030984240F0858007A81DF021FA0428E2
S2140136A0074614D107A81DF022FA019B029A044688
S2140136B03B44002A3FD1864212D91446361A404668
S2140136C001991CF005FFA9EB04090190D1E7D8F890
S2140136D03C3002225B69019808A9984708A8E2E7EE
S2140136E0841B544528BF5446032C03EB0607AAEB5C
S2140136F0040A4FEA94021CD9D8F83C3029463846C9
S2140137005B69984724F0030304F003061F441D4435
S214013710002ED4D0D8F83C3001225B6908A938467F
S21401372098473246284608A9354425F058FE002613
S214013730C5E72646ECE7074600F00302039203447A
S2140137402A1804920593049BDD1B059BD81B039B3B
S2140137509F420FD1002FB2D0D8F83C30012208A9E1
S2140137605B6998473A46284608A925F003FE78B9CA
S2140137703D44A4E7D8F83C30012208A95B69984784
S2140137800422284608A925F0F5FD08B9043FDAE722
S2140137904FF0360948460BB0BDE8F08F4FF063098D
S2140137A0F8E74FF06F09F5E73C1600202DE9F041E8
S2140137B00F4616469846044688B060B390F83450D3
S2140137C0FDB101211CF0BCFD00210E9BCDE90511C8
S2140137D0CDE902379DF83C30CDF804808DF81C30D9
S2140137E0237C04968BB90D4901AA04F1080000F068
S2140137F0D7FEDDE90553E06B002E08BF1D461CF021
S21401380038FF284608B0BDE8F0812046044A01ABDF
S214013810FFF7FEFDEDE70546F3E700BF21060300CF
S214013820DD3501002DE9F04F99B00F4609920A697E
S214013830416C0E931439D31DB3FBF1F3013302EB44
S214013840C302036B04469342C0F00D820023DFF8E7
S21401385020940D93E36A48461946079300F024FF27
S214013860D7E9033604930E9B022B4ED1CC2E40F0A3
S2140138708A81099B002B42D0394620461CF057FF0F
S214013880656C079A6B1E13401490ED1AE36B0122C8
S2140138905B6916A97868984716A81DF019F90028DB
S2140138A00CBF04230823782E06933DD90123002557
S2140138B04FF0080A05933B6805990E98C9F8003041
S2140138C0C9F810601DF026F94FEA9A0310930023F9
S2140138D0DDF81CB089F814000B930F9308930C9332
S2140138E0616C4A1E0BEA02028B1A002E38D0554430
S2140138F0AB4240D8236B5B1A13442363ABE0049BB3
S2140139001B68149308230693D0E7656C079A6B1E11
S2140139101340782EA5EB030516D8FB7D7BB9099BD2
S214013920002BB3D104230693331DAB4210D9A6B1A5
S214013930082DBBD804250023AA460593BBE7099B9F
S214013940002BA3D10823EEE7099B002B9ED1D9E7D4
S214013950002505954FF0040AADE704250596F9E71D
S2140139605345C7D3B0460BEB0A030393089B002BC2
S21401397018BF032313E0A3EB0A039E42B0460BEBEA
S2140139800A0228BF98469E420392EFD90123D9F82E
S214013990102089F81730964271D1C9F804B00893FF
S2140139A099F81730002B6CD099F818200899D31C79
S2140139B009EBC3030132C3F804B0A3F80880997277
S2140139C089F81820B8F1000F14D00E9B022B5BD19A
S2140139D00B9B7BB90F9B4344032B0BD9E36B012253
S2140139E09B69039814A998470546002840F03D8135
S2140139F001230B93089B16A80193059B009399F846
S214013A0014204346396800F005FEE36B58469B696F
S214013A10109A16A99847051E0D9B18BF5B4652467D
S214013A200D935946434620461CF07FFD236B08F153
S214013A300302A3EB0A0322F003029B1AC9F808004B
S214013A402363002D40F011810F9BDDF80CB0434439
S214013A50A6EB08060F93594620461CF039FD0025B3
S214013A608346002E7FF43CAF814A3968936804F19F
S214013A700800E36252680E9B00F044FDDEE002237C
S214013A808DE7C9F804B09DE7099B002B30D1049B54
S214013A90B8F1030F43440A9327D9DDE90301E36B29
S214013AA04FEA98029B6998470546002865D118F0A9
S214013AB003025FD0049B28F003052B440493039B69
S214013AC01D444FF0FF33049915A8159325F087FC84
S214013AD0E36B28469B69012215A9984705460A9B70
S214013AE00493002D86D0039B99E74246039DE8E7A1
S214013AF0039B0A9307F120031193FB7D78689BB122
S214013B0000233D7E0C9AD9B28D4211D9119903F149
S214013B10010C31F83310914226D9069907EBC303FD
S214013B20D8690A44104403E00C9B069A13441844CF
S214013B30E36B01225B6915A99847159B0122139334
S214013B400C9B0A9804330C93E36B13A99B69984763
S214013B50039B0A9A43449B1A042B054607D978B956
S214013B60134604330A93C8E76346521ACBE70A9B07
S214013B700393B6E70A9B04933CE70A9B0493B2E7D8
S214013B800A9B0393AFE7702604F1080303932368A7
S214013B90079A606CA2EB030ABAFBF0FA00FB0A3044
S214013BA01DF050F8E16A804620461CF091FCA26A9E
S214013BB082424AD0626CD9F80830511E0B40216B04
S214013BC02568891A0B4423630D9BE0625D1BB5FBD8
S214013BD0F2F5AA4536D1079BB3EB080A12D0E36B80
S214013BE04FEA9A0241469B6998478346E36A079AD9
S214013BF05344E362236B03989B1A434423631CF0EC
S214013C0075FEDA462368616CE06B01FB05311CF03A
S214013C108EFF20461CF09FFB20461CF09CFC206378
S214013C20BAF1000F11D03A69616CD31D1439B3FB98
S214013C30F1F3013302EBC3029042A8D2304619B029
S214013C40BDE8F08F4FF0000ADCE73A69616CD31DDE
S214013C501439B3FBF1F3013302EBC302236B934236
S214013C60BFF4F8ADEAE71C26E8E72E468CE700BF6E
S214013C70E41500202DE9F3471E4643690446B34286
S214013C80884617469DF828903DD300258DF80750A5
S214013C9020461CF02CFBD4F830A082450AD2236AB9
S214013CA0B5EB430F06D2002220460DF10701FFF7C0
S214013CB0EBFB30B39DF80730012B05D100222046DF
S214013CC00DF10701FFF7E0FBB9F1030F06D031460E
S214013CD020461CF0F7FA256B854218D30D4D4FF0A0
S214013CE0FF31284600F0E0FC4B46002229462046DC
S214013CF0C5E90376C5F8008002B0BDE8F047FFF7D6
S214013D0091BD0135C4E7622002B0BDE8F0871C20F2
S214013D10FAE700BF10160020032A2DE9F3410646F4
S214013D200D4617461C4606D1237A012B23D00120C7
S214013D3002B0BDE8F081DFF86080096842460DF107
S214013D400703FFF7BBFA60600028EDD19DF8072056
S214013D50237A032AE8D0D8F804106A689142E3D19E
S214013D60012B2969D4F80CC007D172690CEB010349
S214013D70934202D92074207CDAE708316144E1607D
S214013D803B46012229463046FFF74CFD606000287D
S214013D90CAD00020CCE700BF101600202DE9F34161
S214013DA0089C032A1746266806D1237A012B24D0BD
S214013DB0012002B0BDE8F081DFF89080304642462F
S214013DC00DF10703FFF77AFA60600028EDD1256848
S214013DD0D8F80400A96AD5F844C04840CCF10003DD
S214013DE01840227AE1D1012A09D1E268D8F81030C8
S214013DF013447269934202D92074207CD9E728685B
S214013E00EB6A1B1A081AB3FBFCF3B0FBFCF0834207
S214013E100BD1706CF36A421E1340326B121A1344B4
S214013E20284633631CF054FBE862D8F81020E36898
S214013E3008321344E36001223B4604492068FFF739
S214013E40F1FC60600028B0D00020B2E71016002018
S214013E502DE9F04F4FF0FF334FF6FF720025044671
S214013E6000F10806C0E909238BB0C3620562056349
S214013E7030460F461CF03AFD20461CF06CFA20BB7B
S214013E80204639461CF0E7FA20461CF064FA20BBAF
S214013E905E200BB0BDE8F08FE26B2368606CD2F851
S214013EA014C000FB0530052205A9E04705A81CF053
S214013EB099FE012828D1294620461CF09DFA421C6D
S214013EC0294620461CF066FA0135E3699D42E3D394
S214013ED020461CF040FA0028D2D000254FF0FF39CA
S214013EE04FF6FF73CA46A846C4E90853E3699845E6
S214013EF014D3A5EB0905012D36D84FF6FF72636A78
S214013F00934246D16720C4E71CF096FE0028DBD01A
S214013F10294620461CF070FA0246D1E72368E26B78
S214013F20606C576900FB0830052205A9B84705A84B
S214013F301CF058FE834605A81CF02BFE0746584683
S214013F401CF075FE68B1574538BFC4F82480B945E2
S214013F5028BFB946BD4238BF3D46BA46236A01333B
S214013F60236208F10108C1E74FF6FF73002563627B
S214013F70E3699D42C1D2676C2068E36B052207FBAB
S214013F8005005B6905A9984705A81CF002FE0135E6
S214013F90EEE7E26B676C2068694607FB030055692C
S214013FA00522A84768461CF0F4FD626A2368606C27
S214013FB0504D00FB02301CF045FE4FF0FF33A0626F
S214013FC0E3622A466FF00101204605ABFFF776F95A
S214013FD000284FD1AD6829462046E5621CF097F9C6
S214013FE0206320B92046E16A1CF072FAE062294695
S214013FF020461CF06DFA0546A36A9D423CD16569D0
S214014000626CE91C143AB1FBF2F14FF0000805EBC3
S214014010C1050335B5FBF2F5C1460235E36999459D
S2140140203CD3A8455AD22046616A1CF0C4F9002741
S214014030064604F1400AB84512D8626C2368694600
S21401404002FB0639E36B05225B69484698476846DA
S2140140501CF09FFD534602464946E06B1CF0F4FDFA
S214014060314620461CF0A7F90137AF420646E2D397
S21401407064200EE7A56AAEE7294620461CF047F9FC
S214014080236B294603440746236320461CF020FA87
S2140140900546002FB0D1C4E90B07ADE7636C27686E
S2140140A0052203FB0977E36B05A95B693846984748
S2140140B005A81CF097FD1CF0BAFD60B138461CF04F
S2140140C0C1FD014620461CF022F9636C143B984260
S2140140D008BF08F1010809F101099FE730461CF005
S2140140E005FC002320461946034AFFF791F90020F4
S2140140F0CFE600BF10160020BD0503000023624A6C
S2140141002DE9F04117680E460446136018B92125BB
S2140141102846BDE8F08190F834500DB3096802686E
S214014120914240F0A98071684268914240F0A480B3
S214014130B1688268914240F09F80F168C2689142FE
S21401414040F09A8031694269914240F09580B169A8
S214014150C26B914240F0908072691D468261D7E73A
S21401416050222946D0F8388025F02EF9D6E90212D9
S214014170336804F1080023607368C4F8388063600C
S214014180336963617369A3611CF0C2FBB36904F10F
S2140141904000E3639B68984794F8432020B1E561AB
S2140141A0002AB4D05B25B3E7656C002DF7D06668AE
S2140141B0B6FBF5F3E361002AA9D0B542F2D822682E
S2140141C0B2FBF5F105FB1122002A57D105FB13635B
S2140141D0002B53D120461CF08AF8A369043303440C
S2140141E09E424DD340F634726369CC3B934249D824
S2140141F0B5F5007FD6D3032120461CF0A1F8D4E9FB
S2140142000001E36B1B6898470546E36B0220DB68F9
S21401421098471DB1002384F834301DE03946204606
S214014220FFF716FE6428054604D139462046FFF7F7
S2140142300FFE0546636C143B002DEBD1226A204627
S21401424002FB03F61CF053F8A369043303449E42B1
S21401425006D284F834505A25E06B1CF00AFA57E768
S2140142600123D4E90001094A84F834301368013384
S21401427013601CF0E7FBEFE75D2549E7592547E7A3
S2140142805A2545E75F2543E7740F0020700F00208D
S2140142902DE9FF410F4690461E46054698B390F815
S2140142A0343093B3B1F5801F31D21A4C02211CF081
S2140142B047F82246394628460DF10F03FEF7FEFF62
S2140142C0024678B1012342460093394633462846D2
S2140142D0FFF7D0FC0446E86B1CF0CBF9204604B08F
S2140142E0BDE8F0819DF80F30012BEBD12169B14279
S2140142F0E8D10093414633462846FFF7A5F9044620
S2140143000028DFD1E7E72124E8E71124E6E729249E
S214014310E4E700BF3C1600202DE9FF410C46164697
S2140143201F46054680B390F834307BB3B1F5801F45
S2140143302ED2DFF8608001211CF002F821464246A9
S21401434028460DF10F03FEF7B9FF044670B99DF834
S2140143500F30012B11D1D8F81030BB4212D10246D2
S214014360009031462846FFF76FF90446E86B1CF0CB
S21401437080F9204604B0BDE8F081022B14BF2D243D
S2140143806024F3E76324F1E72124F2E71124F0E740
S2140143902924EEE73C1600202DE9F04385B00C46B3
S2140143A017461E460546DDF8308098B390F834303F
S2140143B093B3B1F5801F31D2DFF8649001211BF071
S2140143C0BFFF21464A4628460DF10F03FEF776FF4A
S2140143D0044688B99DF80F30012B14D1D9F8102066
S2140143E006EB08039A4213D30090434632463946F9
S2140143F02846FFF729F90446E86B1CF03AF92046EF
S21401440005B0BDE8F083022B14BF2D246024F3E72A
S2140144106324F1E72124F2E71124F0E72924EEE7EB
S2140144203C1600202DE9F3411F4600230C46164694
S21401443005463B6050B390F834304BB3B1F5801F5E
S21401444028D2DFF8548001211BF07AFF214642462C
S21401445028460DF10703FEF731FF0446A0B99DF883
S2140144600730032B10D0022B0AD10123336004231B
S2140144703B60E86B1CF0FDF8204602B0BDE8F08119
S214014480D8F810303060F3E72D24F2E72124F3E763
S2140144901124F1E72924EFE73C16002030B50C463D
S2140144A0054685B028B390F8343023B3B1F5801FA4
S2140144B023D202211BF044FF0DF10F0321462846AB
S2140144C00F4AFEF7FBFE034688B99DF80F20032A24
S2140144D00DD003222146009202462846FFF7CAFB6A
S2140144E00446E86B1CF0C5F8204605B030BD2D2407
S2140144F0F7E72124F8E71124F6E72924F4E700BFBB
S2140145003C1600202DE9F043466886B305689846B8
S2140145104FF0000CA946AE4655F83C400CF1010C94
S214014520C4F31307013401D0B94217D066450EF122
S214014530080EF1D12F46002403E0A64207F1080732
S21401454012D055F8343001340133F6D1C1F31301DA
S21401455041EA0851C7E90012BDE8F08341EA085173
S214014560CEE90012BDE8F083B8F1030F03D10123B1
S2140145700372BDE8F083002303E09E4209F10809B7
S214014580F5D055F833400133C4F30754032CF4D166
S214014590C1F3130343EA0853C9E90032BDE8F083C7
S2140145A02DE9F0410646406882B0C0B10F469046FC
S2140145B00024336853F8345003EBC403C5F30752A1
S2140145C0C5F31301013504F1010406D05B683046DA
S2140145D0CDF80080B84710B170688442E9D302B0C4
S2140145E0BDE8F081024B1968024B1868FFF786BDDB
S2140145F080270020A027002008B527F033FD014BB7
S214014600186008BD68160020014B186827F025BD04
S2140146106816002073B504462248012A00EAC11133
S2140146209DF8185023F07C4007D9961E012E28D9F4
S214014630073303F07F03194308E09DF81C300A4353
S214014640DB0603F0C053134343F060410023C4E983
S21401465000108DF80730B5B1202221460DF1070074
S2140146601CF00CFB1A220DF10700211D1CF006FBA5
S214014670082063689DF8072043EA8263636002B0FE
S21401468070BD1143E2E71B220DF1070021461CF025
S214014690F5FA23689DF80720042043EAC2632360E5
S2140146A0EDE700BF80FFFF0738B5094B0D461A68D6
S2140146B00021044624F088FE00234FF0FF322383B6
S2140146C0C4E900252361A260E382A37638BD00BF5A
S2140146D03CC603000138C0B205289ABF014B185CDE
S2140146E00120704741C603002DE9F04107461546F3
S2140146F000240E46596888B0490A012922464FEA25
S214014700510104F10104F8D8DC78997824031B8858
S214014710C90201F4006104F480540C43C3F30A0394
S2140147205203234492B24FF000089C18274B6FEABD
S2140147300444039325F07843ED4302A90DF10700E5
S2140147401B2202938DF807801CF098FA9DF807202B
S214014750029B02A943EAC2630DF107001B2225F062
S2140147607845049302958DF807801CF087FA9DF82A
S2140147700720029B6FEA144443EAC26305934FF095
S214014780FF330794069307A9BB69012206F11000BF
S2140147909847BB6905A90446012206F10800984717
S2140147A0BB69404518BF044604A90122301D98473D
S2140147B00122404518BF0446BB69304603A9984705
S2140147C0404508BF204608B0BDE8F08101009AB216
S2140147D0044BD3F88420D206FBD4D3F88400C0F36C
S2140147E0811070470040005038B5184B0546D3F885
S2140147F024010C4600F00700062823D8DFE800F065
S214014800040A121A1E0E1600012305B1286004B10F
S214014810236038BD26F01CFD0523F6E726F018FDBB
S2140148200623F2E726F054FD0323EEE726F050FDBB
S2140148300423EAE726F048FD0223E6E726F04EFDCC
S2140148400723E2E700231846DFE700BF0080005099
S21401485038B5104B0546D3F800310C4603F0030378
S214014860022B0BD0032B0DD0012B0FD126F030FDE0
S214014870032305B1286004B1236038BD26F032FD5C
S2140148800823F6E726F02AFD0723F2E70123002096
S214014890EFE700BF0080005038B5104B0546D3F84F
S2140148A020310C4603F00303022B0BD0032B0DD053
S2140148B0012B0FD126F0CCFC052305B1286004B1ED
S2140148C0236038BD26F004FD0323F6E726F0FCFC42
S2140148D00223F2E701230020EFE700BF008000502B
S2140148E038B5104B0546D3F840310C4603F00303A8
S2140148F0022B0BD0032B0DD0012B0FD127F0A7FBDA
S214014900092305B1286004B1236038BD26F0EAFC0E
S2140149100823F6E727F09EFB0B23F2E7012300208E
S214014920EFE700BF0080005038B5104B0546D3F8BE
S21401493060310C4603F00303022B0BD0032B0DD082
S214014940012B0FD127F083FB092305B1286004B1A1
S214014950236038BD26F0C6FC0823F6E727F07AFB6D
S2140149600B23F2E701230020EFE700BF0080005091
S2140149702E4B98424AD022D82D4B984240D014D87C
S2140149802C4B984239D00AD82B4B984232D02B4B1D
S21401499098422FD02A4B98422CD000207047294BA2
S2140149A09842FAD1284B186F7047284B98422AD064
S2140149B0274B9842F1D1244BD3F880007047254B02
S2140149C098422BD009D8244B984223D0234B9842A7
S2140149D0E3D11D4BD3F88C007047214B984221D070
S2140149E003F5740303F510539842D6D1164BD3F84A
S2140149F098007047144B986D7047134B586E70476C
S214014A00114B586F7047104B986F70470E4BD3F889
S214014A10840070470C4BD3F8880070470A4BD3F8D4
S214014A2090007047084BD3F8940070470048E8019F
S214014A300024F400C0CF6A0080841E0000093D00F7
S214014A4040420F00405DC6000080E00FC0EA210131
S214014A5080BA8C01007E560380D54302006CDC02CE
S214014A600090D00373B50D4600210E4B0191D3F88B
S214014A708041064604F00304012C09D0022C0CD018
S214014A800C460EB1019B336005B12C6002B070BDBF
S214014A9001A8FFF701FF0F24F3E726F015FC0190AC
S214014AA0EFE700BF0080005038B5104B0546D3F83D
S214014AB040320C4603F00303022B0BD0032B0DD020
S214014AC0012B0FD127F0C3FA092305B1286004B1E1
S214014AD0236038BD26F006FC0823F6E727F0BAFA6D
S214014AE00B23F2E700231846EFE700BF00800050D3
S214014AF038B5144B0546D3F800020C4600F0070003
S214014B0004281BD8DFE800F003090D111500012366
S214014B1005B1286004B1236038BD27F098FA09234F
S214014B20F6E726F0DFFB0823F2E727F093FA0B23DC
S214014B30EEE726F0B3FB0E23800AE9E700231846CA
S214014B40E6E700BF0080005010B40D4C0B46D4F8C9
S214014B50204204F00304012C0AD0022C0CD008B128
S214014B60002101600BB100221A605DF8044B70470A
S214014B705DF8044BFFF790BE5DF8044BFFF7B0BE3F
S214014B8000800050B0F5207F1FD009D8B0F5007F17
S214014B9015D003D868B1B0F5C07F0AD000200CE06C
S214014BA0B0F5607FFAD10B4BD3F88000C0F301104B
S214014BB003E0084B186FC0F3033001307047054B14
S214014BC0D3F89000C0F30460F7E7024B186FC0F308
S214014BD08020F2E7008000504FF400320E4B014671
S214014BE010B500209A66FFF7CDFF484341F67132B3
S214014BF00A490B4B884294BF00200120DC69DA6326
S214014C009A6822F4401242EA00529A60E20344BFD4
S214014C100022DA6310BD00BF00900050005A620205
S214014C2000000350420910B50FD0012A0FD00A4BDD
S214014C300A4C022A18BF234600F01F0049B103F5AB
S214014C408053012282401A6010BD1346F4E7044BDC
S214014C50F2E703F50053F4E76880005060820050E5
S214014C60648000501FB50021B0F5807F0446019195
S214014C7000F0068100F29D80612800F295801F28D1
S214014C8005D8002840F0928026F008FBDCE0A0F171
S214014C902004412C00F28A8001A353F824F000BFBF
S214014CA0894C01004D4E0100894C01004D4E01001A
S214014CB06D4E01006D4E01006D4E01006D4E0100FE
S214014CC04D4E01004D4E0100274E0100E14D010001
S214014CD0A34E0100AD4E0100E14D01004D4E010015
S214014CE04D4E01004D4E0100AD4D0100AD4D010090
S214014CF0AD4D0100AD4D0100AD4D0100AD4D0100C2
S214014D00774E0100034E01004D4E01004D4E01004D
S214014D104D4E0100C14E0100B74E01004D4E01003F
S214014D20AD4D0100AD4D0100AD4D0100AD4D010091
S214014D30AD4D0100AD4D0100AD4D0100AD4D010081
S214014D40AD4D0100AD4D0100AD4D0100AD4D010071
S214014D50AD4D0100894C0100AD4D0100894C0100AB
S214014D60894C0100894C01006D4E0100AD4D0100DA
S214014D70AD4D0100AD4D0100AD4D0100AD4D010041
S214014D80AD4D0100AD4D0100AD4D0100AD4D010031
S214014D90AD4D0100AD4D0100AD4D0100AD4D010021
S214014DA0894C0100894C010080284BD0019804B041
S214014DB010BDB0F5A06F5ED028D8B0F5607F50D09A
S214014DC019D8B0F5007F4CD004D8B0F5C07F3FF4B9
S214014DD05BAFEBE7B0F5207F38D0B0F5407FE5D18B
S214014DE026F05CFA02464FF42070FFF7CBFEB2FBCA
S214014DF0F0F2520833E0B0F5806F37D0B0F5906F1F
S214014E00D4D1002101A8FFF7EFFCCFE7B0F5E06FA2
S214014E1051D00DD8B0F5C06F43D0B0F5D06F45D0A6
S214014E20B0F5B06FC2D1002101A8FFF71BFEBDE7A8
S214014E30B0F5F06F44D0B0F5086FB7D101A8FFF711
S214014E4007FDB3E726F00AFA0190AFE726F026FA47
S214014E5002464FF42070FFF795FEB2FBF0F2019286
S214014E60A4E726F0FBF902462046F4E7002101A854
S214014E70FFF712FD9AE7002101A8FFF765FE95E707
S214014E804FF0E02302911B695B0705D526F006FA71
S214014E900290029B019389E703A902A8FFF720FD70
S214014EA0F7E7002101A8FFF71BFD7FE7002101A816
S214014EB0FFF71EFE7AE7002101A8FFF7F5FD75E76B
S214014EC0002101A8FFF730FD70E700BF08B580207C
S214014ED0FFF7C8FE034B98429EBF4FF48032024B49
S214014EE01A6708BD005A620200A000501FB50346AB
S214014EF00020B3F5807F01906FD027D8382B00F0C3
S214014F0082800BD8243B092B0FD8092B0DD8DFE85C
S214014F1003F05F5F5F5F0C0C5A0C3675522B57D04F
S214014F2007D83D2B3AD03E2B72D0019805B05DF8DC
S214014F3004FB802BF9D1394B1B6F03F00703013BB0
S214014F40032BF2D8DFE803F03D36393BB3F5D06FDB
S214014F5054D019D8B3F5A06F55D00AD8B3F5806FE1
S214014F6036D0B3F5906FE0D1002001A9FFF73CFCE5
S214014F70DBE7B3F5B06F26D0B3F5C06FD5D100200F
S214014F8001A9FFF7ADFCD0E7B3F5006FECD00AD866
S214014F90B3F5E06F3CD0B3F5F06FC6D1002001A9A0
S214014FA0FFF7C2FCC1E7B3F5086FBED101A9FFF751
S214014FB04FFCBAE705230193B7E70323FBE7072373
S214014FC0F9E70223F7E7002001A9FFF74BFDACE75D
S214014FD0002001A9FFF760FCA7E74FF0E02302904D
S214014FE01B695B0705D526F059F90C230393039B30
S214014FF0E1E703A902A8FFF773FCF8E7002001A97F
S214015000FFF776FD91E7002001A9FFF79DFD8CE7EC
S214015010002001A9FFF748FD87E700BF0080005088
S2140150204FF48032074B0849586E03F580535A6691
S2140150300B6A23F001030B62C3035CBF034B5A6682
S214015040704700BF0080005000C0075000A000500D
S21401505008B5FFF74BFF082811D00938012802D9F7
S2140150604FF6FF7008BD4FF40012064B5A6603F563
S214015070D8335B6ADB07F3D54FF4FA70F2E7024BDD
S2140150801888EFE7009000509C29002008B5FFF72C
S2140150902DFF03280ABF024B4FF6FF70188808BD84
S2140150A09A290020F8B504468020FFF71FFF032841
S2140150B000F087804FF40022424B02215A6645F6E3
S2140150C00E03414AC2F88030404B9962012103F534
S2140150D080539962936DD903FCD4D4E900131B0560
S2140150E043EA0163E17B94F820500B43217BE77E82
S2140150F043EA0143617B6D0143EA0133A17B43EA45
S214015100811313619169D4E904031B0643EA8063A2
S21401511001F000410B43A17E94F823000B43217E4E
S21401512043EA0143617E43EA01239361136AE66918
S21401513023F00D0394F8221043EA8703002E2DD1A5
S2140151401362966A94F8213045EA031326F0330574
S2140151502B4343F0010393621D4D1B4B9A6D35EAB9
S2140151600202FBD10222194DAA621A659A6D5200FB
S214015170FCD41A69A56822F4700242EA05521A6143
S2140151804FF00042114B9A6119B9022203F5805380
S2140151909A6278B901220F4B9A620BE0334343F0CF
S2140151A008031362936A23F0330303432B4343EA52
S2140151B04103936294F824301BB1034B064AC3F8AB
S2140151C08020F8BD0090005000C0005000D0005074
S2140151D00300014000E00050F1A7FFFF014B93F9E7
S2140151E00000704774240020F0B5D0E901434FF465
S2140151F080061A4A4178057856664FF4D15602273A
S21401520002F5B8325662164E4F2977604FF0010705
S21401521028BF4F2106F5805677601669F603FCD441
S21401522041EA052151611B01417B43EA04230B43FB
S214015230017B43EA41039360C37B817B1B0143EA05
S2140152404113417C0B43017C43EA41035360837C59
S21401525013B16FF4D1535362F0BD00BF00900050FC
S21401526000100250014B1880704700BF9C29002097
S214015270014B1880704700BF9A2900204FF4001296
S21401528008B5184B5A660223174A5360936813F4FD
S2140152908033FBD1012822D126F01AF8134B98420D
S2140152A015D003F5122303F5F863984213D0104B7B
S2140152B000EB8002400AB3FBF0F3520A0A49CA62C5
S2140152C00B6301234B620022074B5A6008BD45F66B
S2140152D07A13084AF2E745F61A03074AEEE75362DD
S2140152E0F1E700BF009000500040025000F0490274
S2140152F064666666D8B80500BBCF0500B0F5207FAA
S21401530010B50C4642D008D8B0F5007F33D003D88C
S21401531088B1B0F5C07F0ED010BDB0F5607FFBD16F
S2140153201F4A4C1ED2F8803023F0300343EA0413A0
S214015330C2F88030F0E71BF0BFFC1BF0CBFC4FF44B
S2140153408031184B164A1967136F013C23F47043DA
S21401535043EA0433136725F0A1FF0446FFF738FA42
S214015360C0F1020120461BF0AFFC00F035F8BDE8A5
S2140153701040FFF7ABBD0A4A4C1ED2F8903023F01E
S214015380F85343EA0463C2F89030C5E7044A4C1E5A
S214015390136F23F4806343EA84231367BCE700BFDB
S2140153A0008000500090005008B50121022000F056
S2140153B085F94FF42070FFF7E5FB054B18701BF0DD
S2140153C07BFC1BF087FC4FF48032024B1A6708BD4A
S2140153D0732400200090005008B54FF4C070FFF70A
S2140153E041FCBDE808400449884294BF01210221DE
S2140153F04FF42070FFF782BF80F0FA0238B50446FA
S21401540025F04CFF0546FFF7E3F9C0F102012846F7
S2140154101BF05AFC0121002000F090F92CB1FFF797
S214015420DBFFBDE83840FFF751BD034B4FF420705A
S2140154301978FFF763FFF4E7732400204FF4C022C6
S21401544070B50546FFF794FA314B04465A6603F5E4
S21401545098335A68012A04D12E494A609A699207FC
S214015460FCD18020FFF742FD052807D11BF024FC64
S2140154701BF030FC4FF48032254B1A67264B24F084
S21401548040749D4230D0254B9D4230D025F0E0FE41
S2140154908542064603D90121284600F04FF9204BE4
S2140154A0DA6812F0060FFBD199689C609A68624030
S2140154B012F4F81F1ED12846FDF78CFC8020FFF75A
S2140154C015FD05280DD125F0E9FE0446FFF780F904
S2140154D0C0F1020120461BF0F7FBFFF77DFFFFF747
S2140154E0F5FCAE420CD270BD44F00074CEE744F039
S2140154F08074CBE780209960FFF7F8FC052805D07B
S214015500BDE870400121002000F018B93546DAE701
S2140155100090005000E0015040420F0080841E00C1
S2140155200000015010B5224B70B94FF40031214AEA
S2140155301860516602F598325268012A03D11E4A54
S214015540D2F800211A6010BD1B68002BFBD01B4A45
S2140155505268012AF7D0184A8020C2F80031FFF7B6
S214015560C5FC05281FD14FF4C070FFF70BFB0128BF
S214015570044604D102214FF4C070FFF7BFFE072294
S2140155800F4B1A610122A3F580535A600B4A136927
S214015590DB07FCD5012CD6D12146BDE810404FF4DF
S2140155A0C070FFF7ABBE0122064B5A60CBE700BFC7
S2140155B06C160020009000500080005000C0015082
S2140155C000E0015000D00150044A4178536F23F4A3
S2140155D0407343EA01235367704700BF0040005001
S2140155E010B5044610B10020FFF79CFF124A13695C
S2140155F043F00403136126F0ADF91BF070FB0F4B6B
S2140156005B6E5B0142BF0E4B0E4AC3F8202426F0A8
S21401561029FD26F071FE26F020FD1BF061FB02F04D
S2140156202DFB1CB9BDE8104025F038BE0120BDE8B1
S2140156301040FFF777BF00BF00ED00E0008000508C
S21401564000E003500000FF0F10B5044610B1002023
S214015650FFF768FF104A136943F0040313610F4B09
S2140156605B6E5B0142BF0E4B0E4AC3F8202426F048
S21401567071F926F0F7FC26F03FFE26F0EEFC02F06C
S214015680FDFA1CB9BDE8104025F008BE0120BDE8B2
S2140156901040FFF747BF00BF00ED00E0008000505C
S2140156A000E003500000FF0F034A0179D36E23F098
S2140156B030030B43D366704700400050F8B50446EC
S2140156C01C4BD3F88420D106FBD4D3F88430C3F323
S2140156D081139C422CD025F0C1FD012C064602D137
S2140156E021461BF0F1FA26F0BDFC4FF00072124B7A
S2140156F007465A6620461BF0FAFA4FF480630D4DB2
S214015700621E93402B676B6E9A0103D4D5F88430E2
S2140157109B060AD5384626F0A0FC022C08D1304656
S214015720BDE8F84000211BF0CFBAD5F88430EAE78F
S214015730F8BD00BF004000500060005010B50C4698
S21401574008B925F08BFD074B21461B783BB1064B6C
S214015750984204D80120BDE81040FFF7AFBF0220F1
S214015760F9E700BF75240020005A62020278034B55
S214015770012100201A70FFF7E1BF00BF7524002049
S2140157804FF0004238B5264B26495A6601224A6038
S2140157904AF6CD3103F50B235D6C1964154030BB19
S2140157A09968C9070BD4002401221F4B5A6015B112
S2140157B01E4B1F4A1A6423F029F8204638BD1A49A1
S2140157C08A601C4AD96ACC0705D4904201D10724C5
S2140157D0EAE70130F6E79042E5D1F8E70132DC6A04
S2140157E014F0080406D08A42F8D10724DFE7002225
S2140157F01049F4E78A42F8D020220B4B0B495A6233
S2140158000122A3F580539A6023460A4A486A800615
S21401581003D49342E9D00133F8E79342C7D1E4E7D2
S2140158200090005000500950006009500040095097
S2140158303254FFFF40420F004FF0004238B5174B7D
S214015840174C5A66012203F50C235A604AF6CD33EB
S214015850656C2364437893401343124AD363C37839
S2140158608178A2689B0043EA011322F07402134375
S214015870A3600279837943EA022323614279C379DB
S21401588043EA022363610078FFF77AFFEB0744BF20
S214015890054B236422F0BAFF012038BD009000506A
S2140158A000400950004000503254FFFF4FF40032D0
S2140158B0054B9A6641F6713203F51C33DA63012211
S2140158C003F50053DA6070470090005041F67132DC
S2140158D00121064BDA6303F50052D1600022DA6338
S2140158E04FF40032A3F518339A6670470000035050
S2140158F0CB784A7810B55B010C7843EA82030A79C3
S214015900234343EA02130C22424302F1B0421363DB
S214015910012C02BF8A78024B43F8202010BD00BF3D
S214015920E880035008B54FF0B0435A686AB958B1D9
S2140159305B680BB11BF0DCF901210D4B59601BF0C4
S214015940D7F94FF0B043D96008BD5B680BB11BF0C7
S214015950CFF90028F0D11BF0CBF94FF0B04302226B
S214015960DA601BF0C5F90122024B5A60ECE700BF72
S21401597000100058002000584FF0B0414B6810B599
S2140159800BB11BF0B5F901220B4BC4785A60837832
S214015990934043EA840344782343047943EA041397
S2140159A0447943EAC4038B60044B5A600378C3F11D
S2140159B00203CB6010BD00BF002000580010005845
S2140159C04FF48032064B5A6603F5E6235B69C3F350
S2140159D08512827003F03F021B0B42700370704702
S2140159E000900050014B986CD96C70470080E00F16
S2140159F0024B1868C0F30740704700BF0080E00FF5
S214015A000120034B9B680A3303F01F03984070473D
S214015A100080E00F012200F580535A6040F6AA6329
S214015A2041F20502436100230B498360C365C260EE
S214015A3000F500520361C361C3649164074983653D
S214015A40884203D103650023436502E00449884286
S214015A50F8D0012353607047FFFF010000C00550D6
S214015A600000065038B50D46FFF7D4FF012200F5B9
S214015A7080535A602B8A826843F001031343AA7B42
S214015A80044643EA8223836083682A7D43EA42739D
S214015A908360AB7C5BB11D4AEB7C90422DD1A2F5B5
S214015AA01032C2F88C31E36D43F08003E3652B7B43
S214015AB02046D5E9011243F48053E3601BF020F938
S214015AC06B7B0BB1102363616B7D1BB1A36843F441
S214015AD08033A360AB7D1BB1A36843F40043A3608E
S214015AE0EB7D2A7E1B07120503F0E04302F4E00279
S214015AF01343A3652B78636138BD054A904204BF02
S214015B00A2F52032C2F89C31CDE700BF00C0055097
S214015B1000000650034BD3F82424D3F82004104089
S214015B20704700BF00C003502DE9F8431E4B0546E1
S214015B30D3F810334B1E0E2B0E46174690F80090E6
S214015B4044781DD909B34FF000082846D7B126F08E
S214015B5098FA09EB4903072C4FF00F014FEA03139C
S214015B6015D8A400114808FA04F2A14018441BF005
S214015B70E1F8BEB928468FB1BDE8F84326F081BAF0
S214015B808846E2E71BF0E5F8E3E78846E1E7083CEC
S214015B90A400074808FA04F2A140E7E7BDE8F84385
S214015BA01BF0D7B8BDE8F88300C0035004C003500B
S214015BB00CC003504FF48032084B5A6603F5E623B7
S214015BC05B691A0B027003F03F0242704FF6FF72D8
S214015BD0C3F3851342808380704700BF0090005056
S214015BE0014B03205B6870470080E00F014B986C07
S214015BF0D96C70470080E00F70B5044622F031FE84
S214015C00064630B90FCC044D0FC594E8030085E86D
S214015C100300304670BD00BF7016002047F6FF73C4
S214015C209A42F0B56FD002296FD8394B5B5C012BD5
S214015C306BD8384DDF0005EBC30415F83330A17877
S214015C40012B13D10025E078401AA84202D8084457
S214015C50C0B2F0BD431B6668A0EB530336F9136070
S214015C609642D4BF1D4603F1FF30EEE76068002878
S214015C70EFD0B0F90040944204DBB0F90240944200
S214015C80B8BF144683883D44FF2B19BFC8224FF086
S214015C90280CB0F90620B0F908C0A2EB04030CBF2B
S214015CA00126002693FBFCF333446E781BB29E421A
S214015CB001DD002B01DA731E1BB24FF47A7C01332F
S214015CC09BB2071D5D1E2DB24FEAC50E00EBC50542
S214015CD0EA88AD689E4214FB025222EAE27202F1A1
S214015CE05C02B2FBFCF204DD37F833500133954217
S214015CF0E8D200EB0E039888904228BF10468842EF
S214015D0038BF0846A4E7FF20A3E70020A1E700BFAD
S214015D1047C60300701600200229F0B555D82C4B53
S214015D20585C012851D82B4C04EBC00114F8300004
S214015D304B6801280FD1C8788C78904294BFC4EB89
S214015D400001C4EB0201001BCAB28242C8BF002296
S214015D5033F91200F0BD002B37D08878904202D379
S214015D60B3F90200F6E7CC78B3F900009442F1D912
S214015D704C789988013CA1F1FF06714203F10405B4
S214015D80E4B2714103F10C07CEB2B44216D805EB6A
S214015D90C1014FF47A756A43B1F902404968521A53
S214015DA004EBD47102EB610292FBF4F29042D1DB78
S214015DB0B3F902009042CDDC10B2CBE737F831C020
S214015DC04E1C9445E3D33146DEE70348C2E700BFE5
S214015DD047C60300701600200080FFFF08B5044880
S214015DE0FFF70AFFBDE80840012022F03EBD00BFD4
S214015DF04CC60300004870479E2900207FB502224A
S214015E00084B0949CDE901234FF00073CDE903138F
S214015E10052301A94FF0FF30059322F06FFD07B06F
S214015E205DF804FB006A18000002040006289ABF09
S214015E30014B185C00207047D0C6030030B5154BE7
S214015E4087B00293144B0390049346F611030D4654
S214015E50059300F077F91428044616D168461BF01E
S214015E601CF84FF0A843032202A95A6319601D616A
S214015E709A63DA6B9207FCD1142C02D168461BF0A8
S214015E801AF800F093F9044601E00028E9D020460C
S214015E9007B030BD88160020040000202DE9F04F21
S214015EA0B1B005468C469E46E8466F4EDDF8EC904E
S214015EB0409C06F1100A474630687168083603C7E9
S214015EC05645B846F7D13E9B03EB0208C8F1000AD7
S214015ED00AF00F0AB9F1000F00F09D80C9F1000722
S214015EE007F00F070121DDF8FCB044F00050C4F1C3
S214015EF01006CDF810B005910690300200F4F85067
S214015F0040F021000790B9F1000F40F08680CDF8EF
S214015F1020D047F00050002D00F084800991212107
S214015F200A9041EA07210B9142F00050CDF830C0AB
S214015F303D9B08A94FEA0A2C0D910E904CF04100AA
S214015F400F901093002A75D13E9B119143F0005398
S214015F5012933C9B1390149310AB1593434B444AF6
S214015F60169340F611031793424B0021002D08BFEC
S214015F701346189314AB19933F4B10221A9311230F
S214015F801B931CAB184623F01FFA01221D92002218
S214015F9046F0804603461E96239205B9EB46102C22
S214015FA0CDF880B024AE4BD10123224600213046E5
S214015FB02193229423F008FA20AB002125938F42E7
S214015FC018BF334647F0804226923A9A2CA8289268
S214015FD02993B2FA82F35B0949EA837310222B9163
S214015FE02A9323F0F1F9B9F1000F00D028AED0447E
S214015FF048F080432CA918A82D962E93FFF71EFF74
S21401600030B92DB90346A34225D1002818BF2C204C
S21401601031B0BDE8F08F102764E7CDF820E049F0F5
S214016020005078E7002C3FF479AF04A909910121CB
S2140160300A9076E73E9B0CAA11924120129388E7BC
S2140160401022002130462193229423F0BDF9002C22
S214016050B2D10123B1E703F1C0026A4412F8C02CA1
S21401606001331043CFE700BFD7C60300100000205E
S214016070ECC60300F0C6030004000020F0B5C029FA
S2140160809FB0DDE9244557D0B1F5807F04D0802943
S21401609048D029201FB0F0BD01265CB140F234473C
S2140160A002941024039604942124019705940695DE
S2140160B002AC0AE040F214470294102403960494BA
S2140160C0212405940124019706950794012510249F
S2140160D0089409950A9221220B950C940D92174A61
S2140160E00AAD0E92164A0F95109242F611021192BF
S2140160F0129313951494159201AA1692D3B112AB6A
S2140161001793042318931123199316AB1A901B9314
S21401611040F61103C9081C911AA806A91D93FFF79A
S2140161208DFEB7E7012614B94FF48267C4E74FF432
S2140161308667B5E70EABE3E70F20ABE7E8C60300DB
S2140161401000001038B5164B5A6E42F004025A661B
S214016150D3F8802242F00102C3F88022114B5B681B
S214016160C3F3080343B14FF0A842D36B13F0430FB8
S214016170FBD11424204638BD4FF0A843DC6B14F045
S2140161804304FBD1084D2B681BB9042128461CF09B
S21401619065F82B68013343F000432B60EAE700BF44
S2140161A00080005000ED00E088160020014B002022
S2140161B05B68704700ED00E04FF40052034B00208F
S2140161C09A660322C3F86022704700BF0090005011
S2140161D04FF40052034B00209A660322C3F8602254
S2140161E0704700BF00A00050012300F01F02A0F579
S2140161F006200949A0F550604009934051F8202037
S2140162001A4341F82020054951F8202022EA0302CA
S21401621041F82020704700BFA01600208C160020F1
S2140162200121A0F506230E4AA3F550635B0900F091
S2140162301F00814052F82300014342F82310094908
S214016240D1E90030034488680344C86809690344F7
S2140162505B1802BFC2E90033C2E90233136170471B
S2140162608C160020A01600202DE9F04FA9B003924D
S2140162701D4604460822339ECDE90401414021FA19
S21401628002F34B40980702F1080218BF9B00202A30
S2140162901C44F4D18123B4FBF3F303EBC313E41AD8
S2140162A0734B04F506241B7804F55064002B3ED18D
S2140162B0FEF798F9074620B16FF0910029B0BDE8C6
S2140162C0F08F0146402208A823F07EF84022394686
S2140162D018A823F079F8DFF8B081DFF8B091C3464B
S2140162E00BF10F0ACDF800A0102208A95B46D9F8D9
S2140162F000001AF0E9FA0022014608F1100808AF7A
S214016300914246D1CDF800A05B461022D9F8000094
S21401631018A91AF0E2FA4FF0000A834618AFD345DF
S21401632041D1544B9845DAD10122514B1A704FF0A6
S214016330810A4FF00008DFF858B1A4F50627A7F543
S21401634050635B095BF8232004F01F01CA40D207A3
S2140163503DD4494A52F82330CB40DB072AD5B8F161
S214016360000F08BFA0468123A7F6FF47B7FBF3F34C
S21401637003EBC313FF1A07F50624BAF1010A04F565
S2140163805064DAD1039BBBB1B8F1000F14D0444678
S21401639019E057F8040BCDE90612FFF725FF079A17
S2140163A006990132ACE757F8040BFFF739FF0AF1FB
S2140163B0010AB4E7039B13B96FF08B007EE7B8F1CF
S2140163C0000F18BF4446349B00201C6076E7329BC2
S2140163D013B10023329A13600EB1002333601023E9
S2140163E0DFF8A89000932A4600232146D9F800003A
S2140163F0FDF7D2FF60BB32992A68204BC9B99A4291
S21401640006D02146D9F80000FEF748F80028D3D177
S214016410D5E90223DDE90410834208BF8A42A2D1EE
S214016420039B002BCFD06B68012BCCD16FF084007F
S21401643044E7102032999A420860E2D1002EE7D054
S21401644033462146D9F8000018AAFDF7EBFF40B104
S2140164500B4B9842D5D06328D3D00A4B9842D7D05D
S2140164602AE7329A336812689B1A3360D0E700BF76
S21401647076240020007108008C160020105D175E3F
S214016480FFDF00F0FEDF00F0006D0800A02700200F
S214016490A01600202DE9F04F87B08246894698461F
S2140164A01646DDF840B02AB1002B4FD040F26C738F
S2140164B09A424ED8BBF1010F4ED8002406F11007C0
S2140164C03946012005941AF02CFE0546002846D0D0
S2140164D021463A4622F078FF05ABCDE90143009408
S2140164E02B46012250464946FFF7BEFE044680B1C0
S2140164F010F18C0F08BF6FF08D043A460021284634
S21401650022F062FF28461AF0EEFD204607B0BDE8ED
S214016510F08F144BC5E902A92B60C5F804B02EB163
S2140165203246414605F1100022F059FF059E0E48FD
S2140165303B462A4631460068FDF7AAFE18B93046A2
S214016540FFF752FED9E76FF09104D6E76FF08604A5
S214016550DBE76FF09104D8E76FF08504D5E76FF0BD
S2140165608C04D2E7105D175EA02700202DE9F043CA
S2140165708DB08146DDE914780E4615461C469BB162
S214016580B8F1000F05D16FF0860630460DB0BDE8B4
S214016590F083002FF7D0B7F1005FF4D3C3F10053B7
S2140165A003F500439F42EED81022002108A822F0EE
S2140165B00BFF002207AB029305AB019306AB3146F6
S2140165C00093484608ABCDE90522FFF74DFE064687
S2140165D00028DAD1059BA4B1AB4215D853EA0504CD
S2140165E0D1D1069B0B48C8F8004000943A4607995B
S2140165F000682B44FDF7D0FE002818BF6FF0910607
S214016600C3E7AB42EDD2BEE75B1B9C4228BF1C46EC
S214016610E7E700BFA027002030B58DB00C46054641
S2140166201022002108A822F0CFFE002207AB029319
S21401663005AB019306AB21460093284608ABCDE98E
S2140166400522FFF711FE0446D8B9099B012B1BD082
S214016650079D104B29461868FDF720FFB8B901229F
S214016660A5F506230C49A3F550635B0905F01F0049
S214016670824051F823004240284641F82320FFF784
S214016680CFFD20460DB030BD6FF08404F9E76FF002
S2140166909104F6E7A0270020A01600202DE9F04F70
S2140166A089B007460E4601F071FCC00709D40424E0
S2140166B001201BF061F980B3013CF9D16FF0920023
S2140166C028E0102200210DEB020022F07DFE04A836
S2140166D001F0BEFC049B002BE9D0059B002BE6D005
S2140166E0069B002BE3D0079B002BE0D00025DFF8AC
S2140166F0808008F10409B54219D34FF48A7401F079
S2140167003FFC00F00E03062B2DD1C30501D501F089
S21401671069FC002009B0BDE8F08F01F031FC10F0F3
S2140167200E03FAD0022BF8D04105DFD5C4E701F0FD
S21401673021FCA6EB050A8400544528BF544699E877
S214016740030000238DE80300CDE9054307EB050BA5
S214016750CDF810B0029404AAD8F8003007CA1BF08E
S21401676004F82544C7E724FA03F3DA07A6D5C6E7F3
S214016770FCC603002DE9F0438BB01746DDE915454D
S214016780DDE913269C46DDE91738894621B96FF005
S21401679086000BB0BDE8F083002FF8D00EB9002CB0
S2140167A0F5D1129909B9002AF1D10DB9002BEED114
S2140167B0B8F1000FEBD0244A944541D10288B2F5D6
S2140167C0105F3DD14288B7EBD20FE0D322F04001F3
S2140167D0802902D0B2F5807FD9D16CB3AE421CD2EB
S2140167E03219954219D29C42D1D8314622462846C2
S2140167F022F0D0FD2E4614F00F03C8D1CDE9019743
S214016800CDE90336CDE90543CDE907540993FFF7F2
S214016810D3FC38B16FF09200BBE79C42EBD96FF026
S2140168208900B6E707AA04A901A801F0D5FC054628
S214016830FFF7CEFC0543EDD10020C8F80040A8E7DD
S2140168406FF08500A5E700BF004440042DE9F04F36
S214016850A9B0834617469A460E46DDF8C890DDF87D
S214016860D88029B96FF08603184629B0BDE8F08FA5
S214016870002AF7D0B9F1000FF4D0349B002BF1D0E9
S214016880B8F1000FEED00024424B0CAD93E80700A0
S21401689085E807003C22214619A8189422F094FDA9
S2140168A03388728803F4E040B0F5804FDAD03A4E70
S2140168B03A480BEA060646F01066864263D1B2F500
S2140168C0807F60D147F2121293425CD10620344A8F
S2140168D0BAF11F0FD3680E940B931369126800FB6D
S2140168E003F3CDE90C23BDD9339B402BBAD9359B95
S2140168F01F2B4BD909F1010220261292402299F84A
S21401690000300F97042B18AFCDE91324CDE915728B
S214016910109611941794A5D1FFF74EFC0346002854
S214016920A2D10B9B15AACDE9086305AB07CA83E87C
S214016930070002AB12AA07CA83E80700DDE91001C7
S2140169408DE803000F9B95E8070001F01FFD054643
S214016950FFF73EFC55EA000384D13D46349A20AE4B
S2140169602C4603CCB44210605160254602F1080261
S214016970F6D100221146B9540132402AFBD1202219
S214016980C8F8002070E76FF085036DE76FF08903A4
S2140169906AE700BF2CC803000000FFF600000209EA
S2140169A040C80300F0B50E461D468BB0002853D0F4
S2140169B0002951D0002A4FD0002B4DD0048804F472
S2140169C04F43B3F5824F03D06FF085000BB0F0BD97
S2140169D0E3B224F0FF04B4F5E24FB0F802C0F3D1FD
S2140169E0122B01D0172BEFD10CF10701B2EBD10F0F
S2140169F04FEAD10733D31D4A04ACBCF5807F07CAE2
S214016A0084E80700E0D1122B07D1194B1A691B68DD
S214016A101344CDE90432002306930023CDE907672A
S214016A200993FFF7C9FB0028D0D1124A02AB92E8BE
S214016A30030083E803000AAB13E903008DE80300B3
S214016A40079B94E807001AF015FE0446FFF7C0FB03
S214016A50204307D12F60B9E76FF08600B6E76FF0E5
S214016A608900B3E76FF09200B0E700BF2CC80300BF
S214016A7040C80300F4C603002DE9F0438FB01D465D
S214016A80DDE916C600285CD000295AD0002A58D065
S214016A90002B56D0BCF1000F53D0002E51D00388E6
S214016AA003F44F44B4F5824F51D1DCB223F0FF0317
S214016AB0B3F5824F40884AD0122C01D0172C46D10C
S214016AC0C31DB2EBD30F4FEAD3083AD34FEA4802BD
S214016AD0571C674538D8B0F5807F38D1122C18BFBF
S214016AE04FF000094FF0000308BF1C4CCDE9081811
S214016AF005F1010114BF4C46D4F80C90CDE90B12F8
S214016B000A930D93FFF758FBC0B9CDE9058902AB8F
S214016B1008AA07CA83E807000EAB13E903008DE84D
S214016B2003000B9B94E807001AF0C3FD0446FFF729
S214016B304FFB20430ED104232B7037600FB0BDE806
S214016B40F0836FF08600F9E76FF08900F6E76FF0E3
S214016B508500F3E76FF09200F0E700BF40C803003E
S214016B602DE9F04389B00E4615461F46DDF84880EC
S214016B7020B96FF0860009B0BDE8F0830029F8D08F
S214016B80002AF6D0B8F1000FF3D0038803F44F4281
S214016B90B2F5824F02D06FF08500ECE7DAB2122A26
S214016BA001D0172AF7D123F0FF03B3F5E24F41D105
S214016BB04488C8F8004044B9EB00B3F5807FC8F8B4
S214016BC00030E8D1122A0DD108E0E31DB5EBD30F52
S214016BD0CFD1B4F5807FDED1122A29D1354B1C687E
S214016BE01B691C440023194670192C4414F801CD66
S214016BF010F8012D1143B2EB0C020CBF4FF0FF3C15
S214016C004FF0000C86420CEA030343EA0203EDD17F
S214016C100029AED0002BACDA109B9D4246D82A46FE
S214016C203146384622F0DBFB119B00201D60A2E7AF
S214016C300024D7E73378042B9BD16B1EDB005B085F
S214016C40B3F5807FC8F80030A5D1122A06F10103FA
S214016C5018BF4FF000094FF0400205934FF00003B4
S214016C600ABF144C4C46D4F80C90CDE90623FFF726
S214016C70A3FA00287FF47FAFCDF80C90D8F8003047
S214016C800733DB08029308AB13E903008DE8030022
S214016C90059B94E807001AF0B9FD0446FFF798FA39
S214016CA000287FF468AF002CB6D062E76FF0890049
S214016CB061E700BF40C803000388B3F5105F0ED13B
S214016CC04388DB08103B102B0CD8084A22FA03F342
S214016CD013F0010F14BF00206FF0860070476FF0AD
S214016CE0850070476FF08600704700BF0101010004
S214016CF02DE9F04F8FB01546DDE918A91E46DDF8DF
S214016D0068801C9F09B300B3B8F1000F1DD0E7B12E
S214016D10BAF1000F02D1B9F1000F16D1274B26F4B4
S214016D207E129A42B0F802B044D1FFF7C5FF04467E
S214016D30A8BBB5EBDB0F4FEADB0306D316F47C1FCB
S214016D40C6F3054504D0102D03D96FF0860426E05E
S214016D5010251B9A95422AD8CDE90113002310224B
S214016D60CDE905930DF12809CDE9033ACDE90823CC
S214016D70CDF81C90FFF720FA044680B907AA04A9AB
S214016D8001A801F03DFA0646FFF722FA044656B975
S214016D9058B92A464946404622F021FB3D60204626
S214016DA00FB0BDE8F08F6FF092040025F6E76FF0A4
S214016DB08904F4E76FF08504F1E700BF0002C00321
S214016DC02DE9F041069F0C461646054610B309B359
S214016DD002B9FBB96288B3EBD20F4FEAD20819D3D6
S214016DE04C220021284622F0EFFA0D4B27F47E12A2
S214016DF09A4212D12046FFF75FFF044638B9424651
S214016E003146281D22F0EBFAC5F824802F60204673
S214016E10BDE8F0816FF08604F9E76FF08504F6E7C8
S214016E200002C0032DE9F0410E461446054600282F
S214016E3040D000293ED092B10368214823F47E1346
S214016E4083423AD1AF6BF7B1C7F1100807F12800BA
S214016E504245284406D2274422F0C1FAAF630020F7
S214016E60BDE8F081424622F0BAFA1022103C3C19E5
S214016E70AA63F4D0284605F128011AF077F800280D
S214016E80EED14644A863102C0CD9671E27F00F07D5
S214016E903A46314628461AF069F80028E0D1E41B44
S214016EA0DDD03E442246314605F1280022F097FA0D
S214016EB0AC63D4E76FF08600D2E76FF08800CFE7C7
S214016EC00002C0032DE9F04388461F4605468BB0F5
S214016ED070B169B163B10368234923F47E10884217
S214016EE03ED113F47C1FC3F3054604D0102E03D9FC
S214016EF06FF086042AE0102696422BD8FFF75CF93D
S214016F00044618BBAB6B05F12802CDE901236B6A79
S214016F102A1DCDE904231023CDE9083007AB1A4614
S214016F200390069005F13C0901A904A8CDF81C9030
S214016F3001F08AF90546FFF74BF904466DB928B901
S214016F4032464946404622F04AFA3E6020460BB099
S214016F50BDE8F0836FF08904F8E76FF09204F5E777
S214016F606FF08504F2E700BF0002C00370B5044667
S214016F700D4625F080F81C2C064608D80C2C0AD89D
S214016F80082C2CD013D8BB23E340DB0718D40023EE
S214016F9021242B801EE00123174AA340134224D14B
S214016FA0122C26D00D2CF2D14FF4F06005E0092CFE
S214016FB018D00C2CEBD14FF4C060FEF749F802E074
S214016FC08020FEF763F84FF6FF7398420CBF0E243D
S214016FD000242880304625F049F8204670BD4FF43D
S214016FE08060EEE74FF49060EBE700230F242B80E0
S214016FF0F0E74FF4E060E0E700805110B8B10368B5
S21401700013F4E07F03F03F00C3F382120AD0012A93
S2140170100DD1084B41B103F58053012282401A601D
S21401702000207047044BF5E703F50053F5E70E2003
S214017030704700BF688000506480005030B58BB048
S2140170406C466C4D0FCD0FC42B686B4A2360FF2333
S2140170508DF80130D2F84C3113F4802340F0BE8015
S214017060D2F850218DF801309DF801306C46FF2B87
S21401707008BF25236846614D8DF80130FEF7B4F848
S2140170803220FEF7EFF80FCD0FC40FCD0FC495E8F1
S214017090030084E80300584BD3F84C21110340F158
S2140170A08880A3F5FE431C88B4F5807F28BF78242A
S2140170B08DF81940FEF792F8044484F3080450480A
S2140170C08DF81840FBF78CFE6846FDF7EBFF322083
S2140170D0FEF7CEF84B48FEF7B1F94B4C01213520AF
S2140170E0FDF7A0FD0020FEF7C9F8FEF75DF9236F56
S2140170F0002023F0070343F003032367FEF77EF91E
S214017100236F23F474432367404BD3F8FC20D2014A
S21401711053D4D4F88030C4F880303B4BD3F82021C8
S21401712022F0030242F00202C3F82021D3F8242100
S21401713022F0070242F00202C3F82421D3F880218C
S21401714022F0030242F00102C3F88021D3F8402165
S21401715022F0030242F00202C3F84021D3F8602174
S21401716022F0030242F00202C3F86021D3F8402263
S21401717022F0030242F00202C3F84022D3F80022B2
S21401718022F0070242F00202C3F80022D3F82022BE
S21401719022F0030242F00102C3F82022FDF740FF6D
S2140171A04FF0E0220020136943F0040313610BB093
S2140171B030BDD3F85041E4B27AE7D3F8FC2022F090
S2140171C08072C3F8FC20D4F88020C4F88020D3F85D
S2140171D0FC2042F08072C3F8FC209EE74FF07E63ED
S2140171E093F89C2093F99C30002BFFF63DAF8DF869
S2140171F0012039E708C703000080E00F1CC7030021
S21401720000F0490200B4C4040080005000ED00E024
S21401721007B56B46054A1068516803C36846FEF712
S2140172200BFB002003B05DF804FB00BF44C703005E
S2140172300028ACBF00F16040064B4FEA0111C9B20D
S214017240ABBF00F5614000F00F0080F80013195441
S214017250704700BF14ED00E008B524F00CFF0A4BA0
S2140172601A786AB901221A7024F000FF6FF004023E
S214017270104605210132FFF7DBFF402AF8D108BD91
S214017280BDE8084024F0F2BE77240020002807DB82
S21401729001234109034A00F01F00834042F82130D0
S2140172A0704700BF00E100E0054B421153F8223061
S2140172B000F01F0023FA00F0C04300F00100704701
S2140172C000E100E0002808DB01224309034900F041
S2140172D01F008240603341F82320704700E100E040
S2140172E073B50024684600F0C1F90C4B00981C6089
S2140172F00B4B0C4D1C600C4E0C4B306018602C6018
S21401730019F01FFF2046019B3268013BDB085380C2
S2140173102B6801332B6002B070BD00BFB816002089
S214017320B4160020BC160020C4160020C01600208B
S2140173302DE9F04F0E460027984689B0054606A867
S2140173401446059700F092F9731C14BFB3464FF02C
S214017350080BB8F1000F00F0BC80C8F80070002DD3
S21401736000F0B980079BAB4240F2B58024F083FE63
S214017370073505AB25F007053146009381463B46A8
S2140173802246284600F07CF9059E074606B130B92C
S214017390484624F06BFE192009B0BDE8F08FDFF8EF
S2140173A04CA17388DAF80010DA00C0EBC303013988
S2140173B0272BCAF8001074D9002C50D1854205F14C
S2140173C0080347D059463046029319F046FE044654
S2140173D0029B0590059A02EB030B584619F0B1FE85
S2140173E0059905F10F034A88C3F3CF03D21AABF808
S2140173F00220CA88ABF8043072B3D31A9BB201EBF1
S214017400C202ABF8063093808B88ED08A380BBF8E8
S21401741004300022314658466580E38000F0A8F922
S214017420237843F001032370DAF800300133CAF8F9
S21401743000302C4A4846136808343B4413602A4AF5
S21401744011688B4288BF136024F010FE0020C8F834
S2140174500040A1E73446BDE7ABF80620D4E7F418B0
S21401746020460293039219F06CFE029BF91DC9088F
S21401747005986180D91DC908A180C18879B1C90064
S214017480039ACD1DAA1A3A44C2F3CF020144E28000
S2140174908A80013BDB084380A388C380C0E7E18084
S2140174A0F7E7012C19D106F10803B3FBFBF20BFB3E
S2140174B01233A3B15946304619F0CFFD044623785E
S2140174C0012243F0010331462046237000F050F9B3
S2140174D0AFE7222060E721205EE78542EAD1344605
S2140174E0EDE700BFB8160020B4160020BC16002039
S2140174F02DE9F3470446684600F0B8F8002C00F082
S214017500AB8024F0B8FD14F8086CF30704D534F802
S21401751006ECBEF1000F05D124F0A8FD012002B053
S214017520BDE8F0874D494E4D0A68D5F80080A2EBBC
S214017530CE020A6034F8041C0EF1010308F10102C0
S214017540A4F1080C9BB22A60B9B3ACEBC10292F865
S21401755000A0B2F806901AF0010F578806F002064E
S2140175601FD1FEB9A9EB0701012926D80EF10203A6
S2140175701F44BBB2C5F8008034F8026CFEB9013B6B
S2140175809BB214F8081C6FF3000104F8081C0021D4
S21401759024F8061C53801378D18061F3000313701E
S2140175A031E056B119448BB214F8081C6FF341014F
S2140175B004F8081C00219180DEE76246DCE70CEB4C
S2140175C0C608DDE900710F44B845D8D21CF83670FC
S2140175D0414617F001072AD0013B9BB214F8085C1C
S2140175E06FF3000504F8085C002524F8065C538058
S2140175F0137865F300031370C2F107030B44C3F35A
S214017600CF03D3808B8017490B681BB1934201D8F7
S2140176105B8803B90A6014490B681BB1934201D316
S2140176205B8803B90A6024F021FD002077E7A6EB0A
S2140176300E06012ED0D8B8F80260A8F802703344BE
S214017640B8F806702E689BB2013E1FB108EBC70161
S2140176502E60C3E72E6094E7222060E7B81600206C
S214017660BC160020C4160020C01600200249034A9A
S2140176700160521A42607047D8290020008000201D
S214017680F0B506460020059F4C1C08BF082138604F
S214017690BAB91F480568002D38D0B5F802E0DB00FE
S2140176A003EBCE0EC1F1000C2878C0070BD52ABB20
S2140176B0E888B0B105EBC005B5F802E003EBCE0EE5
S2140176C0F2E71448E6E7B645F1D35AB905F10804DE
S2140176D0B4FBF1F001FB1044A0190CB17045E7D8DA
S2140176E03D60F0BD08290FD06C88013405EBC40459
S2140176F0A01B00EA0C00201A8645F1D2A8880028B3
S214017700EFD0A5EBC005D7E73046E9E72846E8E71E
S214017710C4160020C0160020134B13B51B68044680
S2140177200846FBB121B96846FFF7A0FF6CB900987F
S2140177300378D90707D55CB9C3889BB100EBC300B2
S2140177400378DA07F8D402B010BD084B1868EFE7E3
S214017750012C07D183882BB1A0EBC3000378DB078C
S214017760F8D4F0E70020EEE7BC160020C016002093
S214017770F8B5154F05460C463B68144EB2B1994212
S21401778009D041B13368994204D129460120FFF757
S214017790C3FF3060F8BD29460020FFF7BDFF336800
S2140177A03860A342F1D0002CEFD0F3E7994205D11F
S2140177B03D603368A34204D13560EBE79842F7D3C6
S2140177C0F7E7AB42F8D3E5E7C4160020C016002061
S2140177D0BFF35F8F074B5A6A22F480325A62D3F89E
S2140177E0942022F00102C3F89420BFF34F8FBFF319
S2140177F06F8F704700ED00E038B5FFF7E9FF274AC5
S2140178002748D2F8C030274D23F0FF0343F0A003EA
S214017810C2F8C030244B04689D4204F101011DD119
S214017820224BC2F89840C2F89C3003F5FF437E33E2
S214017830C2F8A0300160BFF35F8F0522174BC3F873
S21401784094205A6A42F480325A62BFF34F8FBFF3D4
S2140178506F8FBFF34F8FBFF36F8F38BD23F01F03BA
S214017860203BB3F1005F09D3C2F898400F4C43F0B8
S2140178700103C2F89C40C2F8A03001600C4B0168BD
S214017880064A23F01F0343F00303C2F89810C2F818
S2140178909C30084B0131C2F8A030CBE700ED00E088
S2140178A0C816002060270020802500200300002045
S2140178B07F270020E17F00202DE9F0410D4611468B
S2140178C0DFF8E080D8F80040B4F5807F34BF0027A9
